:100000000C940B1D0C9400000C9400000C94000048
:100010000C9400000C9400000C9400000C94000060
:100020000C9400000C9400000C9400000C94000050
:100030000C9400000C9400000C9400000C94000040
:100040000C9400000C9400000C9400000C94000030
:100050000C9400000C9400000C9400000C94000020
:100060000C9400000C9400000C9400000C94000010
:100070000C9400000C9400000C9400000C94000000
:100080000C9400000C9400000C9400000C940000F0
:100090000C9400000C9400000C9400000C940000E0
:1000A0000C9400000C9400000C9400000C940000D0
:1000B0000C9400000C9400000C9400000C940000C0
:1000C0000C9400000C9400000C9400000C940000B0
:1000D0000C9400000C9400000C9400000C940000A0
:1000E0000C940000000000000C9400000C94000030
:1000F0000C94000000000000000000000000000060
:100100000C9400000C9400000C9400000C9400006F
:100110000C9400000C9400000C9400000C9400005F
:100120000C9400000C9400000C94000000000000EF
:10013000000000000C9400000C9400000C940000DF
:100140000C9400000C9400000C9400000C9400002F
:100150000C9400000C9400000C9400000C9400001F
:100160000C9400000C9400000C9400000C9400000F
:100170000C9400000C94000000000000000000003F
:10018000000000000000000000000000000000006F
:10019000000000000000000000000000000000005F
:1001A0000C9400000C94000000000000000000000F
:1001B0000C9400000C9400000C9400000C940000BF
:1001C0000C9400000C9400000000000000000000EF
:1001D0000000000000000000000000000C9400007F
:1001E0000C9400000C9400000000000000000000CF
:0C01F000000000000C9400000C940000C3
:103A1600BFEFBDBFBFE5BEBF0E947D1D2F923F9287
:103A26004F925F926F927F92B2E0B0935000B09146
:103A36005100B1FD01C0FBCFB8EDB4BFB1E0B0930A
:103A46004000B0914006B068B0934006B091400681
:103A5600B062B0934006B0914006BF7BB09340067B
:103A6600B0912006BF7BB0932006B0912406BF7BA1
:103A7600B0932406B0914006B160B0934006B09171
:103A86004006B260B09340064424B1E03B2EB0E15C
:103A96002B2E93DEBFEF4B2EBFEF5B2EB1E32B2E0B
:103AA600B8E13B2E7CDEB1E3B093A020B8E1B09341
:103AB600A120B1E06B2EB9E34B2EB0E25B2EB7E24C
:103AC6002B2EB0E23B2ED3DEBDE26B2EB0E27B2E78
:103AD600B1E34B2EB0E25B2EB5E32B2EB0E23B2ECC
:103AE6008FDE65DFFECF7F906F905F904F903F90A7
:043AF6002F90FFCF3F
:1037C000B1E3B093A020B8E1B093A120BFEFB093D4
:1037D0006020BFEFB0936120B0EBB0934106B0E43E
:1037E000B0934206B0E0B093C108032D03700429E2
:1037F000022900640093C00832FAB091C008B7F9FA
:06380000B093C00808951A
:1037A4002092A0203092A12040926020509261206B
:0237B400089576
:103874002F923F924F925F927F92B0914406B16033
:10388400B0934406B0914006B160B0934006B09145
:103894004406B260B0934406B0914006B260B0935F
:1038A4004006B0914406B260B0934406BEDBB091CA
:1038B4004406B160B0934406B8DBB0914406BE7FC1
:1038C400B0934406B2DBB0914406B160B0934406B1
:1038D400ACDBB0914406BD7FB09344066F925F9217
:1038E4004F923F922F92BFEF2B2EE091A020F091A8
:1038F400A12009952F903F904F905F906F90B091C9
:103904004406B260B093440690DB6F925F924F928C
:10391400B6E06B2EB0E07B2E2101BEEC2B2EB0E284
:103924003B2EA7DB4F905F90B4E06B2EB0E07B2E74
:10393400B8E52B2EB0E23B2E9CDBB1E03B2EBFE181
:103944002B2EDDDEB2E03B2EBFE12B2ED8DE33245E
:103954004424B8E02B2EF0DEBDEA3B2EB9E14B2E19
:10396400BAE02B2EE9DEBDEA3B2EB9E14B2EBCE0DA
:103974002B2EE2DE332444242224DEDEBEEA3B2E58
:10398400B9E14B2EB4E02B2ED7DEB1E03B2EBFE1E4
:103994002B2EB5DEB2E03B2EBFE12B2E93DE6F90D3
:1039A400262CD2DD7F905F904F903F902F9008950A
:0039B40013
:10302E00CF93DF93CDB7DEB72197CDBFDEBF21960D
:10303E00B0E0B8830881083C40F40E94A80F0E94BB
:10304E00A80F08810F5F0883F5CFCDBFDEBFDF91DC
:04305E00CF91089571
:101F500015E101EB0A95F1F71A95E1F70000000091
:021F60000895E2
:103062002092C308B091C208B7FD01C0FBCF009106
:04307200C3080895F2
:102FBE002092C309B091C209B7FD01C0FBCF0091A9
:042FCE00C309089596
:10307600A201B10193018301015010403801B22F22
:10308600B32B69F0FA010081FB0100838B010F5F0E
:103096001F4FB8018A010F5F1F4FA801EBCF8101B7
:0230A60008958B
:103702002F92B0914406BD7FB0934406022D006A09
:103712003F92202EE091A020F091A12009953F90A8
:10372200232CE091A020F091A1200995B0914406AC
:0A373200B260B09344062F90089592
:10373C00CF93DF93CDB7DEB72297CDBFDEBF2196F7
:10374C002F9238824982B0914406BD7FB0934406D3
:10375C00022D0064202EE091A020F091A12009956B
:10376C002880E091A020F091A12009958E01F8010C
:10377C0031960081202EE091A020F091A120099596
:10378C00B0914406B260B09344062F902196CDBF01
:08379C00DEBFDF91CF9108951B
:1036C8002F92B0914406BD7FB0934406022D006846
:1036D8003F92202EE091A020F091A12009953F90E3
:1036E800232CE091A020F091A1200995B0914406E7
:0A36F800B260B09344062F900895CD
:10354C00CF93DF93CDB7DEB72297CDBFDEBF2196E9
:10355C002F923F924F925F926F92222011F00DE0CA
:10356C0001C005E02F92302E222413DA2F90222056
:10357C0011F001E301C000E32F92302EB2E02B2EAC
:10358C0008DABEEE3B2EB5E04B2EBAE02B2ED0D097
:10359C002F90222011F005E101C002E12F92302E74
:1035AC00B4E02B2EF6D9B2E13B2EB6E02B2EF1D99E
:1035BC002F90222039F42F92BCE03B2EB7E02B2E1B
:1035CC00E8D92F90222039F42F92BFE33B2EB9E09B
:1035DC002B2EDFD92F902F92B1E03B2EBFE12B2E5B
:1035EC006DD0B2E03B2EBFE12B2E68D03090CE20B8
:1035FC00B4E02B2ECED93090CF20B5E02B2EC9D9EC
:10360C003090D020B2E02B2EC4D93090D120B3E032
:10361C002B2EBFD93090D2202224BBD93090D3206E
:10362C00B1E02B2EB6D93324B5E12B2EB2D9B2E1B1
:10363C002B2E5DD9009397209E012F5F3F4F8E015B
:10364C00522E632E302E412E2224E4DA2F90088144
:10365C000E7F222011F011E001C010E0012B4980F7
:10366C00302E2224B4DA4424B1E03B2EB0E12B2ED0
:10367C00AEDAB4E03B2EBFE12B2E20D0D2DCBDE283
:10368C005B2EB0E06B2E4424B2E62B2EB0E23B2E28
:10369C0089DAB1E03B2EBFE12B2E2DD0B2E03B2ED0
:1036AC00BFE12B2E28D06F905F904F903F902F90C2
:0C36BC002196CDBFDEBFDF91CF910895B5
:10299E002F92B0914406BD7FB0934406022D006481
:1029AE003F92202EE091A020F091A12009953F901A
:1029BE00232CE091A020F091A1200995B09144061E
:0A29CE00B260B09344062F90089504
:1028FA002F92B0914406BD7FB0934406E091A02088
:10290A00F091A12009952224E091A020F091A12024
:10291A000995B0914406B260B09344062F90089589
:00292A00AD
:102C20002F926F925F924F923F922F92B1E03B2E84
:102C3000BFE12B2E66D5B2E03B2EBFE12B2E44D553
:102C40002F90322CB4E12B2EAADEB1E03B2EB2E164
:102C50002B2E3AD53F904F905F906F90E8D16F92B6
:102C60005F924F923F92B1E03B2EB2E12B2E49D5BD
:102C7000B6E12B2E42DE3F904F905F906F90E52D96
:102C8000F62D00834F923F92B7E12B2E36DE3F9018
:0C2C90004F90E32DF42D00832F90089549
:102BDA002F924F923F922F92B1E03B2EBFE12B2EC4
:102BEA008BD5B2E03B2EBFE12B2E69D52F90322C2C
:102BFA00B4E12B2ECFDE3F904F9014D23F92342C6B
:102C0A00B6E12B2EC7DE3F900DD2B7E12B2EC2DEE6
:062C1A0009D22F9008957D
:102BB000A101252D362D052D162D01501040502E2A
:102BC000612EB22FB32B39F0FA0140828A010F5FD8
:0A2BD0001F4FA801EECF8101089508
:103806002F923F924F925F926F927F927F926F922A
:103816005F924F92B4E06B2EB0E07B2E2101B3E9AC
:103826002B2EB0E23B2E24DC4F905F90B4E06B2E43
:10383600B0E07B2EBFE82B2EB0E23B2E19DC6F905A
:103846007F902301B4E06B2EB0E07B2EBCE92B2EDB
:10385600B0E23B2E0DDCB8E92B2EB0E23B2EB6DBF8
:0E3866007F906F905F904F903F902F9008954D
:102FD2004F925F926F927F92B4E06B2EB0E07B2EA5
:102FE200B8E54B2EB0E25B2E45D050E003E005176A
:102FF200C0F0352F40E0320D431DE32FF42F208126
:1030020003E910E2E52FF0E0E00FF11F0081BFEFCE
:103012000B27022BE32FF42F0083052F0F5F502F76
:0C302200E5CF7F906F905F904F90089575
:1039B400CF93DF93CDB7DEB72197CDBFDEBF21967E
:1039C4002F923F92B0E0B883B1E03B2EBFE12B2EA3
:1039D40079DEB2E03B2EBFE12B2E91DEB9E12B2E36
:1039E4000E947D1410E0101710F45CDB0883B1E032
:1039F4003B2EBFE12B2E83DEB2E03B2EBFE12B2E0C
:103A04007EDE08813F902F90CDBFDEBFDF91CF9146
:023A1400089513
:1030A800CF93DF93CDB7DEB72D97CDBFDEBF219687
:1030B8002F923F924F925F926F927F928F92B0E0E1
:1030C800B887B0914B20B160B0934B20B0914B20A2
:1030D800BD7FB0934B20B1E03B2EBFE12B2E0DD32B
:1030E800B2E03B2EBFE12B2E08D330901620409043
:1030F800172022241FD3B0914406BD7FB093440605
:10310800BAE32B2EE091A020F091A120099522246A
:10311800E091A020F091A120099500931620222487
:10312800E091A020F091A120099500931720222476
:10313800E091A020F091A120099500934920222434
:10314800E091A020F091A120099500934A208E01DA
:103158000A5F1F4F0B871C872224E091A020F09163
:10316800A12009951B852C85E12FF22F00838E0164
:103178000A5F1F4F0F5F1F4F0B871C872224E091A8
:10318800A020F091A12009951B852C85E12FF22F15
:103198000083B0914406B260B09344060091492080
:1031A80010914A20045010400093492010934A205F
:1031B80020911620309117200DEA19E10217130704
:1031C800D8F00091162000FD17C08E010A5F1F4F2E
:1031D800F8013196008107FD0FC0209149203091F8
:1031E8004A200EEE15E00217130730F0FE0136965E
:1031F800008107FF01C002C001E097C18E010C5F8A
:103208001F4F0B871C87222474DB1B852C85E12F1D
:10321800F22F00838E010C5F1F4F0F5F1F4F0B872C
:103228001C87B1E02B2E65DB1B852C85E12FF22F47
:1032380000832C813D810091492010914A20020F82
:10324800131FB1E08B2EBFEA6B2EB9E17B2E28014C
:103258002C803D80C8DB8E010A5F1F4F0F5F1F4F18
:103268000B871C87BBEB2B2EB9E13B2E0E9458091C
:103278001B852C85E12FF22F00838E010A5F1F4FDB
:103288000B871C8777DC1B852C85E12FF22F0083A9
:103298000E811F81183009F4063079F4B7E06B2EDF
:1032A800BDE04B2EB0E25B2EBDEB2B2EB9E13B2EE1
:1032B8001CDD003009F48BDD14C10E811F8118302C
:1032C80009F4003009F00BC1B4E06B2EB8E94B2EBD
:1032D800B0E25B2EBDEC2B2EB9E13B2E06DD0023C0
:1032E80029F4B0914B20B260B0934B20B4E06B2E20
:1032F800B2E04B2EB0E25B2EBDEC2B2EB9E13B2E9B
:10330800F4DC002329F4B0914B20B260B0934B2039
:10331800B4E06B2EB8E54B2EB0E25B2EBDEC2B2E45
:10332800B9E13B2EE2DC002339F0B0914B20B1FD2E
:1033380003C0B2E0B887D2C0BDEB2B2EB9E13B2E5B
:103348000E945809007F003419F0B3E0B887C6C05E
:10335800BDEB2B2EB9E13B2E0E9458090A83B0E041
:10336800BB830A811B810F701070000F111F000FA3
:10337800111F0A831B83B3EC2B2EB9E13B2E0E944D
:1033880058090F7B003009F0A9C0B4EC2B2EB9E125
:103398003B2E0E945809003009F0A0C00A811B8109
:1033A8000354164E08831983B6EC2B2EB9E13B2E35
:1033B8000E945809102F013009F066C02880398012
:1033C8000E945809083009F05EC0088119810F5F12
:1033D8001F4F18010E945809003009F054C04424B6
:1033E800288039800E947A0E0E942D0953DC5524CA
:1033F8004424B7EC2B2EB9E13B2EEADA4A805B80F5
:10340800BDEB2B2EB9E13B2E8CDAB6E12B2E71DA0F
:103418000B87B7E12B2E6DDA1B85512E402EB7ECAA
:103428002B2EB9E13B2ED4DA088119810E5F1F4F8C
:10343800552444241801CCDA0A801B8000914920C5
:1034480010914A20001911090E50104028012880B7
:10345800398067DAB6E12B2E4CDA0B87B7E12B2ED1
:1034680048DA18812981312F422F3E5F4F4F1B8543
:10347800512E402E232E342EABDA20904920309046
:103488004A200E948F0A2AC0113139F45880698075
:103498004A802C803D8033D921C01630F9F40C8144
:1034A8001D81005F1F4F18010E945809102F002727
:1034B8000B871C875FDB2B853C8510E0020F131FF1
:1034C800025F1F4F0093492010934A20688079803B
:1034D8004A805B802C803D800E94B10F02C0B4E01E
:1034E800B887B0E43B2EBEE12B2EEAD020911620FF
:1034F80030911720215030400DEA19E102171307C7
:1035080040F4BDEA3B2EB9E14B2EBCE02B2E12D184
:103518000BC0009116201091172001501040302E3A
:10352800412EBCE02B2E06D108858F907F906F909E
:103538005F904F903F902F902C96CDBFDEBFDF91CC
:04354800CF91089582
:1029EE00CF93DF93CDB7DEB72597CDBFDEBF219650
:1029FE00B0E0BC838201015010402801882069F0AC
:102A0E000DEA19E10415150540F40C810F5F0C83D6
:102A1E0082010D5A19410A831B830C81002321F078
:102A2E002DEA39E1890102C0920189012016310691
:102A3E0001F58F927F926F925F924F923F922F92FB
:102A4E000E9458092F903F904F905F906F907F900B
:102A5E007F926F925F924F923F922F92402E130170
:102A6E0042D92F903F904F905F906F907F908F90B4
:102A7E005FC08F927F926F925F924F923F922F9292
:102A8E00432C322CB0E12B2E52D62F903F904F90EC
:102A9E005F906F907F908F900C81002329F0BDEA9C
:102AAE00B883B9E1B98302C0488259828F927F926E
:102ABE006F925F924F923F922F9238804980B2E18F
:102ACE002B2E35D62F903F904F905F906F907F902A
:102ADE007F926F925F924F923F922F92362C472C9D
:102AEE00B4E12B2E24D6B0E13B2EBFE12B2E02D625
:102AFE00B0E23B2EBFE12B2EE0D52F903F904F90B2
:102B0E005F906F907F908F908F927F926F925F9277
:102B1E004F923F922F92BFE12B2EE8DE2F903F90E7
:102B2E004F905F906F907F908F9005FF01C0ECCF1C
:102B3E000C810023B1F08201021913090A801B8057
:102B4E00001911090F5F1F4F060D171D38010A815D
:102B5E001B8101501040280122243324B0E0BC8395
:0E2B6E005CCF2496CDBFDEBFDF91CF910895DE
:101CF4002F923F924F92432C322CB2E02B2E0E9413
:101D04009E1BB0914406BD7FB0934406BAE72B2EC8
:101D1400E091A020F091A12009954F90242CE0910E
:101D2400A020F091A1200995B0914406B260B0932F
:081D340044063F902F90089532
:1012B0002F923F924F92432C322C22240E949E1B4D
:1012C000B0914406BD7FB0934406BAE32B2EE09163
:1012D000A020F091A12009952224E091A020F09176
:1012E000A1200995B0914406B260B09344064F9096
:0612F0003F902F900895CD
:102B7C002F92B0914406BD7FB0934406BAE32B2E3E
:102B8C00E091A020F091A12009952224E091A020B1
:102B9C00F091A1200995B0914406B260B09344061F
:042BAC002F900895C9
:102CF200CF93DF93CDB7DEB72497CDBFDEBF21964A
:102D02002F923F924F925F928E010A831B836F92A2
:102D12005F924F923F922F922224EEDD1A812B81F5
:102D2200E12FF22F00838E010F5F1F4F0A831B8357
:102D3200B1E02B2EE1DD2F903F901A812B81E12F04
:102D4200F22F0083432C322C2224F7D4B091440674
:102D5200BD7FB0934406BAE32B2EE091A020F09100
:102D6200A12009954F905F906F906620E9F06F92D5
:102D72005F924F923F922F922224E091A020F091F5
:102D8200A12009952F903F904F905F906F90F20194
:102D92001081011709F008C082010F5F1F4F28013F
:102DA200062D0150602EE1CFB0914406B260B0937F
:102DB20044066F92388049802224BFD46F90062D3A
:102DC2005F904F903F902F902396CDBFDEBFDF9153
:042DD200CF91089500
:102DD600CF93DF93CDB7DEB72197CDBFDEBF219668
:102DE6002F923F924F925F926F927F928F92B4ECA6
:102DF6002B2EB9E13B2E0E9458090883CAC0B4E0C5
:102E06006B2EB8E54B2EB0E25B2EB5ED2B2EB9E15D
:102E16003B2E6CDF003009F048C0B2E04B2EB4EC1C
:102E26002B2EB9E13B2E0E947A0E0E942D09882492
:102E3600B5ED6B2EB9E17B2EBFEC4B2EB9E15B2EC7
:102E4600BBEC2B2EB9E13B2ECFDDB4E06B2EB0E010
:102E56007B2EB8E54B2EB0E25B2EBBEC2B2EB9E1F8
:102E66003B2E0E9433058824BFEC6B2EB9E17B2EE6
:102E7600BBEC4B2EB9E15B2EB5EC2B2EB9E13B2E0C
:102E8600B3DDB6E06B2EB0E07B2EBEEC4B2EB0E28F
:102E96005B2EB5EC2B2EB9E13B2E0E943305BCE32D
:102EA6002B2EB0E03B2E0E948F0A7AC0B6E06B2E26
:102EB600BEEC4B2EB0E25B2EBFEA2B2EB9E13B2EC9
:102EC60015DF003009F064C0B4E06B2E40905C2042
:102ED60050905D20BBEC2B2EB9E13B2E07DF003076
:102EE60009F056C00FE010E04091152050E00E9416
:102EF6006E0A22E630E2020F131F075F1F4FB6E08D
:102F06006B2EB0E07B2EB5EC4B2EB9E15B2E180193
:102F16000E94A40B0FE010E04091152050E00E94A3
:102F26006E0A22E630E2020F131F0B5F1F4FB4E05A
:102F36006B2EB0E07B2E40905C2050905D201801F7
:102F460097D00FE010E04091152050E00E946E0AE5
:102F560022E630E2F801E20FF31FB1E0B0830FE0A2
:102F660010E04091152050E00E946E0A22E630E201
:102F7600020F131FF80131960091082010910920C5
:102F860020910A2030910B200193119321933193C4
:102F960007C00881013009F432CF023009F486CF28
:102FA6008F907F906F905F904F903F902F90CDBF06
:082FB600DEBFDF91CF91089509
:10125A002F923F924F925F926F927F928F92882441
:10126A00BFEA6B2EB9E17B2EBBEB4B2EB9E15B2EAD
:10127A00B5EB2B2EB9E13B2E0E94F714B6E06B2E8C
:10128A00B0E07B2EBEEC4B2EB0E25B2EB5EB2B2EE4
:10129A00B9E13B2EE3DB8F907F906F905F904F9088
:0612AA003F902F90089513
:100A66002F923F927F926F925F924F92432C322C3D
:100A7600B2E02B2E0E949E1BB0914406BD7FB09320
:100A86004406BAE72B2EE091A020F091A12009950B
:100A96004F905F906F907F90B62DB729E9F0F201E5
:100AA60000817F926F925F924F923F922F92202EFB
:100AB600E091A020F091A12009952F903F904F90B2
:100AC6005F906F907F9082010F5F1F4F2801830117
:100AD600015010403801E0CFB0914406B260B093A7
:080AE60044063F902F90089593
:10151E00CF93DF93CDB7DEB72497CDBFDEBF219635
:10152E004F923F922F924424BEEA2B2EB9E13B2ECE
:10153E00DAD32F903F9081010255164E18013F923B
:10154E002F92302E412EB6E02B2E0E949E1BB0E81D
:10155E003B2EBFE12B2E0E94641BB0E83B2EBFE159
:10156E002B2E0E94811B2F903F90009197200530CB
:10157E0029F000919720073009F00AC03F922F9270
:10158E00BAE03B2EBCE12B2E0E94811B2F903F9088
:10159E003F922F92B8E03B2EBFE12B2E0E94641B90
:1015AE002F903F9000919720053029F000919720C1
:1015BE00073009F0A1C0B0E0BA83BB833F922F92EF
:1015CE00BCE12B2E0E947D142F903F900A700023B9
:1015DE0059F40A811B810F5F1F4F0A831B8313303F
:1015EE0009F4083E08F4EACF3F922F92BCE12B2E6D
:1015FE000E947D142F903F9001FD07C00A811B8130
:10160E00133009F4083E08F476C03F922F92B8E0EA
:10161E003B2EBFE12B2E0E94811B2F903F9081010C
:10162E000C5F1F4F3F922F9218013BDE2F903F9081
:10163E000983B0E0B8830881003108F05CC03F92A6
:10164E002F92BCE12B2E0E947D142F903F9001FF14
:10165E004DC0B981B5FF4AC03F922F92B0E83B2EE4
:10166E00BFE12B2E0E94641BB0E83B2EBFE12B2E58
:10167E000E94811BBAE03B2EBCE12B2E0E94811BE7
:10168E00B8E03B2EBFE12B2E0E94641B2F903F90A3
:10169E00B0E0BA83BB833F922F92BCE12B2E0E9407
:1016AE007D142F903F900A70002359F40A811B81FC
:1016BE000F5F1F4F0A831B83133009F4083E08F493
:1016CE00EACF3F922F92B8E03B2EBFE12B2E0E9425
:1016DE00811B2F903F9081010C5F1F4F3F922F92E5
:1016EE001801DFDD2F903F90098301C004C00881EF
:1016FE000F5F0883A0CF0BC03F922F92BFE12B2E1E
:10170E000E947D142F903F9003FF01C0F5CF3F92B2
:10171E002F92BDE12B2E0E947D142F903F900670CC
:10172E00002311F010E001C011E0012F4F9023961D
:0A173E00CDBFDEBFDF91CF9108950B
:101748004F925F92BFEF5B1611F4BFEF4B1669F033
:101758007F926F923F922F92342C452C22240E9424
:101768009E1B2F903F906F907F90B0914406BD7F55
:10177800B09344067F926F923F922F92BAE32B2E3A
:10178800E091A020F091A12009952F903F906F90B3
:101798007F9093018301015010403801B22FB32B81
:1017A800C9F07F926F925F924F923F922F922224BC
:1017B800E091A020F091A12009952F903F904F90A3
:1017C8005F906F907F90F101008381010F5F1F4F41
:1017D8001801DFCFB0914406B260B09344065F9021
:0417E8004F90089581
:1014DC009801249F8001259F100D349F100D0895B5
:0014EC0000
:102C9C002F923F924F925F926F927F928F928824E5
:102CAC00BDEC6B2EB9E17B2EBDEC4B2EB9E15B2E4E
:102CBC00B9EC2B2EB9E13B2E94DEB4E06B2EB0E0D8
:102CCC007B2EB8E54B2EB0E25B2EB9EC2B2EB9E186
:102CDC003B2E0E9433058F907F906F905F904F90AA
:062CEC003F902F900895B7
:1029D8002F923F925F928AD95F90252C0E94760AA7
:0629E8003F902F900895BE
:1014EC00B0914406BD7FB09344062F92BAE72B2EE1
:1014FC00E091A020F091A12009952F90E091A020DF
:10150C00F091A1200995B0914406B260B0934406C5
:02151C00089530
:10292A00CF93DF93CDB7DEB72297CDBFDEBF219617
:10293A002F923F924F925F928201020D131D015016
:10294A00104008831983432C322CB0E12B2EF1D688
:10295A0038804980B2E12B2EECD6B0E33B2EBFE1A2
:10296A002B2EADD65F924F923F922F92BFE12B2E24
:10297A00BFDF2F903F904F905F9005FF01C0F2CFCD
:10298A005F904F903F902F902196CDBFDEBFDF9191
:04299A00CF9108953C
:10270600CF93DF93CDB7DEB76297CDBFDEBF2196FD
:102716002F923F924F925F926F927F928F929F92EB
:102726008E01085F1F4F0F5F1F4F088B198B6F922B
:102736005F924F923F922F92252C362C0E94580979
:1027460018892989E12FF22F00838E01085F1F4F18
:10275600088B198B10D218892989E12FF22F008353
:102766008E010A5F1F4F0F5F1F4F088B198B03D215
:1027760018892989E12FF22F00838E010A5F1F4FE6
:10278600088B198BF8D12F903F904F905F906F90E8
:1027960018892989E12FF22F00830E811F811030BD
:1027A60009F4003009F498C08E01065F1F4F0F5FD1
:1027B6001F4F088B198B6F925F924F923F922F9209
:1027C600DAD118892989E12FF22F00838E01065F5D
:1027D6001F4F088B198BCFD118892989E12FF22F2A
:1027E60000838E01045F1F4FB4E06B2EB0E07B2E9A
:1027F600B9EC4B2EB9E15B2E18010E94A40B2F9069
:102806003F904F905F906F90052D162D085F1F4FDC
:102816004F923F922F92302E412EB2E02B2E8BD725
:102826002F903F904F908101025F1F4F040DB0E043
:102836001B1F085F1F4F18010E941809088519857C
:10284600103009F4053319F40E947B0945C00E8146
:102856001F81103009F4043411F46DDA3DC02A8565
:102866003B85285030408E01045F1F4F49016E8022
:102876007F80488459841801B0E2BF93BBE4BF93BC
:1028860083D9ADB7BEB71296ADBFBEBF0A871B8749
:10289600B02FB12B09F18E01B6E06B2EB0E07B2E86
:1028A600B5EB4B2EB9E15B2E18010E94A40B9E01DD
:1028B600245F3F4F8E01888499846E807F80290132
:1028C60018010A851B851F930F930E947203ADB7EB
:1028D600BEB71296ADBFBEBF9F908F907F906F9090
:1028E6005F904F903F902F906196CDBFDEBFDF91F6
:0428F600CF910895E1
:101230002F923F924F920DEA19E10215130520F407
:1012400081010E5A19411801432C322C22240E948C
:0A1250009E1B4F903F902F900895D1
:1012F600CF93DF93CDB7DEB72C97CDBFDEBF219658
:101306000E94BE150E94BE158E010F5F1F4F0A87F1
:101316001B870E94BE151A852B85E12FF22F0083AD
:101326008E010A871B870E94BE151A852B85E12F21
:10133600F22F00838E010E5F1F4F0F5F1F4F0A872C
:101346001B870E94BE151A852B85E12FF22F00837D
:101356008E010E5F1F4F0A871B870E94BE151A85D6
:101366002B85E12FF22F00838E010C5F1F4F0F5F3D
:101376001F4F0A871B870E94BE151A852B85E12FF2
:10138600F22F00838E010C5F1F4F0A871B870E9476
:10139600BE151A852B85E12FF22F00830E94BE15FC
:1013A6000E94BE150E94BE150E94BE152A813B8171
:1013B6000A811B81015010400A831B83B22FB32B75
:1013C60071F00E94BE15002309F0FBCF0E94BE15E6
:1013D6000E94BE150E94BE150E94BE15E7CF2C8145
:1013E6003D810C811D81015010400C831D83B22F5D
:1013F600B32B09F46AC00E94BE150E94BE158E0169
:10140600085F1F4F0F5F1F4F0A871B870E94BE157D
:101416001A852B85E12FF22F00838E01085F1F4F5F
:101426000A871B870E94BE151A852B85E12FF22F8E
:1014360000830E94BE150E94BE150E94BE150E9422
:10144600BE150E94BE150E94BE158E010A5F1F4F73
:101456000F5F1F4F0A871B870E94BE151A852B85B3
:10146600E12FF22F00838E010A5F1F4F0A871B8729
:101476000E94BE151A852B85E12FF22F0083088561
:101486001985103009F4013089F40E94BE150093C5
:10149600D8200E94BE150093D9200E94BE15009345
:1014A600DA200E94BE150093DB200FC02E813F81FB
:1014B6000E811F81015010400E831F83B22FB32B64
:1014C60019F00E94BE15F2CF8ACF2B96CDBFDEBF94
:0614D600DF91CF910895A3
:101D3C002F923F924F925F926F927F92E3C0B4E0EA
:101D4C005B2EB0E06B2E4424B8E52B2EB0E23B2E7C
:101D5C0029D73324B1E02B2E0E947705009108205F
:101D6C001091092020910A2030910B2000935420CF
:101D7C00109355202093562030935720B3E0B09306
:101D8C000120D9C00091542010915520209156204B
:101D9C0030915720A801B9014B5F5F4F6F4F7F4FB8
:101DAC00009108201091092020910A2030910B20DD
:101DBC00401751076207730718F4B2E0B093012083
:101DCC000E947F06023021F4B4E0B093012001C0E0
:101DDC00B2C030900020B3E02B2E0E94770500910A
:101DEC0008201091092020910A2030910B2000939B
:101DFC005420109355202093562030935720B5E053
:101E0C00B093012098C00E947F06102F063021F459
:101E1C00B4E0B093012035C0153099F5009108203D
:101E2C001091092020910A2030910B20009354200E
:101E3C00109355202093562030935720B6E0B09342
:101E4C000120B4E06B2EB0E07B2EB4ED4B2EB0E253
:101E5C005B2EB8E52B2EB0E23B2E0E943B18BDE367
:101E6C006B2EB0E27B2EB1E44B2EB0E25B2EB5E4D0
:101E7C002B2EB0E23B2E0E94031CB0E0B09300204E
:101E8C005AC059C0009154201091552020915620D1
:101E9C0030915720A801B9014F5F5F4F6F4F7F4FB3
:101EAC00009108201091092020910A2030910B20DC
:101EBC00041715072607370720F100914C201091C5
:101ECC004D2020914E2030914F2001501040204049
:101EDC00304000934C2010934D2020934E20309393
:101EEC004F20009108201091092020910A20309158
:101EFC000B200093542010935520209356203093A0
:101F0C00572019C000910120023009F418CF00911C
:101F1C000120033009F436CF00910120043009F47C
:101F2C0058CF00910120053009F46DCF00910120AC
:101F3C00063009F4A7CF7F906F905F904F903F9041
:041F4C002F90089535
:100AEE00CF93DF93CDB7DEB72397CDBFDEBF219671
:100AFE004F925F926F927F928F929F92B9EFB983CE
:100B0E00B0E0BA833F922F92B9ED3B2EB9E14B2E56
:100B1E00B2E02B2E0E949E1BBCE04B2EB0E05B2E53
:100B2E00BFE22B2EB6E03B2E29DF2F903F90B3E095
:100B3E002B1681F4332071F03F922F92B4E04B2E9E
:100B4E00B0E05B2EB4ED2B2EB0E23B2E4EDF2F909D
:100B5E003F900FC0B0E0B8830881043050F43F924C
:100B6E002F922224BCD42F903F9008810F5F0883D0
:100B7E00F3CFB0E0B88308810C3050F43F922F923F
:100B8E002224ADD42F903F9008810F5F0883F3CFBE
:100B9E003F922F92B6E04B2EB0E05B2EBEEC2B2E8A
:100BAE00B0E23B2E22DF2F903F90B0E0B883088159
:100BBE000A3C50F43F922F92222491D42F903F90D2
:100BCE0008810F5F0883F3CF3F922F92B6E04B2E32
:100BDE00B0E05B2EB5E62B2EB6E03B2ECFDE2F908F
:100BEE002F927DD42F903F90B3E02B16D9F4332063
:100BFE00C9F43F922F92B6E32B2E71D4B4E02B2E74
:100C0E006ED4B4E04B2EB0E05B2EB0E52B2EB0E2EE
:100C1E003B2EEBDE2F903F9009811A810A5F1F4F0A
:100C2E0009831A833F922F92B5E04B2EB0E05B2ED4
:100C3E00BBE62B2EB6E03B2EA1DE2F903F90B3E00D
:100C4E002B1649F5332039F53F922F92B2E32B2E16
:100C5E0046D4B4E02B2E43D42F903F90B0E0B8830F
:100C6E000881043090F414ED20E20881E02FF0E0CA
:100C7E00E10FF21F00813F922F92202E30D42F9041
:100C8E003F9008810F5F0883EBCF09811A810A5FBD
:100C9E001F4F09831A833F922F92BFEF2B2E1FD423
:100CAE00B3E48B2EB0E09B2EB4E46B2EB0E07B2E23
:100CBE00B2E04B2EB0E25B2EB2E02B2EB0E23B2E1A
:100CCE0009811A811F930F9306DDADB7BEB7129639
:100CDE00ADBFBEBF2F903F909F908F907F906F9033
:100CEE005F904F902296CDBFDEBFDF91CF910895DA
:000CFE00F6
:10098A00B0914406BD7FB09344065F924F923F9266
:10099A002F92BAE72B2EE091A020F091A120099581
:1009AA002F903F904F905F9092018201015010402A
:1009BA002801B22FB32BA9F0F10104915F924F9253
:1009CA003F922F92202EE091A020F091A12009952C
:1009DA002F903F904F905F9081010F5F1F4F18013A
:0E09EA00E3CFB0914406B260B0934406089586
:1009F800B0914406BD7FB09344065F924F923F92F8
:100A08002F92BAE72B2EE091A020F091A120099512
:100A18002F903F904F905F909201820101501040BB
:100A28002801B22FB32BA9F0F10100815F924F92F8
:100A38003F922F92202EE091A020F091A1200995BD
:100A48002F903F904F905F9081010F5F1F4F1801CB
:0E0A5800E3CFB0914406B260B0934406089517
:1006E400CF93DF93CDB7DEB72597CDBFDEBF21967D
:1006F4002F923F924F925F926F927F928F929F922E
:100704000A851B850A871B879F928F927F926F921F
:100714005F924F92B6E06B2EB0E07B2E2101BFEAD0
:100724002B2EB9E13B2E9DD1B6E04B2EB0E05B2ED3
:10073400BEEC2B2EB0E23B2E5DD1B0E02B2EB8E008
:100744003B2E97DF0A851B85045E1F4F09831A839E
:10075400B0E02B2EB5E43B2E8CDF29803A8089DF74
:1007640020905E2030905F2084DF00915E20109105
:100774005F200F5F1F4F00935E2010935F202224A1
:10078400332477DFB1E12B2EB0E83B2E72DF222435
:1007940033246FDFB4E04B2EB0E05B2EB8E52B2E94
:1007A400B0E23B2E27D14F905F901201B4E04B2E64
:1007B400B0E05B2E1FD16F907F900A851B85085F88
:1007C4001F4F09831A83130154DF8F909F901401E4
:1007D40050DF29803A804DDF222433244ADFB4E1FC
:1007E4004B2EB0E05B2EBDEB2B2EB9E13B2E0E94CD
:1007F4009514B6E12B2E0E947D140C83B7E12B2EA9
:100804000E947D141C81512E402EB7EC2B2EB9E191
:100814003B2E0E94EC140981017008830A851B8514
:100824000752164E442418010E947A0E0A851B852D
:1008340098012752364E088110E0020F131F8824B6
:100844003801B1ED4B2EB9E15B2EB9EC2B2EB9E199
:100854003B2E0E94F7140A851B8598012752364EB9
:10086400088110E0020F131F085F1F4FB1E15B2ED8
:10087400442418010E94EC148E010F5F1F4FF801ED
:1008840031960081202E30D629802ED609811A81F6
:100894009801245F3F4F088110E0020F131F2801C5
:1008A400B1ED2B2EB9E13B2E0E949514B6E12B2E0F
:1008B4000E947D140C83B7E12B2E0E947D141C81B1
:1008C400512E402EB7ED2B2EB9E13B2E0E94EC1495
:1008D4000A851B85065D1F4F18011FD69F908F90B8
:1008E4007F906F905F904F903F902F902496CDBF54
:0808F400DEBFDF91CF910895F2
:10067600CF93DF93CDB7DEB72297CDBFDEBF2196EE
:100686002F923F9228823982B0914406BD7FB09363
:100696004406BAE72B2EE091A020F091A1200995FF
:1006A6008E01F80131960081202EE091A020F09174
:1006B600A1200995FE010081202EE091A020F09155
:1006C600A1200995B0914406B260B09344063F90CC
:0E06D6002F902196CDBFDEBFDF91CF9108950A
:100CFE00CF93DF93CDB7DEB72697CDBFDEBF21965C
:100D0E002F923F924F925F926F927F92B0E0B88394
:100D1E00BCE3B0934C20B0E0B0934D20B0934E2086
:100D2E00B0934F200E94BE15023009F02BC120E077
:100D3E00122F1F3048F41F930E94BE151F91012FD2
:100D4E000F5F202F122FF5CFB4E06B2EB0E07B2E6D
:100D5E00BFEF4B2E5B2EB4ED2B2EB0E23B2EEDD41F
:100D6E0020E0122F183048F41F930E94BE151F91D9
:100D7E00012F0F5F202F122FF5CF40E0342F36308A
:100D8E0098F43F930E94BE153F911EEC20E2E32F94
:100D9E00F0E0E10FF21F1081011709F01AC1032FC5
:100DAE000F5F402F342FEBCF20E0122F1E3C48F464
:100DBE001F930E94BE151F91012F0F5F202F122F20
:100DCE00F5CFB0E0B9830E94BE15C2C00E94BE1519
:100DDE00013021F40E94BE15088301C0FAC0CEC0B6
:100DEE000E94BE15043069F4B4E06B2EB0E07B2E89
:100DFE00BFEF4B2E5B2EB5E42B2EB0E23B2E9DD4D7
:100E0E0001C0E7C0BBC00E94BE15102F043078F0A1
:100E1E001F93B4E06B2EB0E07B2EBFEF4B2E5B2EFC
:100E2E00B1E42B2EB0E23B2E88D41F9101C0D1C06D
:100E3E00012F0450202F122F022F0150202F11238B
:100E4E0029F02F930E94BE152F91F5CF97C00E94C7
:100E5E00BE15102F043078F01F93B4E06B2EB0E067
:100E6E007B2EBFEF4B2E5B2EBDE32B2EB0E23B2E27
:100E7E0064D41F9101C0ADC0012F0450202F122F3A
:100E8E00022F0150202F112329F02F930E94BE15FF
:100E9E002F91F5CF73C00E94BE15043069F48E01F8
:100EAE000E5F1F4FB4E06B2EB0E07B2EBFEF4B2ECC
:100EBE005B2E180142D401C08CC060C0B1E0B98372
:100ECE005DC00E94BE15043091F5B4E06B2EB0E00B
:100EDE007B2EBFEF4B2E5B2EBCE42B2EB0E23B2EB7
:100EEE002CD440914C2050914D2060914E20709109
:100EFE004F2008E017E020E030E004171507260722
:100F0E003707A0F400914C2010914D2020914E20D7
:100F1E0030914F20085017402040304000934C2015
:100F2E0010934D2020934E2030934F2001C051C07E
:100F3E0025C00E94BE15202F122F022F0150202FE8
:100F4E00112329F02F930E94BE152F91F5CF16C0B5
:100F5E00053309F43BCF013009F442CF033009F4D5
:100F6E0052CF063009F473CF063309F494CF0F3FF6
:100F7E0009F4A4CF033309F4A4CFDBCF09810023F6
:100F8E0009F421CF0881023079F48E010E5F1F4FD4
:100F9E00B4E06B2EB0E07B2E2801B0E52B2EB0E234
:100FAE003B2E0E943B1813C08E010E5F1F4FB4E004
:100FBE006B2EB0E07B2E2801B0E52B2EB0E23B2E3F
:100FCE00A2DC103009F4003011F0B0E0B8830881D3
:100FDE0001C000E07F906F905F904F903F902F90F8
:0C0FEE002596CDBFDEBFDF91CF910895A6
:1009140093018301015010403801303009F4203034
:10092400D9F0F1011081F2010081101761F0F10199
:100934001081F2010081002EB0E01B2E012F10E087
:10094400001911090BC081010F5F1F4F18018201AB
:0E0954000F5F1F4F2801DCCF00E010E0089578
:101B8E00CF93DF93CDB7DEB72297CDBFDEBF2196C1
:101B9E002F923F924F925F920F811885F101008133
:101BAE005F924F923F922F92B2EA3B2EB0E24B2EB3
:101BBE00202EAADA2F903F90BEE2B093A520F1011D
:101BCE00319600813F922F92B6EA3B2EB0E24B2E19
:101BDE00202E9ADA2F903F90BEE2B093A920F10109
:101BEE00329600813F922F92BAEA3B2EB0E24B2EF4
:101BFE00202E8ADA2F903F90BEE2B093AD20F101F5
:101C0E0033960081BEEA3B2EB0E24B2E202E7CDABC
:101C1E004F905F90BAE3B093B1201201B2EB4B2E0E
:101C2E00B0E25B2EB0DABBE5B093B720B8EB4B2E2B
:101C3E00B0E25B2E1301A7DABDE5B093BD20B0E094
:101C4E00B093BE208401045E1F4F088319839F92B8
:101C5E008F92BCE14B2EB0E05B2EB2EA2B2EB0E29F
:101C6E003B2E0E94FC048F909F90940184010150A2
:101C7E0010404801B22FB32B51F19F928F927F9259
:101C8E006F925F924F923F922F9271D72F903F900B
:101C9E004F905F906F907F908F909F903F922F927A
:101CAE00202EB5DA2F903F909F928F927F926F9257
:101CBE005F924F923F922F92202E11DC2F903F90E9
:101CCE004F905F906F907F908F909F90CECF0881B6
:101CDE0019815F904F903F902F902196CDBFDEBF20
:061CEE00DF91CF91089583
:10111600CF93DF93CDB7DEB72297CDBFDEBF219643
:1011260010E0133050F4E12FF0E0E30DF41DB0E2CF
:10113600B083012F0F5F102FF4CFE12FF0E0E30D06
:10114600F41DB0E0B083012F0150302F032F10E0C3
:10115600030D141D088319834AE0022DCCDB092FE9
:10116600202F205D08811981F80120834AE0022D95
:10117600C2DB202E003009F404C0032F0150302FAB
:0E118600E5CF2196CDBFDEBFDF91CF9108955A
:1008FC00992779E004C0991F941708F0941B001FE6
:08090C007A95C9F700950895E2
:10119400CF93DF93CDB7DEB72297CDBFDEBF2196C5
:1011A40010E0153050F4E12FF0E0E40DF51DB0E24D
:1011B400B083012F0F5F102FF4CFE12FF0E0E40D87
:1011C400F51DB0E0B083012F0150302F032F10E044
:1011D400040D151D088319834AE050E08101BFDB2B
:1011E4008D01202F205D08811981F80120834AE0B8
:1011F40050E08101B4DB8C011801103009F4003097
:1012040009F404C0032F0150302FE0CF2196CDBF45
:08121400DEBFDF91CF910895C8
:10096200C801BA01AA1BBB1B51E107C0AA1FBB1FCA
:10097200A617B70710F0A61BB70B881F991F5A9529
:08098200A9F7809590950895F6
:10121C000AE7021528F0B1E62B1610F0E89425F831
:04122C00022D0895F2
:101F6200CF93DF93CDB7DEB7A697CDBFDEBF219665
:101F72008F929F928E01075F1F4F0F5F1F4F0CA31F
:101F82001DA37F926F925F924F923F922F92130105
:101F92008ED91CA12DA1E12FF22F00838E01075FA4
:101FA2001F4F0CA31DA3E9D51CA12DA1E12FF22FD8
:101FB20000838E01095F1F4F0F5F1F4F0CA31DA3EC
:101FC200DCD51CA12DA1E12FF22F00838E01095F28
:101FD2001F4F0CA31DA3D1D52F903F904F905F9020
:101FE2006F907F901CA12DA1E12FF22F0083B0E012
:101FF200BF87B0E0BC8BB1E0BD8BB0E0BA8BBB8BCE
:102002008301045F1F4F7F926F925F924F923F92C4
:102012002F9218014CD90695069510E00C7F0D877A
:102022001E878E01025E1F4FB4E06B2EB0E07B2E46
:10203200B9EC4B2EB9E15B2E180185DB2F903F9056
:102042004F905F906F907F908301035F1F4F7F924D
:102052006F925F924F923F922F92180128D92F9040
:102062003F904F905F906F907F900F730B87B0E01F
:10207200BC870091492010914A200E50104004194B
:1020820015090D841E8400191109088B198B83010F
:102092000E5F1F4F7F926F925F924F923F922F92ED
:1020A200180105D92F903F904F905F906F907F90CD
:1020B2007F926F925F924F923F922F92402E130126
:1020C20018DE2F903F904F905F906F907F9083012A
:1020D2000D5F1F4F7F926F925F924F923F922F92AE
:1020E2001801E5D8202E01DA29843A840E943B03A4
:1020F2002F903F904F905F906F907F9083010C5F85
:102102001F4F7F926F925F924F923F922F921801D0
:10211200CED8098F32D5088F30D50F8B2ED50E8BA6
:102122002CD50D8F2AD50C8F28D50B8F26D52F9025
:102132003F904F905F906F907F900A8F0B851C8528
:10214200103009F40230C9F50E891F89288D398DA6
:102152000F5F1F4F2F4F3F4F0A8F1B8F2C8F3D8FCB
:10216200B2E1BB87B0E0BC877F926F925F924F92E1
:102172003F922F92BCE02B2EBFD30E8BBDE02B2EB5
:10218200BBD30F8B2224B8D3088FB1E02B2EB4D34C
:102192002F903F904F905F906F907F90098F0F85A7
:1021A2000F5F0F87B8E1BD87B0E0BE87B0E0BA8BA2
:1021B200BB8BB0E0B0930C206BC00B851C8510303C
:1021C20009F4083179F50E891F89288D398D088324
:1021D20019832A833B830A8D1B8D2C8D3D8D0E8B9B
:1021E2001F8B288F398F488159816A817B810889A9
:1021F200198920E0322F040F151F261F371F0A8F5F
:102202001B8F2C8F3D8FB0E1BB87B0E0BC870F8561
:102212000F5F0F87B4E1BD87B0E0BE870C890F5F07
:102222000C8B36C00B851C85103009F4013181F509
:102232004E895F89688D798D0A8D1B8D2C8D3D8D20
:102242000E8B1F8B288F398F8A019B010F5F1F4FC7
:102252002F4F3F4F0A8F1B8F2C8F3D8FB0E1BB87D3
:10226200B0E0BC870F850F5F0F87B4E1BD87B0E098
:10227200BE87B0E0BA8BBB8B00911820002341F4DB
:1022820000910C200F5F00930C20B0E0B093182057
:102292000F85002309F42EC283010C5F1F4F7F922A
:1022A2006F925F924F923F922F92588C498C1801F5
:1022B20092D32F881AD92E8818D92D8C16D92C8C06
:1022C20014D92B8C12D92A8C10D92F903F904F9071
:1022D2005F906F907F908301045F1F4F7F926F9298
:1022E2005F924F923F922F9218010E9458092F90AD
:1022F2003F904F905F906F907F90102F1F700D85D1
:10230200000F000F212F202B8301045F1F4F7F92AC
:102312006F925F924F923F922F92422E1801E9DC08
:102322002F903F904F905F906F907F908301035F5B
:102332001F4F7F926F925F924F923F922F9218019E
:102342000E9458092F903F904F905F906F907F901E
:10235200102F107C0B85212F202B8301035F1F4F31
:102362007F926F925F924F923F922F92422E18016C
:10237200C0DC2F903F904F905F906F907F900B85C5
:102382001C85103009F4023181F58301025F1F4F71
:102392007F926F925F924F923F922F92BEEE5B2E90
:1023A200B5E04B2E180117D32F903F904F905F90BE
:1023B2006F907F9083010C5E1F4F7F926F925F92AE
:1023C2004F923F922F92B4E05B2EB2E04B2E180157
:1023D20002D3B5E02B2E89D8B8E72B2E86D82F90C2
:1023E2003F904F905F906F907F900A891B89920176
:1023F200200F311F0D851E85020F131F088B198BAD
:102402000D89002379F07F926F925F924F923F92F3
:102412002F920E942D0941D42F903F904F905F90B0
:102422006F907F908E01005F1F4FF80131960081FF
:102432007F926F925F924F923F922F925888402ED6
:10244200BFEB2B2EB9E13B2EC6D255244424B7EC68
:102452002B2EB9E13B2EBFD22F903F904F905F9031
:102462005F924F923F922F92BDEB2B2EB9E13B2E02
:102472005BD2B6E12B2E40D20CA3B7E12B2E3CD27D
:102482001CA1512E402EB7EC2B2EB9E13B2EA3D22C
:102492002F903F904F905F906F907F90088919899D
:1024A2000354164E0D831E838301005F1F4F7F92DC
:1024B2006F925F924F923F922F92552444241801BB
:1024C2008AD2088901700C8344242D803E8011DC5D
:1024D2002D813E810C8110E0020F131F88243801E8
:1024E200B1ED4B2EB9E15B2EB9EC2B2EB9E13B2EAF
:1024F2007DD20D811E819801285F3F4F0C8110E033
:10250200020F131FB6E05B2E4424180164D21D850E
:102512000A89612F600F2D853E850A891B89020F6A
:10252200131F412F50E00D811E819801265F3F4FFE
:102532000C8110E0020F131F562E442E18014BD2AD
:102542002F903F904F905F906F907F902D853E85AA
:102552000A891B89020F131F9801245F3F4F0C81C8
:1025620010E0020F131F7F926F925F924F923F9281
:102572002F9228011301D8D1B6E12B2EBDD10CA385
:10258200B7E12B2EB9D12F903F904F905F906F9073
:102592007F909301205F3F4F1CA17F926F925F92C9
:1025A2004F923F922F92512E402E190114D2088938
:1025B2001989025F1F4F18010E948F0A2F903F90C6
:1025C2004F905F906F907F900C89002309F46AC04E
:1025D200B0E1BB87B0E0BC87B0E0BC8BB0E0BD8BA4
:1025E2000D851E85060D171D7F926F925F924F9289
:1025F2003F922F92302E412EB2E02B2E0E949E1B34
:102602002F903F904F905F908101025F1F4F920188
:10261200200F311F0D851E85020F131F5F924F92EF
:102622003F922F9218010E9418092F903F904F90CD
:102632005F9000910C200F5F00930C2000914920C5
:1026420010914A200E501040041915090D841E8461
:102652009801201931098E01025E1F4F5F924F923D
:102662003F922F9249016F80788449845A841801DD
:10267200B0E2BF93BBE4BF93B8D8ADB7BEB7129672
:10268200ADBFBEBF2F903F904F905F906F907F90F5
:102692000A8B1B8BB0914B20B0FD03C0B0E0B0930E
:1026A2000C20FACD00910C20002321F14E895F8984
:1026B200688D798D0A891B8920E0322F040F151F3E
:1026C200261F371F0E8B1F8B288F398FB1E1BB87D7
:1026D200B0E0BC87B0E0B0930C20B0E0BD8BB4E1B9
:1026E200BD87B0E0BE87B0E0BA8BBB8BB1E0B093E0
:1026F2001820D2CD9F908F90A596CDBFDEBFDF91DF
:04270200CF910895D6
:1017EC00CF93DF93CDB7DEB72697CDBFDEBF219663
:1017FC000B851C85B0E07B1611F4B0E56B1619F067
:10180C0000E010E0B8C1B0E0B883B9830881198159
:10181C00103009F40A3030F52FEB30E208811981D1
:10182C00020F131F0C831D839F928F927F926F92D6
:10183C005F924F923F922F920E94BE152F903F9035
:10184C004F905F906F907F908F909F901C812D8117
:10185C00E12FF22F0083088119810F5F1F4F08833E
:10186C001983D4CF2FEB30E208811981F801E20FF4
:10187C00F31FB0E0B083B0E0B883B9837F926F926E
:10188C005F924F923F922F92B5E06B2EB0E07B2E81
:10189C00BDE14B2EB0E25B2EBFEB2B2EB0E23B2E0C
:1018AC0033D82F903F904F905F906F907F90B02FD8
:1018BC00B12B19F000E010E05EC1009123201091D3
:1018CC00242020912520309126200F5F1F4F2F4F71
:1018DC003F4F0093232010932420209325203093F6
:1018EC0026200091C420033709F0E9C09F928F9203
:1018FC007F926F925F924F923F922F92B3E02B2E7A
:10190C00B6E03B2E74DB08831983B2E22B2EB6E0D3
:10191C003B2E6DDB28813981020F131F088319833D
:10192C00B2E52B2EB6E03B2E62DB2F903F904F9012
:10193C005F906F907F908F909F9028813981020FDC
:10194C00131F088319835F924F923F922F92B2EA32
:10195C004B2EB0E25B2E20904806B0E03B2E14DC00
:10196C002F903F904F905F909F928F927F926F92AB
:10197C005F924F923F922F92B2EA2B2EB0E23B2E07
:10198C0078DB28813981020F131F08831983B0E794
:10199C002B2EB6E03B2E2BDB28813981020F131F37
:1019AC0008831983B7E42B2EB6E03B2E20DB2F9057
:1019BC003F904F905F906F907F908F909F90288179
:1019CC003981020F131F088319835F924F923F9244
:1019DC002F92B2EA4B2EB0E25B2E20906406B0E060
:1019EC003B2ED2DB2F903F904F905F909F928F9227
:1019FC007F926F925F924F923F922F92B2EA2B2E70
:101A0C00B0E23B2E36DB28813981020F131F08838D
:101A1C001983B2E72B2EB6E03B2EE9DA2F903F90DC
:101A2C004F905F906F907F908F909F90288139811D
:101A3C00020F131F088319835F924F923F922F92CC
:101A4C00B2EA4B2EB0E25B2E209023203090242063
:101A5C009BDB2F903F904F905F909F928F927F9245
:101A6C006F925F924F923F922F92BCE52B2EB6E075
:101A7C003B2EBDDA28813981020F131F088319838D
:101A8C00B2EA2B2EB0E23B2EF4DA28813981020F18
:101A9C00131F08831983B4E72B2EB6E03B2EA7DA6D
:101AAC002F903F904F905F906F907F908F909F9072
:101ABC0028813981020F131F088319831CC00091E0
:101ACC00C4200437C1F43F922F922090C52013DB21
:101ADC002F903F90002379F00091C5200053B02F38
:101AEC0011E0BB2319F0110FBA95E9F700916406C8
:101AFC0001270093640608811981103009F4003025
:101B0C00C1F59F928F927F926F925F924F923F920C
:101B1C002F92B3E02B2EB6E03B2E69DA08831983A3
:101B2C00BBE32B2EB6E03B2E62DA28813981020F03
:101B3C00131F088319832090192030901A2057DA2C
:101B4C0028813981020F131F0883198320901B20D1
:101B5C0030901C204CDA2F903F904F905F906F90FC
:101B6C007F908F909F9028813981020F131F0883DB
:101B7C001983088119812596CDBFDEBFDF91CF91E6
:021B8C000895BA
:100FFA00CF93DF93CDB7DEB72297CDBFDEBF219661
:10100A00B0E0B883B983B0914406BD7FB09344067B
:10101A003F922F92BAE72B2EE091A020F091A120C7
:10102A0009952F903F90F10181010F5F1F4F180121
:10103A000491102F002389F03F922F92212EE091E4
:10104A00A020F091A12009952F903F900881198145
:10105A000F5F1F4F08831983E6CFB0914406B26031
:10106A00B0934406088119812196CDBFDEBFDF9176
:04107A00CF91089575
:10107E00CF93DF93CDB7DEB72297CDBFDEBF2196DC
:10108E00B0E0B883B983B0914406BD7FB0934406F7
:10109E003F922F92BAE72B2EE091A020F091A12043
:1010AE0009952F903F90F10181010F5F1F4F18019D
:1010BE000081102F002389F03F922F92212EE09174
:1010CE00A020F091A12009952F903F9008811981C1
:1010DE000F5F1F4F08831983E6CFB0914406B260AD
:1010EE00B0934406088119812196CDBFDEBFDF91F2
:0410FE00CF910895F1
:1011020009E3021528F0B0E32B1610F001E001C04C
:0411120000E008955C
:0A37B60005900D920197E1F70895C8
:103AFA00A0E0B0E2E6ECF5E08DE390E00E94DB1B8B
:023B0A0008951C
:1001FC003C6D65746120687474702D6571756976D9
:10020C003D22726566726573682220636F6E746539
:10021C006E743D22333B75726C3D687474703A2F6A
:10022C002F3139322E3136382E32302E3630223EA6
:10023C003C48544D4C3E3C484541443E3C2F48457F
:10024C0041443E3C424F44593E3C68313E4156523B
:10025C00202B20454E4332384A3630204D696E698A
:10026C0020576562205365727665723C2F68313E6B
:10027C003C6120687265663D2F3E52656C6F61640F
:10028C003C2F613E3C736372697074207372633DE2
:10029C002F733E3C2F7363726970743E3C746162C1
:1002AC006C653E3C74723E3C74643E3C7461626CA2
:1002BC006520626F726465723D31207374796C6570
:1002CC003D22666F6E742D73697A653A32307078A0
:1002DC00203B666F6E742D66616D696C793A207483
:1002EC0065726D696E616C203B223E3C74723E3CC3
:1002FC00746820636F6C7370616E3D323E50494E72
:10030C00433C2F74683E3C2F74723E3C736372699D
:10031C0070743E766172207374722C693B737472C4
:10032C003D22223B666F7228693D303B693C383B6D
:10033C00692B2B297B7374722B3D223C74723E3CCF
:10034C007464206267636F6C6F723D70696E6B3E94
:10035C00425554544F4E2023222B692B223C2F7490
:10036C00643E223B69662850494E432628313C3C6A
:10037C006929297B7374722B3D223C74642062675B
:10038C00636F6C6F723D7265643E4F4E223B7D65B0
:10039C006C7365207B7374722B3D223C74642062F9
:1003AC0067636F6C6F723D236363636363633E4F7C
:1003BC004646223B7D7374722B3D223C2F74643E67
:1003CC003C2F74723E223B7D646F63756D656E7459
:1003DC002E77726974652873747229203B3C2F73D5
:0703EC0063726970743E00AA
:1003F3003C2F7461626C653E3C2F74643E3C7464B4
:100403003E3C7461626C6520626F726465723D315B
:10041300207374796C653D22666F6E742D73697AEF
:10042300653A32307078203B666F6E742D66616D6D
:10043300696C793A207465726D696E616C203B2238
:100443003E3C74723E3C746820636F6C7370616EE3
:100453003D333E504F5254443C2F74683E3C2F74FE
:10046300723E3C7363726970743E7661722073747A
:10047300722C693B7374723D22223B666F7228694A
:100483003D303B693C383B692B2B297B7374722BC2
:100493003D223C74723E3C7464206267636F6C6FF0
:1004A300723D79656C6C6F773E4C45442023222B5B
:1004B300692B223C2F74643E223B696628504F52BD
:1004C30054442628313C3C6929297B7374722B3DA3
:1004D300223C7464206267636F6C6F723D72656463
:1004E3003E4F4E223B7D656C7365207B7374722B8C
:1004F3003D223C7464206267636F6C6F723D2363BB
:1005030063636363633E4F4646223B7D7374722B82
:100513003D223C2F74643E3C74643E3C612068720F
:1005230065663D2F74222B692B223E546F67676CDF
:10053300653C2F613E3C2F74643E3C2F74723E2217
:100543003B7D646F63756D656E742E777269746538
:100553002873747229203B3C2F7363726970743E55
:100563003C2F7461626C653E3C2F74643E3C2F7477
:10057300723E3C2F7461626C653E546869732069F6
:100583007320485454502072657175657374202329
:100593003C7363726970743E646F63756D656E74EA
:1005A3002E777269746528524551293C2F73637203
:1005B3006970743E3C2F424F44593E3C2F48544D82
:0305C3004C3E00AB
:10060300485454502F312E3120323030204F4B0A72
:0F061300436F6E74656E742D747970653A2000B4
:0D062200746578742F706C61696E0A0A00AF
:0A0652007661722050494E433D00CE
:020670003B004D
:0B06470076617220504F5254443D0079
:020672003B004B
:09065C00766172205245513D0007
:020674003B0049
:0C063B00746578742F68746D6C0A0A00F6
:0C062F0001010600122334450000800089
:06066500638253633501BE
:05066B00370301030646
:0105C6000034
:0105C7000033
:0605C800FFFFFFFFFFFF33
:0405CE000000000029
:0105D2000028
:0805D30000010800060400000D
:0105DB00001F
:0205DC0000001D
:0105DE00001C
:0205DF00FC011D
:0205E100F30322
:0605E300474554202F00E3
:0405E900000000000E
:0605ED000014A576193F81
:0405F300C0A801019A
:0405F700C0A8010196
:0405FB00FFFFFF00FF
:0405FF00C0A80196F9
:00000001FF
