:100000000C9442010C9400000C9400000C9400002D
:100010000C9400000C9400000C9400000C94000060
:100020000C9400000C9400000C9400000C94000050
:100030000C9400000C9400000C9400000C94000040
:100040000C9400000C9400000C9400000C94000030
:100050000C9400000C9400000C9400000C94000020
:100060000C9400000C9400000C9400000C94000010
:100070000C9400000C9400000C9400000C94000000
:100080000C9400000C9400000C9400000C940000F0
:100090000C9400000C9400000C9400000C940000E0
:1000A0000C9400000C9400000C9400000C940000D0
:1000B0000C9400000C9400000C9400000C940000C0
:1000C0000C9400000C9400000C9400000C940000B0
:1000D0000C9400000C9400000C9400000C940000A0
:1000E0000C940000000000000C9400000C94000030
:1000F0000C94000000000000000000000000000060
:100100000C9400000C9400000C9400000C9400006F
:100110000C9400000C9400000C9400000C9400005F
:100120000C9400000C9400000C94000000000000EF
:10013000000000000C9400000C9400000C940000DF
:100140000C9400000C9400000C9400000C9400002F
:100150000C9400000C9400000C9400000C9400001F
:100160000C9400000C9400000C9400000C9400000F
:100170000C9400000C94000000000000000000003F
:10018000000000000000000000000000000000006F
:10019000000000000000000000000000000000005F
:1001A0000C9400000C94000000000000000000000F
:1001B0000C9400000C9400000C9400000C940000BF
:1001C0000C9400000C9400000000000000000000EF
:1001D0000000000000000000000000000C9400007F
:1001E0000C9400000C9400000000000000000000CF
:0C01F000000000000C9400000C940000C3
:10028400BFEFBDBFBFE5BEBF2F92B5E0B093A504DD
:10029400C2DFC8DFB4E32B2ED8DFB3E02B2ED5DFCB
:1002A4002224D3DFA9DFACDFB5E0B093A504B3DF2C
:1002B400B9DFB4E32B2EC9DFB2E02B2EC6DF222434
:1002C400C4DF9ADF9DDFB5E0B093A504A4DFAADF05
:1002D400B4E32B2EBADFB1E02B2EB7DF2224B5DF37
:1002E4008BDF8EDFB5E0B093A50495DF9BDFB4E32D
:1002F4002B2EABDFB1E02B2EA8DFBFEF2B2EA5DF1B
:080304007BDFE0CF2F90FFCF5B
:10022800B0E0B093002010E0123358F40091A40419
:100238000370013011F401E005C0012F0F5F102F8A
:06024800F3CF00E0089571
:10024E0000910020003079F42092A604022D017056
:10025E00003029F4B091A404B6FD01C0FBCFB1E08B
:10026E00B093002007C02092A704B091A404B6FD5D
:06027E0001C0FBCF089552
:0801FC00B7E0B093A3040895DD
:1002040022E014E00BEB0A95F1F71A95E1F72A9531
:06021400D1F7000008957F
:0E021A00B8E0B093A104B1E0B093A40408953D
:00000001FF
