:100000000C9465010C9400000C9400000C9400000A
:100010000C9400000C9400000C9400000C94000060
:100020000C9400000C9400000C9400000C94000050
:100030000C9400000C9400000C9400000C94000040
:100040000C9400000C9400000C9400000C94000030
:100050000C9400000C9400000C9400000C94000020
:100060000C9400000C9400000C9400000C94000010
:100070000C9400000C9400000C9400000C94000000
:100080000C9400000C9400000C9400000C940000F0
:100090000C9400000C9400000C9400000C940000E0
:1000A0000C9400000C9400000C9400000C940000D0
:1000B0000C9400000C9400000C9400000C940000C0
:1000C0000C9400000C9400000C9400000C940000B0
:1000D0000C9400000C9400000C9400000C940000A0
:1000E0000C940000000000000C9400000C94000030
:1000F0000C94000000000000000000000000000060
:100100000C9400000C9400000C9400000C9400006F
:100110000C9400000C9400000C9400000C9400005F
:100120000C9400000C9400000C94000000000000EF
:10013000000000000C9400000C9400000C940000DF
:100140000C9400000C9400000C9400000C9400002F
:100150000C9400000C9400000C9400000C9400001F
:100160000C9400000C9400000C9400000C9400000F
:100170000C9400000C94000000000000000000003F
:10018000000000000000000000000000000000006F
:10019000000000000000000000000000000000005F
:1001A0000C9400000C94000000000000000000000F
:1001B0000C9400000C9400000C9400000C940000BF
:1001C0000C9400000C9400000000000000000000EF
:1001D0000000000000000000000000000C9400007F
:1001E0000C9400000C9400000000000000000000CF
:0C01F000000000000C9400000C940000C3
:1002CA00BFEFBDBFBFE5BEBF0E9498012F923F920C
:1002DA000091A4080B7F0093A408BCE0B093A60881
:1002EA00B0E0B093A7089CDF22E014E00BEB0A957C
:1002FA00F1F71A95E1F72A95D1F70000B0E02B2E15
:10030A00B0E23B2EC0DFBDE02B2E76DFBAE02B2E0B
:10031A0073DFD0DF002319F080DF202E6DDFF9CFE5
:06032A003F902F90FFCF71
:1002900010E0F1010081202F022F003079F03F9211
:1002A0002F92202EAEDF2F903F90012F0F5F102F47
:0E02B000E02FF0E0E20DF31D0081EFCF089586
:10020200B091A108B5FD01C0FBCFB091A108B6FF26
:1002120005C0B091A108B064B093A1082092A008D3
:0202220008953D
:0C02BE000090A108002707FC039508959C
:060224000091A0080895FE
:0A02860005900D920197E1F708952D
:10022A00B1E0B0930720B1E0B0930820B2E1B093F7
:10023A000520B1E0B0930620BFE5B0930B20B1E0F2
:10024A00B0930C20BFEFB0930920BFEFB0930A2000
:10025A00B0914206B460B0934206B0914106B860CC
:10026A00B0934106B0E0B093A3080091A4080861D6
:0C027A000093A408B3E0B093A508089519
:10033000A0E0B0E2ECEFF1E085E090E00E94430144
:0203400008951E
:0501FC00496E6974006A
:00000001FF
