:100000000C946E010C9400000C9400000C94000001
:100010000C9400000C9400000C9400000C94000060
:100020000C9400000C9400000C9400000C94000050
:100030000C9400000C9400000C9400000C94000040
:100040000C9400000C9400000C9400000C94000030
:100050000C9400000C9400000C9400000C94000020
:100060000C9400000C9400000C9400000C94000010
:100070000C9400000C9400000C9400000C94000000
:100080000C9400000C9400000C9400000C940000F0
:100090000C9400000C9400000C9400000C940000E0
:1000A0000C9400000C9400000C9400000C940000D0
:1000B0000C9400000C9400000C9400000C940000C0
:1000C0000C9400000C9400000C9400000C940000B0
:1000D0000C9400000C9400000C9400000C940000A0
:1000E0000C940000000000000C9400000C94000030
:1000F0000C94000000000000000000000000000060
:100100000C9400000C9400000C9400000C9400006F
:100110000C9400000C9400000C9400000C9400005F
:100120000C9400000C9400000C94000000000000EF
:10013000000000000C9400000C9400000C940000DF
:100140000C9400000C9400000C9400000C9400002F
:100150000C9400000C9400000C9400000C9400001F
:100160000C9400000C9400000C9400000C9400000F
:100170000C9400000C94000000000000000000003F
:10018000000000000000000000000000000000006F
:10019000000000000000000000000000000000005F
:1001A0000C9400000C94000000000000000000000F
:1001B0000C9400000C9400000C9400000C940000BF
:1001C0000C9400000C9400000000000000000000EF
:1001D0000000000000000000000000000C9400007F
:1001E0000C9400000C9400000000000000000000CF
:0C01F000000000000C9400000C940000C3
:1002DC00BFEFBDBFBFE5BEBF0E94A7012F923F92EB
:1002EC00B2E0B0935000B0915100B1FD01C0FBCF12
:1002FC00B8EDB4BFB1E0B0934000B091A408B460C5
:10030C00B093A408B0EAB093A608B1E0B093A708E4
:10031C008FDF21E11CE30CEC0A95F1F71A95E1F75C
:10032C002A95D1F7B0E02B2EB0E23B2EB4DFCADF1A
:10033C00002319F07ADF202E67DFF9CF3F902F9042
:02034C00FFCFE1
:1002A20010E0F1010081202F022F003079F03F92FF
:1002B2002F92202EAEDF2F903F90012F0F5F102F35
:0E02C200E02FF0E0E20DF31D0081EFCF089574
:10021400B091A108B5FD01C0FBCFB091A108B6FF14
:1002240005C0B091A108B064B093A1082092A008C1
:0202340008952B
:0C02D0000090A108002707FC039508958A
:060236000091A0080895EC
:0A02980005900D920197E1F708951B
:10023C00BAE0B0931D20B1E0B0931E20BBE1B093A7
:10024C001B20B1E0B0931C20B8E6B0931720B1E0AE
:10025C00B0931820BFEFB0931920BFEFB0931A20C2
:10026C00B0914206B460B0934206B0914106B860BA
:10027C00B0934106B0E0B093A3080091A4080861C4
:0C028C000093A408B3E0B093A508089507
:10034E00A0E0B0E2ECEFF1E087E190E00E944C011A
:02035E00089500
:1001FC0048656C6C6F20776F726C642066726F6DE3
:07020C002068657265210006
:00000001FF
