:100000000C94062D0C9400000C9400000C9400003D
:100010000C9400000C9400000C9400000C94000060
:100020000C9400000C9400000C9400000C94000050
:100030000C9400000C9400000C9400000C94000040
:100040000C9400000C9400000C9400000C94000030
:100050000C9400000C9400000C9400000C94000020
:100060000C9400000C9400000C9400000C94000010
:100070000C9400000C9400000C9400000C94000000
:100080000C9400000C9400000C9400000C940000F0
:100090000C9400000C9400000C9400000C940000E0
:1000A0000C9400000C9400000C9400000C940000D0
:1000B0000C9400000C9400000C9400000C940000C0
:1000C0000C9400000C9400000C9400000C940000B0
:1000D0000C9400000C9400000C9400000C940000A0
:1000E0000C940000000000000C9400000C94000030
:1000F0000C94000000000000000000000000000060
:100100000C9400000C9400000C9400000C9400006F
:100110000C9400000C9400000C9400000C9400005F
:100120000C9400000C9400000C94000000000000EF
:10013000000000000C9400000C9400000C940000DF
:100140000C9400000C9400000C9400000C9400002F
:100150000C9400000C9400000C9400000C9400001F
:100160000C9400000C9400000C9400000C9400000F
:100170000C9400000C94000000000000000000003F
:10018000000000000000000000000000000000006F
:10019000000000000000000000000000000000005F
:1001A0000C9400000C94000000000000000000000F
:1001B0000C9400000C9400000C9400000C940000BF
:1001C0000C9400000C9400000000000000000000EF
:1001D0000000000000000000000000000C9400007F
:1001E0000C9400000C9400000000000000000000CF
:0C01F000000000000C9400000C940000C3
:105A0C00BFEFBDBFBFE5BEBF0E949F2D2F923F923F
:105A1C004F925F926F927F92B2E0B0935000B09130
:105A2C005100B1FD01C0FBCFB8EDB4BFB1E0B093F4
:105A3C004000B0914006B068B0934006B09140066B
:105A4C00B062B0934006B0914006BF7BB093400665
:105A5C00B0912006BF7BB0932006B0912406BF7B8B
:105A6C00B0932406B0914006B160B0934006B0915B
:105A7C004006B260B0934006B091A408B460B093F5
:105A8C00A408B2E2B093A608B0E0B093A70851DE28
:105A9C00BFEF6B2EBFEF7B2EBCE54B2EB6E25B2E21
:105AAC00BFEF2B2EBFEF3B2EBFEFBF93BFEFBF93CC
:105ABC0026DEADB7BEB71296ADBFBEBFBEE22B2E73
:105ACC00B0E23B2EF6DD4424B1E03B2EB0E12B2EB0
:105ADC006CDEB8EB4B2EBFE15B2EB2E32B2EBBE2A0
:105AEC003B2E5ADEB2E3B093E620BBE2B093E72044
:105AFC00B1E06B2EB9E14B2EB0E25B2EBDE12B2E4B
:105B0C00B0E23B2EDDDEBEE36B2EB0E27B2EB3E2C9
:105B1C004B2EB0E25B2EB7E22B2EB0E23B2E68DEB2
:105B2C009EDEFECF7F906F905F904F903F902F90B6
:025B3C00FFCF99
:10570A00CF93DF93CDB7DEB7269608811981209211
:10571A006820309269204092662050926720009358
:10572A006C2010936D206092702070927120DF912E
:04573A00CF9108956E
:1056BE00CF93DF93CDB7DEB72197CDBFDEBF219657
:1056CE00B0E0B883F1010081102F012F003089F076
:1056DE003F922F92202EDCDB2F903F9008810F5FA0
:1056EE000883E02FF0E0E20DF31D0081102F012F53
:0C56FE00EDCFCDBFDEBFDF91CF9108954E
:0C4E9E00E0916620F091672009950895CE
:04450400CCD4089576
:104CB800B091A108B5FD01C0FBCFB091A108B6FF26
:104CC80005C0B091A108B064B093A1082092A008D3
:024CD80008953D
:103F70002092C308B091C208B7FD01C0FBCF0895DD
:003F800041
:103F1C002092C309B091C209B7FD01C0FBCF08952F
:003F2C0095
:103F2C00B091B108B5FD01C0FBCFB091B108B6FF9F
:103F3C0005C0B091B108B064B093B1082092B0083C
:023F4C000895D6
:103F4E00B091A109B5FD01C0FBCFB091A109B6FF9B
:103F5E0005C0B091A109B064B093A1092092A00947
:023F6E000895B4
:103EFA00B091B109B5FD01C0FBCFB091B109B6FFD0
:103F0A0005C0B091B109B064B093B1092092B0096B
:023F1A00089508
:103EA400B091A10AB5FD01C0FBCFB091A10AB6FF44
:103EB40005C0B091A10AB064B093A10A2092A00AEF
:023EC40008955F
:103EC600B091A10BB5FD01C0FBCFB091A10BB6FF20
:103ED60005C0B091A10BB064B093A10B2092A00BCA
:023EE60008953D
:1057B600B2E3B093E620BBE2B093E720B8EBB09338
:1057C6006A20BFE1B0936B20B0EBB0934106B0E422
:1057D600B0934206B0E0B093C108032D03700429CC
:1057E600022900640093C00832FAB091C008B7F9E4
:0657F600B093C008089505
:1057A4002092E6203092E72040926A2050926B20AB
:0257B400089556
:1058CC002F923F924F925F927F92B0910406B160FB
:1058DC00B0930406B0910006B160B0930006B0918D
:1058EC004406B160B0934406B0914006B160B093E9
:1058FC004006B0914406B160B0934406D0DAB09142
:10590C000406B160B0930406CADAB0910406BE7FF7
:10591C00B0930406C4DAB0910406B160B0930406E7
:10592C00BEDAB0914406BE7FB09344066F925F928C
:10593C004F923F922F92BFEF2B2EE091E620F091E9
:10594C00E72009952F903F904F905F906F90B0910A
:10595C004406B160B0934406A2DA6F925F924F9204
:10596C00B6E06B2EB0E07B2E2101BBE12B2EB1E219
:10597C003B2E86DE4F905F90B4E06B2EB0E07B2E1A
:10598C00B7E12B2EB1E23B2E7BDEB1E03B2EBFE12B
:10599C002B2EEEDAB2E03B2EBFE12B2EE9DA3324CC
:1059AC004424B8E02B2EB0DABDEA3B2EB9E14B2EE5
:1059BC00BAE02B2EA9DABDEA3B2EB9E14B2EBCE0A6
:1059CC002B2EA2DA3324442422249EDABEEA3B2E68
:1059DC00B9E14B2EB4E02B2E97DAB1E03B2EBFE1B0
:1059EC002B2EC6DAB2E03B2EBFE12B2E70DA6F9075
:1059FC00262C62DD7F905F904F903F902F90089502
:005A0C009A
:104EAA00CF93DF93CDB7DEB72197CDBFDEBF219673
:104EBA00B0E0B8830881083C30F411D810D80881D2
:104ECA000F5F0883F7CFCDBFDEBFDF91CF91089583
:004EDA00D8
:103EE80015E101EB0A95F1F71A95E1F700000000DA
:023EF80008952B
:105664002092C308B091C208B7FD01C0FBCF0091DE
:04567400C3080895CA
:105678002092C309B091C209B7FD01C0FBCF0091C8
:04568800C3090895B5
:10568C00A201B10193018301015010403801B22FE6
:10569C00B32B69F0FA010081FB0100838B010F5FD2
:1056AC001F4FB8018A010F5F1F4FA801EBCF81017B
:0256BC0008954F
:104F7C002F92B0914406BE7FB0934406022D006A76
:104F8C003F92202EE091E620F091E72009953F908A
:104F9C00232CE091E620F091E7200995B09144068E
:0A4FAC00B160B09344062F90089501
:104F1400CF93DF93CDB7DEB72297CDBFDEBF219607
:104F24002F9238824982B0914406BE7FB0934406E2
:104F3400022D0064202EE091E620F091E7200995EF
:104F44002880E091E620F091E72009958E01F80190
:104F540031960081202EE091E620F091E72009951A
:104F6400B0914406B160B09344062F902196CDBF12
:084F7400DEBFDF91CF9108952B
:104EDA002F92B0914406BE7FB0934406022D00681B
:104EEA003F92202EE091E620F091E72009953F902D
:104EFA00232CE091E620F091E7200995B091440631
:0A4F0A00B160B09344062F900895A3
:1054C400CF93DF93CDB7DEB72297CDBFDEBF219652
:1054D4002F923F924F925F926F92222011F00DE033
:1054E40001C005E02F92302E22240E94DA1E2F9054
:1054F400222011F001E301C000E32F92302EB2E02C
:105504002B2E0E94DA1EBEEE3B2EB5E04B2EBAE0E7
:105514002B2EFEDC2F90222011F005E101C002E1C8
:105524002F92302EB4E02B2E0E94DA1EB2E13B2ED5
:10553400B6E02B2E0E94DA1E2F90222041F42F92E7
:10554400BCE03B2EB7E02B2E0E94DA1E2F902220C7
:1055540041F42F92BFE33B2EB9E02B2E0E94DA1EBA
:105564002F902F92B1E03B2EBFE12B2EB4DCB2E0A2
:105574003B2EBFE12B2EAFDC30901B21B4E02B2E51
:105584000E94DA1E30901C21B5E02B2E0E94DA1EF8
:1055940030901D21B2E02B2E0E94DA1E30901E2185
:1055A400B3E02B2E0E94DA1E30901F2122240E9489
:1055B400DA1E30902021B1E02B2E0E94DA1E332413
:1055C400B5E12B2E0E94DA1EB2E12B2E0E943A1F67
:1055D400009351209E012F5F3F4F8E01522E632E68
:1055E400302E412E22240E94F71E2F9008810E7F18
:1055F400222011F011E001C010E0012B4980302E6F
:1056040022240E949D1E4424B1E03B2EB0E12B2EA7
:105614000E949D1EB4E03B2EBFE12B2E5CDC43DCDC
:10562400BDE25B2EB0E06B2E4424B8EE2B2EB0E22C
:105634003B2E0E94C51EB1E03B2EBFE12B2E9CDC0D
:10564400B2E03B2EBFE12B2E97DC6F905F904F9022
:105654003F902F902196CDBFDEBFDF91CF9108956B
:0056640046
:103DB4002F92B0914406BE7FB0934406022D006456
:103DC4003F92202EE091E620F091E72009953F9064
:103DD400232CE091E620F091E7200995B091440668
:0A3DE400B160B09344062F900895DB
:103E74002F92B0914406BE7FB0934406E091E620B1
:103E8400F091E72009952224E091E620F091E720C3
:103E94000995B0914406B160B09344062F900895FB
:003EA4001E
:103DEE002F926F925F924F923F922F92B1E03B2EA5
:103DFE00BFE12B2E0E94BE27B2E03B2EBFE12B2E41
:103E0E000E946D272F90322CB4E12B2ECCDFB1E027
:103E1E003B2EB2E12B2E0E946D273F904F905F906C
:103E2E006F900E9455276F925F924F923F92B1E032
:103E3E003B2EB2E12B2E0E94BE27B6E12B2E13D0C5
:103E4E003F904F905F906F90E52DF62D00834F922F
:103E5E003F92B7E12B2E07D03F904F90E32DF42DDC
:063E6E0000832F9008956F
:103D3A002F924F923F922F92B1E03B2EBFE12B2E52
:103D4A000E94BE27B2E03B2EBFE12B2E0E946D27B8
:103D5A002F90322CB4E12B2E28D03F904F900E9406
:103D6A0055273F92342CB6E12B2E1FD03F900E944C
:103D7A005527B7E12B2E19D00E9455272F90089569
:003D8A0039
:103D8A00A101252D362D052D162D01501040502E3E
:103D9A00612EB22FB32B39F0FA0140828A010F5FEC
:0A3DAA001F4FA801EECF810108951C
:1057FC002F923F924F925F926F927F927F926F9215
:10580C005F924F92B4E06B2EB0E07B2E2101B6E795
:10581C002B2EB0E23B2E34DF4F905F90B4E06B2E1A
:10582C00B0E07B2EBEE72B2EB0E23B2E29DF6F9033
:10583C007F902301B4E06B2EB0E07B2EBAE72B2EC9
:10584C00B0E23B2E1DDFB2E72B2EB0E23B2E06DE84
:0E585C007F906F905F904F903F902F90089537
:105468004F925F926F927F92B4E06B2EB0E07B2EEA
:10547800B7E14B2EB1E25B2E05D150E003E00517F2
:10548800C0F0352F40E0320D431DE32FF42F20816B
:1054980006E710E2E52FF0E0E00FF11F0081BFEF13
:1054A8000B27022BE32FF42F0083052F0F5F502FBC
:0C54B800E5CF7F906F905F904F900895BB
:10586A00CF93DF93CDB7DEB72197CDBFDEBF2196A9
:10587A002F923F92B0E0B883B1E03B2EBFE12B2ECE
:10588A0027DBB2E03B2EBFE12B2E73DBB9E12B2ED7
:10589A000E943A1F10E0101710F488DB0883B1E069
:1058AA003B2EBFE12B2E65DBB2E03B2EBFE12B2E58
:1058BA0060DB08813F902F90CDBFDEBFDF91CF9193
:0258CA0008953F
:104FB600CF93DF93CDB7DEB72D97CDBFDEBF21965A
:104FC6002F923F924F925F926F927F928F92B0E0B4
:104FD600B887B0914420B160B0934420B09144208A
:104FE600BD7FB0934420B1E03B2EBFE12B2EC3DF43
:104FF600B2E03B2EBFE12B2EBEDF30900920409061
:105006000A20222484DFB0914406BE7FB093440672
:10501600BAE32B2EE091E620F091E72009952224B1
:10502600E091E620F091E7200995009309202224DB
:10503600E091E620F091E720099500930A202224CA
:10504600E091E620F091E720099500934220222482
:10505600E091E620F091E7200995009343208E0128
:105066000A5F1F4F0B871C872224E091E620F091F0
:10507600E72009951B852C85E12FF22F00838E01F1
:105086000A5F1F4F0F5F1F4F0B871C872224E0917B
:10509600E620F091E72009951B852C85E12FF22F5C
:1050A6000083B0914406B160B0934406009142205B
:1050B6001091432004501040009342201093432047
:1050C6002091092030910A200DEA19E102171307F1
:1050D600D8F00091092000FD17C08E010A5F1F4F0E
:1050E600F8013196008107FD0FC0209142203091D2
:1050F60043200EEE15E00217130730F0FE01369638
:10510600008107FF01C002C001E09EC18E010C5F55
:105116001F4F0B871C8722240E943A1F1B852C8554
:10512600E12FF22F00838E010C5F1F4F0F5F1F4F81
:105136000B871C87B1E02B2E0E943A1F1B852C85FE
:10514600E12FF22F00832C813D81009142201091A6
:105156004320020F131FB1E08B2EBFEA6B2EB9E17D
:105166007B2E28012C803D80CFDD8E010A5F1F4FEC
:105176000F5F1F4F0B871C87BBEB2B2EB9E13B2E16
:105186000E944E1E1B852C85E12FF22F00838E0177
:105196000A5F1F4F0B871C879DDD1B852C85E12F22
:1051A600F22F00830E811F81183009F4063081F436
:1051B600B7E06B2EBBE04B2EB0E25B2EBDEB2B2E89
:1051C600B9E13B2EBBD8003011F40E94B52018C1BE
:1051D6000E811F81183009F4003009F00FC1B4E0C8
:1051E6006B2EB2E74B2EB0E25B2EBDEC2B2EB9E157
:1051F6003B2EA4D8002329F4B0914420B260B0938A
:105206004420B4E06B2EB3E04B2EB0E25B2EBDEC37
:105216002B2EB9E13B2E92D8002329F4B0914420DD
:10522600B260B0934420B4E06B2EB7E14B2EB1E2EE
:105236005B2EBDEC2B2EB9E13B2E80D8002339F036
:10524600B0914420B1FD03C0B2E0B887D6C0BDEB33
:105256002B2EB9E13B2E0E944E1E007F003419F022
:10526600B3E0B887CAC0BDEB2B2EB9E13B2E0E9436
:105276004E1E0A83B0E0BB830A811B810F7010703B
:10528600000F111F000F111F0A831B83B3EC2B2E77
:10529600B9E13B2E0E944E1E0F7B003009F0ADC0D7
:1052A600B4EC2B2EB9E13B2E0E944E1E003009F0C5
:1052B600A4C00A811B810354164E08831983B6ECD9
:1052C6002B2EB9E13B2E0E944E1E102F013009F005
:1052D6006AC0288039800E944E1E083009F062C0DC
:1052E600088119810F5F1F4F18010E944E1E003062
:1052F60009F058C04424288039800E94711E0E94FB
:10530600231E8ED855244424B7EC2B2EB9E13B2E10
:10531600B2D84A805B80BDEB2B2EB9E13B2EB5D8C7
:10532600B6E12B2E0E943A1F0B87B7E12B2E0E9467
:105336003A1F1B85512E402EB7EC2B2EB9E13B2E82
:105346009AD8088119810E5F1F4F552444241801ED
:1053560092D80A801B8000914220109143200019A8
:1053660011090E5010402801288039808ED8B6E1E8
:105376002B2E0E943A1F0B87B7E12B2E0E943A1F55
:1053860018812981312F422F3E5F4F4F1B85512EA9
:10539600402E232E342E6FD820904220309043206A
:1053A6000E94C21C2AC0113141F4588069804A808B
:1053B6002C803D800E94C01F20C01630F1F40C8165
:1053C6001D81005F1F4F18010E944E1E102F0027DF
:1053D6000B871C877FDC2B853C8510E0020F131F93
:1053E600025F1F4F0093422010934320688079800C
:1053F6004A805B802C803D8084D802C0B4E0B887A8
:10540600B0E43B2EBEE12B2E65DD209109203091C4
:105416000A20215030400DEA19E10217130740F423
:10542600BDEA3B2EB9E14B2EBCE02B2E70DD0BC046
:105436000091092010910A2001501040302E412E73
:10544600BCE02B2E64DD08858F907F906F905F9077
:105456004F903F902F902C96CDBFDEBFDF91CF911E
:025466000895A7
:104D0E00CF93DF93CDB7DEB72597CDBFDEBF21960C
:104D1E00B0E0BC838201015010402801882069F068
:104D2E000DEA19E10415150540F40C810F5F0C8393
:104D3E0082010D5A19410A831B830C81002321F035
:104D4E002DEA39E1890102C092018901201631064E
:104D5E0009F58F927F926F925F924F923F922F92B0
:104D6E000E944E1E2F903F904F905F906F907F90BD
:104D7E007F926F925F924F923F922F92402E13012D
:104D8E000E94711E2F903F904F905F906F907F907A
:104D9E008F905FC08F927F926F925F924F923F92F1
:104DAE002F92432C322CB0E12B2EADD02F903F9072
:104DBE004F905F906F907F908F900C81002329F021
:104DCE00BDEAB883B9E1B98302C0488259828F9295
:104DDE007F926F925F924F923F922F9238804980CE
:104DEE00B2E12B2E90D02F903F904F905F906F900E
:104DFE007F907F926F925F924F923F922F92362CBE
:104E0E00472CB4E12B2E7FD0B0E13B2EBFE12B2EF1
:104E1E00AED0B0E23B2EBFE12B2E58D02F903F905C
:104E2E004F905F906F907F908F908F927F926F9246
:104E3E005F924F923F922F92BFE12B2E14D82F905C
:104E4E003F904F905F906F907F908F9005FF01C0C5
:104E5E00ECCF0C810023B1F08201021913090A80F4
:104E6E001B80001911090F5F1F4F060D171D38010A
:104E7E000A811B8101501040280122243324B0E006
:104E8E00BC835BCF2496CDBFDEBFDF91CF9108955B
:004E9E0014
:103CE2002F923F924F92432C322CB2E02B2E0E9405
:103CF2008A27B0914406BE7FB0934406BAE72B2EC2
:103D0200E091E620F091E72009954F90242CE09174
:103D1200E620F091E7200995B0914406B160B09396
:083D220044063F902F90089524
:103C9C002F923F924F92432C322C22240E948A273F
:103CAC00B0914406BE7FB0934406BAE32B2EE0914C
:103CBC00E620F091E72009952224E091E620F0918E
:103CCC00E7200995B0914406B160B09344064F903B
:063CDC003F902F900895B7
:104CDA002F92B0914406BE7FB0934406BAE32B2EBE
:104CEA00E091E620F091E72009952224E091E62060
:104CFA00F091E7200995B0914406B160B09344065B
:044D0A002F90089549
:10434200CF93DF93CDB7DEB72497CDBFDEBF2196E3
:104352002F923F924F925F928E010A831B836F923C
:104362005F924F923F922F92222483DD1A812B81FA
:10437200E12FF22F00838E010F5F1F4F0A831B83F1
:10438200B1E02B2E76DD2F903F901A812B81E12F09
:10439200F22F0083432C322C2224BBD5B091440649
:1043A200BE7FB0934406BAE32B2EE091E620F09153
:1043B200E72009954F905F906F906620E9F06F9229
:1043C2005F924F923F922F922224E091E620F09149
:1043D200E72009952F903F904F905F906F90F201E8
:1043E2001081011709F008C082010F5F1F4F2801D9
:1043F200062D0150602EE1CFB0914406B160B0931A
:1044020044066F9238804980222483D56F90062D0E
:104412005F904F903F902F902396CDBFDEBFDF91EC
:04442200CF91089599
:10416A00CF93DF93CDB7DEB72197CDBFDEBF2196C0
:10417A002F923F924F925F926F927F928F92B4ECFE
:10418A002B2EB9E13B2E85DD0883C3C0B4E06B2E2C
:10419A00B7E14B2EB1E25B2EB5ED2B2EB9E13B2EEA
:1041AA00CBD0003009F045C0B2E04B2EB4EC2B2E38
:1041BA00B9E13B2E91DD42DD8824B5ED6B2EB9E1E4
:1041CA007B2EBFEC4B2EB9E15B2EBBEC2B2EB9E15B
:1041DA003B2E98D5B4E06B2EB0E07B2EB7E14B2E88
:1041EA00B1E25B2EBBEC2B2EB9E13B2E0E943218BA
:1041FA008824BFEC6B2EB9E17B2EBBEC4B2EB9E1C8
:10420A005B2EB5EC2B2EB9E13B2E7CD5B6E06B2E9E
:10421A00B0E07B2EBBE14B2EB1E25B2EB5EC2B2E30
:10422A00B9E13B2E0E943218BCE32B2EB0E03B2EA4
:10423A00A4DB76C0B6E06B2EBBE14B2EB1E25B2E5F
:10424A00BFEA2B2EB9E13B2E77D0003009F060C0CF
:10425A00B4E06B2E4090152150901621BBEC2B2E0A
:10426A00B9E13B2E69D0003009F052C00FE010E0EE
:10427A004091392050E054DD28EE30E2020F131F3E
:10428A00075F1F4FB6E06B2EB0E07B2EB5EC4B2ECE
:10429A00B9E15B2E180180DC0FE010E04091392073
:1042AA0050E03EDD28EE30E2020F131F0B5F1F4F76
:1042BA00B4E06B2EB0E07B2E409015215090162171
:1042CA0018010E94462B0FE010E04091392050E07F
:1042DA0027DD28EE30E2F801E20FF31FB1E0B083E8
:1042EA000FE010E04091392050E01ADD28EE30E26C
:1042FA00020F131FF801319600913A2010913B20CA
:10430A0020913C2030913D200193119321933193C8
:10431A0007C00881013009F439CF023009F48ACF85
:10432A008F907F906F905F904F903F902F90CDBF6E
:08433A00DEBFDF91CF91089571
:103C46002F923F924F925F926F927F928F9288242B
:103C5600BFEA6B2EB9E17B2EBBEB4B2EB9E15B2E97
:103C6600B5EB2B2EB9E13B2E0E948726B6E06B2ED4
:103C7600B0E07B2EBBE14B2EB1E25B2EB5EB2B2EDB
:103C8600B9E13B2EECD98F907F906F905F904F906B
:063C96003F902F900895FD
:103064002F923F927F926F925F924F92432C322C19
:10307400B2E02B2E0E948A27B0914406BE7FB09303
:103084004406BAE72B2EE091E620F091E72009955B
:103094004F905F906F907F90B62DB729E9F0F201C1
:1030A40000817F926F925F924F923F922F92202ED7
:1030B400E091E620F091E72009952F903F904F9002
:1030C4005F906F907F9082010F5F1F4F28018301F3
:1030D400015010403801E0CFB0914406B160B09384
:0830E40044063F902F9008956F
:10398400CF93DF93CDB7DEB72497CDBFDEBF2196AB
:103994004F923F922F924424BEEA2B2EB9E13B2E44
:1039A4009ED12F903F9081010255164E18013F92EF
:1039B4002F92302E412EB6E02B2E0E948A27B0E89B
:1039C4003B2EBFE12B2E0E946D27B0E83B2EBFE1BA
:1039D4002B2E0E94BE272F903F900091512005303E
:1039E40029F000915120073009F00AC03F922F922C
:1039F400BAE03B2EBCE12B2E0E94BE272F903F90B5
:103A04003F922F92B8E03B2EBFE12B2E0E946D27F0
:103A14002F903F9000915120053029F000915120C2
:103A2400073009F09DC0B0E0BA83BB833F922F9268
:103A3400BCE12B2E1DD22F903F900A70002359F425
:103A44000A811B810F5F1F4F0A831B83133009F404
:103A5400083E08F4EBCF3F922F92BCE12B2E08D204
:103A64002F903F9001FD07C00A811B81133009F498
:103A7400083E08F474C03F922F92B8E03B2EBFE199
:103A84002B2E0E94BE272F903F9081010C5F1F4F69
:103A94003F922F92180100D12F903F900983B0E0FC
:103AA400B8830881003108F05AC03F922F92BCE1DC
:103AB4002B2EDED12F903F9001FF4CC0B981B5FF72
:103AC40049C03F922F92B0E83B2EBFE12B2E0E94BB
:103AD4006D27B0E83B2EBFE12B2E0E94BE27BAE033
:103AE4003B2EBCE12B2E0E94BE27B8E03B2EBFE14B
:103AF4002B2E0E946D272F903F90B0E0BA83BB839A
:103B04003F922F92BCE12B2EB3D12F903F900A709D
:103B1400002359F40A811B810F5F1F4F0A831B8303
:103B2400133009F4083E08F4EBCF3F922F92B8E02B
:103B34003B2EBFE12B2E0E94BE272F903F90810188
:103B44000C5F1F4F3F922F921801A6D02F903F90E9
:103B5400098301C004C008810F5F0883A2CF0AC093
:103B64003F922F92BFE12B2E83D12F903F9003FFE2
:103B740001C0F6CF3F922F92BDE12B2E79D12F9029
:103B84003F900670002311F010E001C011E0012FF6
:0E3B94004F902396CDBFDEBFDF91CF910895F5
:103BA2004F925F92BFEF5B1611F4BFEF4B1669F0B5
:103BB2007F926F923F922F92342C452C22240E94A6
:103BC2008A272F903F906F907F90B0914406BE7FDE
:103BD200B09344067F926F923F922F92BAE32B2EBC
:103BE200E091E620F091E72009952F903F906F90A9
:103BF2007F9093018301015010403801B22FB32B03
:103C0200C9F07F926F925F924F923F922F9222243D
:103C1200E091E620F091E72009952F903F904F9098
:103C22005F906F907F90F101008381010F5F1F4FC2
:103C32001801DFCFB0914406B160B09344065F90A3
:043C42004F90089502
:103D2A009801249F8001259F100D349F100D08953E
:003D3A0089
:104426002F923F924F925F926F927F928F92882443
:10443600BDEC6B2EB9E17B2EBDEC4B2EB9E15B2EAC
:10444600B9EC2B2EB9E13B2E5FD4B4E06B2EB0E075
:104456007B2EB7E14B2EB1E25B2EB9EC2B2EB9E1E8
:104466003B2E0E9432188F907F906F905F904F90F6
:064476003F902F90089515
:10447C002F923F925F922FDC5F90252CE3D83F90D8
:04448C002F900895D0
:10365000B0914406BE7FB09344062F92BAE72B2E5A
:10366000E091E620F091E72009952F90E091E62087
:10367000F091E7200995B0914406B160B0934406FB
:023680000895AB
:10449000CF93DF93CDB7DEB72297CDBFDEBF219696
:1044A0002F923F924F925F928201020D131D015095
:1044B000104008831983432C322CB0E12B2E2AD5CF
:1044C00038804980B2E12B2E25D5B0E33B2EBFE1E9
:1044D0002B2E03D55F924F923F922F92BFE12B2E4E
:1044E000C9DC2F903F904F905F9005FF01C0F2CF45
:1044F0005F904F903F902F902196CDBFDEBFDF9110
:04450000CF910895BA
:103F8000CF93DF93CDB7DEB76297CDBFDEBF21966B
:103F90002F923F924F925F926F927F928F929F9259
:103FA0008E01085F1F4F0F5F1F4F088B198B6F9299
:103FB0005F924F923F922F92252C362C6FDE1889FC
:103FC0002989E12FF22F00838E01085F1F4F088B94
:103FD000198B83D618892989E12FF22F00838E014E
:103FE0000A5F1F4F0F5F1F4F088B198B76D61889FA
:103FF0002989E12FF22F00838E010A5F1F4F088B62
:10400000198B6BD62F903F904F905F906F901889CF
:104010002989E12FF22F00830E811F81103009F4CE
:10402000003009F494C08E01065F1F4F0F5F1F4FD1
:10403000088B198B6F925F924F923F922F924DD6C1
:1040400018892989E12FF22F00838E01065F1F4F07
:10405000088B198B42D618892989E12FF22F00830A
:104060008E01045F1F4FB4E06B2EB0E07B2EB9ECE5
:104070004B2EB9E15B2E180194DD2F903F904F90AD
:104080005F906F90052D162D085F1F4F4F923F9246
:104090002F92302E412EB2E02B2E3CD72F903F9006
:1040A0004F908101025F1F4F040DB0E01B1F085F9E
:1040B0001F4F1801B8DA08851985103009F4053347
:1040C00011F4BED944C00E811F81103009F40434AC
:1040D00011F4E3DA3CC02A853B85285030408E013C
:1040E000045F1F4F49016E807F8048845984180106
:1040F000B0E2BF93B4E4BF93C4DAADB7BEB71296D3
:10410000ADBFBEBF0A871B87B02FB12B01F18E0157
:10411000B6E06B2EB0E07B2EB5EB4B2EB9E15B2EFB
:1041200018013FDD9E01245F3F4F8E0188849984F2
:104130006E807F80290118010A851B851F930F93CC
:104140000E949C06ADB7BEB71296ADBFBEBF9F9092
:104150008F907F906F905F904F903F902F906196DF
:0A416000CDBFDEBFDF91CF910895BF
:103626002F923F924F920DEA19E10215130520F4ED
:1036360081010E5A19411801432C322C22240E9472
:0A3646008A274F903F902F900895BF
:10344000CF93DF93CDB7DEB72C97CDBFDEBF2196EC
:103450000E946D260E946D268E010F5F1F4F0A8706
:103460001B870E946D261A852B85E12FF22F008382
:103470008E010A871B870E946D261A852B85E12FF6
:10348000F22F00838E010E5F1F4F0F5F1F4F0A87C1
:103490001B870E946D261A852B85E12FF22F008352
:1034A0008E010E5F1F4F0A871B870E946D261A85AB
:1034B0002B85E12FF22F00838E010C5F1F4F0F5FD2
:1034C0001F4F0A871B870E946D261A852B85E12FC7
:1034D000F22F00838E010C5F1F4F0A871B870E940B
:1034E0006D261A852B85E12FF22F00830E946D2611
:1034F0000E946D260E946D260E946D262A813B81C6
:103500000A811B81015010400A831B83B22FB32B09
:1035100071F00E946D26002309F0FBCF0E946D26FA
:103520000E946D260E946D260E946D26E7CF2C8199
:103530003D810C811D81015010400C831D83B22FF1
:10354000B32B09F46AC00E946D260E946D268E017D
:10355000085F1F4F0F5F1F4F0A871B870E946D2652
:103560001A852B85E12FF22F00838E01085F1F4FF4
:103570000A871B870E946D261A852B85E12FF22F63
:1035800000830E946D260E946D260E946D260E9477
:103590006D260E946D260E946D268E010A5F1F4FC8
:1035A0000F5F1F4F0A871B870E946D261A852B8588
:1035B000E12FF22F00838E010A5F1F4F0A871B87BE
:1035C0000E946D261A852B85E12FF22F0083088536
:1035D0001985103009F4013089F40E946D2600939A
:1035E00045200E946D26009346200E946D26009380
:1035F00047200E946D26009348200FC02E813F81F6
:103600000E811F81015010400E831F83B22FB32BF8
:1036100019F00E946D26F2CF8ACF2B96CDBFDEBF68
:06362000DF91CF91089537
:10369A002F923F924F925F926F927F92DFC0B4E077
:1036AA005B2EB0E06B2E4424B7E12B2EB1E23B2E09
:1036BA0067D33324B1E02B2EC1DB00913A2010915D
:1036CA003B2020913C2030913D20009362201093B2
:1036DA0063202093642030936520B3E0B0930220E6
:1036EA00D6C000916220109163202091642030910D
:1036FA006520A801B9014B5F5F4F6F4F7F4F009163
:10370A003A2010913B2020913C2030913D204017D7
:10371A0051076207730718F4B2E0B09302200CDD78
:10372A00023021F4B4E0B093022001C0B0C030905E
:10373A001320B3E02B2E82DB00913A2010913B201C
:10374A0020913C2030913D20009362201093632009
:10375A002093642030936520B5E0B093022097C08F
:10376A00EBDC102F063021F4B4E0B093022035C010
:10377A00153099F500913A2010913B2020913C2078
:10378A0030913D200093622010936320209364209F
:10379A0030936520B6E0B0930220B4E06B2EB0E01F
:1037AA007B2EB9E44B2EB0E25B2EB7E12B2EB1E2B1
:1037BA003B2E0E94462BBAE56B2EB0E27B2EBEE56D
:1037CA004B2EB0E25B2EB2E52B2EB0E23B2E0E94CE
:1037DA00FE2BB0E0B09313205AC059C0009162206A
:1037EA00109163202091642030916520A801B901CD
:1037FA004F5F5F4F6F4F7F4F00913A2010913B20F0
:10380A0020913C2030913D200417150726073707E1
:10381A0020F100914D2010914E2020914F2030919F
:10382A005020015010402040304000934D2010930A
:10383A004E2020934F203093502000913A2010912F
:10384A003B2020913C2030913D2000936220109330
:10385A006320209364203093652019C000910220D0
:10386A00023009F41CCF00910220033009F439CF49
:10387A0000910220043009F45ACF00910220053049
:10388A0009F46ECF00910220063009F4A7CF7F9089
:0C389A006F905F904F903F902F9008952A
:102E4600CF93DF93CDB7DEB72397CDBFDEBF2196F5
:102E56004F925F926F927F928F929F92B9EFB98352
:102E6600B0E0BA833F922F92B9ED3B2EB9E14B2EDB
:102E7600B2E02B2E0E948A27BCE04B2EB0E05B2EE0
:102E8600B0E42B2EB3E03B2E0E94AC072F903F9070
:102E9600B3E02B1689F4332079F03F922F92B4E0F9
:102EA6004B2EB0E05B2EB9E42B2EB0E23B2E0E94F7
:102EB600E3072F903F900FC0B0E0B883088104303D
:102EC60050F43F922F922224C0D32F903F90088136
:102ED6000F5F0883F3CFB0E0B88308810C3050F45D
:102EE6003F922F922224B1D32F903F9008810F5FFB
:102EF6000883F3CF3F922F92B6E04B2EB0E05B2EC5
:102F0600BBE12B2EB1E23B2E0E94E3072F903F90B0
:102F1600B0E0B88308810A3C50F43F922F922224F5
:102F260094D32F903F9008810F5F0883F3CF3F9291
:102F36002F92B6E04B2EB0E05B2EB2E52B2EB3E01F
:102F46003B2E0E94AC072F902F927FD32F903F905D
:102F5600B3E02B16E1F43320D1F43F922F92B6E37F
:102F66002B2E73D3B4E02B2E70D3B4E04B2EB0E0EF
:102F76005B2EB6E52B2EB0E23B2E0E94E3072F9088
:102F86003F9009811A810A5F1F4F09831A833F9276
:102F96002F92B5E04B2EB0E05B2EB8E52B2EB3E0BA
:102FA6003B2E0E94AC072F903F90B3E02B1649F5BD
:102FB600332039F53F922F92B2E32B2E46D3B4E05D
:102FC6002B2E43D32F903F90B0E0B8830881043076
:102FD60090F419E420E20881E02FF0E0E10FF21FFF
:102FE60000813F922F92202E30D32F903F90088160
:102FF6000F5F0883EBCF09811A810A5F1F4F098390
:103006001A833F922F92BFEF2B2E1FD3B3E48B2E42
:10301600B0E09B2EB4E46B2EB0E07B2EB3E04B2EDB
:10302600B0E25B2EB3E02B2EB0E23B2E09811A8173
:103036001F930F930E949C06ADB7BEB71296ADBF05
:10304600BEBF2F903F909F908F907F906F905F9024
:0E3056004F902296CDBFDEBFDF91CF9108953F
:100F5800B0914406BE7FB09344065F924F923F9291
:100F68002F92BAE72B2EE091E620F091E720099521
:100F78002F903F904F905F90920182010150104056
:100F88002801B22FB32BA9F0F10104915F924F927F
:100F98003F922F92202EE091E620F091E7200995CC
:100FA8002F903F904F905F9081010F5F1F4F180166
:0E0FB800E3CFB0914406B160B09344060895B3
:100FC600B0914406BE7FB09344065F924F923F9223
:100FD6002F92BAE72B2EE091E620F091E7200995B3
:100FE6002F903F904F905F909201820101501040E8
:100FF6002801B22FB32BA9F0F10100815F924F9225
:101006003F922F92202EE091E620F091E72009955D
:101016002F903F904F905F9081010F5F1F4F1801F7
:0E102600E3CFB0914406B160B0934406089544
:100D3800CF93DF93CDB7DEB72597CDBFDEBF219622
:100D48002F923F924F925F926F927F928F929F92D3
:100D58000A851B850A871B879F928F927F926F92C5
:100D68005F924F92B6E06B2EB0E07B2E2101BFEA76
:100D78002B2EB9E13B2E0E943218B6E04B2EB0E084
:100D88005B2EBBE12B2EB1E23B2E19D1B0E02B2E0E
:100D9800B8E03B2EC0DC0A851B85045E1F4F098323
:100DA8001A83B0E02B2EB5E43B2EB5DC29803A80BF
:100DB800B2DC20906E2030906F20ADDC00916E2068
:100DC80010916F200F5F1F4F00936E2010936F20BC
:100DD80022243324A0DCB1E12B2EB0E83B2E9BDC8F
:100DE8002224332498DCB4E04B2EB0E05B2EB7E12C
:100DF8002B2EB1E23B2EE3D04F905F901201B4E06E
:100E08004B2EB0E05B2EDBD06F907F900A851B8560
:100E1800085F1F4F09831A8313017DDC8F909F9011
:100E2800140179DC29803A8076DC2224332473DCAF
:100E3800B4E14B2EB0E05B2EBDEB2B2EB9E13B2E7F
:100E48000E944822B6E12B2E0E943A1F0C83B7E17C
:100E58002B2E0E943A1F1C81512E402EB7EC2B2EB0
:100E6800B9E13B2E0E943E220981017008830A8560
:100E78001B850752164E442418010E94711E0A85CC
:100E88001B8598012752364E088110E0020F131F68
:100E980088243801B1ED4B2EB9E15B2EB9EC2B2E2D
:100EA800B9E13B2E0E9487260A851B8598012752A7
:100EB800364E088110E0020F131F085F1F4FB1E183
:100EC8005B2E442418010E943E228E010F5F1F4FA3
:100ED800F80131960081202E0E94281B29800E944B
:100EE800281B09811A819801245F3F4F088110E06F
:100EF800020F131F2801B1ED2B2EB9E13B2E0E94E2
:100F08004822B6E12B2E0E943A1F0C83B7E12B2E04
:100F18000E943A1F1C81512E402EB7ED2B2EB9E1AD
:100F28003B2E0E943E220A851B85065D1F4F180135
:100F38000E94C21C9F908F907F906F905F904F90FF
:100F48003F902F902496CDBFDEBFDF91CF910895BB
:000F580099
:10071E00CF93DF93CDB7DEB72297CDBFDEBF219645
:10072E002F923F9228823982B0914406BE7FB093B9
:10073E004406BAE72B2EE091E620F091E7200995CA
:10074E008E01F80131960081202EE091E620F09185
:10075E00E7200995FE010081202EE091E620F09120
:10076E00E7200995B0914406B160B09344063F90DE
:0E077E002F902196CDBFDEBFDF91CF91089561
:10314200CF93DF93CDB7DEB72697CDBFDEBF2196F3
:103152002F923F924F925F926F927F92B0E0B8832C
:10316200BCE3B0934D20B0E0B0934E20B0934F201B
:10317200B09350200E946D26023009F02BC120E04E
:10318200122F1F3048F41F930E946D261F91012FAA
:103192000F5F202F122FF5CFB4E06B2EB0E07B2E05
:1031A200BFEF4B2E5B2EB9E42B2EB0E23B2EF8D4B0
:1031B20020E0122F183048F41F930E946D261F91B1
:1031C200012F0F5F202F122FF5CF40E0342F363022
:1031D20098F43F930E946D263F911BE121E2E32F79
:1031E200F0E0E10FF21F1081011709F01BC1032F5C
:1031F2000F5F402F342FEBCF20E0122F1E3C48F4FC
:103202001F930E946D261F91012F0F5F202F122FF7
:10321200F5CFB0E0B9830E946D26C2C00E946D2630
:10322200013021F40E946D26088301C0FBC0CEC08C
:103232000E946D26043069F4B4E06B2EB0E07B2E60
:10324200BFEF4B2E5B2EB2E52B2EB0E23B2EA8D465
:1032520001C0E8C0BBC00E946D26102F043078F078
:103262001F93B4E06B2EB0E07B2EBFEF4B2E5B2E94
:10327200BEE52B2EB0E23B2E93D41F9101C0D2C0EB
:10328200012F0450202F122F022F0150202F112323
:1032920029F02F930E946D262F91F5CF97C00E949F
:1032A2006D26102F043078F01F93B4E06B2EB0E03F
:1032B2007B2EBFEF4B2E5B2EBAE52B2EB0E23B2EC0
:1032C2006FD41F9101C0AEC0012F0450202F122FC6
:1032D200022F0150202F112329F02F930E946D26D7
:1032E2002F91F5CF73C00E946D26043069F48E01D0
:1032F2000E5F1F4FB4E06B2EB0E07B2EBFEF4B2E64
:103302005B2E18014DD401C08DC060C0B1E0B983FD
:103312005DC00E946D26043091F5B4E06B2EB0E0E2
:103322007B2EBFEF4B2E5B2EBDE42B2EB0E23B2E4D
:1033320037D440914D2050914E2060914F20709192
:10334200502008E017E020E030E0041715072607B8
:103352003707A0F400914D2010914E2020914F206C
:1033620030915020085017402040304000934D20AB
:1033720010934E2020934F203093502001C052C012
:1033820025C00E946D26202F122F022F0150202FC0
:10339200112329F02F930E946D262F91F5CF16C08D
:1033A200053309F43BCF013009F442CF033009F46D
:1033B20052CF063009F473CF063309F494CF0F3F8E
:1033C20009F4A4CF033309F4A4CFDBCF098100238E
:1033D20009F421CF0881023079F48E010E5F1F4F6C
:1033E200B4E06B2EB0E07B2E2801B6E52B2EB0E2C6
:1033F2003B2E0E94462B14C08E010E5F1F4FB4E07D
:103402006B2EB0E07B2E2801B6E52B2EB0E23B2ED0
:103412000E941A08103009F4003011F0B0E0B883AD
:10342200088101C000E07F906F905F904F903F90C5
:0E3432002F902596CDBFDEBFDF91CF9108957C
:1010340093018301015010403801303009F420300D
:10104400D9F0F1011081F2010081101761F0F10172
:101054001081F2010081002EB0E01B2E012F10E060
:10106400001911090BC081010F5F1F4F1801820184
:0E1074000F5F1F4F2801DCCF00E010E0089551
:10368200CF93DF93CDB7DEB726960881198100E08C
:0836920010E0DF91CF910895D3
:10450800CF93DF93CDB7DEB7A697CDBFDEBF219699
:104518008F929F928E01075F1F4F0F5F1F4F0CA353
:104528001DA37F926F925F924F923F922F92130139
:10453800B1DB1CA12DA1E12FF22F00838E01075FB3
:104548001F4F0CA31DA3C5D31CA12DA1E12FF22F32
:1045580000838E01095F1F4F0F5F1F4F0CA31DA320
:10456800B8D31CA12DA1E12FF22F00838E01095F82
:104578001F4F0CA31DA3ADD32F903F904F905F907A
:104588006F907F901CA12DA1E12FF22F0083B0E046
:10459800BF87B0E0BC8BB1E0BD8BB0E0BA8BBB8B02
:1045A8008301045F1F4F7F926F925F924F923F92F9
:1045B8002F9218016FDB0695069510E00C7F0D878A
:1045C8001E878E01025E1F4FB4E06B2EB0E07B2E7B
:1045D800B9EC4B2EB9E15B2E1801DFDA2F903F9032
:1045E8004F905F906F907F908301035F1F4F7F9282
:1045F8006F925F924F923F922F9218014BDB2F9050
:104608003F904F905F906F907F900F730B87B0E053
:10461800BC8700914220109143200E50104004198D
:1046280015090D841E8400191109088B198B830143
:104638000E5F1F4F7F926F925F924F923F922F9221
:10464800180128DB2F903F904F905F906F907F90DC
:104658007F926F925F924F923F922F92402E13015A
:104668003CDB2F903F904F905F906F907F9083013D
:104678000D5F1F4F7F926F925F924F923F922F92E2
:10468800180108DB202E0E94281B29843A840E94E6
:104698008F032F903F904F905F906F907F90830192
:1046A8000C5F1F4F7F926F925F924F923F922F92B3
:1046B8001801F0DA098F0DD3088F0BD30F8B09D3AC
:1046C8000E8B07D30D8F05D30C8F03D30B8F01D31C
:1046D8002F903F904F905F906F907F900A8F0B853F
:1046E8001C85103009F40230C9F50E891F89288D00
:1046F800398D0F5F1F4F2F4F3F4F0A8F1B8F2C8F06
:104708003D8FB2E1BB87B0E0BC877F926F925F922A
:104718004F923F922F92BCE02B2EA8DB0E8BBDE070
:104728002B2EA4DB0F8B2224A1DB088FB1E02B2ECC
:104738009DDB2F903F904F905F906F907F90098FF7
:104748000F850F5F0F87B8E1BD87B0E0BE87B0E087
:10475800BA8BBB8BB0E0B09301206BC00B851C8576
:10476800103009F4083179F50E891F89288D398DA3
:10477800088319832A833B830A8D1B8D2C8D3D8DDD
:104788000E8B1F8B288F398F488159816A817B81D5
:104798000889198920E0322F040F151F261F371F9B
:1047A8000A8F1B8F2C8F3D8FB0E1BB87B0E0BC8791
:1047B8000F850F5F0F87B4E1BD87B0E0BE870C8916
:1047C8000F5F0C8B36C00B851C85103009F4013146
:1047D80081F54E895F89688D798D0A8D1B8D2C8DA9
:1047E8003D8D0E8B1F8B288F398F8A019B010F5FA0
:1047F8001F4F2F4F3F4F0A8F1B8F2C8F3D8FB0E1DC
:10480800BB87B0E0BC870F850F5F0F87B4E1BD871A
:10481800B0E0BE87B0E0BA8BBB8B009100200023CC
:1048280041F4009101200F5F00930120B0E0B093A4
:1048380000200F85002309F433C283010C5F1F4F4A
:104848007F926F925F924F923F922F92588C498C31
:10485800180110DE2F880E94281B2E880E94281B12
:104868002D8C0E94281B2C8C0E94281B2B8C0E94AC
:10487800281B2A8C0E94281B2F903F904F905F90F6
:104888006F907F908301045F1F4F7F926F925F92BA
:104898004F923F922F921801FDD92F903F904F9041
:1048A8005F906F907F90102F1F700D85000F000F85
:1048B800212F202B8301045F1F4F7F926F925F92FD
:1048C8004F923F922F92422E180107DA2F903F9075
:1048D8004F905F906F907F908301035F1F4F7F928F
:1048E8006F925F924F923F922F921801D3D92F90D7
:1048F8003F904F905F906F907F90102F107C0B85AA
:10490800212F202B8301035F1F4F7F926F925F92AD
:104918004F923F922F92422E1801DFD92F903F904D
:104928004F905F906F907F900B851C85103009F435
:10493800023191F58301025F1F4F7F926F925F9260
:104948004F923F922F92BEEE5B2EB5E04B2E180190
:1049580091DD2F903F904F905F906F907F908301F3
:104968000C5E1F4F7F926F925F924F923F922F92F1
:10497800B4E05B2EB2E04B2E18017CDDB5E02B2EA7
:104988000E94281BB8E72B2E0E94281B2F903F90CF
:104998004F905F906F907F900A891B899201200F3A
:1049A800311F0D851E85020F131F088B198B0D896A
:1049B800002371F07F926F925F924F923F922F92F5
:1049C8003ED92DDD2F903F904F905F906F907F9054
:1049D8008E01005F1F4FF801319600817F926F9220
:1049E8005F924F923F922F925888402EBFEB2B2E0A
:1049F800B9E13B2E3FDD55244424B7EC2B2EB9E119
:104A08003B2E38DD2F903F904F905F905F924F92F2
:104A18003F922F92BDEB2B2EB9E13B2E35DDB6E14F
:104A28002B2E24DA0CA3B7E12B2E20DA1CA1512E51
:104A3800402EB7EC2B2EB9E13B2E1CDD2F903F907A
:104A48004F905F906F907F90088919890354164E94
:104A58000D831E838301005F1F4F7F926F925F92C9
:104A68004F923F922F9255244424180103DD088960
:104A780001700C8344242D803E802FD92D813E81E6
:104A88000C8110E0020F131F88243801B1ED4B2E62
:104A9800B9E15B2EB9EC2B2EB9E13B2E34D10D8157
:104AA8001E819801285F3F4F0C8110E0020F131FF1
:104AB800B6E05B2E44241801DDDC1D850A89612FD0
:104AC800600F2D853E850A891B89020F131F412F10
:104AD80050E00D811E819801265F3F4F0C8110E048
:104AE800020F131F562E442E1801C4DC2F903F903E
:104AF8004F905F906F907F902D853E850A891B8926
:104B0800020F131F9801245F3F4F0C8110E0020F22
:104B1800131F7F926F925F924F923F922F922801BC
:104B28001301B2DCB6E12B2EA1D90CA3B7E12B2ED1
:104B38009DD92F903F904F905F906F907F909301F9
:104B4800205F3F4F1CA17F926F925F924F923F92DE
:104B58002F92512E402E19018DDC08891989025F88
:104B68001F4F18010E94C21C2F903F904F905F90DA
:104B78006F907F900C89002309F46AC0B0E1BB876D
:104B8800B0E0BC87B0E0BC8BB0E0BD8B0D851E8566
:104B9800060D171D7F926F925F924F923F922F9250
:104BA800302E412EB2E02B2EB1D12F903F904F9056
:104BB8005F908101025F1F4F9201200F311F0D8509
:104BC8001E85020F131F5F924F923F922F9218017A
:104BD8000E94131B2F903F904F905F9000910120EF
:104BE8000F5F0093012000914220109143200E5046
:104BF8001040041915090D841E84980120193109E3
:104C08008E01025E1F4F5F924F923F922F92490191
:104C18006F80788449845A841801B0E2BF93B4E461
:104C2800BF930E94531CADB7BEB71296ADBFBEBFAF
:104C38002F903F904F905F906F907F900A8B1B8BC7
:104C4800B0914420B0FD03C0B0E0B0930120F5CD91
:104C580000910120002321F14E895F89688D798DAB
:104C68000A891B8920E0322F040F151F261F371FC2
:104C78000E8B1F8B288F398FB1E1BB87B0E0BC87C3
:104C8800B0E0B0930120B0E0BD8BB4E1BD87B0E0E7
:104C9800BE87B0E0BA8BBB8BB1E0B0930020CDCD1E
:104CA8009F908F90A596CDBFDEBFDF91CF910895DD
:004CB800FC
:1038A600CF93DF93CDB7DEB726962F923F924F92F6
:1038B6005F926F927F9208811981B1E07B1611F4B5
:1038C600B6EF6B1619F000E010E050C09F928F9291
:1038D600340144245524B2E82B2EB0E23B2E5ED1AF
:1038E6008F909F9020E030E02815390538F53F93FA
:1038F6002F939F928F927F926F925F924F923F92F9
:103906002F92B3E0BF93BCE4BF93B2E2BF93B2E899
:10391600BF93E9DBADB7BEB71496ADBFBEBF2F9060
:103926003F904F905F906F907F908F909F902F91D8
:103936003F9189010F5F1F4F9801D6CF9F928F92BB
:103946007F926F925F924F923F922F92BBE22B2E05
:10395600B0E23B2E0E945F2B2F903F904F905F90DE
:103966006F907F908F909F9000E010E07F906F9017
:0E3976005F904F903F902F90DF91CF9108957A
:1030EC00CF93DF93CDB7DEB72297CDBFDEBF21964E
:1030FC002F923F924F925F926F927F922F813885E1
:10310C00FE018E01075F1F4F0E5F1F4F019311933E
:10311C008E01380149845A8419010E9441087F901C
:10312C006F905F904F903F902F902196CDBFDEBF58
:06313C00DF91CF91089520
:10108200CF93DF93CDB7DEB7A397CDBFDEBF219657
:10109200B0E0B98FBA8FF20182010F5F1F4F2801B2
:1010A20004910A87002311F40C941B170A85053258
:1010B200A1F07F926F925F924F923F922F923F9256
:1010C2002F922A840F901F90F00109952F903F9044
:1010D2004F905F906F907F90DECFB0E0BB87BC8770
:1010E200B0E0BD87BE8732C00D851E8508600D87C2
:1010F2001E8782010F5F1F4F28013DC00D851E858F
:1011020001600D871E8782010F5F1F4F280133C0C8
:101112000D851E8502600D871E8782010F5F1F4F9E
:10112200280129C00D851E8518600D871E87820142
:101132000F5F1F4F28011FC00D851E8504600D879C
:101142001E8782010F5F1F4F280115C0F201049113
:101152000D3251F2F2010491003281F2F201049156
:101162000B32B1F2F20104910332E1F2F201049185
:10117200003311F301C0B7CF0D851E8501FF05C0F5
:101182000D851E850E7F0D871E870D851E8503FF2B
:1011920005C00D851E850B7F0D871E87F201049108
:1011A20010E03F922F92202EACDC2F903F90002334
:1011B20011F1B0E0BB87BC870B851C854AE050E08B
:1011C2000E94951EF2012491020FB0E01B1F0053F2
:1011D20010400B871C8782010F5F1F4F2801F80107
:1011E200049110E03F922F92202E8BDC2F903F90A3
:1011F200002311F716C0F20104910A3291F4F301AF
:1012020021913191F901019111910B871C8789017B
:101212000E5F1F4FF3010193119382010F5F1F4F66
:101222002801F20104910E3209F03EC082010F5FE3
:101232001F4F2801F80104910A3299F4F301219118
:101242003191F901019111910887198789010E5F86
:101252001F4FF3010193119382010F5F1F4F28016A
:1012620022C0B0E0B887B987F201049110E03F9242
:101272002F92202E46DC2F903F900023A1F008856C
:1012820019854AE050E00E94951EF2012491020F56
:10129200B0E01B1F005310400887198782010F5FBF
:1012A2001F4F2801E1CF08C0B0E0B887B9870D858C
:1012B2001E8510610D871E87F20182010F5F1F4F8D
:1012C200280104910A8713C1098D1A8D0C941D17E8
:1012D2000D851E8500610D871E87EECF0D851E854B
:1012E20014600D871E8744C10D851E8500620D871F
:1012F2001E870D851E8511600D871E8739C10D85DC
:101302001E8512600D871E8733C10D851E85006400
:101312000D871E872DC12CC10D851E8500620D878C
:101322001E870D851E8500680D871E8721C1F3016A
:1013320001911191F801019111910D8B1E8BF30115
:10134200019111910E5F1F4FF301019311930D89CA
:101352001E89103009F4003021F4B4E1BD8BB0E2F3
:10136200BE8BB0E0BF8BB88F2D893E890F89188D57
:10137200F801E20FF31F0081002339F00F89188D65
:101382000F5F1F4F0F8B188FEFCF08851985B02F76
:10139200B12B59F0288539850F89188D201731070F
:1013A20020F4088519850F8B188F2B853C850F89B2
:1013B200188D0217130748F40F88188C0B851C85AB
:1013C200001911090B871C8703C0B0E0BB87BC87DB
:1013D2000D851E8503FD20C02B853C850B851C8554
:1013E200015010400B871C87B22FB32BA9F07F92BC
:1013F2006F925F924F923F922F923F922F92B0E262
:101402002B2E0F901F90F00109952F903F904F9037
:101412005F906F907F90E0CF2F89388D0F89188D64
:10142200015010400F8B188FB22FB32BE9F0ED89CA
:10143200FE8900817F926F925F924F923F922F922C
:101442003F922F92202E0F901F90F00109952F901E
:101452003F904F905F906F907F900D891E890F5F34
:101462001F4F0D8B1E8BD8CF0D851E8503FF20C00D
:101472002B853C850B851C85015010400B871C87F2
:10148200B22FB32BA9F07F926F925F924F923F924D
:101492002F923F922F92B0E22B2E0F901F90F001CD
:1014A20009952F903F904F905F906F907F90E0CF83
:1014B200F2CDF30101911191F80100810A87F30144
:1014C200019111910E5F1F4FF301019311938E0150
:1014D200065F1F4F0D8B1E8BB1E0BF8BB0E0B88F44
:1014E20054CF0D851E85006C0D871E8741C00A856D
:1014F200003009F4E9CE0A850C3609F4E9CE0A85F2
:101502000C3409F4E5CE0A85063609F4E7CE0A85DD
:10151200053409F4E9CE0A85053609F4EACE0A85CE
:10152200073609F4ECCE0A850F3609F4EECE0A85A9
:10153200043609F4F0CE0A85093609F4ECCE0A85A0
:10154200003709F4E9CE0A85083509F4E5CE0A85A3
:10155200083709F4E6CE0A85033709F4E8CE0A858E
:10156200033609F4A6CF0A85053709F4BACFAFCFFF
:101572000D851E8500701770B02FB12B11F40C94DD
:1015820048130D851E8514FF04C0B6E0B887B0E08D
:10159200B987F30101911191F80101911191219102
:1015A20031910F87188B298B3A8BF301019111919D
:1015B2000C5F1F4FF301019311933F922F9240E072
:1015C20050E060E070E00F85188929893A89A2DB32
:1015D200002800E009F001E02F903F900023A9F0DD
:1015E2000F85188929893A89B0E00B27B0E01B27BB
:1015F200B0E02B27B0E83B270F87188B298B3A8B5B
:101602000D851E8503600D871E87B0E0BB8BBC8BEA
:101612003F922F920F85188929893A8940E050E03C
:1016220060E070E0AEDA002800E009F001E02F90FF
:101632003F90002309F48EC0AE014D5E5F4FFE0164
:101642003F960191119121913191B7E136952795FC
:1016520017950795BA95D1F710700E571040FA01F9
:10166200019311930B891C89015010400B8B1C8B29
:1016720043E050E00E94951E0B8B1C8B7F926F9271
:101682005F924F923F922F924AE050E00E944103B4
:101692008B012F903F904F905F906F907F900B8BBC
:1016A2001C8B20E030E00217130734F40B891C89ED
:1016B200015010400B8B1C8B0B8800E000197F92AD
:1016C2006F925F924F923F922F92202E5ED82F9070
:1016D2003F904F905F906F907F903F922F924F85F7
:1016E200588969897A890E94C2020D8B1E8B2F8BC1
:1016F200388F40E050E060E87FE30D891E892F8932
:10170200388D08DB002800E009F001E02F903F90BF
:10171200002339F00B891C89015010400B8B1C8B64
:1017220019C03F922F9240E050E060E271E40D89CF
:101732001E892F89388D2CDA002800E009F001E09B
:101742002F903F90002331F00B891C890F5F1F4FB0
:101752000B8B1C8B2B893C8900E010E002171307CE
:101762001CF0B1E0BA8702C00B890A870D851E857D
:1017720010FD15C00D851E8511FF10C02B893C89F7
:101782000CEF1FEF2017310744F02B893C890885A5
:101792001985201731070CF401C001C0C0C30885A8
:1017A2001985B02FB12B51F00D851E8511FF06C092
:1017B20008851985015010400887198728853985C1
:1017C20008E010E00217130718F4B8E0BA8702C065
:1017D20008850A873F922F920F85188929893A89AD
:1017E20040E050E060E070E0CCD9002800E009F071
:1017F20001E02F903F90002309F4BFC07F926F92C7
:101802005F924F923F922F922B880E94C603A801AB
:10181200B9010F85188929893A8983DA0F87188BCC
:10182200298B3A8B0A8400E00019202E0E94C603FD
:10183200A801B9010F85188929893A8972DA2F908E
:101842003F904F905F906F907F900F87188B298BFE
:101852003A8B0E946B0352D93F922F92A801B90191
:101862000F85188929893A8982D940E050E060E0E1
:101872007FE38ED90028B0E009F0B1E00B2F2F9062
:101882003F90002389F03F922F920F851889298972
:101892003A8940E050E060E07FE35FD92F903F90CB
:1018A2000F87188B298B3A8B0F85188929893A89DA
:1018B2000E946B034A8550E04F5F5F4FBA01660F8B
:1018C200771F660F771F46ED52E0FB01E40FF51F0D
:1018D20045915591659175910417150726073707AC
:1018E200C8F03F922F920F85188929893A894DECC9
:1018F2005CEC6CEC7DE30E94C2022F903F900F875C
:10190200188B298B3A8B0B891C890F5F1F4F0B8B0E
:101912001C8B33C00F85188929893A890E946B0371
:101922004A85642F70E0660F771F660F771F46EDBA
:1019320052E0FB01E40FF51F4591559165917591B8
:101942000417150726073707C0F43F922F920F8519
:10195200188929893A8940E050E060E271E40E94E6
:10196200C2022F903F900F87188B298B3A8B0B89DD
:101972001C89015010400B8B1C8B0D851E8511FF9D
:1019820071C00D851E8513FD6DC0288539850AE05D
:1019920010E00217130724F4BAE0B887B0E0B98761
:1019A2000F85188929893A890E946B030D8B1E8B3A
:1019B2002F8B388F0D891E892F89388DB02FB12B2F
:1019C200B22BB32B49F14AE050E060E070E00D89A0
:1019D2001E892F89388D9FD88D019F01303029F4BF
:1019E200203019F4103009F40030B1F4088519855B
:1019F20001501040088719874AE050E060E070E02B
:101A02000D891E892F89388D86D88B019C010D8BFB
:101A12001E8B2F8B388FCECF188529850A851017FC
:101A2200B0E02B07FCF408840A8500197F926F92BC
:101A32005F924F923F922F92202E0E94C603A801DE
:101A4200B9010F85188929893A896BD92F903F905E
:101A52004F905F906F907F900F87188B298B3A8BF6
:101A620008850A872885398589010B5F1F4F080180
:101A72000B851C85001911090B871C87B22FB32B0C
:101A820029F40D851E8513FD01C006C00B851C853A
:101A9200015010400B871C870D851E850370107046
:101AA200B02FB12B31F00B851C85015010400B87F4
:101AB2001C870D851E8502FF5CC00D851E8501FFFA
:101AC2001DC00D851E8500FF03C0BDE2B88302C0A4
:101AD200BBE2B8837F926F925F924F923F922F92B6
:101AE2003F922F9228800F901F90F00109952F901E
:101AF2003F904F905F906F907F9018C00D851E852C
:101B020000FF14C07F926F925F924F923F922F928A
:101B12003F922F92B0E22B2E0F901F90F001099569
:101B22002F903F904F905F906F907F902B853C85D8
:101B320000E010E002171307DCF47F926F925F92CD
:101B42004F923F922F923F922F92B0E32B2E0F9003
:101B52001F90F00109952F903F904F905F906F90EA
:101B62007F900B851C85015010400B871C87DECFB0
:101B72005FC00D851E8503FD22C02B853C8500E0DC
:101B820010E002171307DCF47F926F925F924F927C
:101B92003F922F923F922F92B0E22B2E0F901F90E6
:101BA200F00109952F903F904F905F906F907F903A
:101BB2000B851C85015010400B871C87DECF0D85DD
:101BC2001E8501FF1DC00D851E8500FF03C0BDE2FD
:101BD200B98302C0BBE2B9837F926F925F924F9248
:101BE2003F922F923F922F9229800F901F90F001E7
:101BF20009952F903F904F905F906F907F9018C003
:101C02000D851E8500FF14C07F926F925F924F92E6
:101C12003F922F923F922F92B0E22B2E0F901F9065
:101C2200F00109952F903F904F905F906F907F90B9
:101C32000F85188929893A890E946B030D8B1E8BA7
:101C42002F8B388F0A85202F30E0220F331F220F6F
:101C5200331F06ED12E0F901E00FF11F4591559196
:101C6200659175910D891E892F89388D0E948C0589
:101C72008B019C01005D7F926F925F924F923F9227
:101C82002F923F922F92202E0F901F90F0010995D4
:101C92002F903F904F905F906F907F9008851985AD
:101CA200B02FB12B29F40D851E8513FD01C077C01D
:101CB2007F926F925F924F923F922F923F922F921A
:101CC200BEE22B2E0F901F90F00109952F903F90AE
:101CD2004F905F906F907F900A84B0E01B2E088532
:101CE200198500191109088719870A850023B9F196
:101CF2000A8501500A87202F30E0220F331F220F5E
:101D0200331F06ED12E0F901E00FF11F45915591E5
:101D1200659175910D891E892F89388D0E948C05D8
:101D22008B019C014AE050E060E070E00E948C056B
:101D32008D019F01005D7F926F925F924F923F9261
:101D42002F923F922F92202E0F901F90F001099513
:101D52002F903F904F905F906F907F90C6CF0885F5
:101D62001985B02FB12BD9F07F926F925F924F926B
:101D72003F922F923F922F92B0E32B2E0F901F9003
:101D8200F00109952F903F904F905F906F907F9058
:101D9200088519850150104008871987E0CF0D8505
:101DA2001E8505FF15C07F926F925F924F923F9200
:101DB2002F923F922F92B5E42B2E0F901F90F0019D
:101DC20009952F903F904F905F906F907F9014C035
:101DD2007F926F925F924F923F922F923F922F92F9
:101DE200B5E62B2E0F901F90F00109952F903F9092
:101DF2004F905F906F907F902B893C8900E010E0BC
:101E020020173107ECF40B881C8800E010E0001961
:101E120011090B8B1C8B7F926F925F924F923F92B4
:101E22002F923F922F92BDE22B2E0F901F90F00126
:101E320009952F903F904F905F906F907F9014C0C4
:101E42007F926F925F924F923F922F923F922F9288
:101E5200BBE22B2E0F901F90F00109952F903F901F
:101E62004F905F906F907F907F926F925F924F92B0
:101E72003F922F924AE050E00B891C890E94410355
:101E82008B012F903F90005D3F922F923F922F92B5
:101E9200202E0F901F90F00109954AE050E00B8927
:101EA2001C890E9441038C012F903F90005D3F925C
:101EB2002F923F922F92202E0F901F90F0010995A2
:101EC2002F903F904F905F906F907F900D851E8571
:101ED20003FF24C02B853C8500E010E002171307A6
:101EE200ECF47F926F925F924F923F922F923F92C9
:101EF2002F92B0E22B2E0F901F90F00109952F9098
:101F02003F904F905F906F907F900B851C850150A2
:101F120010400B871C87B02FB12B19F7BCC80D8559
:101F22001E8511FFB3C02B893C8900E010E0201709
:101F320031075CF40B891C890150104008010885A7
:101F4200198500191109088719870F8518892989A8
:101F52003A890E946B030D8B1E8B2F8B388FB1E059
:101F6200BA870A850A30F1F00A85202F30E0220F65
:101F7200331F220F331F06ED12E0F901E00FF11FAC
:101F820045915591659175910D891E892F89388DDD
:101F9200041715072607370708F404C00A850F5FE0
:101FA2000A87DFCF0A84B0E01B2E08851985001945
:101FB2001109088719870D891E892F89388D0E947A
:101FC2007F053F922F92A801B9010F8518892989AF
:101FD2003A890E94B8052F903F900F8F18A329A32A
:101FE2003AA37F926F925F924F923F922F922884F0
:101FF2000E94C6032F903F904F905F906F907F900A
:102002004F8D58A169A17AA13F922F920E94C202DC
:1020120040E050E060E07FE30E94AE052F903F90E9
:102022000E946B030D8B1E8B2F8B388F08851985B1
:10203200B02FB12B59F14AE050E060E070E00D8919
:102042001E892F89388D0E948C058D019F013030A9
:1020520029F4203019F4103009F40030B9F44AE0C0
:1020620050E060E070E00D891E892F89388D0E9452
:102072008C058B019C010D8B1E8B2F8B388F088555
:1020820019850150104008871987D0CF28853985D6
:102092000CE010E0021713078CF03F922F92288475
:1020A2000E94D0054F85588969897A890E94AE05B8
:1020B2002F903F900F87188B298B3A8B3F922F924C
:1020C2000F85188929893A8940E050E060E070E084
:1020D2000E94C205002800E009F001E02F903F9025
:1020E200002309F46FC00F85188929893A890E9453
:1020F2006B03303029F4203019F4103009F4003029
:1021020009F060C02B893C8901E010E00217130737
:102112000CF058C07F926F925F924F923F922F9233
:102122002B880E94C603A801B9010F851889298945
:102132003A890E9492062F903F904F905F906F9045
:102142007F903F922F924FE550E769E870E40E943A
:102152008B060028B0E009F0B1E00B2F2F903F90E2
:10216200002339F00B891C89095010400B8B1C8B02
:1021720006C00B891C89085010400B8B1C8B7F9268
:102182006F925F924F923F922F922B880E94C603CA
:10219200A801B9010F85188929893A890E949206F6
:1021A2002F903F904F905F906F907F900E946B03B3
:1021B2000D8B1E8B2F8B388FB0E0BF87B88BB98BFE
:1021C200BA8B23C00F85188929893A890E946B032B
:1021D2000D8B1E8B2F8B388F0D891E892F89388D81
:1021E2000E947F053F922F92A801B9010F8518899D
:1021F20029893A890E94B8052F903F900F87188B42
:10220200298B3A8BB0E0BB8BBC8BB1E0BA870A85D5
:102212000A30F1F00A85202F30E0220F331F220FFF
:10222200331F06ED12E0F901E00FF11F45915591C0
:10223200659175910D891E892F89388D04171507AF
:102242002607370708F404C00A850F5F0A87DFCF25
:10225200488559850A85202F30E0240F351F0B89C8
:102262001C89020F131F08010B851C850019110917
:102272000B871C870D851E8513FD06C008851985F1
:10228200B02FB12B09F406C00B851C8501501040FC
:102292000B871C870D851E8503701070B02FB12B24
:1022A20031F00B851C85015010400B871C870D8572
:1022B2001E8502FF5CC00D851E8501FF1DC00D85B8
:1022C2001E8500FF03C0BDE2BA8302C0BBE2BA832F
:1022D2007F926F925F924F923F922F923F922F92F4
:1022E2002A800F901F90F00109952F903F904F90F8
:1022F2005F906F907F9018C00D851E8500FF14C0FF
:102302007F926F925F924F923F922F923F922F92C3
:10231200B0E22B2E0F901F90F00109952F903F9065
:102322004F905F906F907F902B853C8500E010E08E
:1023320002171307DCF47F926F925F924F923F92E3
:102342002F923F922F92B0E32B2E0F901F90F0010D
:1023520009952F903F904F905F906F907F900B85E3
:102362001C85015010400B871C87DECF5FC00D8596
:102372001E8503FD22C02B853C8500E010E002177C
:102382001307DCF47F926F925F924F923F922F92EB
:102392003F922F92B0E22B2E0F901F90F0010995E1
:1023A2002F903F904F905F906F907F900B851C8590
:1023B200015010400B871C87DECF0D851E8501FF63
:1023C2001DC00D851E8500FF03C0BDE2BB8302C098
:1023D200BBE2BB837F926F925F924F923F922F92AA
:1023E2003F922F922B800F901F90F00109952F9012
:1023F2003F904F905F906F907F9018C00D851E8523
:1024020000FF14C07F926F925F924F923F922F9281
:102412003F922F92B0E22B2E0F901F90F001099560
:102422002F903F904F905F906F907F901A850A8512
:1024320001500A871123A9F10A85202F30E0220FCB
:10244200331F220F331F06ED12E0F901E00FF11FD7
:1024520045915591659175910D891E892F89388D08
:102462000E948C058B019C014AE050E060E070E024
:102472000E948C058D019F01005D7F926F925F9299
:102482004F923F922F923F922F92202E0F901F90A9
:10249200F00109952F903F904F905F906F907F9041
:1024A200C5CF2B893C8900E010E002171307DCF44A
:1024B2007F926F925F924F923F922F923F922F9212
:1024C200B0E32B2E0F901F90F00109952F903F90B3
:1024D2004F905F906F907F900B891C890150104044
:1024E2000B8B1C8BDECF2885398508E010E00217A4
:1024F20013071CF4B8E0BA8702C008850A870A8469
:10250200B0E01B2E08851985001911090887198763
:102512000A85002329F40D851E8513FD01C014C010
:102522007F926F925F924F923F922F923F922F92A1
:10253200BEE22B2E0F901F90F00109952F903F9035
:102542004F905F906F907F907F926F925F924F92C9
:102552003F922F922A840E94C6032F903F904F9061
:102562005F906F907F903F922F924F855889698933
:102572007A890E94C2022F903F900E946B030D8BBA
:102582001E8B2F8B388F0A850023B9F10A850150E3
:102592000A87202F30E0220F331F220F331F06ED50
:1025A20012E0F901E00FF11F459155916591759186
:1025B2000D891E892F89388D0E948C058B019C0103
:1025C2004AE050E060E070E00E948C058D019F01BE
:1025D200005D7F926F925F924F923F922F923F9255
:1025E2002F92202E0F901F90F00109952F903F906F
:1025F2004F905F906F907F90C6CF08851985B02F5E
:10260200B12BD9F07F926F925F924F923F922F92AD
:102612003F922F92B0E32B2E0F901F90F00109955D
:102622002F903F904F905F906F907F900885198513
:102632000150104008871987E0CF0D851E8503FFE2
:1026420024C02B853C8500E010E002171307ECF450
:102652007F926F925F924F923F922F923F922F9270
:10266200B0E22B2E0F901F90F00109952F903F9012
:102672004F905F906F907F900B851C8501501040AA
:102682000B871C87B02FB12B19F70C944C080D85C2
:102692001E85007C1070103009F4003009F052C021
:1026A2000D851E8504FF15C0F30101911191F801FA
:1026B20001911191219131910D8B1E8B2F8B388FAE
:1026C200F301019111910C5F1F4FF30101931193DB
:1026D20016C0F30101911191F8010191119120E0CD
:1026E20017FD2FEF322F0D8B1E8B2F8B388FF3019F
:1026F200019111910E5F1F4FF301019311934D89C7
:102702005E896F89788D00E010E020E030E04017AC
:10271200510762077307ACF40D851E8503600D87B0
:102722001E870D881E8800E010E0001911090F882D
:10273200188C20E030E0200931090D8B1E8B2F8B85
:10274200388F2CC00D851E8504FF15C0F301019141
:102752001191F80101911191219131910D8B1E8BF3
:102762002F8B388FF301019111910C5F1F4FF301F1
:102772000193119313C0F30101911191F801019199
:1027820011910D8B1E8BB0E0BF8BB88FF3010191BD
:1027920011910E5F1F4FF301019311930885198563
:1027A200103009F4003091F40D891E892F89388D7B
:1027B200303029F4203019F4103009F4003031F4AB
:1027C200088519850F5F1F4F088719870D85007CC3
:1027D200802F6CC0B1E0BA870A850A30F1F00A8511
:1027E200202F30E0220F331F220F331F06ED12E09D
:1027F200F901E00FF11F45915591659175910D8990
:102802001E892F89388D041715072607370708F404
:1028120004C00A850F5F0A87DFCF53C0B1E0BA87D1
:102822000A850830F1F00A85202F30E0220F331F8D
:10283200220F331F0EEF12E0F901E00FF11F459155
:102842005591659175910D891E892F89388D0417CF
:1028520015072607370708F404C00A850F5F0A87A1
:10286200DFCF2FC0B1E0BA870A850C30F1F00A85BC
:10287200202F30E0220F331F220F331F06EA12E00F
:10288200F901E00FF11F45915591659175910D89FF
:102892001E892F89388D041715072607370708F474
:1028A20004C00A850F5F0A87DFCF0BC0803009F4AE
:1028B20091CF803C09F48ECF803809F4AFCF8034B9
:1028C20089F20A852885398510E0021713071CF45E
:1028D20008850A870BC0188529850A851017B0E07C
:1028E2002B0724F40A850887B0E0B9870B851C857D
:1028F200B02FB12B69F00D851E8503701070B02FBB
:10290200B12B31F00B851C85015010400B871C87C1
:102912002B853C8508851985021713074CF408841A
:1029220019840B851C85001911090B871C8703C0AC
:10293200B0E0BB87BC870D851E85047C18701830FB
:1029420009F4003461F40B851C85B02FB12B31F0F2
:102952000B851C85015010400B871C8719C00D8503
:102962001E85007C1870183009F4003889F42B8514
:102972003C8502E010E0021713073CF40B851C852E
:10298200025010400B871C8703C0B0E0BB87BC8796
:102992000D851E8502FF95C00D851E8501FF1DC098
:1029A2000D851E8500FF03C0BDE2BC8302C0BBE2F1
:1029B200BC837F926F925F924F923F922F923F928F
:1029C2002F922C800F901F90F00109952F903F902D
:1029D2004F905F906F907F9051C00D851E8500FFD4
:1029E20015C07F926F925F924F923F922F923F92C9
:1029F2002F92B0E22B2E0F901F90F00109952F908D
:102A02003F904F905F906F907F9038C00D851E85EC
:102A1200007C1870183009F4003881F57F926F92AB
:102A22005F924F923F922F923F922F92B0E32B2EC2
:102A32000F901F90F00109952F903F904F905F905B
:102A42006F907F900D851E8505FF03C0B8E5BD839D
:102A520002C0B8E7BD837F926F925F924F923F921E
:102A62002F923F922F922D800F901F90F001099587
:102A72002F903F904F905F906F907F900B851C85B9
:102A8200B02FB12BE9F07F926F925F924F923F92FB
:102A92002F923F922F92B0E32B2E0F901F90F001B6
:102AA20009952F903F904F905F906F907F900B858C
:102AB2001C85015010400B871C87B02FB12B19F7D2
:102AC200B4C00B851C85B02FB12B09F10D851E8575
:102AD20003FD1DC07F926F925F924F923F922F92A1
:102AE2003F922F92B0E22B2E0F901F90F00109958A
:102AF2002F903F904F905F906F907F900B851C8539
:102B0200015010400B871C87B02FB12B19F70D8590
:102B12001E8501FF1DC00D851E8500FF03C0BDE29D
:102B2200BE8302C0BBE2BE837F926F925F924F92DE
:102B32003F922F923F922F922E800F901F90F00182
:102B420009952F903F904F905F906F907F9018C0A3
:102B52000D851E8500FF14C07F926F925F924F9287
:102B62003F922F923F922F92B0E22B2E0F901F9006
:102B7200F00109952F903F904F905F906F907F905A
:102B82000D851E85007C1870183009F40034A9F4F4
:102B92007F926F925F924F923F922F923F922F922B
:102BA200B0E32B2E0F901F90F00109952F903F90CC
:102BB2004F905F906F907F9038C00D851E85007C8E
:102BC2001870183009F4003881F57F926F925F9285
:102BD2004F923F922F923F922F92B0E32B2E0F9063
:102BE2001F90F00109952F903F904F905F906F904A
:102BF2007F900D851E8505FF03C0B8E5BF8302C027
:102C0200B8E7BF837F926F925F924F923F922F926B
:102C12003F922F922F800F901F90F00109952F90D5
:102C22003F904F905F906F907F90288539850A85FD
:102C320010E002171307ACF47F926F925F924F92EB
:102C42003F922F923F922F92B0E32B2E0F901F9024
:102C5200F00109952F903F904F905F906F907F9079
:102C6200E4CF2885398508851985015010400887E9
:102C72001987B22FB32B09F4B3C00D85007C0F8FD7
:102C82008FC0088519859801220F331F220F331F29
:102C920006ED12E0F901E00FF11F459155916591A2
:102CA20075910D891E892F89388D0E948C058B01A3
:102CB2009C014AE050E060E070E00E948C058D01CA
:102CC2009F01005D0A8778C00D851E8505FF26C01D
:102CD200088519859801220F331F220F331F0EEF2B
:102CE20012E0F901E00FF11F45915591659175913F
:102CF2000D891E892F89388D0E948C058B019C01BC
:102D0200A801B9014F705070607070700FE213E04B
:102D1200F801E40FF51F04910A8725C0088519857B
:102D22009801220F331F220F331F0EEF12E0F90119
:102D3200E00FF11F45915591659175910D891E899D
:102D42002F89388D0E948C058B019C01A801B90145
:102D52004F705070607070700EE113E0F801E40F74
:102D6200F51F04910A8728C0088519859801220F4A
:102D7200331F220F331F06EA12E0F901E00FF11FA1
:102D820045915591659175910D891E892F89388DCF
:102D92000E948C058B019C010770005D0A870CC0A4
:102DA2000F8D003009F46DCF003C09F46ACF003872
:102DB20009F48ACF0034C1F27F926F925F924F92F0
:102DC2003F922F923F922F922A840F901F90F001F0
:102DD20009952F903F904F905F906F907F9041CFD9
:102DE2000D851E8503FF24C02B853C8500E010E085
:102DF20002171307ECF47F926F925F924F923F9209
:102E02002F923F922F92B0E22B2E0F901F90F00143
:102E120009952F903F904F905F906F907F900B8518
:102E22001C85015010400B871C87B02FB12B19F75E
:102E32000C944C08098D1A8DA296CDBFDEBFDF918E
:042E4200CF9108958F
:100B040009E3021528F0B0E32B1610F001E001C050
:040B140000E0089560
:10078C00CF93DF93CDB7DEB72497CDBFDEBF2196D5
:10079C00B0E02B160CF0D5C000E00219202E0E365E
:1007AC000CF475C044E62F9250E047FD5FEF022D2C
:1007BC0010E027FC1FEF5FDF062F2F9010E007FDE6
:1007CC001FEF0E5E1F4F9801220F331F220F331F96
:1007DC000EE312E0F901E00FF11F0591159125913F
:1007EC003591088319832A833B8344E62F9250E08A
:1007FC0047FD5FEF022D10E027FC1FEF3CDF082FB9
:10080C004AE010E007FD1FEF50E047FD5FEF33DFDC
:10081C00062F10E007FD1FEF075F1F4F9801220FF7
:10082C00331F220F331F0EE312E0F901E00FF11F0B
:10083C004591559165917591088119812A813B816A
:10084C009BDE2F90088319832A833B834AE050E078
:10085C0047FD5FEF022D10E027FC1FEF0CDF082F88
:10086C00202F30E007FD3FEF220F331F220F331FE5
:10087C000EE312E0F901E00FF11F459155916591DE
:10088C007591088119812A813B8176DE2CC10AE0A1
:10089C0002150CF044C04AE02F9250E047FD5FEF88
:1008AC00022D10E027FC1FEFE6DE062F2F9010E044
:1008BC0007FD1FEF075F1F4F9801220F331F220FF9
:1008CC00331F0EE312E0F901E00FF11F05911591B2
:1008DC0025913591088319832A833B834AE050E0A4
:1008EC0047FD5FEF022D10E027FC1FEFC4DE082F41
:1008FC00202F30E007FD3FEF220F331F220F331F55
:10090C000EE312E0F901E00FF11F4591559165914D
:10091C007591088119812A813B812EDEE4C0222D3C
:10092C0030E027FC3FEF220F331F220F331F0EE363
:10093C0012E0F901E00FF11F059115912591359108
:10094C00D2C0BEE62B160CF475C044E62F9250E0D4
:10095C0047FD5FEF022D10E027FC1FEF8CDE062F0A
:10096C002F9010E007FD1FEF0E5E1F4F9801220F16
:10097C00331F220F331F02E712E0F901E00FF11FC2
:10098C000591159125913591088319832A833B8311
:10099C0044E62F9250E047FD5FEF022D10E027FC5C
:1009AC001FEF69DE082F4AE010E007FD1FEF50E053
:1009BC0047FD5FEF60DE062F10E007FD1FEF075FBE
:1009CC001F4F9801220F331F220F331F02E712E033
:1009DC00F901E00FF11F45915591659175910881D1
:1009EC0019812A813B81C8DD2F90088319832A83C2
:1009FC003B834AE050E047FD5FEF022D10E027FCFF
:100A0C001FEF39DE082F202F30E007FD3FEF220FBC
:100A1C00331F220F331F02E712E0F901E00FF11F21
:100A2C004591559165917591088119812A813B8178
:100A3C00A3DD59C00AE002150CF044C04AE02F9225
:100A4C0050E047FD5FEF022D10E027FC1FEF13DE97
:100A5C00062F2F9010E007FD1FEF075F1F4F980127
:100A6C00220F331F220F331F02E712E0F901E00FB0
:100A7C00F11F0591159125913591088319832A83CE
:100A8C003B834AE050E047FD5FEF022D10E027FC6E
:100A9C001FEFF1DD082F202F30E007FD3FEF220F75
:100AAC00331F220F331F02E712E0F901E00FF11F91
:100ABC004591559165917591088119812A813B81E8
:100ACC005BDD11C0222D30E027FC3FEF220F331FDE
:100ADC00220F331F02E712E0F901E00FF11F05911D
:100AEC001591259135912396CDBFDEBFDF91CF9126
:020AFC0008955B
:10068200C801BA0197FB092E07260AD077FD04D0CC
:100692000CD006D000201AF4709561957F4F089512
:1006A200F6F7909581959F4F0895AA1BBB1B51E1C8
:1006B20007C0AA1FBB1FA617B70710F0A61BB70BD0
:1006C200881F991F5A95A9F780959095BC01CD0175
:0406D20008950895EA
:10058400042E152E262E372EABDF002E112E222EF2
:04059400332E089565
:1004E400EADF81F1E62ED52EC42EB32EA22E912E54
:1004F400802E002D112D222D332DDDDF19F16E25D7
:100504004C0D5D1D40385307F4F441387FEF570715
:10051400FCF088279927AA27BB2770E2B695A795F0
:1005240097958795379527951795079520F4880D06
:10053400991DAA1DBB1D7A9589F7032F3A2F292FE0
:10054400182F88DF0AC00FEF102F2FE73FE7FACFED
:0C0554000027102F202F302FF5CF089526
:1004BA00BCDF79F0632F6078220F331F432F5FE789
:1004CA00451B55275040269530E8232B332798940F
:0A04DA0003C0442755276627089544
:10043400002329F4112319F4222309F43323089502
:00044400B8
:10045800EDDF11F19F938F938EE790E0332351F0F6
:10046800369527951795079548175907B4F44F5FA0
:100478005F4FF4CF80959095019622239AF0000F54
:10048800111F221F481759071CF041505040F5CF43
:10049800002711272227332708C033270FEF102FF3
:0C04A8002FE7322F8F919F91C9DF08953C
:10044400F7DF39F041585F4F342F220F3695279547
:04045400362B0895A6
:100BA000CF93DF93CDB7DEB72497CDBFDEBF2196BD
:100BB000BEE62B1608F45AC044E6022DEDDC10E028
:100BC0000E5E1F4F9801220F331F220F331F0EE3BB
:100BD00012E0F901E00FF11F059115912591359172
:100BE0002F9240E050E060E07FE3CCDC2F90088360
:100BF00019832A833B8344E6022DCEDC092F4AE089
:100C0000CBDC10E0075F1F4F9801220F331F220F2C
:100C1000331F0EE312E0F901E00FF11F45915591EA
:100C200065917591088119812A813B812F92AADCF7
:100C30002F90088319832A833B834AE0022DACDC82
:100C4000092F202F30E0220F331F220F331F0EE316
:100C500012E0F901E00FF11F4591559165917591F1
:100C6000088119812A813B818DDC4FC00AE0021581
:100C7000C0F54AE0022D90DC10E0075F1F4F98019D
:100C8000220F331F220F331F0EE312E0F901E00F92
:100C9000F11F05911591259135912F9240E050E07B
:100CA00060E07FE36FDC2F90088319832A833B8306
:100CB0004AE0022D71DC092F202F30E0220F331F74
:100CC000220F331F0EE312E0F901E00FF11F4591EF
:100CD000559165917591088119812A813B8152DC7A
:100CE00014C0222D30E0220F331F220F331F0EE3DA
:100CF00012E0F901E00FF11F059115912591359151
:100D000040E050E060E07FE33DDC2396CDBFDEBFF6
:060D1000DF91CF91089570
:10059800992779E004C0991F941708F0941B001F4D
:0805A8007A95C9F7009508954A
:0E0D16002FDC1CF40024039401C00024089577
:0E057600042E152E262E372EF0DF00230895BA
:10056000A9DF332332F066DF11F001E003C000277A
:0605700001C00FEF089529
:0604B400689463DF089567
:10037E00F8DF09F441C0E62ED52EC42EB32EA22EE0
:10038E00912E802E002D112D222D332DEADF09F412
:10039E003DC0842F952F8C199D09B9F072F490955C
:1003AE00809501964C2D5D2D883180F535952795DC
:1003BE00179507950197D1F708C08831E8F4B594E1
:1003CE00A794979487940197D1F766272EF0080D7E
:1003DE00191D2A1D3B1D09C0801A910AA20AB30AD3
:1003EE00082D192D2A2D3B2D332312F4B1DF60E891
:1003FE002CD001C020D016C0002D112D222D332D52
:10040E00D6F711D0C1F340E83427F5CF082D192DBA
:10041E002A2D3B2D4C2D5D2D6E2D33235AF798DF53
:06042E0060E8E8CF08952C
:0E037000A4D021F0662309F0F2DF98940895DE
:10035E0000951095209530950F5F1F4F2F4F3F4FF3
:02036E000895F0
:0E0B8400F8DC19F00024039401C00024089549
:0E0B9200F1DC1CF00024039401C0002408953F
:100D2400042E152E262E372E41DC002E112E222EB7
:040D3400332E0895BD
:1005B0003F932F931F930F93002D112D222D332D39
:1005C0007CDF09F44BC0E62ED52EC42EB32EA22E0E
:1005D000912E802E0F911F912F913F916EDF61F12F
:1005E0006E254C195D09403853073CF541387FEFC3
:1005F00057077CF180E27724632E522E412E302F54
:10060000222711270027000F111F221F331F441C10
:10061000551C661C771C28F0481859086A087B0886
:1006200004C0480C591C6A1C7B1C0AF001608A95A6
:1006300051F74150504010DF16C00FEF102F2FE739
:100640003FE76623C9F3F6DEB9F3342D30E83425ED
:10065000F3CF0027102F202F302FEECF0F900F90C9
:080660000F900F90EACF0895FE
:1006D600F1DEF1F05523C2F04F31A8F44731C1F0F5
:1006E60050F44195495E05C03595279517950795B0
:1006F6004A95D1F70DC04751000F111F221F331F16
:100706004A95D1F705C03FE7232F132F032F03C0C8
:08071600662309F021DE0895BD
:060AFE006894B6DD0895C6
:10066E0047E16627552726F0332312F471DE60E842
:04067E00ECDE089511
:100B7000042E152E262E372E9DDC002E112E222E11
:040B8000332E089573
:100B5C00042E152E262E372E81DD002E112E222E40
:040B6C00332E089587
:06066800E89489DE08950C
:100B1800C9019A01AB01B801A1E21A2EAA1BBB1B9D
:100B2800FD010DC0AA1FBB1FEE1FFF1FA217B307B1
:100B3800E407F50720F0A20BB30BE40BF50B661FD7
:100B4800771F881F991F1A9469F76095709580958B
:040B580090950895D7
:0A579A0005900D920197E1F70895C4
:10573E00BCE5B0936620B6E2B0936720BFEFB0939E
:10574E006820BFEFB0936920BFEFB0936C20BFEF1E
:10575E00B0936D20BFEFB0937020BFEFB093712068
:10576E00B0914206B460B0934206B0914106B86063
:10577E00B0934106B0E0B093A3080091A40808616D
:0C578E000093A408B3E0B093A5080895B0
