:100000000C94502D0C9400000C9400000C940000F3
:100010000C9400000C9400000C9400000C94000060
:100020000C9400000C9400000C9400000C94000050
:100030000C9400000C9400000C9400000C94000040
:100040000C9400000C9400000C9400000C94000030
:100050000C9400000C9400000C9400000C94000020
:100060000C9400000C9400000C9400000C94000010
:100070000C9400000C9400000C9400000C94000000
:100080000C9400000C9400000C9400000C940000F0
:100090000C9400000C9400000C9400000C940000E0
:1000A0000C9400000C9400000C9400000C940000D0
:1000B0000C9400000C9400000C9400000C940000C0
:1000C0000C9400000C9400000C9400000C940000B0
:1000D0000C9400000C9400000C9400000C940000A0
:1000E0000C940000000000000C9400000C94000030
:1000F0000C94000000000000000000000000000060
:100100000C9400000C9400000C9400000C9400006F
:100110000C9400000C9400000C9400000C9400005F
:100120000C9400000C9400000C94000000000000EF
:10013000000000000C9400000C9400000C940000DF
:100140000C9400000C9400000C9400000C9400002F
:100150000C9400000C9400000C9400000C9400001F
:100160000C9400000C9400000C9400000C9400000F
:100170000C9400000C94000000000000000000003F
:10018000000000000000000000000000000000006F
:10019000000000000000000000000000000000005F
:1001A0000C9400000C94000000000000000000000F
:1001B0000C9400000C9400000C9400000C940000BF
:1001C0000C9400000C9400000000000000000000EF
:1001D0000000000000000000000000000C9400007F
:1001E0000C9400000C9400000000000000000000CF
:0C01F000000000000C9400000C940000C3
:105AA000BFEFBDBFBFE5BEBF0E94F72D2F923F9253
:105AB0004F925F926F927F92B2E0B0935000B0919C
:105AC0005100B1FD01C0FBCFB8EDB4BFB1E0B09360
:105AD0004000B0914006B068B0934006B0914006D7
:105AE000B062B0934006B0914006BF7BB0934006D1
:105AF000B0912006BF7BB0932006B0912406BF7BF7
:105B0000B0932406B0914006B160B0934006B091C6
:105B10004006B260B0934006B091A408B460B09360
:105B2000A408B2E2B093A608B0E0B093A708E1DD04
:105B3000BFEF6B2EBFEF7B2EBFEA4B2EB4E15B2E87
:105B4000BFEF2B2EBFEF3B2EBFEFBF93BFEFBF9337
:105B500051DEADB7BEB71296ADBFBEBFBCE12B2EB6
:105B6000B0E23B2E61DEB3E0BF93BFE2BF93B4E18E
:105B7000BF93BCEABF93F0DDADB7BEB71496ADBF1F
:105B8000BEBF4424B1E03B2EB0E12B2E10DEB8EABC
:105B90004B2EB3E15B2EB4EB2B2EB8E23B2ED2DEC4
:105BA000B4EBB0931021B8E2B0931121B1E06B2EA9
:105BB000B7E24B2EB0E25B2EBBE22B2EB0E23B2EC7
:105BC000CADEB8E16B2EB0E27B2EB0E14B2EB0E224
:105BD0005B2EB4E12B2EB0E23B2E4CDE82DEFECFFC
:0E5BE0007F906F905F904F903F902F90FFCF7F
:1057F400CF93DF93CDB7DEB7269608811981209227
:1058040090203092912040929220509293200093C5
:1058140096201093972060929A2070929B20DF919B
:04582400CF91089583
:10582800CF93DF93CDB7DEB72197CDBFDEBF2196EB
:10583800B0E0B883F1010081102F012F003089F00A
:105848003F922F92202E7DDB2F903F9008810F5F93
:105858000883E02FF0E0E20DF31D0081102F012FE7
:0C586800EDCFCDBFDEBFDF91CF910895E2
:0C4F4A00E0919220F091932009950895C9
:062958000E94A52708956E
:10295E00B091A108B5FD01C0FBCFB091A108B6FFA3
:10296E0005C0B091A108B064B093A1082092A00850
:02297E000895BA
:102750002092C308B091C208B7FD01C0FBCF089515
:0027600079
:102A54002092C309B091C209B7FD01C0FBCF08950C
:002A640072
:1029DC00B091B108B5FD01C0FBCFB091B108B6FF05
:1029EC0005C0B091B108B064B093B1082092B008A2
:0229FC0008953C
:10299800B091A109B5FD01C0FBCFB091A109B6FF67
:1029A80005C0B091A109B064B093A1092092A00913
:0229B800089580
:1029BA00B091B109B5FD01C0FBCFB091B109B6FF25
:1029CA0005C0B091B109B064B093B1092092B009C1
:0229DA0008955E
:10192000B091A10AB5FD01C0FBCFB091A10AB6FFED
:1019300005C0B091A10AB064B093A10A2092A00A98
:02194000089508
:101C3A00B091A10BB5FD01C0FBCFB091A10BB6FFCE
:101C4A0005C0B091A10BB064B093A10B2092A00B78
:021C5A000895EB
:10575800CF93DF93CDB7DEB72297CDBFDEBF2196BB
:105768002F923F924F925F926F927F922F8138854E
:10577800FE018E01075F1F4F0E5F1F4F01931193AC
:105788008E01380149845A8419010E94B5187F9006
:105798006F905F904F903F902F902196CDBFDEBFC6
:0657A800DF91CF9108958E
:10316A00CF93DF93CDB7DEB7A397CDBFDEBF21964E
:10317A00B0E0B98FBA8FF20182010F5F1F4F2801A9
:10318A0004910A87002311F40C9480270A850532DA
:10319A00A1F07F926F925F924F923F922F923F924D
:1031AA002F922A840F901F90F00109952F903F903B
:1031BA004F905F906F907F90DECFB0E0BB87BC8767
:1031CA00B0E0BD87BE8732C00D851E8508600D87B9
:1031DA001E8782010F5F1F4F28013DC00D851E8586
:1031EA0001600D871E8782010F5F1F4F280133C0C0
:1031FA000D851E8502600D871E8782010F5F1F4F96
:10320A00280129C00D851E8518600D871E87820139
:10321A000F5F1F4F28011FC00D851E8504600D8793
:10322A001E8782010F5F1F4F280115C0F20104910A
:10323A000D3251F2F2010491003281F2F20104914D
:10324A000B32B1F2F20104910332E1F2F20104917C
:10325A00003311F301C0B7CF0D851E8501FF05C0EC
:10326A000D851E850E7F0D871E870D851E8503FF22
:10327A0005C00D851E850B7F0D871E87F2010491FF
:10328A0010E03F922F92202EC5DC2F903F90002312
:10329A0009F1B0E0BB87BC870B851C854AE050E08A
:1032AA00BCDEF2012491020FB0E01B1F0053104054
:1032BA000B871C8782010F5F1F4F2801F8010491B9
:1032CA0010E03F922F92202EA5DC2F903F900023F2
:1032DA0019F716C0F20104910A3291F4F30121910F
:1032EA003191F901019111910B871C8789010E5FB8
:1032FA001F4FF3010193119382010F5F1F4F2801A2
:10330A00F20104910E3209F03DC082010F5F1F4F96
:10331A002801F80104910A3299F4F30121913191BB
:10332A00F901019111910887198789010E5F1F4FD1
:10333A00F3010193119382010F5F1F4F280121C0EE
:10334A00B0E0B887B987F201049110E03F922F925A
:10335A00202E60DC2F903F90002399F00885198574
:10336A004AE050E05ADEF2012491020FB0E01B1F3E
:10337A00005310400887198782010F5F1F4F2801E9
:10338A00E2CF08C0B0E0B887B9870D851E85106105
:10339A000D871E87F20182010F5F1F4F28010491DA
:1033AA000A8713C1098D1A8D0C9482270D851E85F3
:1033BA0000610D871E87EECF0D851E8514600D876F
:1033CA001E8744C10D851E8500620D871E870D85E7
:1033DA001E8511600D871E8739C10D851E851260F5
:1033EA000D871E8733C10D851E8500640D871E87D4
:1033FA002DC12CC10D851E8500620D871E870D8586
:10340A001E8500680D871E8721C1F3010191119164
:10341A00F801019111910D8B1E8BF301019111910C
:10342A000E5F1F4FF301019311930D891E8910300E
:10343A0009F4003021F4B9E0BD8BB0E2BE8BB0E0F4
:10344A00BF8BB88F2D893E890F89188DF801E20F3D
:10345A00F31F0081002339F00F89188D0F5F1F4F6A
:10346A000F8B188FEFCF08851985B02FB12B59F024
:10347A00288539850F89188D2017310720F408858A
:10348A0019850F8B188F2B853C850F89188D02178C
:10349A00130748F40F88188C0B851C85001911092D
:1034AA000B871C8703C0B0E0BB87BC870D851E85D0
:1034BA0003FD20C02B853C850B851C8501501040DF
:1034CA000B871C87B22FB32BA9F07F926F925F9262
:1034DA004F923F922F923F922F92B0E22B2E0F9053
:1034EA001F90F00109952F903F904F905F906F9039
:1034FA007F90E0CF2F89388D0F89188D01501040A9
:10350A000F8B188FB22FB32BE9F0ED89FE8900815A
:10351A007F926F925F924F923F922F923F922F9299
:10352A00202E0F901F90F00109952F903F904F90F9
:10353A005F906F907F900D891E890F5F1F4F0D8BD3
:10354A001E8BD8CF0D851E8503FF20C02B853C8599
:10355A000B851C85015010400B871C87B22FB32B9B
:10356A00A9F07F926F925F924F923F922F923F9271
:10357A002F92B0E22B2E0F901F90F00109952F90F9
:10358A003F904F905F906F907F90E0CFF4CDF30122
:10359A0001911191F80100810A87F30101911191BA
:1035AA000E5F1F4FF301019311938E01065F1F4FA8
:1035BA000D8B1E8BB1E0BF8BB0E0B88F54CF0D8559
:1035CA001E85006C0D871E8741C00A85003009F4EC
:1035DA00E9CE0A850C3609F4E9CE0A850C3409F4D9
:1035EA00E5CE0A85063609F4E7CE0A85053409F4DC
:1035FA00E9CE0A85053609F4EACE0A85073609F4C2
:10360A00ECCE0A850F3609F4EECE0A85043609F4A3
:10361A00F0CE0A85093609F4ECCE0A85003709F49A
:10362A00E9CE0A85083509F4E5CE0A85083709F492
:10363A00E6CE0A85033709F4E8CE0A85033609F48B
:10364A00A6CF0A85053709F4BACFAFCF0D851E85F7
:10365A0000701770B02FB12B11F40C94AD230D85A7
:10366A001E8514FF04C0B6E0B887B0E0B987F3013D
:10367A0001911191F80101911191219131910F87D5
:10368A00188B298B3A8BF301019111910C5F1F4F13
:10369A00F301019311933F922F9240E050E060E0D2
:1036AA0070E00F85188929893A89BFDC002800E073
:1036BA0009F001E02F903F900023A9F00F851889A7
:1036CA0029893A89B0E00B27B0E01B27B0E02B2705
:1036DA00B0E83B270F87188B298B3A8B0D851E85FF
:1036EA0003600D871E87B0E0BB8BBC8B3F922F9285
:1036FA000F85188929893A8940E050E060E070E036
:10370A0084DC002800E009F001E02F903F900023BC
:10371A0009F48DC0AE014D5E5F4FFE013F960191E7
:10372A00119121913191B7E1369527951795079512
:10373A00BA95D1F710700E571040FA010193119300
:10374A000B891C89015010400B8B1C8B43E050E005
:10375A0064DC0B8B1C8B7F926F925F924F923F922D
:10376A002F924AE050E00E94A10B8B012F903F90CC
:10377A004F905F906F907F900B8B1C8B20E030E016
:10378A000217130734F40B891C89015010400B8B64
:10379A001C8B0B8800E000197F926F925F924F9208
:1037AA003F922F92202E40DA2F903F904F905F90B9
:1037BA006F907F903F922F924F85588969897A89B5
:1037CA000E94CB0B0D8B1E8B2F8B388F40E050E065
:1037DA0060E87FE30D891E892F89388D26DC002851
:1037EA0000E009F001E02F903F90002339F00B89A7
:1037FA001C89015010400B8B1C8B19C03F922F92D1
:10380A0040E050E060E271E40D891E892F89388D0D
:10381A0045DC002800E009F001E02F903F900023EA
:10382A0031F00B891C890F5F1F4F0B8B1C8B2B8967
:10383A003C8900E010E0021713071CF0B1E0BA87D8
:10384A0002C00B890A870D851E8510FD15C00D85DE
:10385A001E8511FF10C02B893C890CEF1FEF201722
:10386A00310744F02B893C890885198520173107CF
:10387A000CF401C001C0B5C308851985B02FB12B5E
:10388A0051F00D851E8511FF06C008851985015066
:10389A001040088719872885398508E010E0021743
:1038AA00130718F4B8E0BA8702C008850A873F925E
:1038BA002F920F85188929893A8940E050E060E003
:1038CA0070E0A3DB002800E009F001E02F903F90B0
:1038DA00002309F4BAC07F926F925F924F923F928F
:1038EA002F922B88A1D9A801B9010F851889298996
:1038FA003A89C9DB0F87188B298B3A8B0A8400E037
:10390A000019202E91D9A801B9010F851889298992
:10391A003A89B9DB2F903F904F905F906F907F90DC
:10392A000F87188B298B3A8B88DB6BDB3F922F92A0
:10393A00A801B9010F85188929893A8999D840E0DF
:10394A0050E060E07FE3AADB0028B0E009F0B1E0D4
:10395A000B2F2F903F90002389F03F922F920F85D3
:10396A00188929893A8940E050E060E07FE375D8F8
:10397A002F903F900F87188B298B3A8B0F851889C8
:10398A0029893A895ADB4A8550E04F5F5F4FBA016D
:10399A00660F771F660F771F46ED52E0FB01E40FB3
:1039AA00F51F4591559165917591041715072607DD
:1039BA003707C8F03F922F920F85188929893A89CB
:1039CA004DEC5CEC6CEC7DE30E94CB0B2F903F90AE
:1039DA000F87188B298B3A8B0B891C890F5F1F4F16
:1039EA000B8B1C8B32C00F85188929893A8925DBF4
:1039FA004A85642F70E0660F771F660F771F46EDC2
:103A0A0052E0FB01E40FF51F4591559165917591BF
:103A1A000417150726073707C0F43F922F920F8520
:103A2A00188929893A8940E050E060E271E40E94ED
:103A3A00CB0B2F903F900F87188B298B3A8B0B89D2
:103A4A001C89015010400B8B1C8B0D851E8511FFA4
:103A5A006FC00D851E8513FD6BC0288539850AE068
:103A6A0010E00217130724F4BAE0B887B0E0B98768
:103A7A000F85188929893A89E0DA0D8B1E8B2F8BDD
:103A8A00388F0D891E892F89388DB02FB12BB22B13
:103A9A00B32B49F14AE050E060E070E00D891E89DD
:103AAA002F89388D8CDA8D019F01303029F420302E
:103ABA0019F4103009F40030B1F408851985015061
:103ACA001040088719874AE050E060E070E00D89ED
:103ADA001E892F89388D73DA8B019C010D8B1E8B01
:103AEA002F8B388FCECF188529850A851017B0E01D
:103AFA002B07F4F408840A8500197F926F925F926B
:103B0A004F923F922F92202E8FD8A801B9010F858C
:103B1A00188929893A89B7DA2F903F904F905F9098
:103B2A006F907F900F87188B298B3A8B08850A87AD
:103B3A002885398589010B5F1F4F08010B851C8574
:103B4A00001911090B871C87B22FB32B29F40D8595
:103B5A001E8513FD01C006C00B851C85015010404F
:103B6A000B871C870D851E8503701070B02FB12B33
:103B7A0031F00B851C85015010400B871C870D8581
:103B8A001E8502FF5CC00D851E8501FF1DC00D85C7
:103B9A001E8500FF03C0BDE2B88302C0BBE2B88342
:103BAA007F926F925F924F923F922F923F922F9203
:103BBA0028800F901F90F00109952F903F904F9009
:103BCA005F906F907F9018C00D851E8500FF14C00E
:103BDA007F926F925F924F923F922F923F922F92D3
:103BEA00B0E22B2E0F901F90F00109952F903F9075
:103BFA004F905F906F907F902B853C8500E010E09E
:103C0A0002171307DCF47F926F925F924F923F92F2
:103C1A002F923F922F92B0E32B2E0F901F90F0011C
:103C2A0009952F903F904F905F906F907F900B85F2
:103C3A001C85015010400B871C87DECF5FC00D85A5
:103C4A001E8503FD22C02B853C8500E010E002178B
:103C5A001307DCF47F926F925F924F923F922F92FA
:103C6A003F922F92B0E22B2E0F901F90F0010995F0
:103C7A002F903F904F905F906F907F900B851C859F
:103C8A00015010400B871C87DECF0D851E8501FF72
:103C9A001DC00D851E8500FF03C0BDE2B98302C0A9
:103CAA00BBE2B9837F926F925F924F923F922F92BB
:103CBA003F922F9229800F901F90F00109952F9023
:103CCA003F904F905F906F907F9018C00D851E8532
:103CDA0000FF14C07F926F925F924F923F922F9291
:103CEA003F922F92B0E22B2E0F901F90F001099570
:103CFA002F903F904F905F906F907F900F8518891B
:103D0A0029893A899AD90D8B1E8B2F8B388F0A8570
:103D1A00202F30E0220F331F220F331F06ED12E04F
:103D2A00F901E00FF11F45915591659175910D8942
:103D3A001E892F89388D43D98B019C01005D7F92A2
:103D4A006F925F924F923F922F923F922F92202E24
:103D5A000F901F90F00109952F903F904F905F9020
:103D6A006F907F9008851985B02FB12B29F40D85A6
:103D7A001E8513FD01C075C07F926F925F924F92AC
:103D8A003F922F923F922F92BEE22B2E0F901F90BE
:103D9A00F00109952F903F904F905F906F907F9020
:103DAA000A84B0E01B2E08851985001911090887B5
:103DBA0019870A850023A9F10A8501500A87202F4D
:103DCA0030E0220F331F220F331F06ED12E0F901F4
:103DDA00E00FF11F45915591659175910D891E89E5
:103DEA002F89388DECD88B019C014AE050E060E0C5
:103DFA0070E0E5D88D019F01005D7F926F925F921E
:103E0A004F923F922F923F922F92202E0F901F9007
:103E1A00F00109952F903F904F905F906F907F909F
:103E2A00C8CF08851985B02FB12BD9F07F926F9230
:103E3A005F924F923F922F923F922F92B0E32B2E96
:103E4A000F901F90F00109952F903F904F905F902F
:103E5A006F907F900885198501501040088719874F
:103E6A00E0CF0D851E8505FF15C07F926F925F9288
:103E7A004F923F922F923F922F92B5E42B2E0F90A2
:103E8A001F90F00109952F903F904F905F906F908F
:103E9A007F9014C07F926F925F924F923F922F92BF
:103EAA003F922F92B5E62B2E0F901F90F0010995A5
:103EBA002F903F904F905F906F907F902B893C8915
:103ECA0000E010E020173107ECF40B881C8800E0B2
:103EDA0010E0001911090B8B1C8B7F926F925F9275
:103EEA004F923F922F923F922F92BDE22B2E0F902C
:103EFA001F90F00109952F903F904F905F906F901F
:103F0A007F9014C07F926F925F924F923F922F924E
:103F1A003F922F92BBE22B2E0F901F90F001099532
:103F2A002F903F904F905F906F907F907F926F920B
:103F3A005F924F923F922F924AE050E00B891C8980
:103F4A000E94A10B8B012F903F90005D3F922F9210
:103F5A003F922F92202E0F901F90F00109954AE070
:103F6A0050E00B891C890E94A10B8C012F903F9075
:103F7A00005D3F922F923F922F92202E0F901F901A
:103F8A00F00109952F903F904F905F906F907F902E
:103F9A000D851E8503FF24C02B853C8500E010E0BB
:103FAA0002171307ECF47F926F925F924F923F923F
:103FBA002F923F922F92B0E22B2E0F901F90F0017A
:103FCA0009952F903F904F905F906F907F900B854F
:103FDA001C85015010400B871C87B02FB12B19F795
:103FEA00CAC80D851E8511FFB2C02B893C8900E025
:103FFA0010E0201731075CF40B891C89015010402E
:10400A0008010885198500191109088719870F857C
:10401A00188929893A8911D80D8B1E8B2F8B388FD5
:10402A00B1E0BA870A850A30F1F00A85202F30E01C
:10403A00220F331F220F331F06ED12E0F901E00FA2
:10404A00F11F45915591659175910D891E892F89A9
:10405A00388D041715072607370708F404C00A85A0
:10406A000F5F0A87DFCF0A84B0E01B2E0885198507
:10407A0000191109088719870D891E892F89388D1A
:10408A000E9406183F922F92A801B9010F8518893C
:10409A0029893A890E943D152F903F900F8F18A3C6
:1040AA0029A33AA37F926F925F924F923F922F92E7
:1040BA0028840E9419162F903F904F905F906F901E
:1040CA007F904F8D58A169A17AA13F922F920E94A9
:1040DA00CB0B40E050E060E07FE30E9432152F9066
:1040EA003F900E9422180D8B1E8B2F8B388F0885CC
:1040FA001985B02FB12B59F14AE050E060E070E029
:10410A000D891E892F89388D0E94E4178D019F0120
:10411A00303029F4203019F4103009F40030B9F4A1
:10412A004AE050E060E070E00D891E892F89388DE1
:10413A000E94E4178B019C010D8B1E8B2F8B388FED
:10414A00088519850150104008871987D0CF28851E
:10415A0039850CE010E0021713078CF03F922F927A
:10416A0028840E9448154F85588969897A890E944E
:10417A0032152F903F900F87188B298B3A8B3F92DD
:10418A002F920F85188929893A8940E050E060E02A
:10419A0070E00E940A18002800E009F001E02F9060
:1041AA003F90002309F46FC00F85188929893A893D
:1041BA000E942218303029F4203019F4103009F402
:1041CA00003009F060C02B893C8901E010E0021739
:1041DA0013070CF058C07F926F925F924F923F92F2
:1041EA002F922B880E941916A801B9010F851889E8
:1041FA0029893A890E9448182F903F904F905F90E2
:10420A006F907F903F922F924FE550E769E870E4F4
:10421A000E941A180028B0E009F0B1E00B2F2F9085
:10422A003F90002339F00B891C89095010400B8BF1
:10423A001C8B06C00B891C89085010400B8B1C8BE9
:10424A007F926F925F924F923F922F922B880E9499
:10425A001916A801B9010F85188929893A890E9476
:10426A0048182F903F904F905F906F907F900E94D8
:10427A0022180D8B1E8B2F8B388FB0E0BF87B88B1F
:10428A00B98BBA8B23C00F85188929893A890E946C
:10429A0022180D8B1E8B2F8B388F0D891E892F8923
:1042AA00388D0E9406183F922F92A801B9010F85F6
:1042BA00188929893A890E943D152F903F900F87C6
:1042CA00188B298B3A8BB0E0BB8BBC8BB1E0BA87D9
:1042DA000A850A30F1F00A85202F30E0220F331FB9
:1042EA00220F331F06ED12E0F901E00FF11F45918D
:1042FA005591659175910D891E892F89388D0417FD
:10430A0015072607370708F404C00A850F5F0A87CE
:10431A00DFCF488559850A85202F30E0240F351FC5
:10432A000B891C89020F131F08010B851C850019B4
:10433A0011090B871C870D851E8513FD06C008858C
:10434A001985B02FB12B09F406C00B851C850150C5
:10435A0010400B871C870D851E8503701070B02FC7
:10436A00B12B31F00B851C85015010400B871C873F
:10437A000D851E8502FF5CC00D851E8501FF1DC0CF
:10438A000D851E8500FF03C0BDE2BA8302C0BBE2F1
:10439A00BA837F926F925F924F923F922F923F928F
:1043AA002F922A800F901F90F00109952F903F902D
:1043BA004F905F906F907F9018C00D851E8500FF0B
:1043CA0014C07F926F925F924F923F922F923F92C8
:1043DA002F92B0E22B2E0F901F90F00109952F908B
:1043EA003F904F905F906F907F902B853C8500E0C7
:1043FA0010E002171307DCF47F926F925F924F92DC
:10440A003F922F923F922F92B0E32B2E0F901F9044
:10441A00F00109952F903F904F905F906F907F9099
:10442A000B851C85015010400B871C87DECF5FC0AF
:10443A000D851E8503FD22C02B853C8500E010E01A
:10444A0002171307DCF47F926F925F924F923F92AA
:10445A002F923F922F92B0E22B2E0F901F90F001D5
:10446A0009952F903F904F905F906F907F900B85AA
:10447A001C85015010400B871C87DECF0D851E85D9
:10448A0001FF1DC00D851E8500FF03C0BDE2BB8371
:10449A0002C0BBE2BB837F926F925F924F923F92C0
:1044AA002F923F922F922B800F901F90F001099527
:1044BA002F903F904F905F906F907F9018C00D851E
:1044CA001E8500FF14C07F926F925F924F923F92B7
:1044DA002F923F922F92B0E22B2E0F901F90F00155
:1044EA0009952F903F904F905F906F907F901A851B
:1044FA000A8501500A871123A9F10A85202F30E085
:10450A00220F331F220F331F06ED12E0F901E00FCD
:10451A00F11F45915591659175910D891E892F89D4
:10452A00388D0E94E4178B019C014AE050E060E05C
:10453A0070E00E94E4178D019F01005D7F926F92E7
:10454A005F924F923F922F923F922F92202E0F907E
:10455A001F90F00109952F903F904F905F906F90B8
:10456A007F90C5CF2B893C8900E010E00217130722
:10457A00DCF47F926F925F924F923F922F923F921A
:10458A002F92B0E32B2E0F901F90F00109952F90D8
:10459A003F904F905F906F907F900B891C890150DC
:1045AA0010400B8B1C8BDECF2885398508E010E084
:1045BA00021713071CF4B8E0BA8702C008850A87F5
:1045CA000A84B0E01B2E088519850019110908878D
:1045DA0019870A85002329F40D851E8513FD01C05C
:1045EA0014C07F926F925F924F923F922F923F92A6
:1045FA002F92BEE22B2E0F901F90F00109952F905B
:10460A003F904F905F906F907F907F926F925F92F2
:10461A004F923F922F922A840E9419162F903F9010
:10462A004F905F906F907F903F922F924F8558895D
:10463A0069897A890E94CB0B2F903F900E94221899
:10464A000D8B1E8B2F8B388F0A850023B9F10A85B3
:10465A0001500A87202F30E0220F331F220F331F09
:10466A0006ED12E0F901E00FF11F459155916591B0
:10467A0075910D891E892F89388D0E94E4178B0147
:10468A009C014AE050E060E070E00E94E4178D016E
:10469A009F01005D7F926F925F924F923F922F929D
:1046AA003F922F92202E0F901F90F00109952F9084
:1046BA003F904F905F906F907F90C6CF0885198585
:1046CA00B02FB12BD9F07F926F925F924F923F92A7
:1046DA002F923F922F92B0E32B2E0F901F90F00152
:1046EA0009952F903F904F905F906F907F9008852B
:1046FA0019850150104008871987E0CF0D851E855E
:10470A0003FF24C02B853C8500E010E00217130745
:10471A00ECF47F926F925F924F923F922F923F9268
:10472A002F92B0E22B2E0F901F90F00109952F9037
:10473A003F904F905F906F907F900B851C85015042
:10474A0010400B871C87B02FB12B19F70C94C01897
:10475A000D851E85007C1070103009F4003009F0B8
:10476A0052C00D851E8504FF15C0F30101911191F8
:10477A00F80101911191219131910D8B1E8B2F8B93
:10478A00388FF301019111910C5F1F4FF3010193CF
:10479A00119316C0F30101911191F8010191119140
:1047AA0020E017FD2FEF322F0D8B1E8B2F8B388FAA
:1047BA00F301019111910E5F1F4FF30101931193C0
:1047CA004D895E896F89788D00E010E020E030E045
:1047DA004017510762077307ACF40D851E85036005
:1047EA000D871E870D881E8800E010E00019110948
:1047FA000F88188C20E030E0200931090D8B1E8BC0
:10480A002F8B388F2CC00D851E8504FF15C0F30130
:10481A0001911191F80101911191219131910D8B21
:10482A001E8B2F8B388FF301019111910C5F1F4F53
:10483A00F3010193119313C0F30101911191F8014E
:10484A00019111910D8B1E8BB0E0BF8BB88FF301D4
:10485A00019111910E5F1F4FF30101931193088586
:10486A001985103009F4003091F40D891E892F89B9
:10487A00388D303029F4203019F4103009F4003022
:10488A0031F4088519850F5F1F4F088719870D8531
:10489A00007C802F6CC0B1E0BA870A850A30F1F03B
:1048AA000A85202F30E0220F331F220F331F06ED17
:1048BA0012E0F901E00FF11F45915591659175914B
:1048CA000D891E892F89388D041715072607370782
:1048DA0008F404C00A850F5F0A87DFCF53C0B1E02E
:1048EA00BA870A850830F1F00A85202F30E0220FB6
:1048FA00331F220F331F0EEF12E0F901E00FF11FF1
:10490A0045915591659175910D891E892F89388D2B
:10491A00041715072607370708F404C00A850F5F2E
:10492A000A87DFCF2FC0B1E0BA870A850C30F1F0D1
:10493A000A85202F30E0220F331F220F331F06EA89
:10494A0012E0F901E00FF11F4591559165917591BA
:10495A000D891E892F89388D0417150726073707F1
:10496A0008F404C00A850F5F0A87DFCF0BC08030C6
:10497A0009F491CF803C09F48ECF803809F4AFCF87
:10498A00803489F20A852885398510E002171307D1
:10499A001CF408850A870BC0188529850A85101713
:1049AA00B0E02B0724F40A850887B0E0B9870B85A5
:1049BA001C85B02FB12B69F00D851E850370107010
:1049CA00B02FB12B31F00B851C85015010400B879D
:1049DA001C872B853C8508851985021713074CF41B
:1049EA00088419840B851C85001911090B871C87FB
:1049FA0003C0B0E0BB87BC870D851E85047C187098
:104A0A00183009F4003461F40B851C85B02FB12BE2
:104A1A0031F00B851C85015010400B871C8719C08B
:104A2A000D851E85007C1870183009F4003889F449
:104A3A002B853C8502E010E0021713073CF40B8536
:104A4A001C85025010400B871C8703C0B0E0BB874F
:104A5A00BC870D851E8502FF95C00D851E8501FF49
:104A6A001DC00D851E8500FF03C0BDE2BC8302C0C8
:104A7A00BBE2BC837F926F925F924F923F922F92DA
:104A8A003F922F922C800F901F90F00109952F9042
:104A9A003F904F905F906F907F9051C00D851E851B
:104AAA0000FF15C07F926F925F924F923F922F92B2
:104ABA003F922F92B0E22B2E0F901F90F001099592
:104ACA002F903F904F905F906F907F9038C00D85E8
:104ADA001E85007C1870183009F4003881F57F9221
:104AEA006F925F924F923F922F923F922F92B0E332
:104AFA002B2E0F901F90F00109952F903F904F9009
:104B0A005F906F907F900D851E8505FF03C0B8E505
:104B1A00BD8302C0B8E7BD837F926F925F924F92C6
:104B2A003F922F923F922F922D800F901F90F0016B
:104B3A0009952F903F904F905F906F907F900B85D3
:104B4A001C85B02FB12BE9F07F926F925F924F9242
:104B5A003F922F923F922F92B0E32B2E0F901F90ED
:104B6A00F00109952F903F904F905F906F907F9042
:104B7A000B851C85015010400B871C87B02FB12B69
:104B8A0019F7B4C00B851C85B02FB12B09F10D851F
:104B9A001E8503FD1DC07F926F925F924F923F92D6
:104BAA002F923F922F92B0E22B2E0F901F90F0017E
:104BBA0009952F903F904F905F906F907F900B8553
:104BCA001C85015010400B871C87B02FB12B19F799
:104BDA000D851E8501FF1DC00D851E8500FF03C0C2
:104BEA00BDE2BE8302C0BBE2BE837F926F925F9238
:104BFA004F923F922F923F922F922E800F901F90AA
:104C0A00F00109952F903F904F905F906F907F90A1
:104C1A0018C00D851E8500FF14C07F926F925F92A7
:104C2A004F923F922F923F922F92B0E22B2E0F90EB
:104C3A001F90F00109952F903F904F905F906F90D1
:104C4A007F900D851E85007C1870183009F4003499
:104C5A00A9F47F926F925F924F923F922F923F9266
:104C6A002F92B0E32B2E0F901F90F00109952F90F1
:104C7A003F904F905F906F907F9038C00D851E8552
:104C8A00007C1870183009F4003881F57F926F9211
:104C9A005F924F923F922F923F922F92B0E32B2E28
:104CAA000F901F90F00109952F903F904F905F90C1
:104CBA006F907F900D851E8505FF03C0B8E5BF8301
:104CCA0002C0B8E7BF837F926F925F924F923F9282
:104CDA002F923F922F922F800F901F90F0010995EB
:104CEA002F903F904F905F906F907F9028853985E5
:104CFA000A8510E002171307ACF47F926F925F9255
:104D0A004F923F922F923F922F92B0E32B2E0F9009
:104D1A001F90F00109952F903F904F905F906F90F0
:104D2A007F90E4CF28853985088519850150104080
:104D3A0008871987B22FB32B09F4B3C00D85007CFD
:104D4A000F8F8FC0088519859801220F331F220FF4
:104D5A00331F06ED12E0F901E00FF11F459155915D
:104D6A00659175910D891E892F89388D0E94E417E6
:104D7A008B019C014AE050E060E070E00E94E41779
:104D8A008D019F01005D0A8778C00D851E8505FF8C
:104D9A0026C0088519859801220F331F220F331F59
:104DAA000EEF12E0F901E00FF11F4591559165915F
:104DBA0075910D891E892F89388D0E94E4178B0100
:104DCA009C01A801B9014F7050706070707000E4C6
:104DDA0013E0F801E40FF51F04910A8725C008853E
:104DEA0019859801220F331F220F331F0EEF12E08D
:104DFA00F901E00FF11F45915591659175910D8962
:104E0A001E892F89388D0E94E4178B019C01A80105
:104E1A00B9014F705070607070700EE113E0F801C4
:104E2A00E40FF51F04910A8728C00885198598019F
:104E3A00220F331F220F331F06EA12E0F901E00F97
:104E4A00F11F45915591659175910D891E892F899B
:104E5A00388D0E94E4178B019C010770005D0A8758
:104E6A000CC00F8D003009F46DCF003C09F46ACFF5
:104E7A00003809F48ACF0034C1F27F926F925F92B0
:104E8A004F923F922F923F922F922A840F901F9017
:104E9A00F00109952F903F904F905F906F907F900F
:104EAA0041CF0D851E8503FF24C02B853C8500E07C
:104EBA0010E002171307ECF47F926F925F924F9201
:104ECA003F922F923F922F92B0E22B2E0F901F907B
:104EDA00F00109952F903F904F905F906F907F90CF
:104EEA000B851C85015010400B871C87B02FB12BF6
:104EFA0019F70C94C018098D1A8DA296CDBFDEBF82
:064F0A00DF91CF91089534
:102C1E0009E3021528F0B0E32B1610F001E001C015
:042C2E0000E0089525
:102C3200CF93DF93CDB7DEB72497CDBFDEBF21960A
:102C4200B0E02B160CF0DEC000E00219202E0E368A
:102C52000CF47BC044E62F9250E047FD5FEF022D5B
:102C620010E027FC1FEF0E94A10B062F2F9010E00F
:102C720007FD1FEF0E5E1F4F9801220F331F220F19
:102C8200331F0EE312E0F901E00FF11F05911591D8
:102C920025913591088319832A833B8344E62F9239
:102CA20050E047FD5FEF022D10E027FC1FEF0E946E
:102CB200A10B082F4AE010E007FD1FEF50E047FD8F
:102CC2005FEF0E94A10B062F10E007FD1FEF075FC9
:102CD2001F4F9801220F331F220F331F0EE312E002
:102CE200F901E00FF11F45915591659175910881A8
:102CF20019812A813B810E94CB0B2F900883198373
:102D02002A833B834AE050E047FD5FEF022D10E04B
:102D120027FC1FEF0E94A10B082F202F30E007FD98
:102D22003FEF220F331F220F331F0EE312E0F90190
:102D3200E00FF11F459155916591759108811981B7
:102D42002A813B810E94CB0B38C10AE002150CF0AC
:102D520047C04AE02F9250E047FD5FEF022D10E09E
:102D620027FC1FEF0E94A10B062F2F9010E007FDFA
:102D72001FEF075F1F4F9801220F331F220F331FD0
:102D82000EE312E0F901E00FF11F05911591259173
:102D92003591088319832A833B834AE050E047FD3B
:102DA2005FEF022D10E027FC1FEF0E94A10B082FFE
:102DB200202F30E007FD3FEF220F331F220F331F7A
:102DC2000EE312E0F901E00FF11F45915591659173
:102DD2007591088119812A813B810E94CB0BEDC03C
:102DE200222D30E027FC3FEF220F331F220F331F2B
:102DF2000EE312E0F901E00FF11F05911591259103
:102E02003591DBC0BEE62B160CF47BC044E62F9254
:102E120050E047FD5FEF022D10E027FC1FEF0E94FC
:102E2200A10B062F2F9010E007FD1FEF0E5E1F4F24
:102E32009801220F331F220F331F02E712E0F9011C
:102E4200E00FF11F059115912591359108831983A2
:102E52002A833B8344E62F9250E047FD5FEF022D29
:102E620010E027FC1FEF0E94A10B082F4AE010E0A0
:102E720007FD1FEF50E047FD5FEF0E94A10B062FF9
:102E820010E007FD1FEF075F1F4F9801220F331F4E
:102E9200220F331F02E712E0F901E00FF11F459103
:102EA200559165917591088119812A813B810E9412
:102EB200CB0B2F90088319832A833B834AE050E08F
:102EC20047FD5FEF022D10E027FC1FEF0E94A10BD0
:102ED200082F202F30E007FD3FEF220F331F220F74
:102EE200331F02E712E0F901E00FF11F45915591FE
:102EF20065917591088119812A813B810E94CB0BD2
:102F02005CC00AE002150CF047C04AE02F9250E084
:102F120047FD5FEF022D10E027FC1FEF0E94A10B7F
:102F2200062F2F9010E007FD1FEF075F1F4F98013C
:102F3200220F331F220F331F02E712E0F901E00FC5
:102F4200F11F0591159125913591088319832A83E3
:102F52003B834AE050E047FD5FEF022D10E027FC83
:102F62001FEF0E94A10B082F202F30E007FD3FEF3B
:102F7200220F331F220F331F02E712E0F901E00F85
:102F8200F11F4591559165917591088119812A81A9
:102F92003B810E94CB0B11C0222D30E027FC3FEF7A
:102FA200220F331F220F331F02E712E0F901E00F55
:102FB200F11F05911591259135912396CDBFDEBF65
:062FC200DF91CF9108959C
:10174200C801BA0197FB092E07260AD077FD04D0FB
:101752000CD006D000201AF4709561957F4F089541
:10176200F6F7909581959F4F0895AA1BBB1B51E1F7
:1017720007C0AA1FBB1FA617B70710F0A61BB70BFF
:10178200881F991F5A95A9F780959095BC01CD01A4
:041792000895089519
:10179600042E152E262E372E8DD8002E112E222EF3
:0417A600332E089541
:1008BA0035DE81F1E62ED52EC42EB32EA22E912E30
:1008CA00802E002D112D222D332D28DE19F16E25B3
:1008DA004C0D5D1D40385307F4F441387FEF57073C
:1008EA00FCF088279927AA27BB2770E2B695A79517
:1008FA0097958795379527951795079520F4880D2D
:10090A00991DAA1DBB1D7A9589F7032F3A2F292F06
:10091A00182F5BDF0AC00FEF102F2FE73FE7FACF40
:0C092A000027102F202F302FF5CF08954C
:1005260075DF79F0632F6078220F331F432F5FE763
:10053600451B55275040269530E8232B33279894A2
:0A05460003C04427552766270895D7
:10041200002329F4112319F4222309F43323089524
:00042200DA
:1007D4001EDE11F19F938F938EE790E0332351F047
:1007E400369527951795079548175907B4F44F5F21
:1007F4005F4FF4CF80959095019622239AF0000FD5
:10080400111F221F481759071CF041505040F5CFC3
:10081400002711272227332708C033270FEF102F73
:0C0824002FE7322F8F919F91B1DD0895D6
:1003900040D039F041585F4F342F220F36952795C2
:0403A000362B08955B
:102A9000CF93DF93CDB7DEB72497CDBFDEBF2196AE
:102AA000BEE62B1608F461C044E6022D0E94D50B49
:102AB00010E00E5E1F4F9801220F331F220F331FAD
:102AC0000EE312E0F901E00FF11F05911591259138
:102AD00035912F9240E050E060E07FE30E94CB0B05
:102AE0002F90088319832A833B8344E6022D0E949A
:102AF000D50B092F4AE00E94D50B10E0075F1F4F4E
:102B00009801220F331F220F331F0EE312E0F90149
:102B1000E00FF11F459155916591759108811981DB
:102B20002A813B812F920E94CB0B2F90088319831F
:102B30002A833B834AE0022D0E94D50B092F202FC8
:102B400030E0220F331F220F331F0EE312E0F90192
:102B5000E00FF11F4591559165917591088119819B
:102B60002A813B810E94CB0B54C00AE00215E0F59C
:102B70004AE0022D0E94D50B10E0075F1F4F98011D
:102B8000220F331F220F331F0EE312E0F901E00F73
:102B9000F11F05911591259135912F9240E050E05C
:102BA00060E07FE30E94CB0B2F90088319832A8378
:102BB0003B834AE0022D0E94D50B092F202F30E0E5
:102BC000220F331F220F331F0EE312E0F901E00F33
:102BD000F11F4591559165917591088119812A815F
:102BE0003B810E94CB0B15C0222D30E0220F331FFA
:102BF000220F331F0EE312E0F901E00FF11F0591E0
:102C000015912591359140E050E060E07FE30E940E
:0E2C1000CB0B2396CDBFDEBFDF91CF91089591
:1017AA00992779E004C0991F941708F0941B001F29
:0817BA007A95C9F70095089526
:103024009801249F8001259F100D349F100D089551
:003034009C
:103034000E94880C1CF40024039401C00024089509
:003044008C
:10191000042E152E262E372E0E94520400230895E1
:00192000C7
:1008A400C5DF332332F0B3DD11F001E003C00027CC
:0608B40001C00FEF0895E2
:060830006894F7DD089555
:10042200AFDF09F441C0E62ED52EC42EB32EA22E84
:10043200912E802E002D112D222D332DA1DF09F4B6
:100442003DC0842F952F8C199D09B9F072F49095B7
:10045200809501964C2D5D2D883180F53595279537
:10046200179507950197D1F708C08831E8F4B5943C
:10047200A794979487940197D1F766272EF0080DD9
:10048200191D2A1D3B1D09C0801A910AA20AB30A2E
:10049200082D192D2A2D3B2D332312F468DF60E835
:1004A20098D101C074DF16C0002D112D222D332DDD
:1004B200D6F7AEDFC1F340E83427F5CF082D192D6A
:1004C2002A2D3B2D4C2D5D2D6E2D33235AF74FDFF8
:0604D20060E8E8CF089588
:0E038200D1D021F0662309F0F2DF989408959F
:1003700000951095209530950F5F1F4F2F4F3F4FE1
:020380000895DE
:103014000E94880C19F00024039401C00024089530
:00302400AC
:1030A6000E94880C1CF00024039401C0002408959B
:0030B6001A
:10309000042E152E262E372E0E945407002E112E98
:0630A000222E332E0895DC
:100EA8003F932F931F930F93002D112D222D332D38
:100EB80036DB09F44BC0E62ED52EC42EB32EA22E57
:100EC800912E802E0F911F912F913F9128DB61F178
:100ED8006E254C195D09403853073CF541387FEFC2
:100EE80057077CF180E27724632E522E412E302F53
:100EF800222711270027000F111F221F331F441C10
:100F0800551C661C771C28F0481859086A087B0885
:100F180004C0480C591C6A1C7B1C0AF001608A95A5
:100F280051F74150504052DC16C00FEF102F2FE7F9
:100F38003FE76623C9F369DAB9F3342D30E834257D
:100F4800F3CF0027102F202F302FEECF0F900F90C8
:080F58000F900F90EACF0895FD
:103044000E949302F1F05523C2F04F31A8F44731A6
:10305400C1F050F44195495E05C035952795179503
:1030640007954A95D1F70DC04751000F111F221F34
:10307400331F4A95D1F705C03FE7232F132F032FA2
:0C30840004C0662311F00E94B8010895FA
:08300C0068940E94B0070895CA
:100F600047E16627552726F0332312F401DA60E8BB
:040F700031DC0895D3
:102A7A00042E152E262E372E0E941804002E112EF3
:062A8A00222E332E0895F8
:102A6400042E152E262E372E0E94C009002E112E5C
:062A7400222E332E08950E
:06138000E8944FD8089527
:102FC800C9019A01AB01B801A1E21A2EAA1BBB1BC9
:102FD800FD010DC0AA1FBB1FEE1FFF1FA217B307DD
:102FE800E407F50720F0A20BB30BE40BF50B661F03
:102FF800771F881F991F1A9469F7609570958095B7
:043008009095089502
:1057AE00B4EBB0931021B8E2B0931121B8EAB093E4
:1057BE009420B3E1B0939520B0EBB0934106B0E4E2
:1057CE00B0934206B0E0B093C108032D03700429D4
:1057DE00022900640093C00832FAB091C008B7F9EC
:0657EE00B093C00808950D
:10594400209210213092112140929420509295205F
:025954000895B4
:105956002F923F924F925F927F92B0914406B2602F
:10596600B0934406B0914006B260B0934006B09141
:105976004406B160B0934406B0914006B160B0935E
:105986004006B0914406B160B0934406F4DBB09192
:105996004406B260B0934406EEDBB0914406BD7F88
:1059A600B0934406E8DBB0914406B260B093440677
:1059B600E2DBB0914406BE7FB09344066F925F92DD
:1059C6004F923F922F92BFEF2B2EE0911021F09134
:1059D600112109952F903F904F905F906F90B09155
:1059E6004406B160B0934406C6DB6F925F924F9255
:1059F600B6E06B2EB0E07B2E2101B2E52B2EB0E295
:105A06003B2E5BDE4F905F90B4E06B2EB0E07B2EBA
:105A1600BAE12B2EB1E23B2E50DEB1E03B2EBFE1C8
:105A26002B2EC3DBB2E03B2EBFE12B2EBEDB332495
:105A36004424B8E02B2E0E948118BDEA3B2EB9E122
:105A46004B2EBAE02B2E0E948118BDEA3B2EB9E1FF
:105A56004B2EBCE02B2E0E94811833244424222492
:105A66000E948118BEEA3B2EB9E14B2EB4E02B2EE4
:105A76000E948118B1E03B2EBFE12B2E96DBB2E0EF
:105A86003B2EBFE12B2E41DA6F90262C61DA7F90F8
:0A5A96005F904F903F902F9008950D
:10517C00CF93DF93CDB7DEB72197CDBFDEBF21969E
:10518C00B0E0B8830881083C40F40E945B180E9490
:10519C005B1808810F5F0883F5CFCDBFDEBFDF91B1
:0451AC00CF91089502
:1030B60015E101EB0A95F1F71A95E1F7000000001A
:0230C60008956B
:105168002092C308B091C208B7FD01C0FBCF0091DF
:04517800C3080895CB
:105154002092C309B091C209B7FD01C0FBCF0091F1
:04516400C3090895DE
:1056C000A201B10193018301015010403801B22FB2
:1056D000B32B69F0FA010081FB0100838B010F5F9E
:1056E0001F4FB8018A010F5F1F4FA801EBCF810147
:0256F00008951B
:1051B0002F92B0914406BE7FB0934406022D006A40
:1051C0003F92202EE0911021F091112109953F90FE
:1051D000232CE0911021F09111210995B091440602
:0A51E000B160B09344062F900895CB
:10310200CF93DF93CDB7DEB72297CDBFDEBF219637
:103112002F9238824982B0914406BE7FB093440612
:10312200022D0064202EE0911021F09111210995C9
:103132002880E0911021F091112109958E01F8016A
:1031420031960081202EE0911021F09111210995F4
:10315200B0914406B160B09344062F902196CDBF42
:08316200DEBFDF91CF9108955B
:104F10002F92B0914406BE7FB0934406022D0068E4
:104F20003F92202EE0911021F091112109953F90A0
:104F3000232CE0911021F09111210995B0914406A4
:0A4F4000B160B09344062F9008956D
:104F5600CF93DF93CDB7DEB72297CDBFDEBF2196C5
:104F66002F923F924F925F926F92222011F00DE0A6
:104F760001C005E02F92302E22240E9464182F9043
:104F8600222011F001E301C000E32F92302EB2E09F
:104F96002B2E0E946418BEEE3B2EB5E04B2EBAE0D7
:104FA6002B2E0E9481182F90222011F005E101C0BE
:104FB60002E12F92302EB4E02B2E0E946418B2E14B
:104FC6003B2EB6E02B2E0E9464182F90222041F42F
:104FD6002F92BCE03B2EB7E02B2E0E9464182F9038
:104FE600222041F42F92BFE33B2EB9E02B2E0E94E4
:104FF60064182F902F92B1E03B2EBFE12B2E85DF58
:10500600B2E03B2EBFE12B2E80DF30905220B4E081
:105016002B2E0E94641830905320B5E02B2E0E9450
:10502600641830905420B2E02B2E0E946418309001
:105036005520B3E02B2E0E9464183090562022246F
:105046000E94641830905720B1E02B2E0E946418FD
:105056003324B5E12B2E0E946418B2E12B2E0E9458
:105066009D0E009360209E012F5F3F4F8E01522EB2
:10507600632E302E412E22240E94590E2F90088135
:105086000E7F222011F011E001C010E0012B4980B3
:10509600302E22240E942E0E4424B1E03B2EB0E195
:1050A6002B2E0E942E0EB4E03B2EBFE12B2E2DDFC1
:1050B60062D0BDE25B2EB0E06B2E4424B3E62B2E0D
:1050C600B0E23B2E0E945813B1E03B2EBFE12B2EDF
:1050D6006CD0B2E03B2EBFE12B2E67D06F905F9075
:1050E6004F903F902F902196CDBFDEBFDF91CF919D
:0250F60008951B
:1030C8002F92B0914406BE7FB0934406022D00644F
:1030D8003F92202EE0911021F091112109953F9007
:1030E800232CE0911021F09111210995B09144060B
:0A30F800B160B09344062F900895D4
:101D3A002F92B0914406BE7FB0934406E0911021E1
:101D4A00F091112109952224E0911021F09111219D
:101D5A000995B0914406B160B09344062F90089556
:001D6A0079
:101CB2002F926F925F924F923F922F92B1E03B2E02
:101CC200BFE12B2E0E94D828B2E03B2EBFE12B2E83
:101CD2000E9488272F90322CB4E12B2E0E94641888
:101CE200B1E03B2EB2E12B2E0E9488273F904F900D
:101CF2005F906F900E94BE286F925F924F923F92C8
:101D0200B1E03B2EB2E12B2E0E94D828B6E12B2E59
:101D120013D03F904F905F906F90E52DF62D00838A
:101D22004F923F92B7E12B2E07D03F904F90E32D79
:081D3200F42D00832F900895A9
:101C5C002F924F923F922F92B1E03B2EBFE12B2E51
:101C6C000E94D828B2E03B2EBFE12B2E0E94882781
:101C7C002F90322CB4E12B2E0E9464183F904F9081
:101C8C000E94BE283F92342CB6E12B2E0E94641881
:101C9C003F900E94BE28B7E12B2E0E9464180E9430
:061CAC00BE282F900895F0
:1026B000A101252D362D052D162D01501040502E2F
:1026C000612EB22FB32B39F0FA0140828A010F5FDD
:0A26D0001F4FA801EECF810108950D
:105874002F923F924F925F926F927F927F926F929C
:105884005F924F92B4E06B2EB0E07B2E2101B6E123
:105894002B2EB1E23B2E12DF4F905F90B4E06B2EC3
:1058A400B0E07B2EBCE52B2EB0E23B2E07DF6F90E1
:1058B4007F902301B4E06B2EB0E07B2EB8E52B2E55
:1058C400B0E23B2EFBDEB2E12B2EB1E23B2E12DC2A
:0E58D4007F906F905F904F903F902F900895BF
:1050F8004F925F926F927F92B4E06B2EB0E07B2E5E
:10510800BAE14B2EB1E25B2ED7D250E003E005178F
:10511800C0F0352F40E0320D431DE32FF42F2081DE
:1051280006E111E2E52FF0E0E00FF11F0081BFEF8B
:105138000B27022BE32FF42F0083052F0F5F502F2F
:0C514800E5CF7F906F905F904F9008952E
:1058E200CF93DF93CDB7DEB72197CDBFDEBF219631
:1058F2002F923F92B0E0B883B1E03B2EBFE12B2E56
:1059020006DBB2E03B2EBFE12B2E51DCB9E12B2EA0
:105912000E949D0E10E0101710F466DC0883B1E0BF
:105922003B2EBFE12B2E43DCB2E03B2EBFE12B2E00
:105932003EDC08813F902F90CDBFDEBFDF91CF913B
:025942000895C6
:1051EA00CF93DF93CDB7DEB72D97CDBFDEBF219624
:1051FA002F923F924F925F926F927F928F92B0E07E
:10520A00B887B0911E21B160B0931E21B0911E21C2
:10521A00BD7FB0931E21B1E03B2EBFE12B2EC3DF31
:10522A00B2E03B2EBFE12B2EBEDF3090072040902C
:10523A00082022240E948118B0914406BE7FB093B0
:10524A004406BAE32B2EE0911021F0911121099521
:10525A002224E0911021F091112109950093072051
:10526A002224E0911021F091112109950093082040
:10527A002224E0911021F0911121099500931F2118
:10528A002224E0911021F091112109950093202107
:10529A008E010A5F1F4F0B871C872224E091102181
:1052AA00F091112109951B852C85E12FF22F00839E
:1052BA008E010A5F1F4F0F5F1F4F0B871C87222427
:1052CA00E0911021F091112109951B852C85E12F80
:1052DA00F22F0083B0914406B160B0934406009166
:1052EA001F21109120210450104000931F21109378
:1052FA00202120910720309108200DEA19E1021798
:10530A001307D8F00091072000FD17C08E010A5F2D
:10531A001F4FF8013196008107FD0FC020911F2110
:10532A00309120210EEE15E00217130730F0FE012E
:10533A003696008107FF01C002C001E0AFC18E01AD
:10534A000C5F1F4F0B871C8722240E949D0E1B8512
:10535A002C85E12FF22F00838E010C5F1F4F0F5F08
:10536A001F4F0B871C87B1E02B2E0E949D0E1B85B9
:10537A002C85E12FF22F00832C813D8100911F2182
:10538A0010912021020F131FB1E08B2EBFEA6B2E62
:10539A00B9E17B2E28012C803D800E94B50E8E013A
:1053AA000A5F1F4F0F5F1F4F0B871C87BBEB2B2E0C
:1053BA00B9E13B2E0E94F3091B852C85E12FF22FC0
:1053CA0000838E010A5F1F4F0B871C870E94A10C66
:1053DA001B852C85E12FF22F00830E811F81183047
:1053EA0009F4063089F4B7E06B2EBAE34B2EB0E22B
:1053FA005B2EBDEB2B2EB9E13B2E0E94A90D00308E
:10540A0011F40E94BB0C24C10E811F81183009F4CB
:10541A00003009F01BC1B4E06B2EB2E14B2EB1E2B1
:10542A005B2EBDEC2B2EB9E13B2E0E94A90D002369
:10543A0029F4B0911E21B260B0931E21B4E06B2E04
:10544A00B4E34B2EB0E25B2EBDEC2B2EB9E13B2E22
:10545A000E94A90D002329F4B0911E21B260B093D5
:10546A001E21B4E06B2EBAE14B2EB1E25B2EBDECED
:10547A002B2EB9E13B2E0E94A90D002339F0B091E1
:10548A001E21B1FD03C0B2E0B887DFC0BDEB2B2EF1
:10549A00B9E13B2E0E94F309007F003419F0B3E012
:1054AA00B887D3C0BDEB2B2EB9E13B2E0E94F3097E
:1054BA000A83B0E0BB830A811B810F701070000F52
:1054CA00111F000F111F0A831B83B3EC2B2EB9E1A6
:1054DA003B2E0E94F3090F7B003009F0B6C0B4ECF2
:1054EA002B2EB9E13B2E0E94F309003009F0ADC022
:1054FA000A811B810354164E08831983B6EC2B2E9E
:10550A00B9E13B2E0E94F309102F013009F071C056
:10551A00288039800E94F309083009F069C008819F
:10552A0019810F5F1F4F18010E94F309003009F01B
:10553A005FC04424288039800E94CF090E94770BDB
:10554A000E94FF1455244424B7EC2B2EB9E13B2EBC
:10555A000E94C0144A805B80BDEB2B2EB9E13B2E22
:10556A000E946D13B6E12B2E0E949D0E0B87B7E1A8
:10557A002B2E0E949D0E1B85512E402EB7EC2B2EF2
:10558A00B9E13B2E0E94C014088119810E5F1F4F9A
:10559A005524442418010E94C0140A801B800091DB
:1055AA001F2110912021001911090E5010402801C5
:1055BA00288039800E946D13B6E12B2E0E949D0E21
:1055CA000B87B7E12B2E0E949D0E18812981312F5E
:1055DA00422F3E5F4F4F1B85512E402E232E342ED5
:1055EA000E94C01420901F21309020210E94680A36
:1055FA002CC0113141F4588069804A802C803D804A
:10560A000E94B01322C0163001F50C811D81005F83
:10561A001F4F18010E94F309102F00270B871C87C0
:10562A000E94A10C2B853C8510E0020F131F025F1C
:10563A001F4F00931F2110932021688079804A8090
:10564A005B802C803D800E94800F02C0B4E0B88746
:10565A00B0E43B2EBEE12B2E56DC20910720309180
:10566A000820215030400DEA19E10217130748F4C7
:10567A00BDEA3B2EB9E14B2EBCE02B2E0E948118CD
:10568A000CC0009107201091082001501040302EC4
:10569A00412EBCE02B2E0E94811808858F907F90A6
:1056AA006F905F904F903F902F902C96CDBFDEBFAA
:0656BA00DF91CF9108957D
:101D6A00CF93DF93CDB7DEB72597CDBFDEBF2196E0
:101D7A00B0E0BC838201015010402801882069F03C
:101D8A000DEA19E10415150540F40C810F5F0C8367
:101D9A0082010D5A19410A831B830C81002321F009
:101DAA002DEA39E1890102C0920189012016310622
:101DBA00F9F48F927F926F925F924F923F922F9295
:101DCA000DDB2F903F904F905F906F907F907F92A6
:101DDA006F925F924F923F922F92402E1301DADA5E
:101DEA002F903F904F905F906F907F908F9064C03C
:101DFA008F927F926F925F924F923F922F92432CD3
:101E0A00322CB0E12B2E0E9481182F903F904F90D8
:101E1A005F906F907F908F900C81002329F0BDEA2C
:101E2A00B883B9E1B98302C0488259828F927F92FE
:101E3A006F925F924F923F922F9238804980B2E11F
:101E4A002B2E0E9481182F903F904F905F906F9099
:101E5A007F907F926F925F924F923F922F92362C91
:101E6A00472CB4E12B2E0E948118B0E13B2EBFE132
:101E7A002B2E0E94D828B0E23B2EBFE12B2E0E94C7
:101E8A0088272F903F904F905F906F907F908F9010
:101E9A008F927F926F925F924F923F922F92BFE101
:101EAA002B2E46DF2F903F904F905F906F907F9040
:101EBA008F9005FF01C0ECCF0C810023B1F08201A5
:101ECA00021913090A801B80001911090F5F1F4F9D
:101EDA00060D171D38010A811B8101501040280187
:101EEA0022243324B0E0BC8358CF2496CDBFDEBF72
:061EFA00DF91CF91089575
:10139E002F923F924F92432C322CB2E02B2E0E9472
:1013AE008118B0914406BE7FB0934406BAE72B2E47
:1013BE00E0911021F091112109954F90242CE0918C
:1013CE001021F09111210995B0914406B160B093AE
:0813DE0044063F902F90089592
:1013E6002F923F924F92432C322C22240E94811836
:1013F600B0914406BE7FB0934406BAE32B2EE0912B
:101406001021F091112109952224E0911021F091EB
:1014160011210995B0914406B160B09344064F90EE
:061426003F902F90089595
:101942002F92B0914406BE7FB0934406BAE32B2E89
:10195200E0911021F091112109952224E0911021AA
:10196200F09111210995B0914406B160B0934406FB
:041972002F90089515
:101B5200CF93DF93CDB7DEB72497CDBFDEBF2196FB
:101B62002F923F924F925F928E010A831B836F9254
:101B72005F924F923F922F922224DED01A812B81C4
:101B8200E12FF22F00838E010F5F1F4F0A831B8309
:101B9200B1E02B2ED1D02F903F901A812B81E12FD3
:101BA200F22F0083432C322C22240E948118B09100
:101BB2004406BE7FB0934406BAE32B2EE091102177
:101BC200F091112109954F905F906F906620E9F096
:101BD2006F925F924F923F922F922224E0911021B6
:101BE200F091112109952F903F904F905F906F9047
:101BF200F2011081011709F008C082010F5F1F4F27
:101C02002801062D0150602EE1CFB0914406B1604B
:101C1200B09344066F923880498022240E94811832
:101C22006F90062D5F904F903F902F902396CDBFDF
:081C3200DEBFDF91CF910895A0
:10197600CF93DF93CDB7DEB72197CDBFDEBF2196DC
:101986002F923F924F925F926F927F928F92B4EC1A
:101996002B2EB9E13B2E24DD0883C5C0B4E06B2EA7
:1019A600BAE14B2EB1E25B2EB5ED2B2EB9E13B2E03
:1019B600CDD0003009F043C0B2E04B2EB4EC2B2E54
:1019C600B9E13B2EE9DC90DE8824B5ED6B2EB9E15A
:1019D6007B2EBFEC4B2EB9E15B2EBBEC2B2EB9E177
:1019E6003B2EC0D1B4E06B2EB0E07B2EBAE14B2E7D
:1019F600B1E25B2EBBEC2B2EB9E13B2E06D9882437
:101A0600BFEC6B2EB9E17B2EBBEC4B2EB9E15B2E06
:101A1600B5EC2B2EB9E13B2EA5D1B6E06B2EB0E08E
:101A26007B2EB2E54B2EB0E25B2EB5EC2B2EB9E148
:101A36003B2EEBD8BCE32B2EB0E03B2E46DD7AC026
:101A4600B6E06B2EB2E54B2EB0E25B2EBFEA2B2E34
:101A5600B9E13B2E7BD0003009F064C0B4E06B2EB8
:101A66004090612050906220BBEC2B2EB9E13B2EBA
:101A76006DD0003009F056C00FE010E0409106200E
:101A860050E00E94121823E630E2020F131F075F90
:101A96001F4FB6E06B2EB0E07B2EB5EC4B2EB9E1B6
:101AA6005B2E1801C0DC0FE010E04091062050E0EC
:101AB6000E94121823E630E2020F131F0B5F1F4F1E
:101AC600B4E06B2EB0E07B2E4090612050906220F7
:101AD60018010E94602B0FE010E04091062050E0B4
:101AE6000E94121823E630E2F801E20FF31FB1E07C
:101AF600B0830FE010E04091062050E00E941218DB
:101B060023E630E2020F131FF80131960091002000
:101B1600109101202091022030910320019311930E
:101B26002193319307C00881013009F437CF023081
:101B360009F486CF8F907F906F905F904F903F9083
:0C1B46002F90CDBFDEBFDF91CF9108953E
:1016EE002F923F924F925F926F927F928F928824A9
:1016FE00BFEA6B2EB9E17B2EBBEB4B2EB9E15B2E15
:10170E00B5EB2B2EB9E13B2E29D3B6E06B2EB0E014
:10171E007B2EB2E54B2EB0E25B2EB5EB2B2EB9E154
:10172E003B2E6FDA8F907F906F905F904F903F902F
:04173E002F9008954B
:100C10002F923F927F926F925F924F92432C322C91
:100C2000B2E02B2E0E948118B0914406BE7FB09393
:100C30004406BAE72B2EE0911021F091112109957D
:100C40004F905F906F907F90B62DB729E9F0F20139
:100C500000817F926F925F924F923F922F92202E4F
:100C6000E0911021F091112109952F903F904F9024
:100C70005F906F907F9082010F5F1F4F280183016B
:100C8000015010403801E0CFB0914406B160B093FC
:080C900044063F902F900895E7
:1014D000CF93DF93CDB7DEB72497CDBFDEBF219684
:1014E0004F923F922F924424BEEA2B2EB9E13B2E1D
:1014F00056DF2F903F9081010255164E18013F9202
:101500002F92302E412EB6E02B2E0E948118B0E88B
:101510003B2EBFE12B2E0E948827B0E83B2EBFE177
:101520002B2E0E94D8282F903F90009160200530EC
:1015300029F000916020073009F00AC03F922F92F5
:10154000BAE03B2EBCE12B2E0E94D8282F903F9072
:101550003F922F92B8E03B2EBFE12B2E0E948827AE
:101560002F903F9000916020053029F0009160207D
:10157000073009F09DC0B0E0BA83BB833F922F9241
:10158000BCE12B2EDAD32F903F900A70002359F440
:101590000A811B810F5F1F4F0A831B83133009F4DD
:1015A000083E08F4EBCF3F922F92BCE12B2EC5D31F
:1015B0002F903F9001FD07C00A811B81133009F471
:1015C000083E08F474C03F922F92B8E03B2EBFE172
:1015D0002B2E0E94D8282F903F9081010C5F1F4F27
:1015E0003F922F921801FFDE2F903F900983B0E0C9
:1015F000B8830881003108F05AC03F922F92BCE1B5
:101600002B2E9BD32F903F9001FF4CC0B981B5FF8B
:1016100049C03F922F92B0E83B2EBFE12B2E0E9493
:101620008827B0E83B2EBFE12B2E0E94D828BAE0D5
:101630003B2EBCE12B2E0E94D828B8E03B2EBFE108
:101640002B2E0E9488272F903F90B0E0BA83BB8357
:101650003F922F92BCE12B2E70D32F903F900A70B7
:10166000002359F40A811B810F5F1F4F0A831B83DC
:10167000133009F4083E08F4EBCF3F922F92B8E004
:101680003B2EBFE12B2E0E94D8282F903F90810146
:101690000C5F1F4F3F922F921801A5DE2F903F90B5
:1016A000098301C004C008810F5F0883A2CF0AC06C
:1016B0003F922F92BFE12B2E40D32F903F9003FFFC
:1016C00001C0F6CF3F922F92BDE12B2E36D32F9043
:1016D0003F900670002311F010E001C011E0012FCF
:0E16E0004F902396CDBFDEBFDF91CF910895CE
:10142C004F925F92BFEF5B1611F4BFEF4B1669F052
:10143C007F926F923F922F92342C452C22240E9443
:10144C0081182F903F906F907F90B0914406BE7F93
:10145C00B09344067F926F923F922F92BAE32B2E59
:10146C00E0911021F091112109952F903F906F90F0
:10147C007F9093018301015010403801B22FB32BA0
:10148C00C9F07F926F925F924F923F922F922224DB
:10149C00E0911021F091112109952F903F904F90E0
:1014AC005F906F907F90F101008381010F5F1F4F60
:1014BC001801DFCFB0914406B160B09344065F9041
:0414CC004F900895A0
:1029FE002F923F924F925F926F927F928F92882486
:102A0E00BDEC6B2EB9E17B2EBDEC4B2EB9E15B2EEE
:102A1E00B9EC2B2EB9E13B2EA1D9B4E06B2EB0E070
:102A2E007B2EBAE14B2EB1E25B2EB9EC2B2EB9E127
:102A3E003B2E0E9408068F907F906F905F904F9074
:062A4E003F902F90089557
:102980002F923F925F920E94CF095F90252C0E9468
:08299000BA073F902F90089553
:100F7400B0914406BE7FB09344062F92BAE72B2E5D
:100F8400E0911021F091112109952F90E091102109
:100F9400F09111210995B0914406B160B0934406D3
:020FA4000895AE
:1026DA00CF93DF93CDB7DEB72297CDBFDEBF21966A
:1026EA002F923F924F925F928201020D131D015069
:1026FA00104008831983432C322CB0E12B2EFCD4D2
:10270A0038804980B2E12B2EF7D4B0E33B2EBFE1EB
:10271A002B2E0E9488275F924F923F922F92BFE101
:10272A002B2E06DB2F903F904F905F9005FF01C044
:10273A00F2CF5F904F903F902F902196CDBFDEBF92
:06274A00DF91CF9108951C
:10276000CF93DF93CDB7DEB76297CDBFDEBF2196A3
:102770002F923F924F925F926F927F928F929F9291
:102780008E01085F1F4F0F5F1F4F088B198B6F92D1
:102790005F924F923F922F92252C362C0E94F30984
:1027A00018892989E12FF22F00838E01085F1F4FBE
:1027B000088B198BC6D818892989E12FF22F00833D
:1027C0008E010A5F1F4F0F5F1F4F088B198BB9D8FF
:1027D00018892989E12FF22F00838E010A5F1F4F8C
:1027E000088B198BAED82F903F904F905F906F90D1
:1027F00018892989E12FF22F00830E811F81103063
:1028000009F4003009F49AC08E01065F1F4F0F5F74
:102810001F4F088B198B6F925F924F923F922F92AE
:1028200090D818892989E12FF22F00838E01065F45
:102830001F4F088B198B85D818892989E12FF22F12
:1028400000838E01045F1F4FB4E06B2EB0E07B2E3F
:10285000B9EC4B2EB9E15B2E18010E94160A2F909D
:102860003F904F905F906F90052D162D085F1F4F82
:102870004F923F922F92302E412EB2E02B2E41D418
:102880002F903F904F908101025F1F4F040DB0E0E9
:102890001B1F085F1F4F18010E94AB09088519858F
:1028A000103009F4053319F40E94DA0847C00E818C
:1028B0001F81103009F4043419F40E94D3073EC07C
:1028C0002A853B85285030408E01045F1F4F490107
:1028D0006E807F80488459841801B1E2BF93BEE1C5
:1028E000BF930E94C309ADB7BEB71296ADBFBEBFBE
:1028F0000A871B87B02FB12B09F18E01B6E06B2E32
:10290000B0E07B2EB5EB4B2EB9E15B2E18010E9497
:10291000160A9E01245F3F4F8E01888499846E8041
:102920007F80290118010A851B851F930F930E9440
:10293000DF02ADB7BEB71296ADBFBEBF9F908F90FE
:102940007F906F905F904F903F902F906196CDBF9A
:08295000DEBFDF91CF91089575
:101356002F923F924F920DEA19E10215130520F4E0
:1013660081010E5A19411801432C322C22240E9465
:0A13760081184F903F902F900895CA
:1011B400CF93DF93CDB7DEB72C97CDBFDEBF21969B
:1011C400BED3BDD38E010F5F1F4F0A871B87B7D3D2
:1011D4001A852B85E12FF22F00838E010A871B8746
:1011E400AED31A852B85E12FF22F00838E010E5F7B
:1011F4001F4F0F5F1F4F0A871B87A1D31A852B85AB
:10120400E12FF22F00838E010E5F1F4F0A871B8789
:1012140096D31A852B85E12FF22F00838E010C5F64
:101224001F4F0F5F1F4F0A871B8789D31A852B8592
:10123400E12FF22F00838E010C5F1F4F0A871B875B
:101244007ED31A852B85E12FF22F008378D377D3B1
:1012540076D375D32A813B810A811B8101501040CA
:101264000A831B83B22FB32B49F069D3002309F0FF
:10127400FCCF65D364D363D362D3ECCF2C813D819F
:101284000C811D81015010400C831D83B22FB32BA0
:1012940009F459C054D353D38E01085F1F4F0F5F15
:1012A4001F4F0A871B874BD31A852B85E12FF22FFB
:1012B40000838E01085F1F4F0A871B8740D31A855E
:1012C4002B85E12FF22F00833AD339D338D337D388
:1012D40036D335D38E010A5F1F4F0F5F1F4F0A8726
:1012E4001B872DD31A852B85E12FF22F00838E01C6
:1012F4000A5F1F4F0A871B8722D31A852B85E12F8C
:10130400F22F008308851985103009F4013069F43F
:1013140016D300934A2013D300934B2010D3009389
:101324004C200DD300934D200EC02E813F810E81A1
:101334001F81015010400E831F83B22FB32B11F075
:10134400FED2F3CF9BCF2B96CDBFDEBFDF91CF91E3
:021354000895FA
:100FA6002F923F924F925F926F927F92E0C0B4E091
:100FB6005B2EB0E06B2E4424BAE12B2EB1E23B2E21
:100FC6000E9458133324B1E02B2E63DE00910020DB
:100FD60010910120209102203091032000934E2091
:100FE60010934F202093502030935120B3E0B093BC
:100FF6000520D6C000914E2010914F202091502000
:1010060030915120A801B9014B5F5F4F6F4F7F4F61
:1010160000910020109101202091022030910320A0
:10102600401751076207730718F4B2E0B093052022
:101036007FDC023021F4B4E0B093052001C0B0C0DB
:1010460030900420B3E02B2E24DE00910020109176
:101056000120209102203091032000934E2010930E
:101066004F202093502030935120B5E0B0930520B7
:1010760097C05EDC102F063021F4B4E0B093052053
:1010860035C0153099F5009100201091012020916E
:1010960002203091032000934E2010934F2020937E
:1010A600502030935120B6E0B0930520B4E06B2E6B
:1010B600B0E07B2EB6E44B2EB0E25B2EBAE12B2ECF
:1010C600B1E23B2E0E94602BBCE96B2EB0E27B2E78
:1010D600B0EA4B2EB0E25B2EB4EA2B2EB0E23B2EEA
:1010E6000E943A2CB0E0B09304205AC059C0009137
:1010F6004E2010914F202091502030915120A80170
:10110600B9014F5F5F4F6F4F7F4F009100201091E5
:10111600012020910220309103200417150726078D
:10112600370720F10091A8201091A9202091AA202C
:101136003091AB2001501040204030400093A82051
:101146001093A9202093AA203093AB200091002071
:1011560010910120209102203091032000934E200F
:1011660010934F20209350203093512019C00091A6
:101176000520023009F41BCF00910520033009F445
:1011860039CF00910520043009F45ACF009105208B
:10119600053009F46ECF00910520063009F4A7CF7B
:0E11A6007F906F905F904F903F902F90089534
:100C9800CF93DF93CDB7DEB72397CDBFDEBF2196C5
:100CA8004F925F926F927F928F929F92B9EFB98322
:100CB800B0E0BA833F922F92B9ED3B2EB9E14B2EAB
:100CC800B2E02B2E0E948118BCE04B2EB0E05B2EC8
:100CD800B1E52B2EB3E03B2EAADD2F903F90B3E079
:100CE8002B1681F4332071F03F922F92B4E04B2EF3
:100CF800B0E05B2EB6E42B2EB0E23B2E25DC2F9025
:100D08003F900FC0B0E0B8830881043050F43F92A0
:100D18002F9222242BD12F903F9008810F5F0883B8
:100D2800F3CFB0E0B88308810C3050F43F922F9293
:100D380022241CD12F903F9008810F5F0883F3CFA6
:100D48003F922F92B6E04B2EB0E05B2EB2E52B2EF1
:100D5800B0E23B2EF9DB2F903F90B0E0B8830881DA
:100D68000A3C50F43F922F92222400D12F903F90BA
:100D780008810F5F0883F3CF3F922F92B6E04B2E86
:100D8800B0E05B2EB4E62B2EB3E03B2E50DD2F9067
:100D98002F92ECD02F903F90B3E02B16D9F433204C
:100DA800C9F43F922F92B6E32B2EE0D0B4E02B2E5D
:100DB800DDD0B4E04B2EB0E05B2EB2E42B2EB0E2D7
:100DC8003B2EC2DB2F903F9009811A810A5F1F4F8B
:100DD80009831A833F922F92B5E04B2EB0E05B2E29
:100DE800BAE62B2EB3E03B2E22DD2F903F90B3E0E6
:100DF8002B1649F5332039F53F922F92B2E32B2E6B
:100E0800B5D0B4E02B2EB2D02F903F90B0E0B8838D
:100E18000881043090F416E420E20881E02FF0E025
:100E2800E10FF21F00813F922F92202E9FD02F902A
:100E38003F9008810F5F0883EBCF09811A810A5F11
:100E48001F4F09831A833F922F92BFEF2B2E8ED00C
:100E5800B3E48B2EB0E09B2EB4E46B2EB0E07B2E77
:100E6800B4E34B2EB0E25B2EB4E32B2EB0E23B2E64
:100E780009811A811F930F939EDBADB7BEB71296F7
:100E8800ADBFBEBF2F903F909F908F907F906F9087
:100E98005F904F902296CDBFDEBFDF91CF9108952E
:000EA8004A
:10083600B0914406BE7FB09344065F924F923F92BA
:100846002F92BAE72B2EE0911021F09111210995F4
:100856002F903F904F905F9092018201015010407F
:100866002801B22FB32BA9F0F10104915F924F92A8
:100876003F922F92202EE0911021F091112109959F
:100886002F903F904F905F9081010F5F1F4F18018F
:0E089600E3CFB0914406B160B09344060895DC
:10055000B0914406BE7FB09344065F924F923F92A3
:100560002F92BAE72B2EE0911021F09111210995DD
:100570002F903F904F905F90920182010150104068
:100580002801B22FB32BA9F0F10100815F924F92A5
:100590003F922F92202EE0911021F0911121099588
:1005A0002F903F904F905F9081010F5F1F4F180178
:0E05B000E3CFB0914406B160B09344060895C5
:1005BE00CF93DF93CDB7DEB72597CDBFDEBF2196A4
:1005CE002F923F924F925F926F927F928F929F9255
:1005DE000A851B850A871B879F928F927F926F9247
:1005EE005F924F92B6E06B2EB0E07B2E2101BFEAF8
:1005FE002B2EB9E13B2E05D3B6E04B2EB0E05B2E91
:10060E00B2E52B2EB0E23B2E9CDFB0E02B2EB8E0F5
:10061E003B2EC1DE0A851B85045E1F4F09831A839C
:10062E00B0E02B2EB5E43B2EB6DE29803A80B3DE49
:10063E002090982030909920AEDE00919820109155
:10064E0099200F5F1F4F009398201093992022241A
:10065E003324A1DEB1E12B2EB0E83B2E9CDE22240A
:10066E00332499DEB4E04B2EB0E05B2EBAE12B2E94
:10067E00B1E23B2E66DF4F905F901201B4E04B2E3D
:10068E00B0E05B2E5EDF6F907F900A851B85085F62
:10069E001F4F09831A8313017EDE8F909F901401E2
:1006AE007ADE29803A8077DE2224332474DEB4E1A8
:1006BE004B2EB0E05B2EBDEB2B2EB9E13B2E0E94F4
:1006CE006D13B6E12B2E0E949D0E0C83B7E12B2EDF
:1006DE000E949D0E1C81512E402EB7EC2B2EB9E19F
:1006EE003B2E0E94C0140981017008830A851B8568
:1006FE000752164E442418014BD60A851B859801C5
:10070E002752364E088110E0020F131F882438013D
:10071E00B1ED4B2EB9E15B2EB9EC2B2EB9E13B2E90
:10072E000E94B50E0A851B8598012752364E088108
:10073E0010E0020F131F085F1F4FB1E15B2E442420
:10074E0018010E94C0148E010F5F1F4FF8013196E1
:10075E000081202E08D4298006D409811A8198019F
:10076E00245F3F4F088110E0020F131F2801B1EDE7
:10077E002B2EB9E13B2E0E946D13B6E12B2E0E945B
:10078E009D0E0C83B7E12B2E0E949D0E1C81512EC7
:10079E00402EB7ED2B2EB9E13B2E0E94C0140A85D8
:1007AE001B85065D1F4F18018CD69F908F907F90F2
:1007BE006F905F904F903F902F902496CDBFDEBFED
:0607CE00DF91CF910895B8
:1003A400CF93DF93CDB7DEB72297CDBFDEBF2196C3
:1003B4002F923F9228823982B0914406BE7FB09337
:1003C4004406BAE72B2EE0911021F09111210995F2
:1003D4008E01F80131960081202EE0911021F091D8
:1003E40011210995FE010081202EE0911021F09148
:1003F40011210995B0914406B160B09344063F9031
:0E0404002F902196CDBFDEBFDF91CF910895DE
:10093600CF93DF93CDB7DEB72697CDBFDEBF219627
:100946002F923F924F925F926F927F92B0E0B88360
:10095600BCE3B093A820B0E0B093A920B093AA203E
:10096600B093AB20EBD7023009F01BC120E0122F69
:100976001F3040F41F93E2D71F91012F0F5F202FE6
:10098600122FF6CFB4E06B2EB0E07B2EBFEF4B2ECE
:100996005B2EB6E42B2EB0E23B2E45D520E0122F7F
:1009A600183040F41F93CAD71F91012F0F5F202FD5
:1009B600122FF6CF40E0342F363090F43F93BED757
:1009C6003F9112E520E2E32FF0E0E10FF21F1081E4
:1009D600011709F00DC1032F0F5F402F342FECCF05
:1009E60020E0122F1E3C40F41F93A8D71F91012F21
:1009F6000F5F202F122FF6CFB0E0B9839FD7B7C075
:100A06009DD7013019F49AD7088301C0F1C0C5C03B
:100A160095D7043069F4B4E06B2EB0E07B2EBFEFBF
:100A26004B2E5B2EB4EA2B2EB0E23B2EFCD401C03B
:100A3600DFC0B3C083D7102F043078F01F93B4E023
:100A46006B2EB0E07B2EBFEF4B2E5B2EB0EA2B2E2B
:100A5600B0E23B2EE8D41F9101C0CAC0012F04505A
:100A6600202F122F022F0150202F112321F02F9318
:100A760065D72F91F6CF91C061D7102F043078F04B
:100A86001F93B4E06B2EB0E07B2EBFEF4B2E5B2E98
:100A9600BCE92B2EB0E23B2EC6D41F9101C0A8C0E4
:100AA600012F0450202F122F022F0150202F112327
:100AB60021F02F9343D72F91F6CF6FC03FD7043045
:100AC60069F48E010E5F1F4FB4E06B2EB0E07B2EF3
:100AD600BFEF4B2E5B2E1801A6D401C089C05DC0A6
:100AE600B1E0B9835AC02AD7043091F5B4E06B2E31
:100AF600B0E07B2EBFEF4B2E5B2EB8EA2B2EB0E27A
:100B06003B2E91D44091A8205091A9206091AA2013
:100B16007091AB2008E017E020E030E004171507DD
:100B260026073707A0F40091A8201091A92020914C
:100B3600AA203091AB200850174020403040009347
:100B4600A8201093A9202093AA203093AB2001C09F
:100B56004FC023C0F3D6202F122F022F0150202F73
:100B6600112321F02F93EAD62F91F6CF16C0053325
:100B760009F446CF013009F44BCF033009F45ACFBC
:100B8600063009F479CF063309F498CF0F3F09F4FC
:100B9600A7CF033309F4A7CFDDCF0981002309F4DA
:100BA6002DCF0881023079F48E010E5F1F4FB4E01D
:100BB6006B2EB0E07B2E2801B2E42B2EB0E23B2E4A
:100BC6000E94602B13C08E010E5F1F4FB4E06B2E88
:100BD600B0E07B2E2801B2E42B2EB0E23B2E79DC6E
:100BE600103009F4003011F0B0E0B883088101C07C
:100BF60000E07F906F905F904F903F902F902596EA
:0A0C0600CDBFDEBFDF91CF9108954E
:1004D80093018301015010403801303009F4203075
:1004E800D9F0F1011081F2010081101761F0F101DA
:1004F8001081F2010081002EB0E01B2E012F10E0C8
:10050800001911090BC081010F5F1F4F18018201EB
:0E0518000F5F1F4F2801DCCF00E010E00895B8
:10138600CF93DF93CDB7DEB726960881198100E0AB
:0813960010E0DF91CF910895F2
:101F0000CF93DF93CDB7DEB7A697CDBFDEBF2196C7
:101F10008F929F928E01075F1F4F0F5F1F4F0CA381
:101F20001DA37F926F925F924F923F922F92130167
:101F30005ADA1CA12DA1E12FF22F00838E01075F39
:101F40001F4F0CA31DA3FDDC1CA12DA1E12FF22F1F
:101F500000838E01095F1F4F0F5F1F4F0CA31DA34E
:101F6000F0DC1CA12DA1E12FF22F00838E01095F6F
:101F70001F4F0CA31DA3E5DC2F903F904F905F9067
:101F80006F907F901CA12DA1E12FF22F0083B0E074
:101F9000BF87B0E0BC8BB1E0BD8BB0E0BA8BBB8B30
:101FA0008301045F1F4F7F926F925F924F923F9227
:101FB0002F92180118DA0695069510E00C7F0D8710
:101FC0001E878E01025E1F4FB4E06B2EB0E07B2EA9
:101FD000B9EC4B2EB9E15B2E180128DA2F903F9017
:101FE0004F905F906F907F908301035F1F4F7F92B0
:101FF0006F925F924F923F922F921801F4D92F90D7
:102000003F904F905F906F907F900F730B87B0E081
:10201000BC8700911F21109120210E5010400419FF
:1020200015090D841E8400191109088B198B830171
:102030000E5F1F4F7F926F925F924F923F922F924F
:102040001801D1D92F903F904F905F906F907F9063
:102050007F926F925F924F923F922F92402E130188
:102060009ED92F903F904F905F906F907F9083010B
:102070000D5F1F4F7F926F925F924F923F922F9210
:102080001801B1D9202E0E94BA0729843A840E94EF
:10209000D2012F903F904F905F906F907F9083017F
:1020A0000C5F1F4F7F926F925F924F923F922F92E1
:1020B000180199D9098F45DC088F43DC0F8B41DC6F
:1020C0000E8B3FDC0D8F3DDC0C8F3BDC0B8F39DC46
:1020D0002F903F904F905F906F907F900A8F0B856D
:1020E0001C85103009F40230C9F50E891F89288D2E
:1020F000398D0F5F1F4F2F4F3F4F0A8F1B8F2C8F34
:102100003D8FB2E1BB87B0E0BC877F926F925F9258
:102110004F923F922F92BCE02B2E0FDE0E8BBDE034
:102120002B2E0BDE0F8B222408DE088FB1E02B2E26
:1021300004DE2F903F904F905F906F907F90098FBB
:102140000F850F5F0F87B8E1BD87B0E0BE87B0E0B5
:10215000BA8BBB8BB0E0B0930F206BC00B851C8596
:10216000103009F4083179F50E891F89288D398DD1
:10217000088319832A833B830A8D1B8D2C8D3D8D0B
:102180000E8B1F8B288F398F488159816A817B8103
:102190000889198920E0322F040F151F261F371FC9
:1021A0000A8F1B8F2C8F3D8FB0E1BB87B0E0BC87BF
:1021B0000F850F5F0F87B4E1BD87B0E0BE870C8944
:1021C0000F5F0C8B36C00B851C85103009F4013174
:1021D00081F54E895F89688D798D0A8D1B8D2C8DD7
:1021E0003D8D0E8B1F8B288F398F8A019B010F5FCE
:1021F0001F4F2F4F3F4F0A8F1B8F2C8F3D8FB0E10A
:10220000BB87B0E0BC870F850F5F0F87B4E1BD8748
:10221000B0E0BE87B0E0BA8BBB8B00910E200023EC
:1022200041F400910F200F5F00930F20B0E0B093B6
:102230000E200F85002309F433C283010C5F1F4F6A
:102240007F926F925F924F923F922F92588C498C5F
:10225000180196D32F880E94BA072E880E94BA07C9
:102260002D8C0E94BA072C8C0E94BA072B8C0E94DE
:10227000BA072A8C0E94BA072F903F904F905F9028
:102280006F907F908301045F1F4F7F926F925F92E8
:102290004F923F922F921801A6D82F903F904F90C7
:1022A0005F906F907F90102F1F700D85000F000FB3
:1022B000212F202B8301045F1F4F7F926F925F922B
:1022C0004F923F922F92422E180169D82F903F9043
:1022D0004F905F906F907F908301035F1F4F7F92BD
:1022E0006F925F924F923F922F9218017CD82F905D
:1022F0003F904F905F906F907F90102F107C0B85D8
:10230000212F202B8301035F1F4F7F926F925F92DB
:102310004F923F922F92422E180141D82F903F901A
:102320004F905F906F907F900B851C85103009F463
:10233000023191F58301025F1F4F7F926F925F928E
:102340004F923F922F92BEEE5B2EB5E04B2E1801BE
:1023500017D32F903F904F905F906F907F908301A5
:102360000C5E1F4F7F926F925F924F923F922F921F
:10237000B4E05B2EB2E04B2E180102D3B5E02B2E59
:102380000E94BA07B8E72B2E0E94BA072F903F9001
:102390004F905F906F907F900A891B899201200F68
:1023A000311F0D851E85020F131F088B198B0D8998
:1023B000002371F07F926F925F924F923F922F9223
:1023C00096D91DD32F903F904F905F906F907F9044
:1023D0008E01005F1F4FF801319600817F926F924E
:1023E0005F924F923F922F925888402EBFEB2B2E38
:1023F000B9E13B2EC5D255244424B7EC2B2EB9E1CC
:102400003B2EBED22F903F904F905F905F924F92A5
:102410003F922F92BDEB2B2EB9E13B2E5ED1B6E160
:102420002B2E8BDC0CA3B7E12B2E87DC1CA1512EAD
:10243000402EB7EC2B2EB9E13B2EA2D22F903F902D
:102440004F905F906F907F90088919890354164EC2
:102450000D831E838301005F1F4F7F926F925F92F7
:102460004F923F922F9255244424180189D2088913
:1024700001700C8344242D803E800E94CF092D8161
:102480003E810C8110E0020F131F88243801B1ED4A
:102490004B2EB9E15B2EB9EC2B2EB9E13B2E65DC5E
:1024A0000D811E819801285F3F4F0C8110E0020FC3
:1024B000131FB6E05B2E4424180162D21D850A89E1
:1024C000612F600F2D853E850A891B89020F131F1E
:1024D000412F50E00D811E819801265F3F4F0C81F6
:1024E00010E0020F131F562E442E180149D22F90D0
:1024F0003F904F905F906F907F902D853E850A8929
:102500001B89020F131F9801245F3F4F0C8110E0BD
:10251000020F131F7F926F925F924F923F922F9202
:1025200028011301DAD0B6E12B2E07DC0CA3B7E1AA
:102530002B2E03DC2F903F904F905F906F907F90F9
:102540009301205F3F4F1CA17F926F925F924F9249
:102550003F922F92512E402E190112D208891989CB
:10256000025F1F4F18010E94680A2F903F904F9002
:102570005F906F907F900C89002309F469C0B0E1EF
:10258000BB87B0E0BC87B0E0BC8BB0E0BD8B0D85F5
:102590001E85060D171D7F926F925F924F923F929C
:1025A0002F92302E412EB2E02B2EABD52F903F90A4
:1025B0004F905F908101025F1F4F9201200F311FEA
:1025C0000D851E85020F131F5F924F923F922F922F
:1025D00018010E94AB092F903F904F905F9000919F
:1025E0000F200F5F00930F2000911F2110912021D9
:1025F0000E501040041915090D841E8498012019ED
:1026000031098E01025E1F4F5F924F923F922F92CF
:1026100049016F80788449845A841801B1E2BF93DC
:10262000BEE1BF93CED8ADB7BEB71296ADBFBEBFA9
:102630002F903F904F905F906F907F900A8B1B8BF5
:10264000B0911E21B0FD03C0B0E0B0930F20F5CDD6
:1026500000910F20002321F14E895F89688D798DCB
:102660000A891B8920E0322F040F151F261F371FF0
:102670000E8B1F8B288F398FB1E1BB87B0E0BC87F1
:10268000B0E0B0930F20B0E0BD8BB4E1BD87B0E007
:10269000BE87B0E0BA8BBB8BB1E0B0930E20CDCD3E
:1026A0009F908F90A596CDBFDEBFDF91CF9108950B
:0026B0002A
:1017C200CF93DF93CDB7DEB72297CDBFDEBF219691
:1017D2000F811885B1E07B1611F4B6EF6B1619F084
:1017E20000E010E08EC030E040E03815490508F016
:1017F20071C00CEA10E2030F141F088319834F9380
:101802003F939F928F927F926F925F924F923F92FD
:101812002F9296D02F903F904F905F906F907F9035
:101822008F909F903F914F9118812981E12FF22F44
:1018320000830CEA10E2E32FF42FE00FF11F008186
:101842004F933F939F928F927F926F925F924F92AC
:101852003F922F92202E8DDB2F903F904F905F90E2
:101862006F907F908F909F903F914F910CEA10E282
:10187200E32FF42FE00FF11F008110E04F933F930D
:101882009F928F927F926F925F924F923F922F928E
:101892001F930F93B3E0BF93BDE5BF93B4E1BF9332
:1018A200BCEABF930E94AC2BADB7BEB71696ADBFD4
:1018B200BEBF2F903F904F905F906F907F908F9020
:1018C2009F903F914F91032F142F0F5F1F4F302F87
:1018D200412F8BCF9F928F927F926F925F924F9206
