:100000000C9458330C9400000C9400000C940000E5
:100010000C9400000C9400000C9400000C94000060
:100020000C9400000C9400000C9400000C94000050
:100030000C9400000C9400000C9447330C940000C6
:100040000C9400000C9400000C9400000C94000030
:100050000C9400000C9400000C9400000C94000020
:100060000C9400000C9400000C9400000C94000010
:100070000C9400000C9400000C9400000C94000000
:100080000C9400000C9400000C9400000C940000F0
:100090000C9400000C9400000C9400000C940000E0
:1000A0000C9400000C9400000C9400000C940000D0
:1000B0000C9400000C9400000C9400000C940000C0
:1000C0000C9400000C9400000C9400000C940000B0
:1000D0000C9400000C9400000C9400000C940000A0
:1000E0000C940000000000000C9400000C94000030
:1000F0000C94000000000000000000000000000060
:100100000C9400000C9400000C9400000C9400006F
:100110000C9400000C9400000C9400000C9400005F
:100120000C9400000C9400000C94000000000000EF
:10013000000000000C9400000C9400000C940000DF
:100140000C9400000C9400000C9400000C9400002F
:100150000C9400000C9400000C9400000C9400001F
:100160000C9400000C9400000C9400000C9400000F
:100170000C9400000C94000000000000000000003F
:10018000000000000000000000000000000000006F
:10019000000000000000000000000000000000005F
:1001A0000C9400000C94000000000000000000000F
:1001B0000C9400000C9400000C9400000C940000BF
:1001C0000C9400000C9400000000000000000000EF
:1001D0000000000000000000000000000C9400007F
:1001E0000C9400000C9400000000000000000000CF
:0C01F000000000000C9400000C940000C3
:1066B000BFEFBDBFBFE5BEBF0E94C134CDB7DEB7DF
:1066C0002497CDBFDEBF21962F923F924F925F92CB
:1066D0006F927F92B2E0B0935000B0915100B1FD43
:1066E00001C0FBCFB8EDB4BFB1E0B0934000B091B2
:1066F0004006B068B0934006B0914006B062B093D7
:106700004006B0914006BF7BB0934006B091200692
:10671000BF7BB0932006B0912406BF7BB0932406C4
:10672000B0914006B160B0934006B0914006BD7F85
:10673000B0934006B0916006B061B0936006B0912E
:10674000A408B460B093A408B2E2B093A608B0E085
:10675000B093A708F3DBBFEF6B2EBFEF7B2EBDEA34
:106760004B2EB4E15B2EBFEF2B2EBFEF3B2EBFEFC6
:10677000BF93BFEFBF9366DCADB7BEB71296ADBF98
:10678000BEBFB9E32B2EB0E23B2E36DCB4E0BF93A4
:10679000B4EEBF93B4E1BF93BEEBBF9302DCADB7E1
:1067A000BEB71496ADBFBEBFB4E0B093A200BFB7F2
:1067B000B068BFBFB0E44B2EB2E45B2EBFE06B2EDF
:1067C000B0E07B2EB0E02B2EB8E03B2E1FDEB0E019
:1067D0002B2EB8E03B2E4FDF4424B1E03B2EB0E13E
:1067E0002B2E26DFB8EE4B2EB4E15B2EB4E72B2E1A
:1067F000BCE13B2ED5DDF1DCB4E7B0939022BCE1E7
:10680000B0939122B1E06B2EB6E24B2EB0E25B2E3C
:10681000BEE22B2EB0E23B2E39DCBAE26B2EB0E2A8
:106820007B2EBEE14B2EB0E25B2EB2E22B2EB0E20D
:106830003B2E7CDDB0914406B061B093440645DD4B
:10684000B0914406BF7EB0934406B0914806B1FDB6
:1068500017C0B0914406BF7EB0934406B8E32B2E18
:106860000E94E814B2E04B2EB0E05B2EB4E92B2E70
:10687000B2E23B2E9EDDB0914406B061B093440677
:106880000091922210919322103009F4013009F006
:1068900070C0B0916706B061B09367060091482060
:1068A000109149200F5F1F4F0093482010934920FB
:1068B0004091942250919522052F10E0980130705C
:1068C0008A011070102F0027022B132B00934A20EF
:1068D00010934B20B0E0B883B9832881398108E058
:1068E00010E020173107DCF4088119810C5F1F4F7D
:1068F0009801220F331F04E410E2020F131F0A83D2
:106900001B83288049DB2A813B81F9010193119384
:10691000088119810F5F1F4F08831983DECFB0E014
:10692000B883B9832881398108E010E02017310746
:10693000DCF408811981045F1F4F9801220F331F77
:1069400004E410E2020F131F0A831B83288099DBE3
:106950002A813B81F90101931193088119810F5F0D
:106960001F4F08831983DECFB0E0B0939222B0931B
:10697000932260CF7F906F905F904F903F902F90C9
:02698000FFCF47
:10604400CF93DF93CDB7DEB72696088119812092CE
:106054006521309266214092672150926821009315
:106064006B2110936C2160926D2170926E21DF91EF
:04607400CF9108952B
:105FF800CF93DF93CDB7DEB72197CDBFDEBF219614
:10600800B0E0B883F1010081102F012F003089F032
:106018003F922F92202E94DB2F903F9008810F5FA4
:106028000883E02FF0E0E20DF31D0081102F012F0F
:0C603800EDCFCDBFDEBFDF91CF9108950A
:0C574800E0916721F09168210995089517
:06297C000E94A42B089547
:10295A00B091A108B5FD01C0FBCFB091A108B6FFA7
:10296A0005C0B091A108B064B093A1082092A00854
:02297A000895BE
:1029D0002092C308B091C208B7FD01C0FBCF089593
:0029E000F7
:1029C0002092C309B091C209B7FD01C0FBCF0895A1
:0029D00007
:10299E00B091B108B5FD01C0FBCFB091B108B6FF43
:1029AE0005C0B091B108B064B093B1082092B008E0
:0229BE0008957A
:1028E600B091A109B5FD01C0FBCFB091A109B6FF1A
:1028F60005C0B091A109B064B093A1092092A009C6
:02290600089532
:1028C400B091B109B5FD01C0FBCFB091B109B6FF1C
:1028D40005C0B091B109B064B093B1092092B009B8
:0228E400089555
:1028A200B091A10AB5FD01C0FBCFB091A10AB6FF5C
:1028B20005C0B091A10AB064B093A10A2092A00A07
:0228C200089577
:10293800B091A10BB5FD01C0FBCFB091A10BB6FFC3
:1029480005C0B091A10BB064B093A10B2092A00B6D
:022958000895E0
:105FA200CF93DF93CDB7DEB72297CDBFDEBF219669
:105FB2002F923F924F925F926F927F922F813885FC
:105FC200FE018E01075F1F4F0E5F1F4F019311935A
:105FD2008E01380149845A8419010E94C01C7F90A5
:105FE2006F905F904F903F902F902196CDBFDEBF74
:065FF200DF91CF9108953C
:10398000CF93DF93CDB7DEB7A397CDBFDEBF219630
:10399000B0E0B98FBA8FF20182010F5F1F4F28018B
:1039A00004910A87002311F40C949C2B0A8505329C
:1039B000A1F07F926F925F924F923F922F923F922F
:1039C0002F922A840F901F90F00109952F903F901D
:1039D0004F905F906F907F90DECFB0E0BB87BC8749
:1039E000B0E0BD87BE8732C00D851E8508600D879B
:1039F0001E8782010F5F1F4F28013DC00D851E8568
:103A000001600D871E8782010F5F1F4F280133C0A1
:103A10000D851E8502600D871E8782010F5F1F4F77
:103A2000280129C00D851E8518600D871E8782011B
:103A30000F5F1F4F28011FC00D851E8504600D8775
:103A40001E8782010F5F1F4F280115C0F2010491EC
:103A50000D3251F2F2010491003281F2F20104912F
:103A60000B32B1F2F20104910332E1F2F20104915E
:103A7000003311F301C0B7CF0D851E8501FF05C0CE
:103A80000D851E850E7F0D871E870D851E8503FF04
:103A900005C00D851E850B7F0D871E87F2010491E1
:103AA00010E03F922F92202E0E9484142F903F907E
:103AB000002311F1B0E0BB87BC870B851C854AE071
:103AC00050E099DDF2012491020FB0E01B1F00537A
:103AD00010400B871C8782010F5F1F4F2801F801E0
:103AE000049110E03F922F92202E0E9484142F9078
:103AF0003F90002311F716C0F20104910A3291F4AD
:103B0000F30121913191F901019111910B871C87EA
:103B100089010E5F1F4FF3010193119382010F5F23
:103B20001F4F2801F20104910E3209F03EC08201BC
:103B30000F5F1F4F2801F80104910A3299F4F30135
:103B400021913191F901019111910887198789011A
:103B50000E5F1F4FF3010193119382010F5F1F4FFF
:103B6000280122C0B0E0B887B987F201049110E0C3
:103B70003F922F92202E0E9484142F903F9000237A
:103B800099F0088519854AE050E035DDF20124916D
:103B9000020FB0E01B1F00531040088719878201F5
:103BA0000F5F1F4F2801E1CF08C0B0E0B887B98789
:103BB0000D851E8510610D871E87F20182010F5F42
:103BC0001F4F280104910A8713C1098D1A8D0C9487
:103BD0009E2B0D851E8500610D871E87EECF0D85FE
:103BE0001E8514600D871E8744C10D851E850062E9
:103BF0000D871E870D851E8511600D871E8739C1B3
:103C00000D851E8512600D871E8733C10D851E85AB
:103C100000640D871E872DC12CC10D851E85006295
:103C20000D871E870D851E8500680D871E8721C1A3
:103C3000F30101911191F801019111910D8B1E8BEE
:103C4000F301019111910E5F1F4FF3010193119345
:103C50000D891E89103009F4003021F4B4E1BD8BC8
:103C6000B0E2BE8BB0E0BF8BB88F2D893E890F8943
:103C7000188DF801E20FF31F0081002339F00F893E
:103C8000188D0F5F1F4F0F8B188FEFCF0885198589
:103C9000B02FB12B59F0288539850F89188D201741
:103CA000310720F4088519850F8B188F2B853C85EB
:103CB0000F89188D0217130748F40F88188C0B858D
:103CC0001C85001911090B871C8703C0B0E0BB8756
:103CD000BC870D851E8503FD20C02B853C850B858B
:103CE0001C85015010400B871C87B22FB32BA9F005
:103CF0007F926F925F924F923F922F923F922F92BC
:103D0000B0E22B2E0F901F90F00109952F903F905D
:103D10004F905F906F907F90E0CF2F89388D0F8903
:103D2000188D015010400F8B188FB22FB32BE9F074
:103D3000ED89FE8900817F926F925F924F923F9250
:103D40002F923F922F92202E0F901F90F0010995F5
:103D50002F903F904F905F906F907F900D891E89BC
:103D60000F5F1F4F0D8B1E8BD8CF0D851E8503FF58
:103D700020C02B853C850B851C85015010400B878E
:103D80001C87B22FB32BA9F07F926F925F924F9254
:103D90003F922F923F922F92B0E22B2E0F901F90C6
:103DA000F00109952F903F904F905F906F907F901A
:103DB000E0CFF1CDF30101911191F80100810A8763
:103DC000F301019111910E5F1F4FF30101931193C4
:103DD0008E01065F1F4F0D8B1E8BB1E0BF8BB0E0D5
:103DE000B88F54CF0D851E85006C0D871E8741C08E
:103DF0000A85003009F4E9CE0A850C3609F4E9CECB
:103E00000A850C3409F4E5CE0A85063609F4E7CEB6
:103E10000A85053409F4E9CE0A85053609F4EACEA7
:103E20000A85073609F4ECCE0A850F3609F4EECE82
:103E30000A85043609F4F0CE0A85093609F4ECCE79
:103E40000A85003709F4E9CE0A85083509F4E5CE7C
:103E50000A85083709F4E6CE0A85033709F4E8CE67
:103E60000A85033609F4A6CF0A85053709F4BACFC7
:103E7000AFCF0D851E8500701770B02FB12B11F4D8
:103E80000C94C9270D851E8514FF04C0B6E0B887C1
:103E9000B0E0B987F30101911191F80101911191FD
:103EA000219131910F87188B298B3A8BF301019166
:103EB00011910C5F1F4FF301019311933F922F92C9
:103EC00040E050E060E070E00F85188929893A8968
:103ED00061DC002800E009F001E02F903F90002312
:103EE000A9F00F85188929893A89B0E00B27B0E03D
:103EF0001B27B0E02B27B0E83B270F87188B298BB7
:103F00003A8B0D851E8503600D871E87B0E0BB8B45
:103F1000BC8B3F922F920F85188929893A8940E0FE
:103F200050E060E070E046DC002800E009F001E0CD
:103F30002F903F90002309F48EC0AE014D5E5F4F7D
:103F4000FE013F960191119121913191B7E1369592
:103F5000279517950795BA95D1F710700E57104011
:103F6000FA01019311930B891C89015010400B8BAE
:103F70001C8B43E050E03FDB0B8B1C8B7F926F92DE
:103F80005F924F923F922F924AE050E00E94C30E00
:103F90008B012F903F904F905F906F907F900B8B95
:103FA0001C8B20E030E00217130734F40B891C89C6
:103FB000015010400B8B1C8B0B8800E000197F9286
:103FC0006F925F924F923F922F92202E0E94F01498
:103FD0002F903F904F905F906F907F903F922F92E5
:103FE0004F85588969897A890E94340F0D8B1E8B01
:103FF0002F8B388F40E050E060E87FE30D891E8909
:104000002F89388DC7DB002800E009F001E02F90F0
:104010003F90002339F00B891C89015010400B8B15
:104020001C8B19C03F922F9240E050E060E271E497
:104030000D891E892F89388DB5DB002800E009F035
:1040400001E02F903F90002331F00B891C890F5F16
:104050001F4F0B8B1C8B2B893C8900E010E0021753
:1040600013071CF0B1E0BA8702C00B890A870D85DF
:104070001E8510FD15C00D851E8511FF10C02B89F2
:104080003C890CEF1FEF2017310744F02B893C8946
:1040900008851985201731070CF401C001C0C1C380
:1040A00008851985B02FB12B51F00D851E8511FFA4
:1040B00006C0088519850150104008871987288592
:1040C000398508E010E00217130718F4B8E0BA8742
:1040D00002C008850A873F922F920F851889298987
:1040E0003A8940E050E060E070E064DB002800E0E6
:1040F00009F001E02F903F90002309F4C1C07F92A6
:104100006F925F924F923F922F922B880E94F014F1
:10411000A801B9010F85188929893A8961DA0F87C1
:10412000188B298B3A8B0A8400E00019202E0E94FC
:10413000F014A801B9010F85188929893A8950DA44
:104140002F903F904F905F906F907F900F87188BCC
:10415000298B3A8B0E94B8160E94B4163F922F9278
:10416000A801B9010F85188929893A890E94A916E1
:1041700040E050E060E07FE315DB0028B0E009F0AC
:10418000B1E00B2F2F903F90002389F03F922F92A8
:104190000F85188929893A8940E050E060E07FE383
:1041A00014DA2F903F900F87188B298B3A8B0F854D
:1041B000188929893A890E94B8164A8550E04F5FCC
:1041C0005F4FBA01660F771F660F771F40EF53E00E
:1041D000FB01E40FF51F4591559165917591041709
:1041E000150726073707C8F03F922F920F851889C9
:1041F00029893A894DEC5CEC6CEC7DE30E94340F2C
:104200002F903F900F87188B298B3A8B0B891C8935
:104210000F5F1F4F0B8B1C8B33C00F8518892989AB
:104220003A890E94B8164A85642F70E0660F771F9E
:10423000660F771F40EF53E0FB01E40FF51F459138
:104240005591659175910417150726073707C0F436
:104250003F922F920F85188929893A8940E050E0D2
:1042600060E271E40E94340F2F903F900F87188B0B
:10427000298B3A8B0B891C89015010400B8B1C8BAE
:104280000D851E8511FF71C00D851E8513FD6DC046
:10429000288539850AE010E00217130724F4BAE0F4
:1042A000B887B0E0B9870F85188929893A890E94B3
:1042B000B8160D8B1E8B2F8B388F0D891E892F8979
:1042C000388DB02FB12BB22BB32B49F14AE050E01F
:1042D00060E070E00D891E892F89388D54D98D01D9
:1042E0009F01303029F4203019F4103009F40030E7
:1042F000B1F40885198501501040088719874AE0F4
:1043000050E060E070E00D891E892F89388D3BD91F
:104310008B019C010D8B1E8B2F8B388FCECF188578
:1043200029850A851017B0E02B07FCF408840A855C
:1043300000197F926F925F924F923F922F92202EA0
:104340000E94F014A801B9010F85188929893A89BA
:1043500047D92F903F904F905F906F907F900F873D
:10436000188B298B3A8B08850A872885398589011E
:104370000B5F1F4F08010B851C85001911090B8766
:104380001C87B22FB32B29F40D851E8513FD01C0A8
:1043900006C00B851C85015010400B871C870D85BE
:1043A0001E8503701070B02FB12B31F00B851C856A
:1043B000015010400B871C870D851E8502FF5CC0D5
:1043C0000D851E8501FF1DC00D851E8500FF03C0E4
:1043D000BDE2B88302C0BBE2B8837F926F925F9266
:1043E0004F923F922F923F922F9228800F901F90D2
:1043F000F00109952F903F904F905F906F907F90C4
:1044000018C00D851E8500FF14C07F926F925F92C9
:104410004F923F922F923F922F92B0E22B2E0F900D
:104420001F90F00109952F903F904F905F906F90F3
:104430007F902B853C8500E010E002171307DCF429
:104440007F926F925F924F923F922F923F922F9264
:10445000B0E32B2E0F901F90F00109952F903F9005
:104460004F905F906F907F900B851C85015010409E
:104470000B871C87DECF5FC00D851E8503FD22C024
:104480002B853C8500E010E002171307DCF47F92D7
:104490006F925F924F923F922F923F922F92B0E293
:1044A0002B2E0F901F90F00109952F903F904F9069
:1044B0005F906F907F900B851C85015010400B879B
:1044C0001C87DECF0D851E8501FF1DC00D851E8555
:1044D00000FF03C0BDE2B98302C0BBE2B9837F9293
:1044E0006F925F924F923F922F923F922F9229802C
:1044F0000F901F90F00109952F903F904F905F9083
:104500006F907F9018C00D851E8500FF14C07F92AC
:104510006F925F924F923F922F923F922F92B0E212
:104520002B2E0F901F90F00109952F903F904F90E8
:104530005F906F907F900F85188929893A890E9432
:10454000B8160D8B1E8B2F8B388F0A85202F30E0ED
:10455000220F331F220F331F00EF13E0F901E00F8A
:10456000F11F45915591659175910D891E892F898E
:10457000388D09D88B019C01005D7F926F925F920C
:104580004F923F922F923F922F92202E0F901F908A
:10459000F00109952F903F904F905F906F907F9022
:1045A00008851985B02FB12B29F40D851E8513FDC3
:1045B00001C077C07F926F925F924F923F922F928D
:1045C0003F922F92BEE22B2E0F901F90F001099583
:1045D0002F903F904F905F906F907F900A84B0E053
:1045E0001B2E0885198500191109088719870A8566
:1045F0000023B9F10A8501500A87202F30E0220FED
:10460000331F220F331F00EF13E0F901E00FF11FFA
:1046100045915591659175910D891E892F89388D28
:104620000E94C31A8B019C014AE050E060E070E0F8
:104630000E94C31A8D019F01005D7F926F925F926D
:104640004F923F922F923F922F92202E0F901F90C9
:10465000F00109952F903F904F905F906F907F9061
:10466000C6CF08851985B02FB12BD9F07F926F92F4
:104670005F924F923F922F923F922F92B0E32B2E58
:104680000F901F90F00109952F903F904F905F90F1
:104690006F907F9008851985015010400887198711
:1046A000E0CF0D851E8505FF15C07F926F925F924A
:1046B0004F923F922F923F922F92B5E42B2E0F9064
:1046C0001F90F00109952F903F904F905F906F9051
:1046D0007F9014C07F926F925F924F923F922F9281
:1046E0003F922F92B5E62B2E0F901F90F001099567
:1046F0002F903F904F905F906F907F902B893C89D7
:1047000000E010E020173107ECF40B881C8800E073
:1047100010E0001911090B8B1C8B7F926F925F9236
:104720004F923F922F923F922F92BDE22B2E0F90ED
:104730001F90F00109952F903F904F905F906F90E0
:104740007F9014C07F926F925F924F923F922F9210
:104750003F922F92BBE22B2E0F901F90F0010995F4
:104760002F903F904F905F906F907F907F926F92CD
:104770005F924F923F922F924AE050E00B891C8942
:104780000E94C30E8B012F903F90005D3F922F92AD
:104790003F922F92202E0F901F90F00109954AE032
:1047A00050E00B891C890E94C30E8C012F903F9012
:1047B000005D3F922F923F922F92202E0F901F90DC
:1047C000F00109952F903F904F905F906F907F90F0
:1047D0000D851E8503FF24C02B853C8500E010E07D
:1047E00002171307ECF47F926F925F924F923F9201
:1047F0002F923F922F92B0E22B2E0F901F90F0013C
:1048000009952F903F904F905F906F907F900B8510
:104810001C85015010400B871C87B02FB12B19F756
:10482000BAC80D851E8511FFB3C02B893C8900E0F5
:1048300010E0201731075CF40B891C8901501040EF
:1048400008010885198500191109088719870F853E
:10485000188929893A890E94B8160D8B1E8B2F8BD7
:10486000388FB1E0BA870A850A30F1F00A85202F27
:1048700030E0220F331F220F331F00EF13E0F90146
:10488000E00FF11F45915591659175910D891E8934
:104890002F89388D041715072607370708F404C039
:1048A0000A850F5F0A87DFCF0A84B0E01B2E0885D8
:1048B000198500191109088719870D891E892F8903
:1048C000388D0E94B4163F922F92A801B9010F852E
:1048D000188929893A890E94A9162F903F900F8F35
:1048E00018A329A33AA37F926F925F924F923F92AF
:1048F0002F9228840E94F0142F903F904F905F9049
:104900006F907F904F8D58A169A17AA13F922F920D
:104910000E94340F40E050E060E07FE30E94E51A1F
:104920002F903F900E94B8160D8B1E8B2F8B388FC7
:1049300008851985B02FB12B59F14AE050E060E0AD
:1049400070E00D891E892F89388D0E94C31A8D0150
:104950009F01303029F4203019F4103009F4003070
:10496000B9F44AE050E060E070E00D891E892F89BB
:10497000388D0E94C31A8B019C010D8B1E8B2F8BCF
:10498000388F088519850150104008871987D0CFC6
:10499000288539850CE010E0021713078CF03F9250
:1049A0002F9228840E94031B4F85588969897A8930
:1049B0000E94E51A2F903F900F87188B298B3A8B16
:1049C0003F922F920F85188929893A8940E050E05B
:1049D00060E070E00E94DA1B002800E009F001E0CE
:1049E0002F903F90002309F46FC00F851889298903
:1049F0003A890E94B816303029F4203019F410306A
:104A000009F4003009F060C02B893C8901E010E016
:104A1000021713070CF058C07F926F925F924F926B
:104A20003F922F922B880E94F014A801B9010F85A4
:104A3000188929893A890E94F01A2F903F904F9047
:104A40005F906F907F903F922F924FE550E769E81B
:104A500070E40E94CA1B0028B0E009F0B1E00B2FFF
:104A60002F903F90002339F00B891C89095010408A
:104A70000B8B1C8B06C00B891C89085010400B8BBC
:104A80001C8B7F926F925F924F923F922F922B8856
:104A90000E94F014A801B9010F85188929893A8963
:104AA0000E94F01A2F903F904F905F906F907F90F0
:104AB0000E94B8160D8B1E8B2F8B388FB0E0BF87EE
:104AC000B88BB98BBA8B23C00F85188929893A898D
:104AD0000E94B8160D8B1E8B2F8B388F0D891E8967
:104AE0002F89388D0E94B4163F922F92A801B901E8
:104AF0000F85188929893A890E94A9162F903F901D
:104B00000F87188B298B3A8BB0E0BB8BBC8BB1E045
:104B1000BA870A850A30F1F00A85202F30E0220F8B
:104B2000331F220F331F00EF13E0F901E00FF11FD5
:104B300045915591659175910D891E892F89388D03
:104B4000041715072607370708F404C00A850F5F06
:104B50000A87DFCF488559850A85202F30E0240F4A
:104B6000351F0B891C89020F131F08010B851C853B
:104B7000001911090B871C870D851E8513FD06C0C2
:104B800008851985B02FB12B09F406C00B851C854B
:104B9000015010400B871C870D851E850370107017
:104BA000B02FB12B31F00B851C85015010400B87C5
:104BB0001C870D851E8502FF5CC00D851E8501FFCB
:104BC0001DC00D851E8500FF03C0BDE2BA8302C073
:104BD000BBE2BA837F926F925F924F923F922F9285
:104BE0003F922F922A800F901F90F00109952F90ED
:104BF0003F904F905F906F907F9018C00D851E85FD
:104C000000FF14C07F926F925F924F923F922F925B
:104C10003F922F92B0E22B2E0F901F90F00109953A
:104C20002F903F904F905F906F907F902B853C85A9
:104C300000E010E002171307DCF47F926F925F929E
:104C40004F923F922F923F922F92B0E32B2E0F90D4
:104C50001F90F00109952F903F904F905F906F90BB
:104C60007F900B851C85015010400B871C87DECF81
:104C70005FC00D851E8503FD22C02B853C8500E0AD
:104C800010E002171307DCF47F926F925F924F924D
:104C90003F922F923F922F92B0E22B2E0F901F90B7
:104CA000F00109952F903F904F905F906F907F900B
:104CB0000B851C85015010400B871C87DECF0D85AE
:104CC0001E8501FF1DC00D851E8500FF03C0BDE2CE
:104CD000BB8302C0BBE2BB837F926F925F924F9215
:104CE0003F922F923F922F922B800F901F90F001B6
:104CF00009952F903F904F905F906F907F9018C0D4
:104D00000D851E8500FF14C07F926F925F924F92B7
:104D10003F922F923F922F92B0E22B2E0F901F9036
:104D2000F00109952F903F904F905F906F907F908A
:104D30001A850A8501500A871123A9F10A85202FB7
:104D400030E0220F331F220F331F00EF13E0F90171
:104D5000E00FF11F45915591659175910D891E895F
:104D60002F89388D0E94C31A8B019C014AE050E0C4
:104D700060E070E00E94C31A8D019F01005D7F9288
:104D80006F925F924F923F922F923F922F92202EDE
:104D90000F901F90F00109952F903F904F905F90DA
:104DA0006F907F90C5CF2B893C8900E010E00217FF
:104DB0001307DCF47F926F925F924F923F922F9293
:104DC0003F922F92B0E32B2E0F901F90F001099588
:104DD0002F903F904F905F906F907F900B891C8930
:104DE000015010400B8B1C8BDECF2885398508E0E5
:104DF00010E0021713071CF4B8E0BA8702C0088558
:104E00000A870A84B0E01B2E08851985001911094C
:104E1000088719870A85002329F40D851E8513FD4F
:104E200001C014C07F926F925F924F923F922F9277
:104E30003F922F92BEE22B2E0F901F90F00109950A
:104E40002F903F904F905F906F907F907F926F92E6
:104E50005F924F923F922F922A840E94F0142F90DB
:104E60003F904F905F906F907F903F922F924F8531
:104E7000588969897A890E94340F2F903F900E9447
:104E8000B8160D8B1E8B2F8B388F0A850023B9F136
:104E90000A8501500A87202F30E0220F331F220F8E
:104EA000331F00EF13E0F901E00FF11F4591559119
:104EB000659175910D891E892F89388D0E94C31ABD
:104EC0008B019C014AE050E060E070E00E94C31A50
:104ED0008D019F01005D7F926F925F924F923F9292
:104EE0002F923F922F92202E0F901F90F001099544
:104EF0002F903F904F905F906F907F90C6CF088526
:104F00001985B02FB12BD9F07F926F925F924F929B
:104F10003F922F923F922F92B0E32B2E0F901F9033
:104F2000F00109952F903F904F905F906F907F9088
:104F3000088519850150104008871987E0CF0D8535
:104F40001E8503FF24C02B853C8500E010E002177E
:104F50001307ECF47F926F925F924F923F922F92E1
:104F60003F922F92B0E22B2E0F901F90F0010995E7
:104F70002F903F904F905F906F907F900B851C8596
:104F8000015010400B871C87B02FB12B19F70C94E0
:104F9000CB1C0D851E85007C1070103009F400308C
:104FA00009F052C00D851E8504FF15C0F301019163
:104FB0001191F80101911191219131910D8B1E8B6D
:104FC0002F8B388FF301019111910C5F1F4FF3016B
:104FD0000193119316C0F30101911191F801019110
:104FE000119120E017FD2FEF322F0D8B1E8B2F8B91
:104FF000388FF301019111910E5F1F4FF30101935F
:1050000011934D895E896F89788D00E010E020E072
:1050100030E04017510762077307ACF40D851E8519
:1050200003600D871E870D881E8800E010E00019C0
:1050300011090F88188C20E030E0200931090D8B10
:105040001E8B2F8B388F2CC00D851E8504FF15C03D
:10505000F30101911191F801019111912191319187
:105060000D8B1E8B2F8B388FF301019111910C5FEB
:105070001F4FF3010193119313C0F301019111919B
:10508000F801019111910D8B1E8BB0E0BF8BB88F91
:10509000F301019111910E5F1F4FF30101931193E1
:1050A00008851985103009F4003091F40D891E89A6
:1050B0002F89388D303029F4203019F4103009F45C
:1050C000003031F4088519850F5F1F4F0887198755
:1050D0000D85007C802F6CC0B1E0BA870A850A304C
:1050E000F1F00A85202F30E0220F331F220F331FEB
:1050F00000EF13E0F901E00FF11F45915591659123
:1051000075910D891E892F89388D0417150726077B
:10511000370708F404C00A850F5F0A87DFCF53C042
:10512000B1E0BA870A850830F1F00A85202F30E017
:10513000220F331F220F331F0FE314E0F901E00F9A
:10514000F11F45915591659175910D891E892F89A2
:10515000388D041715072607370708F404C00A8599
:105160000F5F0A87DFCF2FC0B1E0BA870A850C3006
:10517000F1F00A85202F30E0220F331F220F331F5A
:1051800000E713E0F901E00FF11F4591559165919A
:1051900075910D891E892F89388D041715072607EB
:1051A000370708F404C00A850F5F0A87DFCF0BC0FA
:1051B000803009F491CF803C09F48ECF803809F417
:1051C000AFCF803489F20A852885398510E002172F
:1051D00013071CF408850A870BC0188529850A85E2
:1051E0001017B0E02B0724F40A850887B0E0B987D0
:1051F0000B851C85B02FB12B69F00D851E850370C2
:105200001070B02FB12B31F00B851C850150104070
:105210000B871C872B853C8508851985021713078A
:105220004CF4088419840B851C85001911090B871F
:105230001C8703C0B0E0BB87BC870D851E85047C3E
:105240001870183009F4003461F40B851C85B02FF8
:10525000B12B31F00B851C85015010400B871C874A
:1052600019C00D851E85007C1870183009F40038AF
:1052700089F42B853C8502E010E0021713073CF40B
:105280000B851C85025010400B871C8703C0B0E0C3
:10529000BB87BC870D851E8502FF95C00D851E85C9
:1052A00001FF1DC00D851E8500FF03C0BDE2BC834C
:1052B00002C0BBE2BC837F926F925F924F923F929B
:1052C0002F923F922F922C800F901F90F001099502
:1052D0002F903F904F905F906F907F9051C00D85C1
:1052E0001E8500FF15C07F926F925F924F923F9292
:1052F0002F923F922F92B0E22B2E0F901F90F00131
:1053000009952F903F904F905F906F907F9038C09D
:105310000D851E85007C1870183009F4003881F561
:105320007F926F925F924F923F922F923F922F9275
:10533000B0E32B2E0F901F90F00109952F903F9016
:105340004F905F906F907F900D851E8505FF03C085
:10535000B8E5BD8302C0B8E7BD837F926F925F92CC
:105360004F923F922F923F922F922D800F901F903D
:10537000F00109952F903F904F905F906F907F9034
:105380000B851C85B02FB12BE9F07F926F925F9255
:105390004F923F922F923F922F92B0E32B2E0F907D
:1053A0001F90F00109952F903F904F905F906F9064
:1053B0007F900B851C85015010400B871C87B02FF8
:1053C000B12B19F7B4C00B851C85B02FB12B09F197
:1053D0000D851E8503FD1DC07F926F925F924F92D7
:1053E0003F922F923F922F92B0E22B2E0F901F9060
:1053F000F00109952F903F904F905F906F907F90B4
:105400000B851C85015010400B871C87B02FB12BDA
:1054100019F70D851E8501FF1DC00D851E8500FF36
:1054200003C0BDE2BE8302C0BBE2BE837F926F9227
:105430005F924F923F922F923F922F922E800F9029
:105440001F90F00109952F903F904F905F906F90C3
:105450007F9018C00D851E8500FF14C07F926F924B
:105460005F924F923F922F923F922F92B0E22B2E5B
:105470000F901F90F00109952F903F904F905F90F3
:105480006F907F900D851E85007C1870183009F490
:105490000034A9F47F926F925F924F923F922F92C5
:1054A0003F922F92B0E32B2E0F901F90F0010995A1
:1054B0002F903F904F905F906F907F9038C00D85F8
:1054C0001E85007C1870183009F4003881F57F9231
:1054D0006F925F924F923F922F923F922F92B0E342
:1054E0002B2E0F901F90F00109952F903F904F9019
:1054F0005F906F907F900D851E8505FF03C0B8E516
:10550000BF8302C0B8E7BF837F926F925F924F92D2
:105510003F922F923F922F922F800F901F90F00179
:1055200009952F903F904F905F906F907F902885C6
:1055300039850A8510E002171307ACF47F926F9249
:105540005F924F923F922F923F922F92B0E32B2E79
:105550000F901F90F00109952F903F904F905F9012
:105560006F907F90E4CF2885398508851985015093
:10557000104008871987B22FB32B09F4B3C00D85EB
:10558000007C0F8F8FC0088519859801220F331F6B
:10559000220F331F00EF13E0F901E00FF11F4591D7
:1055A0005591659175910D891E892F89388D0E94BD
:1055B000C31A8B019C014AE050E060E070E00E9459
:1055C000C31A8D019F01005D0A8778C00D851E8575
:1055D00005FF26C0088519859801220F331F220F69
:1055E000331F0FE314E0F901E00FF11F45915591CE
:1055F000659175910D891E892F89388D0E94C31A76
:105600008B019C01A801B9014F70507060707070DF
:1056100002EC14E0F801E40FF51F04910A8725C09D
:10562000088519859801220F331F220F331F0FE3BE
:1056300014E0F901E00FF11F4591559165917591C5
:105640000D891E892F89388D0E94C31A8B019C01F8
:10565000A801B9014F7050706070707003ED14E0D4
:10566000F801E40FF51F04910A8728C00885198501
:105670009801220F331F220F331F00E713E0F901B7
:10568000E00FF11F45915591659175910D891E8926
:105690002F89388D0E94C31A8B019C010770005D11
:1056A0000A870CC00F8D003009F46DCF003C09F45F
:1056B0006ACF003809F48ACF0034C1F27F926F922A
:1056C0005F924F923F922F923F922F922A840F9097
:1056D0001F90F00109952F903F904F905F906F9031
:1056E0007F9041CF0D851E8503FF24C02B853C850F
:1056F00000E010E002171307ECF47F926F925F92C4
:105700004F923F922F923F922F92B0E22B2E0F900A
:105710001F90F00109952F903F904F905F906F90F0
:105720007F900B851C85015010400B871C87B02F84
:10573000B12B19F70C94CB1C098D1A8DA296CDBFF5
:08574000DEBFDF91CF91089557
:1029080009E3021528F0B0E32B1610F001E001C02E
:0429180000E008953E
:1029E000CF93DF93CDB7DEB72497CDBFDEBF21965F
:1029F000B0E02B160CF0D5C000E00219202E0E36E8
:102A00000CF475C044E62F9250E047FD5FEF022DB5
:102A100010E027FC1FEFB7D9062F2F9010E007FD1D
:102A20001FEF0E5E1F4F9801220F331F220F331F1F
:102A30000CE313E0F901E00FF11F059115912591C9
:102A40003591088319832A833B8344E62F9250E013
:102A500047FD5FEF022D10E027FC1FEF94D9082FF0
:102A60004AE010E007FD1FEF50E047FD5FEF8BD914
:102A7000062F10E007FD1FEF075F1F4F9801220F81
:102A8000331F220F331F0CE313E0F901E00FF11F96
:102A90004591559165917591088119812A813B81F4
:102AA000E3D92F90088319832A833B834AE050E0BF
:102AB00047FD5FEF022D10E027FC1FEF64D9082FC0
:102AC000202F30E007FD3FEF220F331F220F331F6F
:102AD0000CE313E0F901E00FF11F45915591659169
:102AE0007591088119812A813B81BED92CC10AE0E8
:102AF00002150CF044C04AE02F9250E047FD5FEF12
:102B0000022D10E027FC1FEF3ED9062F2F9010E07A
:102B100007FD1FEF075F1F4F9801220F331F220F82
:102B2000331F0CE313E0F901E00FF11F059115913C
:102B300025913591088319832A833B834AE050E02D
:102B400047FD5FEF022D10E027FC1FEF1CD9082F77
:102B5000202F30E007FD3FEF220F331F220F331FDE
:102B60000CE313E0F901E00FF11F459155916591D8
:102B70007591088119812A813B8176D9E4C0222D83
:102B800030E027FC3FEF220F331F220F331F0CE3EF
:102B900013E0F901E00FF11F059115912591359191
:102BA000D2C0BEE62B160CF475C044E62F9250E05E
:102BB00047FD5FEF022D10E027FC1FEFE4D8062F42
:102BC0002F9010E007FD1FEF0E5E1F4F9801220FA0
:102BD000331F220F331F08E013E0F901E00FF11F4C
:102BE0000591159125913591088319832A833B839B
:102BF00044E62F9250E047FD5FEF022D10E027FCE6
:102C00001FEFC1D8082F4AE010E007FD1FEF50E08A
:102C100047FD5FEFB8D8062F10E007FD1FEF075FF5
:102C20001F4F9801220F331F220F331F08E013E0BC
:102C3000F901E00FF11F459155916591759108815A
:102C400019812A813B8110D92F90088319832A8307
:102C50003B834AE050E047FD5FEF022D10E027FC88
:102C60001FEF91D8082F202F30E007FD3FEF220FF4
:102C7000331F220F331F08E013E0F901E00FF11FAB
:102C80004591559165917591088119812A813B8102
:102C9000EBD859C00AE002150CF044C04AE02F926C
:102CA00050E047FD5FEF022D10E027FC1FEF6BD8CF
:102CB000062F2F9010E007FD1FEF075F1F4F9801B1
:102CC000220F331F220F331F08E013E0F901E00F3A
:102CD000F11F0591159125913591088319832A8358
:102CE0003B834AE050E047FD5FEF022D10E027FCF8
:102CF0001FEF49D8082F202F30E007FD3FEF220FAC
:102D0000331F220F331F08E013E0F901E00FF11F1A
:102D10004591559165917591088119812A813B8171
:102D2000A3D811C0222D30E027FC3FEF220F331F24
:102D3000220F331F08E013E0F901E00FF11F0591A6
:102D40001591259135912396CDBFDEBFDF91CF91AF
:022D50000895E4
:101D8600C801BA0197FB092E07260AD077FD04D0B1
:101D96000CD006D000201AF4709561957F4F0895F7
:101DA600F6F7909581959F4F0895AA1BBB1B51E1AD
:101DB60007C0AA1FBB1FA617B70710F0A61BB70BB5
:101DC600881F991F5A95A9F780959095BC01CD015A
:041DD60008950895CF
:101E6800042E152E262E372E0E94FD06002E112E2A
:061E7800222E332E089516
:100DFA0084DC81F1E62ED52EC42EB32EA22E912E9E
:100E0A00802E002D112D222D332D77DC19F16E2520
:100E1A004C0D5D1D40385307F4F441387FEF5707F6
:100E2A00FCF088279927AA27BB2770E2B695A795D1
:100E3A0097958795379527951795079520F4880DE7
:100E4A00991DAA1DBB1D7A9589F7032F3A2F292FC1
:100E5A00182F68DC0AC00FEF102F2FE73FE7FACFF1
:0C0E6A000027102F202F302FF5CF089507
:1007040024DF79F0632F6078220F331F432F5FE7D4
:10071400451B55275040269530E8232B33279894C2
:0A07240003C04427552766270895F7
:10054E00002329F4112319F4222309F433230895E7
:00055E009D
:10072E000FDF11F19F938F938EE790E0332351F0FB
:10073E00369527951795079548175907B4F44F5FC7
:10074E005F4FF4CF80959095019622239AF0000F7B
:10075E00111F221F481759071CF041505040F5CF6A
:10076E00002711272227332708C033270FEF102F1A
:0C077E002FE7322F8F919F91EBDE089542
:10055E00F7DF39F041585F4F342F220F369527952C
:04056E00362B08958B
:10360600CF93DF93CDB7DEB72497CDBFDEBF21962C
:10361600BEE62B1608F461C044E6022D0E94D50FC3
:1036260010E00E5E1F4F9801220F331F220F331F2B
:103636000CE313E0F901E00FF11F059115912591B7
:1036460035912F9240E050E060E07FE30E94340F16
:103656002F90088319832A833B8344E6022D0E9418
:10366600D50F092F4AE00E94D50F10E0075F1F4FC4
:103676009801220F331F220F331F0CE313E0F901C9
:10368600E00FF11F4591559165917591088119815A
:103696002A813B812F920E94340F2F900883198331
:1036A6002A833B834AE0022D0E94D50F092F202F43
:1036B60030E0220F331F220F331F0CE313E0F90112
:1036C600E00FF11F4591559165917591088119811A
:1036D6002A813B810E94340F54C00AE00215E0F5AE
:1036E6004AE0022D0E94D50F10E0075F1F4F980198
:1036F600220F331F220F331F0CE313E0F901E00FF3
:10370600F11F05911591259135912F9240E050E0DA
:1037160060E07FE30E94340F2F90088319832A8389
:103726003B834AE0022D0E94D50F092F202F30E05F
:10373600220F331F220F331F0CE313E0F901E00FB2
:10374600F11F4591559165917591088119812A81DD
:103756003B810E94340F15C0222D30E0220F331F0B
:10376600220F331F0CE313E0F901E00FF11F05915F
:1037760015912591359140E050E060E07FE30E948D
:0E378600340F2396CDBFDEBFDF91CF910895A3
:101FAA00992779E004C0991F941708F0941B001F21
:081FBA007A95C9F7009508951E
:1035F6009801249F8001259F100D349F100D08957A
:00360600C4
:103794000E9451081CF40024039401C000240895DD
:0037A40025
:0E10A200042E152E262E372EF0DF0023089583
:10108C00EBDC332332F05DDA11F001E003C0002712
:06109C0001C00FEF0895F2
:060A64006894BCDD08955A
:1005E000AFDF09F441C0E62ED52EC42EB32EA22EC5
:1005F000912E802E002D112D222D332DA1DF09F4F7
:100600003DC0842F952F8C199D09B9F072F49095F7
:10061000809501964C2D5D2D883180F53595279577
:10062000179507950197D1F708C08831E8F4B5947C
:10063000A794979487940197D1F766272EF0080D19
:10064000191D2A1D3B1D09C0801A910AA20AB30A6E
:10065000082D192D2A2D3B2D332312F468DF60E875
:1006600066D001C07CDF16C0002D112D222D332D48
:10067000D6F76DDFC1F340E83427F5CF082D192DEB
:100680002A2D3B2D4C2D5D2D6E2D33235AF74FDF38
:0606900060E8E8CF0895C8
:0E054000E1D021F0662309F0F2DF98940895CF
:10052E0000951095209530950F5F1F4F2F4F3F4F21
:02053E0008951E
:1037B4000E94510819F00024039401C000240895C4
:0037C40005
:1037A4000E9451081CF00024039401C000240895D1
:0037B40015
:1035E000042E152E262E372E0E944E0C002E112E44
:0635F000222E332E089587
:10189C003F932F931F930F93002D112D222D332D3A
:1018AC000E94820309F44EC0E62ED52EC42EB32E10
:1018BC00A22E912E802E0F911F912F913F910E945D
:1018CC00820369F16E254C195D094038530744F5C4
:1018DC0041387FEF57078CF180E27724632E522E2C
:1018EC00412E302F222711270027000F111F221FF6
:1018FC00331F441C551C661C771C28F048185908CB
:10190C006A087B0804C0480C591C6A1C7B1C0AF032
:10191C0001608A9551F7415050400E94970317C0BF
:10192C000FEF102F2FE73FE76623C9F30E94A702A2
:10193C00B1F3342D30E83425F2CF0027102F202FAF
:10194C00302FEDCF0F900F900F900F90E9CF08959F
:00195C008B
:102D70000E948203F1F05523C2F04F31A8F447318D
:102D8000C1F050F44195495E05C0359527951795DA
:102D900007954A95D1F70DC04751000F111F221F0B
:102DA000331F4A95D1F705C03FE7232F132F032F79
:0C2DB00004C0662311F00E9497020895F1
:082D680068940E945B080895C5
:1010B60047E16627552726F0332312F435DA60E830
:0410C60033DB08957B
:102D5200042E152E262E372E0E943205002E112EFD
:062D6200222E332E08951D
:1035CA00042E152E262E372E0E945808002E112E54
:0635DA00222E332E08959D
:0610B000E89496DA0895B1
:10358600C9019A01AB01B801A1E21A2EAA1BBB1B05
:10359600FD010DC0AA1FBB1FEE1FFF1FA217B30719
:1035A600E407F50720F0A20BB30BE40BF50B661F3F
:1035B600771F881F991F1A9469F7609570958095F3
:0435C600909508953F
:10640C00CF93DF93CDB7DEB72C97CDBFDEBF2196F0
:10641C002E823F8281010A5D1F4F088719870F5F0B
:10642C001F4F0A871B870E94BB1C088319832A8372
:10643C003B830E94B4167F926F925F924F92A80199
:10644C00B90100E010E020E83CE40E94F01A4F9003
:10645C005F906F907F9040E050E06AE774E40E9498
:10646C00340F0E94B816A801B901041515052605AC
:10647C00370510F42A013B0148EE53E060E070E070
:10648C00088119812A813B810E94C31A8B019C01CE
:10649C00088319832A833B83A201B30155D92801B0
:1064AC003901303029F4203019F41F3F09F40F3F23
:1064BC0048F4EE81FF81B1E0B083B1E0BC83B0E081
:1064CC00BD8371C0B0E07B1641F4B1E06B1629F4CA
:1064DC00BFEF5B1611F4BEEF4B1648F4EE81FF8153
:1064EC00B2E0B083B2E0BC83B0E0BD835CC0B0E08E
:1064FC007B1641F4B3E06B1629F4BFEF5B1611F475
:10650C00BCEF4B1648F4EE81FF81B3E0B083B4E0EE
:10651C00BC83B0E0BD8347C0B0E07B1641F4B7E06C
:10652C006B1629F4BFEF5B1611F4B8EF4B1648F459
:10653C00EE81FF81B4E0B083B8E0BC83B0E0BD83F2
:10654C0032C0B0E07B1641F4BFE36B1629F4BFEF09
:10655C005B1611F4B0EC4B1648F4EE81FF81B5E0FC
:10656C00B083B0E4BC83B0E0BD831DC0B0E07B164B
:10657C0041F4BFEF6B1629F4BFEF5B1611F4B0E0DA
:10658C004B1648F4EE81FF81B6E0B083B0E0BC83DB
:10659C00B1E0BD8308C0EE81FF81B7E0B083B0E00D
:1065AC00BC83B4E0BD834C815D8160E0762F8201B9
:1065BC0093010E94C31A8B019C01E885F985008325
:1065CC004C815D8160E0762F820193010E94C31A99
:1065DC008B019C01012F122F232F30E0EA85FB85C4
:1065EC000083EA85FB85008110E0302F2227E885A7
:1065FC00F985008110E0020F131F20E0322F488133
:10660C0059816A817B810E94C31A8B019C014C8148
:10661C005D8160E0762F98D82B96CDBFDEBFDF91E1
:04662C00CF9108956D
:0A39760000E01DE720E030E00895B6
:10575400049FD001159FF001249FE00DF11D069FC9
:10576400E00DF11D349FF00D259FF00D169FF00DF7
:10577400079FF00D3327149FB00DE11DF31F059F04
:0C578400B00DE11DF31F8D019F01089581
:10667600122D232D1A5F2F4FE12FF22F0081036079
:08668600E12FF22F00830895BB
:10663000B4E7B0939022BCE1B0939122B8EEB0934E
:106640006321B4E1B0936421B0EBB0934106B0E4B0
:10665000B0934206B0E0B093C108032D0370042943
:10666000022900640093C00832FAB091C008B7F95B
:06667000B093C00808957C
:1063A0002092902230929122409263215092642157
:0263B00008954E
:1061DA002F92B0914406B160B0934406B091440640
:1061EA00BF7EB0934406BFEF2B2E0E94E814BFEF88
:1061FA002B2E0E94E814BFEF2B2E0E94E814BFEF4B
:10620A002B2E0E94E814BFEF2B2E0E94E81422E0E6
:10621A0010EA03E90A95F1F71A95E1F72A95D1F7F9
:10622A000000B0E22B2E0E94E814BCE02B2E0E9444
:10623A00E814B0E12B2E0E94E814B4E02B2E0E9441
:10624A00E81422E010EA03E90A95F1F71A95E1F752
:10625A002A95D1F70000B0E62B2E0E94E814B8E187
:10626A002B2E0E94E814BAE32B2E0E94E814222453
:10627A000E94E81422E010EA03E90A95F1F71A9558
:10628A00E1F72A95D1F70000B0E72B2E0E94E81417
:10629A00B9E82B2E0E94E814B8E72B2E0E94E814C6
:1062AA00B7ED2B2E0E94E814B0914406B061B0936A
:1062BA004406B0914406BE7FB09344062F900895D9
:0062CA00D4
:10608C002F923F924F925F927F92B0910406B16033
:10609C00B0930406B0910006B160B0930006B091C5
:1060AC004406B160B0934406B0914006B160B09321
:1060BC004006B0914406B160B09344060E947E1C29
:1060CC00B0910406B160B09304060E947E1CB0919E
:1060DC000406BE7FB09304060E947E1CB091040699
:1060EC00B160B09304060E947E1CB0914406BE7F42
:1060FC00B09344066F925F924F923F922F92BFEFF4
:10610C002B2EE0919022F091912209952F903F90A7
:10611C004F905F906F90B0914406B160B09344067D
:10612C000E947E1C6F925F924F92B6E06B2EB0E095
:10613C007B2E2101B7E52B2EB1E23B2E0E94981C41
:10614C004F905F90B4E06B2EB0E07B2EBFE52B2E12
:10615C00B1E23B2E0E94981CB1E03B2EBFE12B2EEE
:10616C00ADDEB2E03B2EBFE12B2EA8DE332444245F
:10617C00B8E02B2E6FDEBDEA3B2EB9E14B2EBAE018
:10618C002B2E68DEBDEA3B2EB9E14B2EBCE02B2E4C
:10619C0061DE3324442422245DDEBEEA3B2EB9E1C9
:1061AC004B2EB4E02B2E56DEB1E03B2EBFE12B2E56
:1061BC0085DEB2E03B2EBFE12B2E9DDE6F90262CB0
:0E61CC00E1DA7F905F904F903F902F90089502
:1038FC00CF93DF93CDB7DEB72197CDBFDEBF219637
:10390C00B0E0B8830881083C40F40E940B140E947C
:10391C000B1408810F5F0883F5CFCDBFDEBFDF919D
:04392C00CF9108959A
:1028160015E101EB0A95F1F71A95E1F700000000C2
:02282600089513
:1038E8002092C308B091C208B7FD01C0FBCF009178
:0438F800C308089564
:103962002092C309B091C209B7FD01C0FBCF0091FB
:04397200C3090895E8
:10393000A201B10193018301015010403801B22F5F
:10394000B32B69F0FA010081FB0100838B010F5F4B
:103950001F4FB8018A010F5F1F4FA801EBCF8101F4
:023960000895C8
:105EC8002F92B0914406BE7FB0934406022D006A1B
:105ED8003F92202EE0919022F091912209953F90D7
:105EE800232CE0919022F09191220995B0914406DB
:0A5EF800B160B09344062F900895A6
:105E6000CF93DF93CDB7DEB72297CDBFDEBF2196AC
:105E70002F9238824982B0914406BE7FB093440687
:105E8000022D0064202EE0919022F091912209953C
:105E90002880E0919022F091912209958E01F801DD
:105EA00031960081202EE0919022F0919122099567
:105EB000B0914406B160B09344062F902196CDBFB7
:085EC000DEBFDF91CF910895D0
:105F02002F92B0914406BE7FB0934406022D0068E2
:105F12003F92202EE0919022F091912209953F909C
:105F2200232CE0919022F09191220995B0914406A0
:0A5F3200B160B09344062F9008956B
:10579000CF93DF93CDB7DEB72297CDBFDEBF219683
:1057A0002F923F924F925F926F92222011F00DE064
:1057B00001C005E02F92302E22240E9455122F9016
:1057C000222011F001E301C000E32F92302EB2E05D
:1057D0002B2E0E945512BEEE3B2EB5E04B2EBAE0AA
:1057E0002B2E3ED32F90222011F005E101C002E1C3
:1057F0002F92302EB4E02B2E0E945512B2E13B2E98
:10580000B6E02B2E0E9455122F90222041F42F92A9
:10581000BCE03B2EB7E02B2E0E9455122F90222089
:1058200041F42F92BFE33B2EB9E02B2E0E9455127C
:105830002F902F92B1E03B2EBFE12B2E62D3B2E02E
:105840003B2EBFE12B2E5DD330905721B4E02B2EA1
:105850000E94551230905821B5E02B2E0E9455120F
:1058600030905921B2E02B2E0E94551230905A21CF
:10587000B3E02B2E0E94551230905B2122240E940F
:10588000551230905C21B1E02B2E0E94551233242A
:10589000B5E12B2E0E945512B2E12B2E0E947212FE
:1058A00000930C219E012F5F3F4F8E01522E632EDD
:1058B000302E412E22240E94BE132F9008810E7F8D
:1058C000222011F011E001C010E0012B4980302EA0
:1058D00022240E9414144424B1E03B2EB0E12B2E6C
:1058E0000E941414B4E03B2EBFE12B2E0AD30E9479
:1058F0007E1CBDE25B2EB0E06B2E4424BDE02B2E5F
:10590000B1E23B2E0E943C14B1E03B2EBFE12B2EB6
:10591000DBD2B2E03B2EBFE12B2ED6D26F905F9050
:105920004F903F902F902196CDBFDEBFDF91CF915A
:025930000895D8
:1024AA002F92B0914406BE7FB0934406022D006479
:1024BA003F92202EE0919022F091912209953F902F
:1024CA00232CE0919022F09191220995B091440633
:0A24DA00B160B09344062F900895FE
:1024E4002F92B0914406BE7FB0934406E0919022AF
:1024F400F091912209952224E0919022F091912269
:102504000995B0914406B160B09344062F900895A4
:00251400C7
:10277C002F926F925F924F923F922F92B1E03B2E2D
:10278C00BFE12B2E0E94642FB2E03B2EBFE12B2E1B
:10279C000E94812F2F90322CB4E12B2E80DEB1E0E1
:1027AC003B2EB2E12B2E0E94812F3F904F905F90D9
:1027BC006F900E947E1C6F925F924F923F92B1E09D
:1027CC003B2EB2E12B2E0E94642FB6E12B2E84DE21
:1027DC003F904F905F906F90E52DF62D00834F92B8
:1027EC003F92B7E12B2E78DE3F904F90E32DF42DE6
:0627FC0000832F900895F8
:102828002F924F923F922F92B1E03B2EBFE12B2E79
:102838000E94642FB2E03B2EBFE12B2E0E94812F15
:102848002F90322CB4E12B2E2CDE3F904F900E941B
:102858007E1C3F92342CB6E12B2E23DE3F900E9443
:102868007E1CB7E12B2E1DDE0E947E1C2F90089542
:0028780060
:10287800A101252D362D052D162D01501040502E65
:10288800612EB22FB32B39F0FA0140828A010F5F13
:0A2898001F4FA801EECF8101089543
:10632C002F923F924F925F926F927F927F926F92D9
:10633C005F924F92B4E06B2EB0E07B2E2101BAE35A
:10634C002B2EB1E23B2E0E94981C4F905F90B4E034
:10635C006B2EB0E07B2EB6E42B2EB1E23B2E0E94CE
:10636C00981C6F907F902301B4E06B2EB0E07B2ED5
:10637C00BAE42B2EB1E23B2E0E94981CB3E52B2ED7
:10638C00B1E23B2E38DD7F906F905F904F903F9045
:04639C002F900895A1
:105E02004F925F926F927F92B4E06B2EB0E07B2E46
:105E1200BFE54B2EB1E25B2E0E94981C50E003E0DE
:105E22000517C0F0352F40E0320D431DE32FF42F4C
:105E320020810AE311E2E52FF0E0E00FF11F00817B
:105E4200BFEF0B27022BE32FF42F0083052F0F5FE9
:0E5E5200502FE5CF7F906F905F904F90089596
:1062CA00CF93DF93CDB7DEB72197CDBFDEBF21963F
:1062DA002F923F92B0E0B883B1E03B2EBFE12B2E64
:1062EA000BDEB2E03B2EBFE12B2EE9DDB9E12B2E0E
:1062FA000E94721210E0101710F416DB0883B1E046
:10630A003B2EBFE12B2EDBDDB2E03B2EBFE12B2E75
:10631A00D6DD08813F902F90CDBFDEBFDF91CF91B0
:02632A000895D4
:10593200CF93DF93CDB7DEB72D97CDBFDEBF2196D4
:105942002F923F924F925F926F927F928F92B0E02E
:10595200B887B0915221B160B0935221B0915221D7
:10596200BD7FB0935221B1E03B2EBFE12B2EABD2D3
:10597200B2E03B2EBFE12B2EA6D2309019204090F0
:105982001A2022246CD2B0914406BE7FB093440602
:10599200BAE32B2EE0919022F091912209952224D4
:1059A200E0919022F09191220995009319202224EE
:1059B200E0919022F0919122099500931A202224DD
:1059C200E0919022F0919122099500934E21222498
:1059D200E0919022F0919122099500934F218E013E
:1059E2000A5F1F4F0B871C872224E0919022F091BF
:1059F200912209951B852C85E12FF22F00838E01C0
:105A02000A5F1F4F0F5F1F4F0B871C872224E091F5
:105A12009022F091912209951B852C85E12FF22F7E
:105A22000083B0914406B160B093440600914E21C8
:105A320010914F210450104000934E2110934F219A
:105A42002091192030911A200DEA19E1021713074B
:105A5200D8F00091192000FD17C08E010A5F1F4F78
:105A6200F8013196008107FD0FC020914E2130913F
:105A72004F210EEE15E00217130730F0FE013696A5
:105A8200008107FF01C002C001E0ADC18E010C5FC1
:105A92001F4F0B871C8722240E9472121B852C85A4
:105AA200E12FF22F00838E010C5F1F4F0F5F1F4FFC
:105AB2000B871C87B1E02B2E0E9472121B852C854E
:105AC200E12FF22F00832C813D8100914E21109114
:105AD2004F21020F131FB1E08B2EBFEA6B2EB9E1EB
:105AE2007B2E28012C803D800E94E10F8E010A5FEF
:105AF2001F4F0F5F1F4F0B871C87BBEB2B2EB9E18C
:105B02003B2E0E94110F1B852C85E12FF22F008363
:105B12008E010A5F1F4F0B871C870E9410121B8584
:105B22002C85E12FF22F00830E811F81183009F49A
:105B3200063089F4B7E06B2EB5E04B2EB0E25B2E57
:105B4200BDEB2B2EB9E13B2E0E949C11003011F4CB
:105B52000E94AC1024C10E811F81183009F400305C
:105B620009F01BC1B4E06B2EB3E54B2EB1E25B2E04
:105B7200BDEC2B2EB9E13B2E0E949C11002329F48F
:105B8200B0915221B260B0935221B4E06B2EBDE0CD
:105B92004B2EB0E25B2EBDEC2B2EB9E13B2E0E94C8
:105BA2009C11002329F4B0915221B260B09352218A
:105BB200B4E06B2EBFE54B2EB1E25B2EBDEC2B2E7B
:105BC200B9E13B2E0E949C11002339F0B091522181
:105BD200B1FD03C0B2E0B887DFC0BDEB2B2EB9E147
:105BE2003B2E0E94110F007F003419F0B3E0B887FA
:105BF200D3C0BDEB2B2EB9E13B2E0E94110F0A83BD
:105C0200B0E0BB830A811B810F701070000F111F5F
:105C1200000F111F0A831B83B3EC2B2EB9E13B2E1D
:105C22000E94110F0F7B003009F0B6C0B4EC2B2E8E
:105C3200B9E13B2E0E94110F003009F0ADC00A817C
:105C42001B810354164E08831983B6EC2B2EB9E13F
:105C52003B2E0E94110F102F013009F071C02880D5
:105C620039800E94110F083009F069C0088119813A
:105C72000F5F1F4F18010E94110F003009F05FC023
:105C82004424288039800E94ED0E0E943F0F0E941A
:105C92002A1255244424B7EC2B2EB9E13B2E0E9444
:105CA20001144A805B80BDEB2B2EB9E13B2E0E9492
:105CB2008113B6E12B2E0E9472120B87B7E12B2EB5
:105CC2000E9472121B85512E402EB7EC2B2EB9E189
:105CD2003B2E0E940114088119810E5F1F4F55242B
:105CE200442418010E9401140A801B8000914E2155
:105CF20010914F21001911090E50104028012880DF
:105D020039800E948113B6E12B2E0E9472120B87FA
:105D1200B7E12B2E0E94721218812981312F422F56
:105D22003E5F4F4F1B85512E402E232E342E0E9454
:105D3200011420904E2130904F210E94B40D2CC0AE
:105D4200113141F4588069804A802C803D800E9444
:105D52008A1222C0163001F50C811D81005F1F4F8F
:105D620018010E94110F102F00270B871C870E9419
:105D720010122B853C8510E0020F131F025F1F4F8C
:105D820000934E2110934F21688079804A805B8076
:105D92002C803D800E94DE1602C0B4E0B887B0E4D9
:105DA2003B2EBEE12B2EACD02091192030911A202F
:105DB200215030400DEA19E10217130740F4BDEA01
:105DC2003B2EB9E14B2EBCE02B2E49D00BC00091EB
:105DD200192010911A2001501040302E412EBCE0A3
:105DE2002B2E3DD008858F907F906F905F904F90C3
:105DF2003F902F902C96CDBFDEBFDF91CF910895BB
:005E0200A0
:101FC200CF93DF93CDB7DEB72597CDBFDEBF219686
:101FD200B0E0BC838201015010402801882069F0E2
:101FE2000DEA19E10415150540F40C810F5F0C830D
:101FF20082010D5A19410A831B830C81002321F0AF
:102002002DEA39E1890102C09201890120163106C7
:10201200F9F48F927F926F925F924F923F922F923A
:10202200FFDE2F903F904F905F906F907F907F9256
:102032006F925F924F923F922F92402E1301CCDE0D
:102042002F903F904F905F906F907F908F9064C0E1
:102052008F927F926F925F924F923F922F92432C78
:10206200322CB0E12B2E0E94302F2F903F904F90B8
:102072005F906F907F908F900C81002329F0BDEAD2
:10208200B883B9E1B98302C0488259828F927F92A4
:102092006F925F924F923F922F9238804980B2E1C5
:1020A2002B2E0E94302F2F903F904F905F906F9079
:1020B2007F907F926F925F924F923F922F92362C37
:1020C200472CB4E12B2E0E94302FB0E13B2EBFE112
:1020D2002B2E0E94642FB0E23B2EBFE12B2E0E94DA
:1020E200812F2F903F904F905F906F907F908F90B5
:1020F2008F927F926F925F924F923F922F92BFE1A7
:102102002B2EEFD12F903F904F905F906F907F904A
:102112008F9005FF01C0ECCF0C810023B1F082014A
:10212200021913090A801B80001911090F5F1F4F42
:10213200060D171D38010A811B810150104028012C
:1021420022243324B0E0BC8358CF2496CDBFDEBF17
:06215200DF91CF9108951A
:101DDA002F923F924F92432C322CB2E02B2E0E942C
:101DEA00302FB0914406BE7FB0934406BAE72B2E3B
:101DFA00E0919022F091912209954F90242CE09144
:101E0A009022F09191220995B0914406B160B09365
:081E1A0044063F902F9008954B
:101E22002F923F924F92432C322C22240E94302F29
:101E3200B0914406BE7FB0934406BAE32B2EE091E4
:101E42009022F091912209952224E0919022F09122
:101E520091220995B0914406B160B09344064F9027
:061E62003F902F9008954F
:102420002F92B0914406BE7FB0934406BAE32B2EA0
:10243000E0919022F091912209952224E09190223E
:10244000F09191220995B0914406B160B093440691
:042450002F9008952C
:10233800CF93DF93CDB7DEB72497CDBFDEBF21960D
:102348002F923F924F925F928E010A831B836F9266
:102358005F924F923F922F922224C0D01A812B81F4
:10236800E12FF22F00838E010F5F1F4F0A831B831B
:10237800B1E02B2EB3D02F903F901A812B81E12F03
:10238800F22F0083432C322C22240E94302FB0914C
:102398004406BE7FB0934406BAE32B2EE091902208
:1023A800F091912209954F905F906F906620E9F027
:1023B8006F925F924F923F922F922224E091902247
:1023C800F091912209952F903F904F905F906F90D8
:1023D800F2011081011709F008C082010F5F1F4F39
:1023E8002801062D0150602EE1CFB0914406B1605E
:1023F800B09344066F923880498022240E94302F7F
:102408006F90062D5F904F903F902F902396CDBFF1
:08241800DEBFDF91CF910895B2
:10215800CF93DF93CDB7DEB72197CDBFDEBF2196F2
:102168002F923F924F925F926F927F928F92B4EC30
:102178002B2EB9E13B2E51DE0883C7C0B4E06B2E8D
:10218800BFE54B2EB1E25B2EB5ED2B2EB9E13B2E10
:10219800CFD0003009F045C0B2E04B2EB4EC2B2E66
:1021A800B9E13B2E16DE67DE8824B5ED6B2EB9E16A
:1021B8007B2EBFEC4B2EB9E15B2EBBEC2B2EB9E18D
:1021C8003B2EFBDEB4E06B2EB0E07B2EBFE54B2E42
:1021D800B1E25B2EBBEC2B2EB9E13B2E0E94B90677
:1021E8008824BFEC6B2EB9E17B2EBBEC4B2EB9E1FA
:1021F8005B2EB5EC2B2EB9E13B2EDFDEB6E06B2E65
:10220800B0E07B2EB7E54B2EB1E25B2EB5EC2B2E62
:10221800B9E13B2E0E94B906BCE32B2EB0E03B2E61
:102228009FDC7AC0B6E06B2EB7E54B2EB1E25B2E91
:10223800BFEA2B2EB9E13B2E7BD0003009F064C0F9
:10224800B4E06B2E40905D2150905E21BBEC2B2EAC
:10225800B9E13B2E6DD0003009F056C00FE010E018
:102268004091042050E00E94FB1A2DE031E2020F59
:10227800131F075F1F4FB6E06B2EB0E07B2EB5EC47
:102288004B2EB9E15B2E180121DE0FE010E04091E2
:10229800042050E00E94FB1A2DE031E2020F131FC8
:1022A8000B5F1F4FB4E06B2EB0E07B2E40905D219A
:1022B80050905E2118010E94981C0FE010E0409198
:1022C800042050E00E94FB1A2DE031E2F801E20FF1
:1022D800F31FB1E0B0830FE010E04091042050E01C
:1022E8000E94FB1A2DE031E2020F131FF80131960C
:1022F80000910020109101202091022030910320AC
:10230800019311932193319307C00881013009F497
:1023180035CF023009F486CF8F907F906F905F9011
:102328004F903F902F90CDBFDEBFDF91CF910895A2
:00233800A5
:101E7E002F923F924F925F926F927F928F92882411
:101E8E00BFEA6B2EB9E17B2EBBEB4B2EB9E15B2E7D
:101E9E00B5EB2B2EB9E13B2E8DD0B6E06B2EB0E01C
:101EAE007B2EB7E54B2EB1E25B2EB5EB2B2EB9E1B7
:101EBE003B2E0E94B9068F907F906F905F904F904F
:061ECE003F902F900895E3
:100D72002F923F927F926F925F924F92432C322C2E
:100D8200B2E02B2E0E94302FB0914406BE7FB0936A
:100D92004406BAE72B2EE0919022F0919122099518
:100DA2004F905F906F907F90B62DB729E9F0F201D6
:100DB20000817F926F925F924F923F922F92202EEC
:100DC200E0919022F091912209952F903F904F90BF
:100DD2005F906F907F9082010F5F1F4F2801830108
:100DE200015010403801E0CFB0914406B160B09399
:080DF20044063F902F90089584
:101B6800CF93DF93CDB7DEB72497CDBFDEBF2196E5
:101B78004F923F922F924424BEEA2B2EB9E13B2E7E
:101B880028D12F903F9081010255164E18013F929F
:101B98002F92302E412EB6E02B2E0E94302FB0E827
:101BA8003B2EBFE12B2E0E94812FB0E83B2EBFE1D8
:101BB8002B2E0E94642F2F903F9000910C2105300E
:101BC80029F000910C21073009F00AC03F922F92AA
:101BD800BAE03B2EBCE12B2E0E94642F2F903F9041
:101BE8003F922F92B8E03B2EBFE12B2E0E94812F0F
:101BF8002F903F9000910C21053029F000910C2185
:101C0800073009F09DC0B0E0BA83BB833F922F92A2
:101C1800BCE12B2E63D42F903F900A70002359F417
:101C28000A811B810F5F1F4F0A831B83133009F43E
:101C3800083E08F4EBCF3F922F92BCE12B2E4ED4F6
:101C48002F903F9001FD07C00A811B81133009F4D2
:101C5800083E08F474C03F922F92B8E03B2EBFE1D3
:101C68002B2E0E94642F2F903F9081010C5F1F4FF5
:101C78003F922F921801D1D02F903F900983B0E066
:101C8800B8830881003108F05AC03F922F92BCE116
:101C98002B2E24D42F903F9001FF4CC0B981B5FF63
:101CA80049C03F922F92B0E83B2EBFE12B2E0E94F5
:101CB800812FB0E83B2EBFE12B2E0E94642FBAE0A3
:101CC8003B2EBCE12B2E0E94642FB8E03B2EBFE1D7
:101CD8002B2E0E94812F2F903F90B0E0BA83BB83B8
:101CE8003F922F92BCE12B2EF9D32F903F900A7090
:101CF800002359F40A811B810F5F1F4F0A831B833E
:101D0800133009F4083E08F4EBCF3F922F92B8E065
:101D18003B2EBFE12B2E0E94642F2F903F90810114
:101D28000C5F1F4F3F922F92180177D02F903F9052
:101D3800098301C004C008810F5F0883A2CF0AC0CD
:101D48003F922F92BFE12B2EC9D32F903F9003FFD4
:101D580001C0F6CF3F922F92BDE12B2EBFD32F901B
:101D68003F900670002311F010E001C011E0012F30
:0E1D78004F902396CDBFDEBFDF91CF9108952F
:101ED4004F925F92BFEF5B1611F4BFEF4B1669F0A0
:101EE4007F926F923F922F92342C452C22240E9491
:101EF400302F2F903F906F907F90B0914406BE7F1B
:101F0400B09344067F926F923F922F92BAE32B2EA6
:101F1400E0919022F091912209952F903F906F903B
:101F24007F9093018301015010403801B22FB32BED
:101F3400C9F07F926F925F924F923F922F92222428
:101F4400E0919022F091912209952F903F904F902B
:101F54005F906F907F90F101008381010F5F1F4FAD
:101F64001801DFCFB0914406B160B09344065F908E
:041F74004F900895ED
:102454002F923F924F925F926F927F928F92882435
:10246400BDEC6B2EB9E17B2EBDEC4B2EB9E15B2E9E
:10247400B9EC2B2EB9E13B2EA2DDB4E06B2EB0E01B
:102484007B2EBFE54B2EB1E25B2EB9EC2B2EB9E1CE
:102494003B2E0E94B9068F907F906F905F904F9073
:0624A4003F902F90089507
:102802002F923F925F92E8DA5F90252CB4DB3F90E3
:042812002F90089566
:101F7800B0914406BE7FB09344062F92BAE72B2E49
:101F8800E0919022F091912209952F90E091902272
:101F9800F09191220995B0914406B160B09344063E
:021FA80008959A
:10270200CF93DF93CDB7DEB72297CDBFDEBF219641
:102712002F923F924F925F928201020D131D015040
:10272200104008831983432C322CB0E12B2E0E94D7
:10273200302F38804980B2E12B2E0E94302FB0E337
:102742003B2EBFE12B2E0E94812F5F924F923F9230
:102752002F92BFE12B2EC5DE2F903F904F905F90BE
:1027620005FF01C0F2CF5F904F903F902F902196CE
:0A277200CDBFDEBFDF91CF910895C7
:10251400CF93DF93CDB7DEB76297CDBFDEBF2196F1
:102524002F923F924F925F926F927F928F929F92DF
:102534008E01085F1F4F0F5F1F4F088B198B6F921F
:102544005F924F923F922F92252C362C68DC18898B
:102554002989E12FF22F00838E01085F1F4F088B1A
:10256400198B5CDF18892989E12FF22F00838E01F2
:102574000A5F1F4F0F5F1F4F088B198B4FDF18899E
:102584002989E12FF22F00838E010A5F1F4F088BE8
:10259400198B44DF2F903F904F905F906F90188974
:1025A4002989E12FF22F00830E811F81103009F455
:1025B400003009F496C08E01065F1F4F0F5F1F4F56
:1025C400088B198B6F925F924F923F922F9226DF66
:1025D40018892989E12FF22F00838E01065F1F4F8E
:1025E400088B198B1BDF18892989E12FF22F0083AF
:1025F4008E01045F1F4FB4E06B2EB0E07B2EB9EC6C
:102604004B2EB9E15B2E180163DC2F903F904F9065
:102614005F906F90052D162D085F1F4F4F923F92CC
:102624002F92302E412EB2E02B2E0E94302F2F906D
:102634003F904F908101025F1F4F040DB0E01B1FBC
:10264400085F1F4F180113D908851985103009F444
:10265400053311F43BD845C00E811F81103009F4B5
:10266400043411F479D93DC02A853B852850304083
:102674008E01045F1F4F49016E807F804884598416
:102684001801B1E2BF93B2E5BF930E946508ADB7EC
:10269400BEB71296ADBFBEBF0A871B87B02FB12B42
:1026A40001F18E01B6E06B2EB0E07B2EB5EB4B2E24
:1026B400B9E15B2E18010CDC9E01245F3F4F8E01B3
:1026C400888499846E807F80290118010A851B857E
:1026D4001F930F930E94EC03ADB7BEB71296ADBF24
:1026E400BEBF9F908F907F906F905F904F903F9070
:0E26F4002F906196CDBFDEBFDF91CF9108958C
:101872002F923F924F920DEA19E10215130520F4BF
:1018820081010E5A19411801432C322C22240E9444
:0A189200302F4F903F902F900895E3
:1016D000CF93DF93CDB7DEB72C97CDBFDEBF21967A
:1016E0009FD69ED68E010F5F1F4F0A871B8798D605
:1016F0001A852B85E12FF22F00838E010A871B8725
:101700008FD61A852B85E12FF22F00838E010E5F75
:101710001F4F0F5F1F4F0A871B8782D61A852B85A5
:10172000E12FF22F00838E010E5F1F4F0A871B8768
:1017300077D61A852B85E12FF22F00838E010C5F5F
:101740001F4F0F5F1F4F0A871B876AD61A852B858D
:10175000E12FF22F00838E010C5F1F4F0A871B873A
:101760005FD61A852B85E12FF22F008359D658D6E4
:1017700057D656D62A813B810A811B8101501040E1
:101780000A831B83B22FB32B49F04AD6002309F0FA
:10179000FCCF46D645D644D643D6ECCF2C813D81EE
:1017A0000C811D81015010400C831D83B22FB32B7F
:1017B00009F459C035D634D68E01085F1F4F0F5F2C
:1017C0001F4F0A871B872CD61A852B85E12FF22FF6
:1017D00000838E01085F1F4F0A871B8721D61A8559
:1017E0002B85E12FF22F00831BD61AD619D618D6D7
:1017F00017D616D68E010A5F1F4F0F5F1F4F0A873D
:101800001B870ED61A852B85E12FF22F00838E01C0
:101810000A5F1F4F0A871B8703D61A852B85E12F86
:10182000F22F008308851985103009F4013069F41E
:10183000F7D500937321F4D500937421F1D500936B
:101840007521EED5009376210EC02E813F810E8149
:101850001F81015010400E831F83B22FB32B11F054
:10186000DFD5F3CF9BCF2B96CDBFDEBFDF91CF91DE
:021870000895D9
:10195C002F923F924F925F926F927F92DFC0B4E0D2
:10196C005B2EB0E06B2E4424BFE52B2EB1E23B2E58
:10197C007DD73324B1E02B2E78DA00910020109122
:10198C000120209102203091032000936F211093AD
:10199C0070212093712130937221B3E0B0931C20FD
:1019AC00D6C000916F21109170212091712130913E
:1019BC007221A801B9014B5F5F4F6F4F7F4F0091B0
:1019CC00002010910120209102203091032040171B
:1019DC0051076207730718F4B2E0B0931C203FD88C
:1019EC00023021F4B4E0B0931C2001C0B0C03090A0
:1019FC001B20B3E02B2E39DA00910020109101202E
:101A0C00209102203091032000936F2110937021BC
:101A1C002093712130937221B5E0B0931C2097C0B4
:101A2C001ED8102F063021F4B4E0B0931C2035C022
:101A3C00153099F500910020109101202091022081
:101A4C003091032000936F2110937021209371210A
:101A5C0030937221B6E0B0931C20B4E06B2EB0E052
:101A6C007B2EBEE34B2EB1E25B2EBFE52B2EB1E2FB
:101A7C003B2E0E94981CB3E86B2EB1E27B2EBFE785
:101A8C004B2EB1E25B2EB7E72B2EB1E23B2E0E9420
:101A9C009631B0E0B0931B205AC059C000916F2111
:101AAC00109170212091712130917221A801B901FE
:101ABC004F5F5F4F6F4F7F4F0091002010910120BF
:101ACC0020910220309103200417150726073707B1
:101ADC0020F100917B2110917C2120917D2130916E
:101AEC007E21015010402040304000937B21109308
:101AFC007C2120937D2130937E2100910020109138
:101B0C000120209102203091032000936F2110932B
:101B1C007021209371213093722119C000911C20E7
:101B2C00023009F41CCF00911C20033009F439CF8A
:101B3C0000911C20043009F45ACF00911C20053070
:101B4C0009F46ECF00911C20063009F4A7CF7F90CA
:0C1B5C006F905F904F903F902F90089585
:100E7600CF93DF93CDB7DEB72397CDBFDEBF2196E5
:100E86004F925F926F927F928F929F92B9EFB98342
:100E9600B0E0BA833F922F92B9ED3B2EB9E14B2ECB
:100EA600B2E02B2E0E94302FBCE04B2EB0E05B2E22
:100EB600B3E02B2EB5E03B2EEBDB2F903F90B3E05B
:100EC6002B1681F4332071F03F922F92B4E04B2E13
:100ED600B0E05B2EBEE32B2EB1E23B2E89DD2F90D8
:100EE6003F9010C0B0E0B8830881043058F43F92B8
:100EF6002F9222240E94BC0F2F903F9008810F5FF3
:100F06000883F2CFB0E0B88308810C3058F43F92E2
:100F16002F9222240E94BC0F2F903F9008810F5FD2
:100F26000883F2CF3F922F92B6E04B2EB0E05B2EB5
:100F3600B7E52B2EB1E23B2E5BDD2F903F90B0E064
:100F4600B88308810A3C58F43F922F9222240E94CB
:100F5600BC0F2F903F9008810F5F0883F2CF3F921E
:100F66002F92B6E04B2EB0E05B2EB2E22B2EB5E010
:100F76003B2E8EDB2F902F92FCD72F903F90B3E025
:100F86002B16D9F43320C9F43F922F92B6E32B2EB9
:100F9600F0D7B4E02B2EEDD7B4E04B2EB0E05B2EAD
:100FA600B2E42B2EB1E23B2E23DD2F903F90098138
:100FB6001A810A5F1F4F09831A833F922F92B5E069
:100FC6004B2EB0E05B2EB8E22B2EB5E03B2E60DB5D
:100FD6002F903F90B3E02B1649F5332039F53F9219
:100FE6002F92B2E32B2EC5D7B4E02B2EC2D72F906B
:100FF6003F90B0E0B8830881043090F41EE321E20C
:101006000881E02FF0E0E10FF21F00813F922F925E
:10101600202EAFD72F903F9008810F5F0883EBCF2C
:1010260009811A810A5F1F4F09831A833F922F9203
:10103600BFEF2B2E9ED7B3E48B2EB0E09B2EB4E4ED
:101046006B2EB0E07B2EBDE04B2EB0E25B2EBDE0FA
:101056002B2EB0E23B2E09811A811F930F93B9DB29
:10106600ADB7BEB71296ADBFBEBF2F903F909F9053
:101076008F907F906F905F904F902296CDBFDEBF8E
:06108600DF91CF910895F7
:10069600B0914406BE7FB09344065F924F923F925C
:1006A6002F92BAE72B2EE0919022F0919122099594
:1006B6002F903F904F905F90920182010150104021
:1006C6002801B22FB32BA9F0F10104915F924F924A
:1006D6003F922F92202EE0919022F091912209953F
:1006E6002F903F904F905F9081010F5F1F4F180131
:0E06F600E3CFB0914406B160B093440608957E
:1009F600B0914406BE7FB09344065F924F923F92F9
:100A06002F92BAE72B2EE0919022F0919122099530
:100A16002F903F904F905F909201820101501040BD
:100A26002801B22FB32BA9F0F10100815F924F92FA
:100A36003F922F92202EE0919022F09191220995DB
:100A46002F903F904F905F9081010F5F1F4F1801CD
:0E0A5600E3CFB0914406B160B093440608951A
:1007D800CF93DF93CDB7DEB72597CDBFDEBF219688
:1007E8002F923F924F925F926F927F928F929F9239
:1007F8000A851B850A871B879F928F927F926F922B
:100808005F924F92B6E06B2EB0E07B2E2101BFEADB
:100818002B2EB9E13B2EA9D2B6E04B2EB0E05B2ED1
:10082800B7E52B2EB1E23B2EE2D0B0E02B2EB8E09C
:100838003B2E9BDE0A851B85045E1F4F09831A83A6
:10084800B0E02B2EB5E43B2E90DE29803A808DDE79
:100858002090692130906A2188DE009169211091E9
:100868006A210F5F1F4F0093692110936A21222488
:1008780033247BDEB1E12B2EB0E83B2E76DE22243A
:10088800332473DEB4E04B2EB0E05B2EBFE52B2E95
:10089800B1E23B2EACD04F905F901201B4E04B2EEA
:1008A800B0E05B2EA4D06F907F900A851B85085F0F
:1008B8001F4F09831A83130158DE8F909F901401EC
:1008C80054DE29803A8051DE222433244EDEB4E1FE
:1008D8004B2EB0E05B2EBDEB2B2EB9E13B2E0E94D8
:1008E8008113B6E12B2E0E9472120C83B7E12B2ED6
:1008F8000E9472121C81512E402EB7EC2B2EB9E1AA
:100908003B2E0E9401140981017008830A851B850A
:100918000752164E442418010E94ED0E0A851B85C5
:1009280098012752364E088110E0020F131F8824C1
:100938003801B1ED4B2EB9E15B2EB9EC2B2EB9E1A4
:100948003B2E0E94E10F0A851B8598012752364EDF
:10095800088110E0020F131F085F1F4FB1E15B2EE3
:10096800442418010E9401148E010F5F1F4FF801E3
:1009780031960081202E0E94BC0F29800E94BC0F56
:1009880009811A819801245F3F4F088110E0020F06
:10099800131F2801B1ED2B2EB9E13B2E0E948113C4
:1009A800B6E12B2E0E9472120C83B7E12B2E0E9407
:1009B80072121C81512E402EB7ED2B2EB9E13B2E21
:1009C8000E9401140A851B85065D1F4F18010E94AD
:1009D800B40D9F908F907F906F905F904F903F9055
:0E09E8002F902496CDBFDEBFDF91CF910895F2
:10057200CF93DF93CDB7DEB72297CDBFDEBF2196F3
:100582002F923F9228823982B0914406BE7FB09367
:100592004406BAE72B2EE0919022F0919122099520
:1005A2008E01F80131960081202EE0919022F09187
:1005B20091220995FE010081202EE0919022F09176
:1005C20091220995B0914406B160B09344063F90E0
:0E05D2002F902196CDBFDEBFDF91CF9108950F
:100A6A00CF93DF93CDB7DEB72697CDBFDEBF2196F2
:100A7A002F923F924F925F926F927F92B0E0B8832B
:100A8A00BCE3B0937B21B0E0B0937C21B0937D218D
:100A9A00B0937E210E941012023009F031C120E089
:100AAA00122F1F3048F41F930E9410121F91012F1A
:100ABA000F5F202F122FF5CFB4E06B2EB0E07B2E04
:100ACA00BFEF4B2E5B2EBEE32B2EB1E23B2E0E94D4
:100ADA006A0F20E0122F183048F41F930E94101258
:100AEA001F91012F0F5F202F122FF5CF40E0342FD7
:100AFA00363098F43F930E9410123F9117E521E295
:100B0A00E32FF0E0E10FF21F1081011709F01FC176
:100B1A00032F0F5F402F342FEBCF20E0122F1E3C04
:100B2A0048F41F930E9410121F91012F0F5F202F6C
:100B3A00122FF5CFB0E0B9830E941012C7C00E94ED
:100B4A001012013021F40E941012088301C0FFC064
:100B5A00D3C00E941012043071F4B4E06B2EB0E0DE
:100B6A007B2EBFEF4B2E5B2EB7E72B2EB1E23B2E2F
:100B7A000E946A0F01C0EBC0BFC00E941012102F62
:100B8A00043080F01F93B4E06B2EB0E07B2EBFEFF1
:100B9A004B2E5B2EBFE72B2EB1E23B2E0E946A0F33
:100BAA001F9101C0D4C0012F0450202F122F022FF1
:100BBA000150202F112329F02F930E9410122F91F8
:100BCA00F5CF9AC00E941012102F043080F01F93A4
:100BDA00B4E06B2EB0E07B2EBFEF4B2E5B2EB3E85A
:100BEA002B2EB1E23B2E0E946A0F1F9101C0AFC0AB
:100BFA00012F0450202F122F022F0150202F1123D2
:100C0A0029F02F930E9410122F91F5CF75C00E94E0
:100C1A001012043071F48E010E5F1F4FB4E06B2E78
:100C2A00B0E07B2EBFEF4B2E5B2E18010E946A0F9D
:100C3A0001C08DC061C0B1E0B9835EC00E941012CC
:100C4A00043099F5B4E06B2EB0E07B2EBFEF4B2E4B
:100C5A005B2EBBE72B2EB1E23B2E0E946A0F40911E
:100C6A007B2150917C2160917D2170917E2108E049
:100C7A0017E020E030E00417150726073707A0F42D
:100C8A0000917B2110917C2120917D2130917E2140
:100C9A00085017402040304000937B2110937C215C
:100CAA0020937D2130937E2101C051C025C00E942E
:100CBA001012202F122F022F0150202F112329F05A
:100CCA002F930E9410122F91F5CF16C0053309F405
:100CDA0036CF013009F43DCF033009F44ECF063048
:100CEA0009F470CF063309F492CF0F3F09F4A3CF6A
:100CFA00033309F4A3CFDBCF0981002309F41CCF06
:100D0A000881023079F48E010E5F1F4FB4E06B2E1A
:100D1A00B0E07B2E2801B2E42B2EB1E23B2E0E94DA
:100D2A00981C13C08E010E5F1F4FB4E06B2EB0E00B
:100D3A007B2E2801B2E42B2EB1E23B2E21DD1030AE
:100D4A0009F4003011F0B0E0B883088101C000E076
:100D5A007F906F905F904F903F902F902596CDBFD8
:080D6A00DEBFDF91CF91089577
:10078A0093018301015010403801303009F42030C0
:10079A00D9F0F1011081F2010081101761F0F10125
:1007AA001081F2010081002EB0E01B2E012F10E013
:1007BA00001911090BC081010F5F1F4F1801820137
:0E07CA000F5F1F4F2801DCCF00E010E0089504
:1010CA00CF93DF93CDB7DEB726960881198100E06A
:0810DA0010E0DF91CF910895B1
:102DBC00CF93DF93CDB7DEB7A697CDBFDEBF2196FD
:102DCC008F929F928E01075F1F4F0F5F1F4F0CA3B7
:102DDC001DA37F926F925F924F923F922F9213019D
:102DEC001AD81CA12DA1E12FF22F00838E01075FB1
:102DFC001F4F0CA31DA30EDB1CA12DA1E12FF22F45
:102E0C0000838E01095F1F4F0F5F1F4F0CA31DA383
:102E1C0001DB1CA12DA1E12FF22F00838E01095F94
:102E2C001F4F0CA31DA3F6DA2F903F904F905F908D
:102E3C006F907F901CA12DA1E12FF22F0083B0E0A9
:102E4C00BF87B0E0BC8BB1E0BD8BB0E0BA8BBB8B65
:102E5C008301045F1F4F7F926F925F924F923F925C
:102E6C002F9218010E94110F0695069510E00C7F09
:102E7C000D871E878E01025E1F4FB4E06B2EB0E0F3
:102E8C007B2EB9EC4B2EB9E15B2E18011DD82F907F
:102E9C003F904F905F906F907F908301035F1F4F27
:102EAC007F926F925F924F923F922F9218010E94E5
:102EBC00110F2F903F904F905F906F907F900F73FA
:102ECC000B87B0E0BC8700914E2110914F210E5022
:102EDC001040041915090D841E8400191109088B62
:102EEC00198B83010E5F1F4F7F926F925F924F92EF
:102EFC003F922F9218010E94110F2F903F904F90EC
:102F0C005F906F907F907F926F925F924F923F9203
:102F1C002F92402E13010E94ED0E2F903F904F9058
:102F2C005F906F907F9083010D5F1F4F7F926F9228
:102F3C005F924F923F922F9218010E94110F202EF8
:102F4C0015D829843A840E94B9022F903F904F9053
:102F5C005F906F907F9083010C5F1F4F7F926F92F9
:102F6C005F924F923F922F9218010E94110F098F7E
:102F7C0051DA088F4FDA0F8B4DDA0E8B4BDA0D8F3F
:102F8C0049DA0C8F47DA0B8F45DA2F903F904F9030
:102F9C005F906F907F900A8F0B851C85103009F421
:102FAC000230C9F50E891F89288D398D0F5F1F4F8F
:102FBC002F4F3F4F0A8F1B8F2C8F3D8FB2E1BB875A
:102FCC00B0E0BC877F926F925F924F923F922F92AC
:102FDC00BCE02B2E81DA0E8BBDE02B2E7DDA0F8B15
:102FEC0022247ADA088FB1E02B2E76DA2F903F90DC
:102FFC004F905F906F907F90098F0F850F5F0F87B9
:10300C00B8E1BD87B0E0BE87B0E0BA8BBB8BB0E057
:10301C00B0931D206BC00B851C85103009F4083152
:10302C0079F50E891F89288D398D088319832A8398
:10303C003B830A8D1B8D2C8D3D8D0E8B1F8B288F0A
:10304C00398F488159816A817B810889198920E0EF
:10305C00322F040F151F261F371F0A8F1B8F2C8F23
:10306C003D8FB0E1BB87B0E0BC870F850F5F0F874A
:10307C00B4E1BD87B0E0BE870C890F5F0C8B36C006
:10308C000B851C85103009F4013181F54E895F895F
:10309C00688D798D0A8D1B8D2C8D3D8D0E8B1F8B24
:1030AC00288F398F8A019B010F5F1F4F2F4F3F4F86
:1030BC000A8F1B8F2C8F3D8FB0E1BB87B0E0BC8794
:1030CC000F850F5F0F87B4E1BD87B0E0BE87B0E01E
:1030DC00BA8BBB8B00911320002341F400911D206F
:1030EC000F5F00931D20B0E0B09313200F850023D9
:1030FC0009F43BC283010C5F1F4F7F926F925F926A
:10310C004F923F922F92588C498C180174DB2F8868
:10311C000E94BC0F2E880E94BC0F2D8C0E94BC0FED
:10312C002C8C0E94BC0F2B8C0E94BC0F2A8C0E94F2
:10313C00BC0F2F903F904F905F906F907F908301CA
