:100000000C9470160C9400000C9400000C940000EA
:100010000C9400000C9400000C9400000C94000060
:100020000C9400000C9400000C9400000C94000050
:100030000C9400000C9400000C9400000C94000040
:100040000C9400000C9400000C9400000C94000030
:100050000C9400000C9400000C9400000C94000020
:100060000C9400000C9400000C9400000C94000010
:100070000C9400000C9400000C9400000C94000000
:100080000C9400000C9400000C9400000C940000F0
:100090000C9400000C9400000C9400000C940000E0
:1000A0000C9400000C9400000C9400000C940000D0
:1000B0000C9400000C9400000C9400000C940000C0
:1000C0000C9400000C9400000C9400000C940000B0
:1000D0000C9400000C9400000C9400000C940000A0
:1000E0000C940000000000000C9400000C94000030
:1000F0000C94000000000000000000000000000060
:100100000C9400000C9400000C9400000C9400006F
:100110000C9400000C9400000C9400000C9400005F
:100120000C9400000C9400000C94000000000000EF
:10013000000000000C9400000C9400000C940000DF
:100140000C9400000C9400000C9400000C9400002F
:100150000C9400000C9400000C9400000C9400001F
:100160000C9400000C9400000C9400000C9400000F
:100170000C9400000C94000000000000000000003F
:10018000000000000000000000000000000000006F
:10019000000000000000000000000000000000005F
:1001A0000C9400000C94000000000000000000000F
:1001B0000C9400000C9400000C9400000C940000BF
:1001C0000C9400000C9400000000000000000000EF
:1001D0000000000000000000000000000C9400007F
:1001E0000C9400000C9400000000000000000000CF
:0C01F000000000000C9400000C940000C3
:102CE000BFEFBDBFBFE5BEBF0E945D17CDB7DEB76A
:102CF0002297CDBFDEBF21962F923F924F925F92D7
:102D0000B0916006B062B093600622E014E00BEB75
:102D10000A95F1F71A95E1F72A95D1F7000000918D
:102D2000A4080B7F0093A408BBE0B093A608B0E909
:102D3000B093A7081FDF22E014E00BEB0A95F1F730
:102D40001A95E1F72A95D1F70000B5E02B2EB0E2F5
:102D50003B2E7BDF22E014E00BEB0A95F1F71A958E
:102D6000E1F72A95D1F7000063DF22E014E00BEBD6
:102D70000A95F1F71A95E1F72A95D1F70000B0917D
:102D80004406B160B0934406B0914406BF7EB09350
:102D90004406BFEF2B2E70DFBFEF2B2E6DDFBFEF92
:102DA0002B2E6ADFBFEF2B2E67DFBFEF2B2E64DFEA
:102DB00022E014E00BEB0A95F1F71A95E1F72A955A
:102DC000D1F70000B0E22B2E57DFBCE02B2E54DFF2
:102DD000B0E12B2E51DFB4E02B2E4EDF22E014E0C9
:102DE0000BEB0A95F1F71A95E1F72A95D1F7000058
:102DF000B0E62B2E41DFB8E12B2E3EDFBAE32B2EBF
:102E00003BDF222439DF22E014E00BEB0A95F1F7D7
:102E10001A95E1F72A95D1F70000B0E72B2E2CDFA9
:102E2000B9E82B2E29DFB8E72B2E26DFB7ED2B2EA6
:102E300023DFB0914406B061B0934406B0914806D8
:102E4000B1FD19C0B0916706B062B0936706B0914A
:102E50004406BF7EB0934406B8E32B2E0DDF8E01EF
:102E6000B2E04B2EB0E05B2E18010EDFB0914406AD
:102E7000B061B093440648815981052F10E0980154
:102E800030708A011070102F0027022B132B1F9314
:102E90000F93B3E0BF93BBE0BF93B5E0BF93B8EC33
:102EA000BF939BDEADB7BEB71696ADBFBEBFC6CF54
:0A2EB0005F904F903F902F90FFCFEE
:102C4A0010E0F1010081202F022F003079F03F922D
:102C5A002F92202E79DF2F903F90012F0F5F102F98
:0E2C6A00E02FF0E0E20DF31D0081EFCF0895A2
:102B5200B091A108B5FD01C0FBCFB091A108B6FFAD
:102B620005C0B091A108B064B093A1082092A0085A
:022B72000895C4
:102C30002F923F924F924424B4E03B2EB0E12B2ED2
:0A2C400065DF4F903F902F9008953C
:102B0C00BCE7B0931520B5E1B0931620BCE3B093AD
:102B1C001720B6E1B0931820B0EBB0934106B0E4A7
:102B2C00B0934206B0E0B093C108032D03700429A2
:102B3C00022900640093C00832FAB091C008B7F9BA
:062B4C00B093C0080895DB
:102C78002092C308B091C208B7FD01C0FBCF0895E8
:002C88004C
:102C8800CF93DF93CDB7DEB72297CDBFDEBF2196B6
:102C980030E040E034154505C8F4032F142F020D29
:102CA800131D088319833F922F92BFEF2B2E20DF2D
:102CB8002F903F9018812981E12FF22F0083032F55
:102CC800142F0F5F1F4F302F412FE4CF2196CDBF18
:082CD800DEBFDF91CF910895EA
:102AF8002092C308B091C208B7FD01C0FBCF009176
:042B0800C308089561
:102BDA00CF93DF93CDB7DEB72297CDBFDEBF219665
:102BEA002F923F924F925F926F927F922F813885F8
:102BFA00FE018E01075F1F4F0E5F1F4F0193119356
:102C0A008E01380149845A8419010E94A8067F90CE
:102C1A006F905F904F903F902F902196CDBFDEBF6F
:062C2A00DF91CF91089537
:100D5000CF93DF93CDB7DEB7A397CDBFDEBF21968C
:100D6000B0E0B98FBA8FF20182010F5F1F4F2801E7
:100D700004910A87002311F40C9474150A85053236
:100D8000A1F07F926F925F924F923F922F923F928B
:100D90002F922A840F901F90F00109952F903F9079
:100DA0004F905F906F907F90DECFB0E0BB87BC87A5
:100DB000B0E0BD87BE8732C00D851E8508600D87F7
:100DC0001E8782010F5F1F4F28013DC00D851E85C4
:100DD00001600D871E8782010F5F1F4F280133C0FE
:100DE0000D851E8502600D871E8782010F5F1F4FD4
:100DF000280129C00D851E8518600D871E87820178
:100E00000F5F1F4F28011FC00D851E8504600D87D1
:100E10001E8782010F5F1F4F280115C0F201049148
:100E20000D3251F2F2010491003281F2F20104918B
:100E30000B32B1F2F20104910332E1F2F2010491BA
:100E4000003311F301C0B7CF0D851E8501FF05C02A
:100E50000D851E850E7F0D871E870D851E8503FF60
:100E600005C00D851E850B7F0D871E87F20104913D
:100E700010E03F922F92202E68DE2F903F900023AB
:100E800009F1B0E0BB87BC870B851C854AE050E0C8
:100E900004DCF2012491020FB0E01B1F005310404C
:100EA0000B871C8782010F5F1F4F2801F8010491F7
:100EB00010E03F922F92202E48DE2F903F9000238B
:100EC00019F716C0F20104910A3291F4F30121914D
:100ED0003191F901019111910B871C8789010E5FF6
:100EE0001F4FF3010193119382010F5F1F4F2801E0
:100EF000F20104910E3209F03DC082010F5F1F4FD5
:100F00002801F80104910A3299F4F30121913191F9
:100F1000F901019111910887198789010E5F1F4F0F
:100F2000F3010193119382010F5F1F4F280121C02C
:100F3000B0E0B887B987F201049110E03F922F9298
:100F4000202E03DE2F903F90002399F0088519850D
:100F50004AE050E0A2DBF2012491020FB0E01B1F37
:100F6000005310400887198782010F5F1F4F280127
:100F7000E2CF08C0B0E0B887B9870D851E85106143
:100F80000D871E87F20182010F5F1F4F2801049118
:100F90000A8713C1098D1A8D0C9476150D851E854F
:100FA00000610D871E87EECF0D851E8514600D87AD
:100FB0001E8744C10D851E8500620D871E870D8525
:100FC0001E8511600D871E8739C10D851E85126033
:100FD0000D871E8733C10D851E8500640D871E8712
:100FE0002DC12CC10D851E8500620D871E870D85C4
:100FF0001E8500680D871E8721C1F30101911191A3
:10100000F801019111910D8B1E8BF301019111914A
:101010000E5F1F4FF301019311930D891E8910304C
:1010200009F4003021F4B0E0BD8BB0E2BE8BB0E03B
:10103000BF8BB88F2D893E890F89188DF801E20F7B
:10104000F31F0081002339F00F89188D0F5F1F4FA8
:101050000F8B188FEFCF08851985B02FB12B59F062
:10106000288539850F89188D2017310720F40885C8
:1010700019850F8B188F2B853C850F89188D0217CA
:10108000130748F40F88188C0B851C85001911096B
:101090000B871C8703C0B0E0BB87BC870D851E850E
:1010A00003FD20C02B853C850B851C85015010401D
:1010B0000B871C87B22FB32BA9F07F926F925F92A0
:1010C0004F923F922F923F922F92B0E22B2E0F9091
:1010D0001F90F00109952F903F904F905F906F9077
:1010E0007F90E0CF2F89388D0F89188D01501040E7
:1010F0000F8B188FB22FB32BE9F0ED89FE89008199
:101100007F926F925F924F923F922F923F922F92D7
:10111000202E0F901F90F00109952F903F904F9037
:101120005F906F907F900D891E890F5F1F4F0D8B11
:101130001E8BD8CF0D851E8503FF20C02B853C85D7
:101140000B851C85015010400B871C87B22FB32BD9
:10115000A9F07F926F925F924F923F922F923F92AF
:101160002F92B0E22B2E0F901F90F00109952F9037
:101170003F904F905F906F907F90E0CFF4CDF30160
:1011800001911191F80100810A87F30101911191F8
:101190000E5F1F4FF301019311938E01065F1F4FE6
:1011A0000D8B1E8BB1E0BF8BB0E0B88F54CF0D8597
:1011B0001E85006C0D871E8741C00A85003009F42A
:1011C000E9CE0A850C3609F4E9CE0A850C3409F417
:1011D000E5CE0A85063609F4E7CE0A85053409F41A
:1011E000E9CE0A85053609F4EACE0A85073609F400
:1011F000ECCE0A850F3609F4EECE0A85043609F4E2
:10120000F0CE0A85093609F4ECCE0A85003709F4D8
:10121000E9CE0A85083509F4E5CE0A85083709F4D0
:10122000E6CE0A85033709F4E8CE0A85033609F4C9
:10123000A6CF0A85053709F4BACFAFCF0D851E8535
:1012400000701770B02FB12B11F40C94A1110D8503
:101250001E8514FF04C0B6E0B887B0E0B987F3017B
:1012600001911191F80101911191219131910F8713
:10127000188B298B3A8BF301019111910C5F1F4F51
:10128000F301019311933F922F9240E050E060E010
:1012900070E00F85188929893A89F8D9002800E07B
:1012A00009F001E02F903F900023A9F00F851889E5
:1012B00029893A89B0E00B27B0E01B27B0E02B2743
:1012C000B0E83B270F87188B298B3A8B0D851E853D
:1012D00003600D871E87B0E0BB8BBC8B3F922F92C3
:1012E0000F85188929893A8940E050E060E070E074
:1012F0001CDA002800E009F001E02F903F90002365
:1013000009F48BC0AE014D5E5F4FFE013F96019127
:10131000119121913191B7E1369527951795079550
:10132000BA95D1F710700E571040FA01019311933E
:101330000B891C89015010400B8B1C8B43E050E043
:10134000ACD90B8B1C8B7F926F925F924F923F9226
:101350002F924AE050E0EAD88B012F903F904F90B7
:101360005F906F907F900B8B1C8B20E030E002171A
:10137000130734F40B891C89015010400B8B1C8B14
:101380000B8800E000197F926F925F924F923F921C
:101390002F92202E21DA2F903F904F905F906F90E8
:1013A0007F903F922F924F85588969897A8944D9D5
:1013B0000D8B1E8B2F8B388F40E050E060E87FE371
:1013C0000D891E892F89388D61D9002800E009F028
:1013D00001E02F903F90002339F00B891C890150C8
:1013E00010400B8B1C8B19C03F922F9240E050E0B5
:1013F00060E271E40D891E892F89388D8FD900280C
:1014000000E009F001E02F903F90002331F00B89BC
:101410001C890F5F1F4F0B8B1C8B2B893C8900E0B5
:1014200010E0021713071CF0B1E0BA8702C00B8965
:101430000A870D851E8510FD15C00D851E8511FFBF
:1014400010C02B893C890CEF1FEF2017310744F0A7
:101450002B893C8908851985201731070CF401C0B8
:1014600001C0B7C308851985B02FB12B51F00D8588
:101470001E8511FF06C00885198501501040088798
:1014800019872885398508E010E00217130718F43A
:10149000B8E0BA8702C008850A873F922F920F856D
:1014A000188929893A8940E050E060E070E03DD930
:1014B000002800E009F001E02F903F90002309F49C
:1014C000B8C07F926F925F924F923F922F922B887B
:1014D00083D9A801B9010F85188929893A8950D97A
:1014E0000F87188B298B3A8B0A8400E00019202E75
:1014F00073D9A801B9010F85188929893A8940D97A
:101500002F903F904F905F906F907F900F87188B38
:10151000298B3A8B11D9D3D83F922F92A801B901C8
:101520000F85188929893A89C0D840E050E060E0E9
:101530007FE3F4D80028B0E009F0B1E00B2F2F9042
:101540003F90002389F03F922F920F8518892989B7
:101550003A8940E050E060E07FE3D6D82F903F909A
:101560000F87188B298B3A8B0F85188929893A891F
:10157000E3D84A8550E04F5F5F4FBA01660F771F8F
:10158000660F771F44E952E0FB01E40FF51F459118
:101590005591659175910417150726073707C0F017
:1015A0003F922F920F85188929893A894DEC5CEC7E
:1015B0006CEC7DE341D82F903F900F87188B298BDF
:1015C0003A8B0B891C890F5F1F4F0B8B1C8B31C013
:1015D0000F85188929893A89AFD84A85642F70E028
:1015E000660F771F660F771F44E952E0FB01E40F97
:1015F000F51F4591559165917591041715072607BB
:101600003707B8F43F922F920F85188929893A89B4
:1016100040E050E060E271E40FD82F903F900F87D8
:10162000188B298B3A8B0B891C89015010400B8B2E
:101630001C8B0D851E8511FF6FC00D851E8513FD4A
:101640006BC0288539850AE010E00217130724F4DF
:10165000BAE0B887B0E0B9870F85188929893A8937
:101660006BD80D8B1E8B2F8B388F0D891E892F8980
:10167000388DB02FB12BB22BB32B49F14AE050E09B
:1016800060E070E00D891E892F89388D1BD88D018F
:101690009F01303029F4203019F4103009F4003063
:1016A000B1F40885198501501040088719874AE070
:1016B00050E060E070E00D891E892F89388D02D8D6
:1016C0008B019C010D8B1E8B2F8B388FCECF1885F5
:1016D00029850A851017B0E02B07F4F408840A85E1
:1016E00000197F926F925F924F923F922F92202E1D
:1016F00073D8A801B9010F85188929893A8940D87A
:101700002F903F904F905F906F907F900F87188B36
:10171000298B3A8B08850A872885398589010B5FD3
:101720001F4F08010B851C85001911090B871C87A9
:10173000B22FB32B29F40D851E8513FD01C006C001
:101740000B851C85015010400B871C870D851E855D
:1017500003701070B02FB12B31F00B851C85015038
:1017600010400B871C870D851E8502FF5CC00D8510
:101770001E8501FF1DC00D851E8500FF03C0BDE253
:10178000B88302C0BBE2B8837F926F925F924F92A0
:101790003F922F923F922F9228800F901F90F0013E
:1017A00009952F903F904F905F906F907F9018C059
:1017B0000D851E8500FF14C07F926F925F924F923D
:1017C0003F922F923F922F92B0E22B2E0F901F90BC
:1017D000F00109952F903F904F905F906F907F9010
:1017E0002B853C8500E010E002171307DCF47F92A4
:1017F0006F925F924F923F922F923F922F92B0E35F
:101800002B2E0F901F90F00109952F903F904F9035
:101810005F906F907F900B851C85015010400B8767
:101820001C87DECF5FC00D851E8503FD22C02B8582
:101830003C8500E010E002171307DCF47F926F9202
:101840005F924F923F922F923F922F92B0E22B2EB7
:101850000F901F90F00109952F903F904F905F904F
:101860006F907F900B851C85015010400B871C8763
:10187000DECF0D851E8501FF1DC00D851E8500FF75
:1018800003C0BDE2B98302C0BBE2B9837F926F920D
:101890005F924F923F922F923F922F9229800F900A
:1018A0001F90F00109952F903F904F905F906F909F
:1018B0007F9018C00D851E8500FF14C07F926F9227
:1018C0005F924F923F922F923F922F92B0E22B2E37
:1018D0000F901F90F00109952F903F904F905F90CF
:1018E0006F907F900F85188929893A890E949C03FF
:1018F0000D8B1E8B2F8B388F0A85202F30E0220F07
:10190000331F220F331F04E912E0F901E00FF11F2A
:1019100045915591659175910D891E892F89388D55
:101920000E9462038B019C01005D7F926F925F9227
:101930004F923F922F923F922F92202E0F901F9006
:10194000F00109952F903F904F905F906F907F909E
:1019500008851985B02FB12B29F40D851E8513FD3F
:1019600001C077C07F926F925F924F923F922F9209
:101970003F922F92BEE22B2E0F901F90F0010995FF
:101980002F903F904F905F906F907F900A84B0E0CF
:101990001B2E0885198500191109088719870A85E2
:1019A0000023B9F10A8501500A87202F30E0220F69
:1019B000331F220F331F04E912E0F901E00FF11F7A
:1019C00045915591659175910D891E892F89388DA5
:1019D0000E9462038B019C014AE050E060E070E0ED
:1019E0000E9462038D019F01005D7F926F925F9262
:1019F0004F923F922F923F922F92202E0F901F9046
:101A0000F00109952F903F904F905F906F907F90DD
:101A1000C6CF08851985B02FB12BD9F07F926F9270
:101A20005F924F923F922F923F922F92B0E32B2ED4
:101A30000F901F90F00109952F903F904F905F906D
:101A40006F907F900885198501501040088719878D
:101A5000E0CF0D851E8505FF15C07F926F925F92C6
:101A60004F923F922F923F922F92B5E42B2E0F90E0
:101A70001F90F00109952F903F904F905F906F90CD
:101A80007F9014C07F926F925F924F923F922F92FD
:101A90003F922F92B5E62B2E0F901F90F0010995E3
:101AA0002F903F904F905F906F907F902B893C8953
:101AB00000E010E020173107ECF40B881C8800E0F0
:101AC00010E0001911090B8B1C8B7F926F925F92B3
:101AD0004F923F922F923F922F92BDE22B2E0F906A
:101AE0001F90F00109952F903F904F905F906F905D
:101AF0007F9014C07F926F925F924F923F922F928D
:101B00003F922F92BBE22B2E0F901F90F001099570
:101B10002F903F904F905F906F907F907F926F9249
:101B20005F924F923F922F924AE050E00B891C89BE
:101B30000E9496028B012F903F90005D3F922F9262
:101B40003F922F92202E0F901F90F00109954AE0AE
:101B500050E00B891C890E9496028C012F903F90C7
:101B6000005D3F922F923F922F92202E0F901F9058
:101B7000F00109952F903F904F905F906F907F906C
:101B80000D851E8503FF24C02B853C8500E010E0F9
:101B900002171307ECF47F926F925F924F923F927D
:101BA0002F923F922F92B0E22B2E0F901F90F001B8
:101BB00009952F903F904F905F906F907F900B858D
:101BC0001C85015010400B871C87B02FB12B19F7D3
:101BD000CAC80D851E8511FFB3C02B893C8900E062
:101BE00010E0201731075CF40B891C89015010406C
:101BF00008010885198500191109088719870F85BB
:101C0000188929893A890E949C030D8B1E8B2F8B82
:101C1000388FB1E0BA870A850A30F1F00A85202FA3
:101C200030E0220F331F220F331F04E912E0F901C5
:101C3000E00FF11F45915591659175910D891E89B0
:101C40002F89388D041715072607370708F404C0B5
:101C50000A850F5F0A87DFCF0A84B0E01B2E088554
:101C6000198500191109088719870D891E892F897F
:101C7000388D0E945F033F922F92A801B9010F8512
:101C8000188929893A890E9455032F903F900F8F18
:101C900018A329A33AA37F926F925F924F923F922B
:101CA0002F9228840E94EC032F903F904F905F90DA
:101CB0006F907F904F8D58A169A17AA13F922F928A
:101CC0000E941C0340E050E060E07FE30E94840338
:101CD0002F903F900E949C030D8B1E8B2F8B388F73
:101CE00008851985B02FB12B59F14AE050E060E02A
:101CF00070E00D891E892F89388D0E9462038D0145
:101D00009F01303029F4203019F4103009F40030EC
:101D1000B9F44AE050E060E070E00D891E892F8937
:101D2000388D0E9462038B019C010D8B1E8B2F8BC3
:101D3000388F088519850150104008871987D0CF42
:101D4000288539850CE010E0021713078CF03F92CC
:101D50002F9228840E94ED054F85588969897A89D8
:101D60000E9484032F903F900F87188B298B3A8B0A
:101D70003F922F920F85188929893A8940E050E0D7
:101D800060E070E00E949503002800E009F001E0A7
:101D90002F903F90002309F46FC00F85188929897F
:101DA0003A890E949C03303029F4203019F4103015
:101DB00009F4003009F060C02B893C8901E010E093
:101DC000021713070CF058C07F926F925F924F92E8
:101DD0003F922F922B880E94EC03A801B9010F8536
:101DE000188929893A890E94C0032F903F904F900B
:101DF0005F906F907F903F922F924FE550E769E898
:101E000070E40E9446030028B0E009F0B1E00B2F17
:101E10002F903F90002339F00B891C890950104006
:101E20000B8B1C8B06C00B891C89085010400B8B38
:101E30001C8B7F926F925F924F923F922F922B88D2
:101E40000E94EC03A801B9010F85188929893A89F4
:101E50000E94C0032F903F904F905F906F907F90B3
:101E60000E949C030D8B1E8B2F8B388FB0E0BF8799
:101E7000B88BB98BBA8B23C00F85188929893A8909
:101E80000E949C030D8B1E8B2F8B388F0D891E8912
:101E90002F89388D0E945F033F922F92A801B901CC
:101EA0000F85188929893A890E9455032F903F9000
:101EB0000F87188B298B3A8BB0E0BB8BBC8BB1E0C2
:101EC000BA870A850A30F1F00A85202F30E0220F08
:101ED000331F220F331F04E912E0F901E00FF11F55
:101EE00045915591659175910D891E892F89388D80
:101EF000041715072607370708F404C00A850F5F83
:101F00000A87DFCF488559850A85202F30E0240FC6
:101F1000351F0B891C89020F131F08010B851C85B7
:101F2000001911090B871C870D851E8513FD06C03E
:101F300008851985B02FB12B09F406C00B851C85C7
:101F4000015010400B871C870D851E850370107093
:101F5000B02FB12B31F00B851C85015010400B8741
:101F60001C870D851E8502FF5CC00D851E8501FF47
:101F70001DC00D851E8500FF03C0BDE2BA8302C0EF
:101F8000BBE2BA837F926F925F924F923F922F9201
:101F90003F922F922A800F901F90F00109952F9069
:101FA0003F904F905F906F907F9018C00D851E8579
:101FB00000FF14C07F926F925F924F923F922F92D8
:101FC0003F922F92B0E22B2E0F901F90F0010995B7
:101FD0002F903F904F905F906F907F902B853C8526
:101FE00000E010E002171307DCF47F926F925F921B
:101FF0004F923F922F923F922F92B0E32B2E0F9051
:102000001F90F00109952F903F904F905F906F9037
:102010007F900B851C85015010400B871C87DECFFD
:102020005FC00D851E8503FD22C02B853C8500E029
:1020300010E002171307DCF47F926F925F924F92C9
:102040003F922F923F922F92B0E22B2E0F901F9033
:10205000F00109952F903F904F905F906F907F9087
:102060000B851C85015010400B871C87DECF0D852A
:102070001E8501FF1DC00D851E8500FF03C0BDE24A
:10208000BB8302C0BBE2BB837F926F925F924F9291
:102090003F922F923F922F922B800F901F90F00132
:1020A00009952F903F904F905F906F907F9018C050
:1020B0000D851E8500FF14C07F926F925F924F9234
:1020C0003F922F923F922F92B0E22B2E0F901F90B3
:1020D000F00109952F903F904F905F906F907F9007
:1020E0001A850A8501500A871123A9F10A85202F34
:1020F00030E0220F331F220F331F04E912E0F901F1
:10210000E00FF11F45915591659175910D891E89DB
:102110002F89388D0E9462038B019C014AE050E0B8
:1021200060E070E00E9462038D019F01005D7F927C
:102130006F925F924F923F922F923F922F92202E5A
:102140000F901F90F00109952F903F904F905F9056
:102150006F907F90C5CF2B893C8900E010E002177B
:102160001307DCF47F926F925F924F923F922F920F
:102170003F922F92B0E32B2E0F901F90F001099504
:102180002F903F904F905F906F907F900B891C89AC
:10219000015010400B8B1C8BDECF2885398508E061
:1021A00010E0021713071CF4B8E0BA8702C00885D4
:1021B0000A870A84B0E01B2E0885198500191109C9
:1021C000088719870A85002329F40D851E8513FDCC
:1021D00001C014C07F926F925F924F923F922F92F4
:1021E0003F922F92BEE22B2E0F901F90F001099587
:1021F0002F903F904F905F906F907F907F926F9263
:102200005F924F923F922F922A840E94EC032F906C
:102210003F904F905F906F907F903F922F924F85AD
:10222000588969897A890E941C032F903F900E94E7
:102230009C030D8B1E8B2F8B388F0A850023B9F1E1
:102240000A8501500A87202F30E0220F331F220F0A
:10225000331F04E912E0F901E00FF11F4591559198
:10226000659175910D891E892F89388D0E946203B1
:102270008B019C014AE050E060E070E00E94620344
:102280008D019F01005D7F926F925F924F923F920E
:102290002F923F922F92202E0F901F90F0010995C0
:1022A0002F903F904F905F906F907F90C6CF0885A2
:1022B0001985B02FB12BD9F07F926F925F924F9218
:1022C0003F922F923F922F92B0E32B2E0F901F90B0
:1022D000F00109952F903F904F905F906F907F9005
:1022E000088519850150104008871987E0CF0D85B2
:1022F0001E8503FF24C02B853C8500E010E00217FB
:102300001307ECF47F926F925F924F923F922F925D
:102310003F922F92B0E22B2E0F901F90F001099563
:102320002F903F904F905F906F907F900B851C8512
:10233000015010400B871C87B02FB12B19F70C945C
:10234000B3060D851E85007C1070103009F4003036
:1023500009F052C00D851E8504FF15C0F3010191DF
:102360001191F80101911191219131910D8B1E8BE9
:102370002F8B388FF301019111910C5F1F4FF301E7
:102380000193119316C0F30101911191F80101918C
:10239000119120E017FD2FEF322F0D8B1E8B2F8B0D
:1023A000388FF301019111910E5F1F4FF3010193DB
:1023B00011934D895E896F89788D00E010E020E0EF
:1023C00030E04017510762077307ACF40D851E8596
:1023D00003600D871E870D881E8800E010E000193D
:1023E00011090F88188C20E030E0200931090D8B8D
:1023F0001E8B2F8B388F2CC00D851E8504FF15C0BA
:10240000F30101911191F801019111912191319103
:102410000D8B1E8B2F8B388FF301019111910C5F67
:102420001F4FF3010193119313C0F3010191119117
:10243000F801019111910D8B1E8BB0E0BF8BB88F0D
:10244000F301019111910E5F1F4FF301019311935D
:1024500008851985103009F4003091F40D891E8922
:102460002F89388D303029F4203019F4103009F4D8
:10247000003031F4088519850F5F1F4F08871987D1
:102480000D85007C802F6CC0B1E0BA870A850A30C8
:10249000F1F00A85202F30E0220F331F220F331F67
:1024A00004E912E0F901E00FF11F459155916591A2
:1024B00075910D891E892F89388D041715072607F8
:1024C000370708F404C00A850F5F0A87DFCF53C0BF
:1024D000B1E0BA870A850830F1F00A85202F30E094
:1024E000220F331F220F331F0CEB12E0F901E00F14
:1024F000F11F45915591659175910D891E892F891F
:10250000388D041715072607370708F404C00A8515
:102510000F5F0A87DFCF2FC0B1E0BA870A850C3082
:10252000F1F00A85202F30E0220F331F220F331FD6
:1025300004E612E0F901E00FF11F45915591659114
:1025400075910D891E892F89388D04171507260767
:10255000370708F404C00A850F5F0A87DFCF0BC076
:10256000803009F491CF803C09F48ECF803809F493
:10257000AFCF803489F20A852885398510E00217AB
:1025800013071CF408850A870BC0188529850A855E
:102590001017B0E02B0724F40A850887B0E0B9874C
:1025A0000B851C85B02FB12B69F00D851E8503703E
:1025B0001070B02FB12B31F00B851C8501501040ED
:1025C0000B871C872B853C85088519850217130707
:1025D0004CF4088419840B851C85001911090B879C
:1025E0001C8703C0B0E0BB87BC870D851E85047CBB
:1025F0001870183009F4003461F40B851C85B02F75
:10260000B12B31F00B851C85015010400B871C87C6
:1026100019C00D851E85007C1870183009F400382B
:1026200089F42B853C8502E010E0021713073CF487
:102630000B851C85025010400B871C8703C0B0E03F
:10264000BB87BC870D851E8502FF95C00D851E8545
:1026500001FF1DC00D851E8500FF03C0BDE2BC83C8
:1026600002C0BBE2BC837F926F925F924F923F9217
:102670002F923F922F922C800F901F90F00109957E
:102680002F903F904F905F906F907F9051C00D853D
:102690001E8500FF15C07F926F925F924F923F920E
:1026A0002F923F922F92B0E22B2E0F901F90F001AD
:1026B00009952F903F904F905F906F907F9038C01A
:1026C0000D851E85007C1870183009F4003881F5DE
:1026D0007F926F925F924F923F922F923F922F92F2
:1026E000B0E32B2E0F901F90F00109952F903F9093
:1026F0004F905F906F907F900D851E8505FF03C002
:10270000B8E5BD8302C0B8E7BD837F926F925F9248
:102710004F923F922F923F922F922D800F901F90B9
:10272000F00109952F903F904F905F906F907F90B0
:102730000B851C85B02FB12BE9F07F926F925F92D1
:102740004F923F922F923F922F92B0E32B2E0F90F9
:102750001F90F00109952F903F904F905F906F90E0
:102760007F900B851C85015010400B871C87B02F74
:10277000B12B19F7B4C00B851C85B02FB12B09F113
:102780000D851E8503FD1DC07F926F925F924F9253
:102790003F922F923F922F92B0E22B2E0F901F90DC
:1027A000F00109952F903F904F905F906F907F9030
:1027B0000B851C85015010400B871C87B02FB12B57
:1027C00019F70D851E8501FF1DC00D851E8500FFB3
:1027D00003C0BDE2BE8302C0BBE2BE837F926F92A4
:1027E0005F924F923F922F923F922F922E800F90A6
:1027F0001F90F00109952F903F904F905F906F9040
:102800007F9018C00D851E8500FF14C07F926F92C7
:102810005F924F923F922F923F922F92B0E22B2ED7
:102820000F901F90F00109952F903F904F905F906F
:102830006F907F900D851E85007C1870183009F40C
:102840000034A9F47F926F925F924F923F922F9241
:102850003F922F92B0E32B2E0F901F90F00109951D
:102860002F903F904F905F906F907F9038C00D8574
:102870001E85007C1870183009F4003881F57F92AD
:102880006F925F924F923F922F923F922F92B0E3BE
:102890002B2E0F901F90F00109952F903F904F9095
:1028A0005F906F907F900D851E8505FF03C0B8E592
:1028B000BF8302C0B8E7BF837F926F925F924F924F
:1028C0003F922F923F922F922F800F901F90F001F6
:1028D00009952F903F904F905F906F907F90288543
:1028E00039850A8510E002171307ACF47F926F92C6
:1028F0005F924F923F922F923F922F92B0E32B2EF6
:102900000F901F90F00109952F903F904F905F908E
:102910006F907F90E4CF288539850885198501500F
:10292000104008871987B22FB32B09F4B3C00D8567
:10293000007C0F8F8FC0088519859801220F331FE7
:10294000220F331F04E912E0F901E00FF11F459156
:102950005591659175910D891E892F89388D0E9439
:1029600062038B019C014AE050E060E070E00E944D
:1029700062038D019F01005D0A8778C00D851E8569
:1029800005FF26C0088519859801220F331F220FE5
:10299000331F0CEB12E0F901E00FF11F4591559147
:1029A000659175910D891E892F89388D0E9462036A
:1029B0008B019C01A801B9014F705070607070705C
:1029C0000DEE12E0F801E40FF51F04910A8725C00F
:1029D000088519859801220F331F220F331F0CEB36
:1029E00012E0F901E00FF11F459155916591759144
:1029F0000D891E892F89388D0E9462038B019C01ED
:102A0000A801B9014F705070607070700CED12E049
:102A1000F801E40FF51F04910A8728C0088519857D
:102A20009801220F331F220F331F04E612E0F90131
:102A3000E00FF11F45915591659175910D891E89A2
:102A40002F89388D0E9462038B019C010770005D05
:102A50000A870CC00F8D003009F46DCF003C09F4DB
:102A60006ACF003809F48ACF0034C1F27F926F92A6
:102A70005F924F923F922F923F922F922A840F9013
:102A80001F90F00109952F903F904F905F906F90AD
:102A90007F9041CF0D851E8503FF24C02B853C858B
:102AA00000E010E002171307ECF47F926F925F9240
:102AB0004F923F922F923F922F92B0E22B2E0F9087
:102AC0001F90F00109952F903F904F905F906F906D
:102AD0007F900B851C85015010400B871C87B02F01
:102AE000B12B19F70C94B306098D1A8DA296CDBFA0
:082AF000DEBFDF91CF910895D4
:060B90000E94A915089562
:100B80002092C309B091C209B7FD01C0FBCF0895FF
:000B900065
:100BB800B091B108B5FD01C0FBCFB091B108B6FF47
:100BC80005C0B091B108B064B093B1082092B008E4
:020BD80008957E
:100B9600B091A109B5FD01C0FBCFB091A109B6FF87
:100BA60005C0B091A109B064B093A1092092A00933
:020BB6000895A0
:100B5E00B091B109B5FD01C0FBCFB091B109B6FF9F
:100B6E0005C0B091B109B064B093B1092092B0093B
:020B7E000895D8
:1007B600B091A10AB5FD01C0FBCFB091A10AB6FF69
:1007C60005C0B091A10AB064B093A10A2092A00A14
:0207D600089584
:10079400B091A10BB5FD01C0FBCFB091A10BB6FF89
:1007A40005C0B091A10BB064B093A10B2092A00B33
:0207B4000895A6
:100B4A0009E3021528F0B0E32B1610F001E001C00A
:040B5A0000E008951A
:1007D800CF93DF93CDB7DEB72497CDBFDEBF219689
:1007E800B0E02B160CF0D5C000E00219202E0E3612
:1007F8000CF475C044E62F9250E047FD5FEF022DE0
:1008080010E027FC1FEF8EDE062F2F9010E007FD6B
:100818001FEF0E5E1F4F9801220F331F220F331F49
:100828000CEF11E0F901E00FF11F059115912591E9
:100838003591088319832A833B8344E62F9250E03D
:1008480047FD5FEF022D10E027FC1FEF6BDE082F3E
:100858004AE010E007FD1FEF50E047FD5FEF62DE62
:10086800062F10E007FD1FEF075F1F4F9801220FAB
:10087800331F220F331F0CEF11E0F901E00FF11FB6
:100888004591559165917591088119812A813B811E
:10089800CFDE2F90088319832A833B834AE050E0F8
:1008A80047FD5FEF022D10E027FC1FEF3BDE082F0E
:1008B800202F30E007FD3FEF220F331F220F331F99
:1008C8000CEF11E0F901E00FF11F45915591659189
:1008D8007591088119812A813B81AADE2CC10AE021
:1008E80002150CF044C04AE02F9250E047FD5FEF3C
:1008F800022D10E027FC1FEF15DE062F2F9010E0C9
:1009080007FD1FEF075F1F4F9801220F331F220FAC
:10091800331F0CEF11E0F901E00FF11F059115915C
:1009280025913591088319832A833B834AE050E057
:1009380047FD5FEF022D10E027FC1FEFF3DD082FC6
:10094800202F30E007FD3FEF220F331F220F331F08
:100958000CEF11E0F901E00FF11F459155916591F8
:100968007591088119812A813B8162DEE4C0222DBC
:1009780030E027FC3FEF220F331F220F331F0CEF0D
:1009880011E0F901E00FF11F0591159125913591BD
:10099800D2C0BEE62B160CF475C044E62F9250E088
:1009A80047FD5FEF022D10E027FC1FEFBBDD062F90
:1009B8002F9010E007FD1FEF0E5E1F4F9801220FCA
:1009C800331F220F331F00E312E0F901E00FF11F7C
:1009D8000591159125913591088319832A833B83C5
:1009E80044E62F9250E047FD5FEF022D10E027FC10
:1009F8001FEF98DD082F4AE010E007FD1FEF50E0D9
:100A080047FD5FEF8FDD062F10E007FD1FEF075F43
:100A18001F4F9801220F331F220F331F00E312E0EC
:100A2800F901E00FF11F4591559165917591088184
:100A380019812A813B81FCDD2F90088319832A8341
:100A48003B834AE050E047FD5FEF022D10E027FCB2
:100A58001FEF68DD082F202F30E007FD3FEF220F42
:100A6800331F220F331F00E312E0F901E00FF11FDB
:100A78004591559165917591088119812A813B812C
:100A8800D7DD59C00AE002150CF044C04AE02F92A5
:100A980050E047FD5FEF022D10E027FC1FEF42DD1D
:100AA800062F2F9010E007FD1FEF075F1F4F9801DB
:100AB800220F331F220F331F00E312E0F901E00F6A
:100AC800F11F0591159125913591088319832A8382
:100AD8003B834AE050E047FD5FEF022D10E027FC22
:100AE8001FEF20DD082F202F30E007FD3FEF220FFA
:100AF800331F220F331F00E312E0F901E00FF11F4B
:100B08004591559165917591088119812A813B819B
:100B18008FDD11C0222D30E027FC3FEF220F331F5D
:100B2800220F331F00E312E0F901E00FF11F0591D6
:100B38001591259135912396CDBFDEBFDF91CF91D9
:020B480008950E
:10052C00C801BA0197FB092E07260AD077FD04D023
:10053C000CD006D000201AF4709561957F4F089569
:10054C00F6F7909581959F4F0895AA1BBB1B51E11F
:10055C0007C0AA1FBB1FA617B70710F0A61BB70B27
:10056C00881F991F5A95A9F780959095BC01CD01CC
:04057C000895089541
:10063800042E152E262E372E2CDF002E112E222EBC
:04064800332E0895B0
:10049A00B9DF81F1E62ED52EC42EB32EA22E912ECF
:1004AA00802E002D112D222D332DACDF19F16E2552
:1004BA004C0D5D1D40385307F4F441387FEF570760
:1004CA00FCF088279927AA27BB2770E2B695A7953B
:1004DA0097958795379527951795079520F4880D51
:1004EA00991DAA1DBB1D7A9589F7032F3A2F292F2B
:1004FA00182FA0DF0AC00FEF102F2FE73FE7FACF20
:0C050A000027102F202F302FF5CF089570
:10040E009CDF79F0632F6078220F331F432F5FE755
:10041E00451B55275040269530E8232B33279894BB
:0A042E0003C04427552766270895F0
:10034800002329F4112319F4222309F433230895EF
:00035800A5
:10043E0084DF11F19F938F938EE790E0332351F079
:10044E00369527951795079548175907B4F44F5FBA
:10045E005F4FF4CF80959095019622239AF0000F6E
:10046E00111F221F481759071CF041505040F5CF5D
:10047E00002711272227332708C033270FEF102F0D
:0C048E002FE7322F8F919F914EDF0895D1
:1003340009D039F041585F4F342F220F3695279555
:04034400362B0895B7
:100BDA00CF93DF93CDB7DEB72497CDBFDEBF219683
:100BEA00BEE62B1608F45AC044E6022D34DD10E0A6
:100BFA000E5E1F4F9801220F331F220F331F0CEF77
:100C0A0011E0F901E00FF11F059115912591359138
:100C1A002F9240E050E060E07FE309DD2F900883E7
:100C2A0019832A833B8344E6022D15DD092F4AE006
:100C3A0012DD10E0075F1F4F9801220F331F220FAA
:100C4A00331F0CEF11E0F901E00FF11F45915591A7
:100C5A0065917591088119812A813B812F92E7DC80
:100C6A002F90088319832A833B834AE0022DF3DC01
:100C7A00092F202F30E0220F331F220F331F0CEFD2
:100C8A0011E0F901E00FF11F4591559165917591B8
:100C9A00088119812A813B81CADC4FC00AE002150A
:100CAA00C0F54AE0022DD7DC10E0075F1F4F98011C
:100CBA00220F331F220F331F0CEF11E0F901E00F4F
:100CCA00F11F05911591259135912F9240E050E041
:100CDA0060E07FE3ACDC2F90088319832A833B838F
:100CEA004AE0022DB8DC092F202F30E0220F331FF3
:100CFA00220F331F0CEF11E0F901E00FF11F4591AC
:100D0A00559165917591088119812A813B818FDC02
:100D1A0014C0222D30E0220F331F220F331F0CEF95
:100D2A0011E0F901E00FF11F059115912591359117
:100D3A0040E050E060E07FE37ADC2396CDBFDEBF7F
:060D4A00DF91CF91089536
:10066000992779E004C0991F941708F0941B001F84
:080670007A95C9F70095089581
:10069A009801249F8001259F100D349F100D089505
:0006AA0050
:0E068C00DFDF1CF40024039401C00024089555
:0E064C00042E152E262E372E60DF0023089573
:1005160090DF332332F015DF11F001E003C000272E
:0605260001C00FEF089573
:0604380068948EDF0895B8
:10035800E6DF09F441C0E62ED52EC42EB32EA22E18
:10036800912E802E002D112D222D332DD8DF09F44A
:100378003DC0842F952F8C199D09B9F072F4909582
:10038800809501964C2D5D2D883180F53595279502
:10039800179507950197D1F708C08831E8F4B59407
:1003A800A794979487940197D1F766272EF0080DA4
:1003B800191D2A1D3B1D09C0801A910AA20AB30AF9
:1003C800082D192D2A2D3B2D332312F49FDF60E8C9
:1003D80032D001C0ABDF16C0002D112D222D332DD8
:1003E800D6F7AEDFC1F340E83427F5CF082D192D35
:1003F8002A2D3B2D4C2D5D2D6E2D33235AF786DF8C
:0604080060E8E8CF089552
:0E03260073D021F0662309F0F2DF9894089559
:1003140000951095209530950F5F1F4F2F4F3F4F3D
:0203240008953A
:0E072A0090DF19F00024039401C0002408950C
:0E071C0097DF1CF00024039401C00024089510
:10078000042E152E262E372EFBDE002E112E222EA5
:04079000332E089567
:100580003F932F931F930F93002D112D222D332D69
:100590003EDF09F44BC0E62ED52EC42EB32EA22E7C
:1005A000912E802E0F911F912F913F9130DF61F19D
:1005B0006E254C195D09403853073CF541387FEFF3
:1005C00057077CF180E27724632E522E412E302F84
:1005D000222711270027000F111F221F331F441C41
:1005E000551C661C771C28F0481859086A087B08B7
:1005F00004C0480C591C6A1C7B1C0AF001608A95D7
:1006000051F7415050401BDF16C00FEF102F2FE75E
:100610003FE76623C9F398DEB9F3342D30E834257B
:10062000F3CF0027102F202F302FEECF0F900F90F9
:080630000F900F90EACF08952E
:100738006ADEF1F05523C2F04F31A8F44731C1F019
:1007480050F44195495E05C035952795179507954D
:100758004A95D1F70DC04751000F111F221F331FB3
:100768004A95D1F705C03FE7232F132F032F03C066
:08077800662309F0CBDD0895B2
:0606BE006894DBDF0895E3
:1006780047E16627552726F0332312F447DE60E862
:04068800DADE089519
:1006AA00042E152E262E372EC2DE002E112E222EB5
:0406BA00332E08953E
:10070800042E152E262E372EA4DF002E112E222E73
:04071800332E0895DF
:06065A00E8947DDE089526
:1006C400C9019A01AB01B801A1E21A2EAA1BBB1BF6
:1006D400FD010DC0AA1FBB1FEE1FFF1FA217B3070A
:1006E400E407F50720F0A20BB30BE40BF50B661F30
:1006F400771F881F991F1A9469F7609570958095E4
:04070400909508952F
:0A2BD00005900D920197E1F70895BA
:102B7400B9EAB0930D20B5E1B0930E20BFEFB09346
:102B84000F20BFEFB0931020BFEFB0931320BFEF1F
:102B9400B0931420BFEFB0931120BFEFB093122075
:102BA400B0914206B460B0934206B0914106B86059
:102BB400B0934106B0E0B093A3080091A408086163
:0C2BC4000093A408B3E0B093A5080895A6
:102EBA00A0E0B0E2EEEFF2E08DE090E00E94E815CB
:022ECA00089569
:09030B006373302025780D0A000F
:10029400010000000A00000064000000E803000000
:1002A40010270000A086010040420F0080969800AD
:0802B40000E1F50500CA9A3BC8
:1002BC000100000010000000000100000010000010
:1002CC000000010000001000000000010000001000
:10026400010000000800000040000000000200003F
:1002740000100000008000000000040000002000C6
:100284000000000100000008000000400000000021
:1002ED00303132333435363738394142434445465F
:0102FD000000
:1002DC0030313233343536373839616263646566B0
:0102EC000011
:1001FC000000803FCDCCCC3D0AD7233C6F12833A14
:10020C0017B7D138ACC52737BD37863595BFD63330
:10021C0077CC2B325F708930FFE6DB2E08E53C1E75
:04022C006042A20D7D
:100230000000803F000020410000C84200007A44D6
:1002400000401C460050C347002474498096184B58
:1002500020BCBE4C286B6E4EF9021550EC78AD6098
:04026000CAF2497124
:0502FE006E756C6C0040
:0803030068656C6C6F0D0A00C7
:00000001FF
