:100000000C94C1320C9400000C9400000C9400007D
:100010000C9400000C9400000C9400000C94000060
:100020000C9400000C9400000C9400000C94000050
:100030000C9400000C9400000C94B3320C9400005B
:100040000C9400000C9400000C9400000C94000030
:100050000C9400000C9400000C9400000C94000020
:100060000C9400000C9400000C9400000C94000010
:100070000C9400000C9400000C9400000C94000000
:100080000C9400000C9400000C9400000C940000F0
:100090000C9400000C9400000C9400000C940000E0
:1000A0000C9400000C9400000C9400000C940000D0
:1000B0000C9400000C9400000C9400000C940000C0
:1000C0000C9400000C9400000C9400000C940000B0
:1000D0000C9400000C9400000C9400000C940000A0
:1000E0000C940000000000000C9400000C94000030
:1000F0000C94000000000000000000000000000060
:100100000C9400000C9400000C9400000C9400006F
:100110000C9400000C9400000C9400000C9400005F
:100120000C9400000C9400000C94000000000000EF
:10013000000000000C9400000C9400000C940000DF
:100140000C9400000C9400000C9400000C9400002F
:100150000C9400000C9400000C9400000C9400001F
:100160000C9400000C9400000C9400000C9400000F
:100170000C9400000C94000000000000000000003F
:10018000000000000000000000000000000000006F
:10019000000000000000000000000000000000005F
:1001A0000C9400000C94000000000000000000000F
:1001B0000C9400000C9400000C9400000C940000BF
:1001C0000C9400000C9400000000000000000000EF
:1001D0000000000000000000000000000C9400007F
:1001E0000C9400000C9400000000000000000000CF
:0C01F000000000000C9400000C940000C3
:10658200BFEFBDBFBFE5BEBF0E94E2322F923F9276
:10659200F0DEBBE22B2EB0E23B2E89DFB4E0BF93EC
:1065A200B4EEBF93BDE1BF93BAE9BF9355DFADB778
:1065B200BEB71496ADBFBEBFA0DFFECF3F902F90F7
:0265C200FFCF09
:106374002F923F924F925F926F927F9213DEE8DDED
:10638400B091A408B460B093A408B2E2B093A60894
:10639400B0E0B093A708B9DFBFEF6B2EBFEF7B2E41
:1063A400BDE94B2EBDE15B2EBFEF2B2EBFEF3B2E85
:1063B400BFEFBF93BFEFBF9326DEADB7BEB7129654
:1063C400ADBFBEBF4424B1E03B2EB0E12B2EF8DDBF
:1063D400BDE44B2EBDE15B2EB3EE2B2EBBE13B2E79
:1063E4000E944E1EB3EEB0938121BBE1B093822193
:1063F400B1E06B2EB7E24B2EB0E25B2EBDE12B2E4B
:10640400B0E23B2E0E94AE1DB8E06B2EB1E27B2EB3
:10641400B3E04B2EB1E25B2EB3E22B2EB0E23B2E67
:106424000CDE60DFB0E44B2EB2E45B2EBFE06B2EDB
:10643400B0E07B2EB0E02B2EB8E03B2E3FDEB0E088
:106444002B2EB8E03B2E55DF7F906F905F904F90DE
:066454003F902F90089517
:105FA800B2E0B0935000B0915100B1FD01C0FBCFF9
:0C5FB800B8EDB4BFB1E0B0934000089514
:105F5400B0914006B068B0934006B0914006B0627C
:105F6400B0934006B0914006BF7BB0934006B09119
:105F74002006BF7BB0932006B0912406BF7BB0936C
:105F84002406B0914006B160B0934006B09140063B
:105F9400B260B0934006BFEFB0936106BFEFB09319
:045FA40066060895F0
:10600A00CF93DF93CDB7DEB7269608811981209208
:10601A005F21309260214092612150926221009367
:10602A006721109368216092692170926A21DF9139
:04603A00CF91089565
:105FC400B3EEB0938121BBE1B0938221BDE4B093E1
:105FD4006321BDE1B0936421B0EBB0934106B0E41A
:105FE400B0934206B0E0B093C108032D03700429B6
:105FF400022900640093C00832FAB091C008B7F9CE
:06600400B093C0080895EE
:103C9C0020928121309282214092632150926421A2
:023CAC00089579
:103B5C002F923F924F925F927F92B0910406B16088
:103B6C00B0930406B0910006B160B0930006B0911A
:103B7C004406B160B0934406B0914006B160B09376
:103B8C004006B0914406B160B0934406FCDDB091A0
:103B9C000406B160B0930406F6DDB0910406BE7F56
:103BAC00B0930406F0DDB0910406B160B093040646
:103BBC00EADDB0914406BE7FB09344066F925F92EB
:103BCC004F923F922F92BFEF2B2EE0918121F091DB
:103BDC00822109952F903F904F905F906F90B091FC
:103BEC004406B160B0934406CEDD6F925F924F9263
:103BFC00B6E06B2EB0E07B2E2101BEE02B2EB1E2A5
:103C0C003B2EA8DD4F905F90B4E06B2EB0E07B2E86
:103C1C00BDE72B2EB1E23B2E9DDDB1E03B2EBFE18B
:103C2C002B2EC2DEB2E03B2EBFE12B2EBDDE3324A9
:103C3C004424B8E02B2ED5DEBDEA3B2EB9E14B2E49
:103C4C00BAE02B2ECEDEBDEA3B2EB9E14B2EBCE00A
:103C5C002B2EC7DE332444242224C3DEBEEA3B2EA3
:103C6C00B9E14B2EB4E02B2EBCDEB1E03B2EBFE114
:103C7C002B2E9ADEB2E03B2EBFE12B2EA8DD6F90EF
:103C8C00262CC2DD7F905F904F903F902F9008952F
:003C9C0028
:10379200CF93DF93CDB7DEB72197CDBFDEBF2196A2
:1037A200B0E0B8830881083C40F40E948C0B0E9470
:1037B2008C0B08810F5F0883F5CFCDBFDEBFDF9191
:0437C200CF91089506
:1017180015E101EB0A95F1F71A95E1F700000000D1
:02172800089522
:1037C6002092C308B091C208B7FD01C0FBCF00919B
:0437D600C308089587
:10374C002092C309B091C209B7FD01C0FBCF009113
:04375C00C309089500
:10376000A201B10193018301015010403801B22F31
:10377000B32B69F0FA010081FB0100838B010F5F1D
:103780001F4FB8018A010F5F1F4FA801EBCF8101C6
:0237900008959A
:1039B4002F92B0914406BE7FB0934406022D006A54
:1039C4003F92202EE0918121F091822109953F9030
:1039D400232CE0918121F09182210995B091440634
:0A39E400B160B09344062F900895DF
:1039EE00CF93DF93CDB7DEB72297CDBFDEBF219643
:1039FE002F9238824982B0914406BE7FB09344061E
:103A0E00022D0064202EE0918121F09182210995F2
:103A1E002880E0918121F091822109958E01F80193
:103A2E0031960081202EE0918121F091822109951D
:103A3E00B0914406B160B09344062F902196CDBF4D
:083A4E00DEBFDF91CF91089566
:1037DA002F92B0914406BE7FB0934406022D006832
:1037EA003F92202EE0918121F091822109953F900C
:1037FA00232CE0918121F09182210995B091440610
:0A380A00B160B09344062F900895BA
:10381400CF93DF93CDB7DEB72297CDBFDEBF21961E
:103824002F923F924F925F926F92222011F00DE0FF
:1038340001C005E02F92302E22240E945E092F90B1
:10384400222011F001E301C000E32F92302EB2E0F8
:103854002B2E0E945E09BEEE3B2EB5E04B2EBAE045
:103864002B2EC3D02F90222011F005E101C002E1DC
:103874002F92302EB4E02B2E0E945E09B2E13B2E33
:10388400B6E02B2E0E945E092F90222041F42F9245
:10389400BCE03B2EB7E02B2E0E945E092F90222025
:1038A40041F42F92BFE33B2EB9E02B2E0E945E0918
:1038B4002F902F92B1E03B2EBFE12B2E8CDFB2E094
:1038C4003B2EBFE12B2E87DF30900E21B4E02B2E50
:1038D4000E945E0930900F21B5E02B2E0E945E09F4
:1038E40030901021B2E02B2E0E945E0930901121FD
:1038F400B3E02B2E0E945E093090122122240E94F4
:103904005E0930901321B1E02B2E0E945E0933240E
:10391400B5E12B2E0E945E09B2E12B2E0E946E0AA5
:10392400009318219E012F5F3F4F8E01522E632E6C
:10393400302E412E22240E94BA0B2F9008810E7F34
:10394400222011F011E001C010E0012B4980302E3B
:1039540022240E946B104424B1E03B2EB0E12B2EB4
:103964000E946B10B4E03B2EBFE12B2E34DF0FDF3F
:10397400BDE25B2EB0E06B2E4424BAE12B2EB1E203
:103984003B2E0E949310B1E03B2EBFE12B2E10D0B2
:10399400B2E03B2EBFE12B2E0BD06F905F904F9087
:1039A4003F902F902196CDBFDEBFDF91CF91089538
:0039B40013
:1012BC002F92B0914406BE7FB0934406022D006479
:1012CC003F92202EE0918121F091822109953F904F
:1012DC00232CE0918121F09182210995B091440653
:0A12EC00B160B09344062F900895FE
:1014DC002F92B0914406BE7FB0934406E0918121D7
:1014EC00F091822109952224E0918121F0918221B1
:1014FC000995B0914406B160B09344062F900895BD
:00150C00DF
:101774002F926F925F924F923F922F92B1E03B2E45
:10178400BFE12B2E0E94DA1CB2E03B2EBFE12B2ED0
:101794000E94ED1B2F90322CB4E12B2E8DDDB1E095
:1017A4003B2EB2E12B2E0E94ED1B3F904F905F9099
:1017B4006F900E94C91B6F925F924F923F92B1E06B
:1017C4003B2EB2E12B2E0E94DA1CB6E12B2E84DED6
:1017D4003F904F905F906F90E52DF62D00834F92D0
:1017E4003F92B7E12B2E78DE3F904F90E32DF42DFE
:0617F40000832F90089510
:1020D6002F924F923F922F92B1E03B2EBFE12B2ED3
:1020E6000E94DA1CB2E03B2EBFE12B2E0E94ED1BB4
:1020F6002F90322CB4E12B2EDED83F904F900E94C9
:10210600C91B3F92342CB6E12B2ED5D83F900E94A6
:10211600C91BB7E12B2ECFD80E94C91B2F9008955B
:00212600B9
:10212600A101252D362D052D162D01501040502EBE
:10213600612EB22FB32B39F0FA0140828A010F5F6C
:0A2146001F4FA801EECF810108959C
:10603E002F923F924F925F926F927F927F926F92CA
:10604E005F924F92B4E06B2EB0E07B2E2101B9E748
:10605E002B2EB1E23B2E0E94B01B4F905F90B4E00E
:10606E006B2EB0E07B2EB1E72B2EB1E23B2E0E94C1
:10607E00B01B6F907F902301B4E06B2EB0E07B2EAF
:10608E00B5E72B2EB1E23B2E0E94B01BBBE62B2EAA
:10609E00B1E23B2E0E94021B7F906F905F904F905B
:0660AE003F902F900895C1
:103604004F925F926F927F92B4E06B2EB0E07B2E6C
:10361400BDE74B2EB1E25B2EA1D050E003E00517CD
:10362400C0F0352F40E0320D431DE32FF42F2081ED
:1036340009E711E2E52FF0E0E00FF11F0081BFEF91
:103644000B27022BE32FF42F0083052F0F5F502F3E
:0C365400E5CF7F906F905F904F9008953D
:0E62E800B4E0B093A200BFB7B068BFBF089586
:1060C000CF93DF93CDB7DEB72C97CDBFDEBF219640
:1060D0002E823F8281010A5D1F4F088719870F5F5B
:1060E0001F4F0A871B870E94301B088319832A834E
:1060F0003B830E94F31A7F926F925F924F92A801A6
:10610000B90100E010E020E83CE40E94F71A4F904B
:106110005F906F907F9040E050E06AE774E40E94E7
:10612000751B0E94801BA801B901041515052605E1
:10613000370510F42A013B0148EE53E060E070E0BF
:10614000088119812A813B810E94351B8B019C01AA
:10615000088319832A833B83A201B3010E94571B42
:1061600028013901303029F4203019F41F3F09F497
:106170000F3F48F4EE81FF81B1E0B083B1E0BC8312
:10618000B0E0BD8371C0B0E07B1641F4B1E06B16A6
:1061900029F4BFEF5B1611F4BEEF4B1648F4EE8105
:1061A000FF81B2E0B083B2E0BC83B0E0BD835CC0ED
:1061B000B0E07B1641F4B3E06B1629F4BFEF5B1639
:1061C00011F4BCEF4B1648F4EE81FF81B3E0B083CD
:1061D000B4E0BC83B0E0BD8347C0B0E07B1641F4BF
:1061E000B7E06B1629F4BFEF5B1611F4B8EF4B164E
:1061F00048F4EE81FF81B4E0B083B8E0BC83B0E046
:10620000BD8332C0B0E07B1641F4BFE36B1629F4C6
:10621000BFEF5B1611F4B0EC4B1648F4EE81FF8132
:10622000B5E0B083B0E4BC83B0E0BD831DC0B0E096
:106230007B1641F4BFEF6B1629F4BFEF5B1611F428
:10624000B0E04B1648F4EE81FF81B6E0B083B0E0D9
:10625000BC83B1E0BD8308C0EE81FF81B7E0B083AD
:10626000B0E0BC83B4E0BD834C815D8160E0762FFB
:10627000820193010E94351B8B019C01E885F98501
:1062800000834C815D8160E0762F820193010E9442
:10629000351B8B019C01012F122F232F30E0EA8543
:1062A000FB850083EA85FB85008110E0302F2227E3
:1062B000E885F985008110E0020F131F20E0322FDE
:1062C000488159816A817B810E94351B8B019C0129
:1062D0004C815D8160E0762F0E94571B2B96CDBFCD
:0862E000DEBFDF91CF910895AC
:0A36600000E01DE720E030E00895CF
:0835E60068940E940808089592
:1010100047E16627552726F0332312F415DD60E8F3
:04102000E5DC08956E
:100A480000951095209530950F5F1F4F2F4F3F4F02
:020A58000895FF
:1009EC00E2DF11F19F938F938EE790E0332351F068
:1009FC00369527951795079548175907B4F44F5F07
:100A0C005F4FF4CF80959095019622239AF0000FBA
:100A1C00111F221F481759071CF041505040F5CFA9
:100A2C00002711272227332708C033270FEF102F59
:0C0A3C002FE7322F8F919F9185DF0895E6
:1009B200002329F4112319F4222309F4332308957F
:0009C20035
:1009500030D039F041585F4F342F220F369527950C
:04096000362B089595
:1035EE00042E152E262E372E0E943D08002E112E4B
:0635FE00222E332E089579
:10107A003F932F931F930F93002D112D222D332D64
:10108A009BDC09F44BC0E62ED52EC42EB32EA22E1D
:10109A00912E802E0F911F912F913F918DDC61F13E
:1010AA006E254C195D09403853073CF541387FEFEE
:1010BA0057077CF180E27724632E522E412E302F7F
:1010CA00222711270027000F111F221F331F441C3C
:1010DA00551C661C771C28F0481859086A087B08B2
:1010EA0004C0480C591C6A1C7B1C0AF001608A95D2
:1010FA0051F74150504075DC16C00FEF102F2FE703
:10110A003FE76623C9F350DCB9F3342D30E83425C0
:10111A00F3CF0027102F202F302FEECF0F900F90F4
:08112A000F900F90EACF089529
:1009C200F7DF79F0632F6078220F331F432F5FE741
:1009D200451B55275040269530E8232B3327989402
:0A09E20003C0442755276627089537
:1036EA00042E152E262E372E0E94D908002E112EB2
:0636FA00222E332E08957C
:1011B20007DC81F1E62ED52EC42EB32EA22E912E5F
:1011C200802E002D112D222D332DFADB19F16E25E3
:1011D2004C0D5D1D40385307F4F441387FEF57073B
:1011E200FCF088279927AA27BB2770E2B695A79516
:1011F20097958795379527951795079520F4880D2C
:10120200991DAA1DBB1D7A9589F7032F3A2F292F05
:10121200182FEBDB0AC00FEF102F2FE73FE7FACFB3
:0C1222000027102F202F302FF5CF08954B
:103700000E94E104F1F05523C2F04F31A8F4473193
:10371000C1F050F44195495E05C035952795179540
:1037200007954A95D1F70DC04751000F111F221F71
:10373000331F4A95D1F705C03FE7232F132F032FDF
:0C37400004C0662311F00E9424050895C7
:10366A00C9019A01AB01B801A1E21A2EAA1BBB1B20
:10367A00FD010DC0AA1FBB1FEE1FFF1FA217B30734
:10368A00E407F50720F0A20BB30BE40BF50B661F5A
:10369A00771F881F991F1A9469F76095709580950E
:0436AA00909508955A
:1036AE00049FD001159FF001249FE00DF11D069F90
:1036BE00E00DF11D349FF00D259FF00D169FF00DBE
:1036CE00079FF00D3327149FB00DE11DF31F059FCB
:0C36DE00B00DE11DF31F8D019F01089548
:1062F600122D232D1A5F2F4FE12FF22F00810360FD
:08630600E12FF22F008308953E
:10630E00BDE9B0936121BDE1B0936221BFEFB093BF
:10631E005F21BFEFB0936021BFEFB0936721BFEF56
:10632E00B0936821BFEFB0936921BFEFB0936A219C
:10633E00B0914206B460B0934206B0914106B86087
:10634E00B0934106B0E0B093A3080091A408086191
:0C635E000093A408B3E0B093A5080895D4
:1064B000CF93DF93CDB7DEB72197CDBFDEBF219657
:1064C000B0E0B883F1010081102F012F003089F076
:1064D0003F922F92202EEEDD2F903F9008810F5F8C
:1064E0000883E02FF0E0E20DF31D0081102F012F53
:0C64F000EDCFCDBFDEBFDF91CF9108954E
:0C60B400E0916121F091622109950895AE
:063B34000E945A300895C2
:103B3A00B091A108B5FD01C0FBCFB091A108B6FFB5
:103B4A0005C0B091A108B064B093A1082092A00862
:023B5A000895CC
:103A9A002092C308B091C208B7FD01C0FBCF0895B8
:003AAA001C
:103AAA002092C309B091C209B7FD01C0FBCF0895A6
:003ABA000C
:103A5600B091B108B5FD01C0FBCFB091B108B6FF7A
:103A660005C0B091B108B064B093B1082092B00817
:023A76000895B1
:103A7800B091A109B5FD01C0FBCFB091A109B6FF76
:103A880005C0B091A109B064B093A1092092A00922
:023A980008958F
:103AF000B091B109B5FD01C0FBCFB091B109B6FFDE
:103B000005C0B091B109B064B093B1092092B00979
:023B1000089516
:103B1200B091A10AB5FD01C0FBCFB091A10AB6FFD9
:103B220005C0B091A10AB064B093A10A2092A00A84
:023B32000895F4
:103ABA00B091A10BB5FD01C0FBCFB091A10BB6FF30
:103ACA0005C0B091A10BB064B093A10B2092A00BDA
:023ADA0008954D
:10645A00CF93DF93CDB7DEB72297CDBFDEBF2196AC
:10646A002F923F924F925F926F927F922F8138853F
:10647A00FE018E01075F1F4F0E5F1F4F019311939D
:10648A008E01380149845A8419010E94571E7F904F
:10649A006F905F904F903F902F902196CDBFDEBFB7
:0664AA00DF91CF9108957F
:103CAE00CF93DF93CDB7DEB7A397CDBFDEBF2196FF
:103CBE00B0E0B98FBA8FF20182010F5F1F4F28015A
:103CCE0004910A87002311F40C94342D0A850532D1
:103CDE00A1F07F926F925F924F923F922F923F92FE
:103CEE002F922A840F901F90F00109952F903F90EC
:103CFE004F905F906F907F90DECFB0E0BB87BC8718
:103D0E00B0E0BD87BE8732C00D851E8508600D8769
:103D1E001E8782010F5F1F4F28013DC00D851E8536
:103D2E0001600D871E8782010F5F1F4F280133C070
:103D3E000D851E8502600D871E8782010F5F1F4F46
:103D4E00280129C00D851E8518600D871E878201EA
:103D5E000F5F1F4F28011FC00D851E8504600D8744
:103D6E001E8782010F5F1F4F280115C0F2010491BB
:103D7E000D3251F2F2010491003281F2F2010491FE
:103D8E000B32B1F2F20104910332E1F2F20104912D
:103D9E00003311F301C0B7CF0D851E8501FF05C09D
:103DAE000D851E850E7F0D871E870D851E8503FFD3
:103DBE0005C00D851E850B7F0D871E87F2010491B0
:103DCE0010E03F922F92202E82DE2F903F90002304
:103DDE0011F1B0E0BB87BC870B851C854AE050E033
:103DEE000E945415F2012491020FB0E01B1F0053E4
:103DFE0010400B871C8782010F5F1F4F2801F801AF
:103E0E00049110E03F922F92202E61DE2F903F9072
:103E1E00002311F716C0F20104910A3291F4F30156
:103E2E0021913191F901019111910B871C87890123
:103E3E000E5F1F4FF3010193119382010F5F1F4F0E
:103E4E002801F20104910E3209F03EC082010F5F8B
:103E5E001F4F2801F80104910A3299F4F3012191C0
:103E6E003191F901019111910887198789010E5F2E
:103E7E001F4FF3010193119382010F5F1F4F280112
:103E8E0022C0B0E0B887B987F201049110E03F92EA
:103E9E002F92202E1CDE2F903F900023A1F008853C
:103EAE0019854AE050E00E945415F2012491020F48
:103EBE00B0E01B1F005310400887198782010F5F67
:103ECE001F4F2801E1CF08C0B0E0B887B9870D8534
:103EDE001E8510610D871E87F20182010F5F1F4F35
:103EEE00280104910A8713C1098D1A8D0C94362D61
:103EFE000D851E8500610D871E87EECF0D851E85F3
:103F0E0014600D871E8744C10D851E8500620D87C6
:103F1E001E870D851E8511600D871E8739C10D8583
:103F2E001E8512600D871E8733C10D851E850064A8
:103F3E000D871E872DC12CC10D851E8500620D8734
:103F4E001E870D851E8500680D871E8721C1F30112
:103F5E0001911191F801019111910D8B1E8BF301BD
:103F6E00019111910E5F1F4FF301019311930D8972
:103F7E001E89103009F4003021F4BCE0BD8BB0E294
:103F8E00BE8BB0E0BF8BB88F2D893E890F89188DFF
:103F9E00F801E20FF31F0081002339F00F89188D0D
:103FAE000F5F1F4F0F8B188FEFCF08851985B02F1E
:103FBE00B12B59F0288539850F89188D20173107B7
:103FCE0020F4088519850F8B188F2B853C850F895A
:103FDE00188D0217130748F40F88188C0B851C8553
:103FEE00001911090B871C8703C0B0E0BB87BC8783
:103FFE000D851E8503FD20C02B853C850B851C85FC
:10400E00015010400B871C87B22FB32BA9F07F9263
:10401E006F925F924F923F922F923F922F92B0E209
:10402E002B2E0F901F90F00109952F903F904F90DF
:10403E005F906F907F90E0CF2F89388D0F89188D0C
:10404E00015010400F8B188FB22FB32BE9F0ED8972
:10405E00FE8900817F926F925F924F923F922F92D4
:10406E003F922F92202E0F901F90F00109952F90C6
:10407E003F904F905F906F907F900D891E890F5FDC
:10408E001F4F0D8B1E8BD8CF0D851E8503FF20C0B5
:10409E002B853C850B851C85015010400B871C879A
:1040AE00B22FB32BA9F07F926F925F924F923F92F5
:1040BE002F923F922F92B0E22B2E0F901F90F00175
:1040CE0009952F903F904F905F906F907F90E0CF2B
:1040DE00F2CDF30101911191F80100810A87F301EC
:1040EE00019111910E5F1F4FF301019311938E01F8
:1040FE00065F1F4F0D8B1E8BB1E0BF8BB0E0B88FEC
:10410E0054CF0D851E85006C0D871E8741C00A8514
:10411E00003009F4E9CE0A850C3609F4E9CE0A8599
:10412E000C3409F4E5CE0A85063609F4E7CE0A8585
:10413E00053409F4E9CE0A85053609F4EACE0A8576
:10414E00073609F4ECCE0A850F3609F4EECE0A8551
:10415E00043609F4F0CE0A85093609F4ECCE0A8548
:10416E00003709F4E9CE0A85083509F4E5CE0A854B
:10417E00083709F4E6CE0A85033709F4E8CE0A8536
:10418E00033609F4A6CF0A85053709F4BACFAFCFA7
:10419E000D851E8500701770B02FB12B11F40C9485
:1041AE0061290D851E8514FF04C0B6E0B887B0E006
:1041BE00B987F30101911191F801019111912191AA
:1041CE0031910F87188B298B3A8BF3010191119145
:1041DE000C5F1F4FF301019311933F922F9240E01A
:1041EE0050E060E070E00F85188929893A890E94B5
:1041FE004C15002800E009F001E02F903F900023BD
:10420E00A9F00F85188929893A89B0E00B27B0E00B
:10421E001B27B0E02B27B0E83B270F87188B298B85
:10422E003A8B0D851E8503600D871E87B0E0BB8B14
:10423E00BC8B3F922F920F85188929893A8940E0CD
:10424E0050E060E070E00E94A810002800E009F045
:10425E0001E02F903F90002309F490C0AE014D5E17
:10426E005F4FFE013F960191119121913191B7E17E
:10427E003695279517950795BA95D1F710700E5765
:10428E001040FA01019311930B891C8901501040C3
:10429E000B8B1C8B43E050E00E9454150B8B1C8B38
:1042AE007F926F925F924F923F922F924AE050E030
:1042BE000E9499088B012F903F904F905F906F90C6
:1042CE007F900B8B1C8B20E030E00217130734F429
:1042DE000B891C89015010400B8B1C8B0B8800E046
:1042EE0000197F926F925F924F923F922F92202EE3
:1042FE000E942E192F903F904F905F906F907F905D
:10430E003F922F924F85588969897A89E7D90D8B0B
:10431E001E8B2F8B388F40E050E060E87FE30D89D5
:10432E001E892F89388D0E944C15002800E009F057
:10433E0001E02F903F90002339F00B891C8901502A
:10434E0010400B8B1C8B1AC03F922F9240E050E016
:10435E0060E271E40D891E892F89388D0E945617EF
:10436E00002800E009F001E02F903F90002331F08B
:10437E000B891C890F5F1F4F0B8B1C8B2B893C8964
:10438E0000E010E0021713071CF0B1E0BA8702C07C
:10439E000B890A870D851E8510FD15C00D851E859E
:1043AE0011FF10C02B893C890CEF1FEF201731072E
:1043BE0044F02B893C8908851985201731070CF4A8
:1043CE0001C001C0BFC308851985B02FB12B51F0B4
:1043DE000D851E8511FF06C00885198501501040F8
:1043EE00088719872885398508E010E0021713071A
:1043FE0018F4B8E0BA8702C008850A873F922F9258
:10440E000F85188929893A8940E050E060E070E014
:10441E000E94A810002800E009F001E02F903F90C4
:10442E00002309F4BDC07F926F925F924F923F922C
:10443E002F922B880E942E19A801B9010F85188979
:10444E0029893A89CDD80F87188B298B3A8B0A8404
:10445E0000E00019202E0E942E19A801B9010F8527
:10446E00188929893A89BCD82F903F904F905F9038
:10447E006F907F900F87188B298B3A8B3AD9ACD8D7
:10448E003F922F92A801B9010F85188929893A897F
:10449E000E944B1740E050E060E07FE30E94561709
:1044AE000028B0E009F0B1E00B2F2F903F900023D1
:1044BE0091F03F922F920F85188929893A8940E011
:1044CE0050E060E07FE30E945E172F903F900F87D1
:1044DE00188B298B3A8B0F85188929893A8909D926
:1044EE004A8550E04F5F5F4FBA01660F771F660F28
:1044FE00771F48EC53E0FB01E40FF51F45915591F2
:10450E00659175910417150726073707C0F03F927E
:10451E002F920F85188929893A894DEC5CEC6CEC49
:10452E007DE3DCD82F903F900F87188B298B3A8B29
:10453E000B891C890F5F1F4F0B8B1C8B31C00F8596
:10454E00188929893A89D5D84A85642F70E0660F73
:10455E00771F660F771F48EC53E0FB01E40FF51F42
:10456E0045915591659175910417150726073707E3
:10457E00B8F43F922F920F85188929893A8940E025
:10458E0050E060E271E4AAD82F903F900F87188B0D
:10459E00298B3A8B0B891C89015010400B8B1C8B7D
:1045AE000D851E8511FF71C00D851E8513FD6DC015
:1045BE00288539850AE010E00217130724F4BAE0C3
:1045CE00B887B0E0B9870F85188929893A8991D8BB
:1045DE000D8B1E8B2F8B388F0D891E892F89388D51
:1045EE00B02FB12BB22BB32B49F14AE050E060E073
:1045FE0070E00D891E892F89388D30D88D019F016D
:10460E00303029F4203019F4103009F40030B1F4B0
:10461E000885198501501040088719874AE050E037
:10462E0060E070E00D891E892F89388D17D88B01B7
:10463E009C010D8B1E8B2F8B388FCECF1885298525
:10464E000A851017B0E02B0704F508840A850019B7
:10465E007F926F925F924F923F922F92202E0E94E6
:10466E002E19A801B9010F85188929893A890E9446
:10467E00F71A2F903F904F905F906F907F900F871B
:10468E00188B298B3A8B08850A87288539858901ED
:10469E000B5F1F4F08010B851C85001911090B8735
:1046AE001C87B22FB32B29F40D851E8513FD01C077
:1046BE0006C00B851C85015010400B871C870D858D
:1046CE001E8503701070B02FB12B31F00B851C8539
:1046DE00015010400B871C870D851E8502FF5CC0A4
:1046EE000D851E8501FF1DC00D851E8500FF03C0B3
:1046FE00BDE2B88302C0BBE2B8837F926F925F9235
:10470E004F923F922F923F922F9228800F901F90A0
:10471E00F00109952F903F904F905F906F907F9092
:10472E0018C00D851E8500FF14C07F926F925F9298
:10473E004F923F922F923F922F92B0E22B2E0F90DC
:10474E001F90F00109952F903F904F905F906F90C2
:10475E007F902B853C8500E010E002171307DCF4F8
:10476E007F926F925F924F923F922F923F922F9233
:10477E00B0E32B2E0F901F90F00109952F903F90D4
:10478E004F905F906F907F900B851C85015010406D
:10479E000B871C87DECF5FC00D851E8503FD22C0F3
:1047AE002B853C8500E010E002171307DCF47F92A6
:1047BE006F925F924F923F922F923F922F92B0E262
:1047CE002B2E0F901F90F00109952F903F904F9038
:1047DE005F906F907F900B851C85015010400B876A
:1047EE001C87DECF0D851E8501FF1DC00D851E8524
:1047FE0000FF03C0BDE2B98302C0BBE2B9837F9262
:10480E006F925F924F923F922F923F922F922980FA
:10481E000F901F90F00109952F903F904F905F9051
:10482E006F907F9018C00D851E8500FF14C07F927B
:10483E006F925F924F923F922F923F922F92B0E2E1
:10484E002B2E0F901F90F00109952F903F904F90B7
:10485E005F906F907F900F85188929893A890E9401
:10486E00801B0D8B1E8B2F8B388F0A85202F30E0EF
:10487E00220F331F220F331F08EC13E0F901E00F54
:10488E00F11F45915591659175910D891E892F895D
:10489E00388D0E94351B8B019C01005D7F926F92BB
:1048AE005F924F923F922F923F922F92202E0F9017
:1048BE001F90F00109952F903F904F905F906F9051
:1048CE007F9008851985B02FB12B29F40D851E8593
:1048DE0013FD01C077C07F926F925F924F923F920D
:1048EE002F923F922F92BEE22B2E0F901F90F0012F
:1048FE0009952F903F904F905F906F907F900A8414
:10490E00B0E01B2E08851985001911090887198733
:10491E000A850023B9F10A8501500A87202F30E05D
:10492E00220F331F220F331F08EC13E0F901E00FA3
:10493E00F11F45915591659175910D891E892F89AC
:10494E00388D0E94351B8B019C014AE050E060E0DF
:10495E0070E00E94351B8D019F01005D7F926F926A
:10496E005F924F923F922F923F922F92202E0F9056
:10497E001F90F00109952F903F904F905F906F9090
:10498E007F90C6CF08851985B02FB12BD9F07F92B5
:10499E006F925F924F923F922F923F922F92B0E37F
:1049AE002B2E0F901F90F00109952F903F904F9056
:1049BE005F906F907F900885198501501040088791
:1049CE001987E0CF0D851E8505FF15C07F926F926A
:1049DE005F924F923F922F923F922F92B5E42B2EE1
:1049EE000F901F90F00109952F903F904F905F9080
:1049FE006F907F9014C07F926F925F924F923F9212
:104A0E002F923F922F92B5E62B2E0F901F90F00112
:104A1E0009952F903F904F905F906F907F902B89CC
:104A2E003C8900E010E020173107ECF40B881C885D
:104A3E0000E010E0001911090B8B1C8B7F926F9216
:104A4E005F924F923F922F923F922F92BDE22B2E6A
:104A5E000F901F90F00109952F903F904F905F900F
:104A6E006F907F9014C07F926F925F924F923F92A1
:104A7E002F923F922F92BBE22B2E0F901F90F001A0
:104A8E0009952F903F904F905F906F907F907F92FF
:104A9E006F925F924F923F922F924AE050E00B89B5
:104AAE001C890E9499088B012F903F90005D3F92C8
:104ABE002F923F922F92202E0F901F90F00109956A
:104ACE004AE050E00B891C890E9499088C012F90B6
:104ADE003F90005D3F922F923F922F92202E0F908B
:104AEE001F90F00109952F903F904F905F906F901F
:104AFE007F900D851E8503FF24C02B853C8500E02D
:104B0E0010E002171307ECF47F926F925F924F92B0
:104B1E003F922F923F922F92B0E22B2E0F901F902A
:104B2E00F00109952F903F904F905F906F907F907E
:104B3E000B851C85015010400B871C87B02FB12BA5
:104B4E0019F7B9C80D851E8511FFB3C02B893C8995
:104B5E0000E010E0201731075CF40B891C8901502E
:104B6E001040080108851985001911090887198751
:104B7E000F85188929893A890E94801B0D8B1E8BFF
:104B8E002F8B388FB1E0BA870A850A30F1F00A858B
:104B9E00202F30E0220F331F220F331F08EC13E0BB
:104BAE00F901E00FF11F45915591659175910D89B0
:104BBE001E892F89388D041715072607370708F425
:104BCE0004C00A850F5F0A87DFCF0A84B0E01B2E70
:104BDE000885198500191109088719870D891E89FD
:104BEE002F89388D0E94F31A3F922F92A801B90196
:104BFE000F85188929893A890E944B172F903F906B
:104C0E000F8F18A329A33AA37F926F925F924F92B0
:104C1E003F922F9228840E942E192F903F904F90F2
:104C2E005F906F907F904F8D58A169A17AA13F92AE
:104C3E002F920E94751B40E050E060E07FE30E94DF
:104C4E005E172F903F900E94801B0D8B1E8B2F8B1B
:104C5E00388F08851985B02FB12B59F14AE050E0F5
:104C6E0060E070E00D891E892F89388D0E94351BFA
:104C7E008D019F01303029F4203019F4103009F4E1
:104C8E000030B9F44AE050E060E070E00D891E8912
:104C9E002F89388D0E94351B8B019C010D8B1E8B2D
:104CAE002F8B388F0885198501501040088719877A
:104CBE00D0CF288539850CE010E0021713078CF051
:104CCE003F922F9228840E948B144F8558896989B0
:104CDE007A890E945E172F903F900F87188B298B31
:104CEE003A8B3F922F920F85188929893A8940E095
:104CFE0050E060E070E00E94A810002800E009F08B
:104D0E0001E02F903F90002309F46FC00F851889A2
:104D1E0029893A890E94801B303029F4203019F4F9
:104D2E00103009F4003009F060C02B893C8901E095
:104D3E0010E0021713070CF058C07F926F925F922B
:104D4E004F923F922F922B880E942E19A801B901E3
:104D5E000F85188929893A890E94F71A2F903F905A
:104D6E004F905F906F907F903F922F924FE550E75C
:104D7E0069E870E40E944C150028B0E009F0B1E03B
:104D8E000B2F2F903F90002339F00B891C8909506F
:104D9E0010400B8B1C8B06C00B891C8908501040D1
:104DAE000B8B1C8B7F926F925F924F923F922F9242
:104DBE002B880E942E19A801B9010F8518892989FF
:104DCE003A890E94F71A2F903F904F905F906F9004
:104DDE007F900E94801B0D8B1E8B2F8B388FB0E027
:104DEE00BF87B88BB98BBA8B23C00F8518892989D9
:104DFE003A890E94801B0D8B1E8B2F8B388F0D894D
:104E0E001E892F89388D0E94F31A3F922F92A80186
:104E1E00B9010F85188929893A890E944B172F905D
:104E2E003F900F87188B298B3A8BB0E0BB8BBC8BD6
:104E3E00B1E0BA870A850A30F1F00A85202F30E0FA
:104E4E00220F331F220F331F08EC13E0F901E00F7E
:104E5E00F11F45915591659175910D891E892F8987
:104E6E00388D041715072607370708F404C00A857E
:104E7E000F5F0A87DFCF488559850A85202F30E0DE
:104E8E00240F351F0B891C89020F131F08010B8578
:104E9E001C85001911090B871C870D851E8513FDB6
:104EAE0006C008851985B02FB12B09F406C00B85F5
:104EBE001C85015010400B871C870D851E850370C5
:104ECE001070B02FB12B31F00B851C8501501040A6
:104EDE000B871C870D851E8502FF5CC00D851E8508
:104EEE0001FF1DC00D851E8500FF03C0BDE2BA8304
:104EFE0002C0BBE2BA837F926F925F924F923F9253
:104F0E002F923F922F922A800F901F90F0010995B9
:104F1E002F903F904F905F906F907F9018C00D85AF
:104F2E001E8500FF14C07F926F925F924F923F9248
:104F3E002F923F922F92B0E22B2E0F901F90F001E6
:104F4E0009952F903F904F905F906F907F902B859B
:104F5E003C8500E010E002171307DCF47F926F929D
:104F6E005F924F923F922F923F922F92B0E32B2E51
:104F7E000F901F90F00109952F903F904F905F90EA
:104F8E006F907F900B851C85015010400B871C87FE
:104F9E00DECF5FC00D851E8503FD22C02B853C85AF
:104FAE0000E010E002171307DCF47F926F925F921D
:104FBE004F923F922F923F922F92B0E22B2E0F9054
:104FCE001F90F00109952F903F904F905F906F903A
:104FDE007F900B851C85015010400B871C87DECF00
:104FEE000D851E8501FF1DC00D851E8500FF03C0AA
:104FFE00BDE2BB8302C0BBE2BB837F926F925F9226
:10500E004F923F922F923F922F922B800F901F9094
:10501E00F00109952F903F904F905F906F907F9089
:10502E0018C00D851E8500FF14C07F926F925F928F
:10503E004F923F922F923F922F92B0E22B2E0F90D3
:10504E001F90F00109952F903F904F905F906F90B9
:10505E007F901A850A8501500A871123A9F10A85C6
:10506E00202F30E0220F331F220F331F08EC13E0E6
:10507E00F901E00FF11F45915591659175910D89DB
:10508E001E892F89388D0E94351B8B019C014AE0A9
:10509E0050E060E070E00E94351B8D019F01005DC5
:1050AE007F926F925F924F923F922F923F922F92EA
:1050BE00202E0F901F90F00109952F903F904F904A
:1050CE005F906F907F90C5CF2B893C8900E010E0F8
:1050DE0002171307DCF47F926F925F924F923F920A
:1050EE002F923F922F92B0E32B2E0F901F90F00134
:1050FE0009952F903F904F905F906F907F900B8906
:10510E001C89015010400B8B1C8BDECF28853985F6
:10511E0008E010E0021713071CF4B8E0BA8702C0CB
:10512E0008850A870A84B0E01B2E088519850019A8
:10513E001109088719870A85002329F40D851E8514
:10514E0013FD01C014C07F926F925F924F923F92F7
:10515E002F923F922F92BEE22B2E0F901F90F001B6
:10516E0009952F903F904F905F906F907F907F9218
:10517E006F925F924F923F922F922A840E942E1925
:10518E002F903F904F905F906F907F903F922F9215
:10519E004F85588969897A890E94751B2F903F9097
:1051AE000E94801B0D8B1E8B2F8B388F0A85002340
:1051BE00B9F10A8501500A87202F30E0220F331FE4
:1051CE00220F331F08EC13E0F901E00FF11F459198
:1051DE005591659175910D891E892F89388D0E9483
:1051EE00351B8B019C014AE050E060E070E00E94AC
:1051FE00351B8D019F01005D7F926F925F924F92E2
:10520E003F922F923F922F92202E0F901F90F001DF
:10521E0009952F903F904F905F906F907F90C6CFE3
:10522E0008851985B02FB12BD9F07F926F925F92BE
:10523E004F923F922F923F922F92B0E32B2E0F90D0
:10524E001F90F00109952F903F904F905F906F90B7
:10525E007F90088519850150104008871987E0CF87
:10526E000D851E8503FF24C02B853C8500E010E0D4
:10527E0002171307ECF47F926F925F924F923F9258
:10528E002F923F922F92B0E22B2E0F901F90F00193
:10529E0009952F903F904F905F906F907F900B8568
:1052AE001C85015010400B871C87B02FB12B19F7AE
:1052BE000C94621E0D851E85007C1070103009F452
:1052CE00003009F052C00D851E8504FF15C0F30194
:1052DE0001911191F80101911191219131910D8B53
:1052EE001E8B2F8B388FF301019111910C5F1F4F85
:1052FE00F3010193119316C0F30101911191F8017D
:10530E000191119120E017FD2FEF322F0D8B1E8B87
:10531E002F8B388FF301019111910E5F1F4FF30107
:10532E00019311934D895E896F89788D00E010E0AD
:10533E0020E030E04017510762077307ACF40D858B
:10534E001E8503600D871E870D881E8800E010E005
:10535E00001911090F88188C20E030E0200931095E
:10536E000D8B1E8B2F8B388F2CC00D851E8504FF49
:10537E0015C0F30101911191F80101911191219143
:10538E0031910D8B1E8B2F8B388FF3010191119163
:10539E000C5F1F4FF3010193119313C0F3010191A1
:1053AE001191F801019111910D8B1E8BB0E0BF8B05
:1053BE00B88FF301019111910E5F1F4FF30101930D
:1053CE00119308851985103009F4003091F40D8978
:1053DE001E892F89388D303029F4203019F4103081
:1053EE0009F4003031F4088519850F5F1F4F0887C7
:1053FE0019870D85007C802F6CC0B1E0BA870A85B5
:10540E000A30F1F00A85202F30E0220F331F220FD1
:10541E00331F08EC13E0F901E00FF11F4591559190
:10542E00659175910D891E892F89388D0417150781
:10543E002607370708F404C00A850F5F0A87DFCFF7
:10544E0053C0B1E0BA870A850830F1F00A85202FE3
:10545E0030E0220F331F220F331F0FE314E0F90148
:10546E00E00FF11F45915591659175910D891E893A
:10547E002F89388D041715072607370708F404C03F
:10548E000A850F5F0A87DFCF2FC0B1E0BA870A8582
:10549E000C30F1F00A85202F30E0220F331F220F3F
:1054AE00331F00E713E0F901E00FF11F459155910D
:1054BE00659175910D891E892F89388D04171507F1
:1054CE002607370708F404C00A850F5F0A87DFCF67
:1054DE000BC0803009F491CF803C09F48ECF803818
:1054EE0009F4AFCF803489F20A852885398510E01A
:1054FE00021713071CF408850A870BC01885298527
:10550E000A851017B0E02B0724F40A850887B0E04F
:10551E00B9870B851C85B02FB12B69F00D851E85C3
:10552E0003701070B02FB12B31F00B851C8501501C
:10553E0010400B871C872B853C8508851985021723
:10554E0013074CF4088419840B851C850019110966
:10555E000B871C8703C0B0E0BB87BC870D851E85FB
:10556E00047C1870183009F4003461F40B851C8526
:10557E00B02FB12B31F00B851C85015010400B87DD
:10558E001C8719C00D851E85007C1870183009F413
:10559E00003889F42B853C8502E010E002171307D2
:1055AE003CF40B851C85025010400B871C8703C0F2
:1055BE00B0E0BB87BC870D851E8502FF95C00D85AB
:1055CE001E8501FF1DC00D851E8500FF03C0BDE2B7
:1055DE00BC8302C0BBE2BC837F926F925F924F92FC
:1055EE003F922F923F922F922C800F901F90F0019E
:1055FE0009952F903F904F905F906F907F9051C084
:10560E000D851E8500FF15C07F926F925F924F929F
:10561E003F922F923F922F92B0E22B2E0F901F901F
:10562E00F00109952F903F904F905F906F907F9073
:10563E0038C00D851E85007C1870183009F40038AE
:10564E0081F57F926F925F924F923F922F923F928F
:10565E002F92B0E32B2E0F901F90F00109952F90F3
:10566E003F904F905F906F907F900D851E8505FF48
:10567E0003C0B8E5BD8302C0B8E7BD837F926F92C9
:10568E005F924F923F922F923F922F922D800F90CA
:10569E001F90F00109952F903F904F905F906F9063
:1056AE007F900B851C85B02FB12BE9F07F926F9206
:1056BE005F924F923F922F923F922F92B0E32B2EFA
:1056CE000F901F90F00109952F903F904F905F9093
:1056DE006F907F900B851C85015010400B871C87A7
:1056EE00B02FB12B19F7B4C00B851C85B02FB12B81
:1056FE0009F10D851E8503FD1DC07F926F925F928D
:10570E004F923F922F923F922F92B0E22B2E0F90FC
:10571E001F90F00109952F903F904F905F906F90E2
:10572E007F900B851C85015010400B871C87B02F76
:10573E00B12B19F70D851E8501FF1DC00D851E8528
:10574E0000FF03C0BDE2BE8302C0BBE2BE837F92F8
:10575E006F925F924F923F922F923F922F922E8096
:10576E000F901F90F00109952F903F904F905F90F2
:10577E006F907F9018C00D851E8500FF14C07F921C
:10578E006F925F924F923F922F923F922F92B0E282
:10579E002B2E0F901F90F00109952F903F904F9058
:1057AE005F906F907F900D851E85007C187018306D
:1057BE0009F40034A9F47F926F925F924F923F9258
:1057CE002F923F922F92B0E32B2E0F901F90F0014D
:1057DE0009952F903F904F905F906F907F9038C0BB
:1057EE000D851E85007C1870183009F4003881F57F
:1057FE007F926F925F924F923F922F923F922F9293
:10580E00B0E32B2E0F901F90F00109952F903F9033
:10581E004F905F906F907F900D851E8505FF03C0A2
:10582E00B8E5BF8302C0B8E7BF837F926F925F92E5
:10583E004F923F922F923F922F922F800F901F9058
:10584E00F00109952F903F904F905F906F907F9051
:10585E00288539850A8510E002171307ACF47F926C
:10586E006F925F924F923F922F923F922F92B0E3A0
:10587E002B2E0F901F90F00109952F903F904F9077
:10588E005F906F907F90E4CF2885398508851985C4
:10589E000150104008871987B22FB32B09F4B3C0FB
:1058AE000D85007C0F8F8FC0088519859801220FFA
:1058BE00331F220F331F08EC13E0F901E00FF11F25
:1058CE0045915591659175910D891E892F89388D58
:1058DE000E94351B8B019C014AE050E060E070E0B5
:1058EE000E94351B8D019F01005D0A8778C00D85D2
:1058FE001E8505FF26C0088519859801220F331FC6
:10590E00220F331F0FE314E0F901E00FF11F459151
:10591E005591659175910D891E892F89388D0E943B
:10592E00351B8B019C01A801B9014F70507060703E
:10593E00707003ED14E0F801E40FF51F04910A876F
:10594E0025C0088519859801220F331F220F331F9A
:10595E000FE314E0F901E00FF11F459155916591A8
:10596E0075910D891E892F89388D0E94351B8B01EB
:10597E009C01A801B9014F7050706070707002ECFC
:10598E0014E0F801E40FF51F04910A8728C008857A
:10599E0019859801220F331F220F331F00E713E0E2
:1059AE00F901E00FF11F45915591659175910D89A2
:1059BE001E892F89388D0E94351B8B019C01077023
:1059CE00005D0A870CC00F8D003009F46DCF003CCE
:1059DE0009F46ACF003809F48ACF0034C1F27F92FD
:1059EE006F925F924F923F922F923F922F922A8404
:1059FE000F901F90F00109952F903F904F905F9060
:105A0E006F907F9041CF0D851E8503FF24C02B859F
:105A1E003C8500E010E002171307ECF47F926F92C2
:105A2E005F924F923F922F923F922F92B0E22B2E87
:105A3E000F901F90F00109952F903F904F905F901F
:105A4E006F907F900B851C85015010400B871C8733
:105A5E00B02FB12B19F70C94621E098D1A8DA296D8
:0A5A6E00CDBFDEBFDF91CF91089598
:103ADC0009E3021528F0B0E32B1610F001E001C049
:043AEC0000E0089559
:10325C00CF93DF93CDB7DEB72497CDBFDEBF2196DA
:10326C00B0E02B160CF0DBC000E00219202E0E365D
:10327C000CF479C044E62F9250E047FD5FEF022D2D
:10328C0010E027FC1FEF0E949908062F2F9010E0EA
:10329C0007FD1FEF0E5E1F4F9801220F331F220FE9
:1032AC00331F0CE313E0F901E00FF11F05911591A9
:1032BC0025913591088319832A833B8344E62F9209
:1032CC0050E047FD5FEF022D10E027FC1FEF0E943E
:1032DC009908082F4AE010E007FD1FEF50E047FD6A
:1032EC005FEF0E949908062F10E007FD1FEF075FA4
:1032FC001F4F9801220F331F220F331F0CE313E0D3
:10330C00F901E00FF11F4591559165917591088177
:10331C0019812A813B81E3D12F90088319832A8359
:10332C003B834AE050E047FD5FEF022D10E027FCA5
:10333C001FEF0E949908082F202F30E007FD3FEF68
:10334C00220F331F220F331F0CE313E0F901E00FA0
:10335C00F11F4591559165917591088119812A81CB
:10336C003B81BDD134C10AE002150CF046C04AE0E5
:10337C002F9250E047FD5FEF022D10E027FC1FEF6E
:10338C000E949908062F2F9010E007FD1FEF075F92
:10339C001F4F9801220F331F220F331F0CE313E032
:1033AC00F901E00FF11F05911591259135910883D5
:1033BC0019832A833B834AE050E047FD5FEF022DDF
:1033CC0010E027FC1FEF0E949908082F202F30E0F7
:1033DC0007FD3FEF220F331F220F331F0CE313E0C7
:1033EC00F901E00FF11F4591559165917591088197
:1033FC0019812A813B8173D1EAC0222D30E027FC50
:10340C003FEF220F331F220F331F0CE313E0F901A0
:10341C00E00FF11F0591159125913591D8C0BEE6AD
:10342C002B160CF479C044E62F9250E047FD5FEF69
:10343C00022D10E027FC1FEF0E949908062F2F90F9
:10344C0010E007FD1FEF0E5E1F4F9801220F331F78
:10345C00220F331F08E013E0F901E00FF11F059173
:10346C00159125913591088319832A833B8344E672
:10347C002F9250E047FD5FEF022D10E027FC1FEF6D
:10348C000E949908082F4AE010E007FD1FEF50E05A
:10349C0047FD5FEF0E949908062F10E007FD1FEF14
:1034AC00075F1F4F9801220F331F220F331F08E0B5
:1034BC0013E0F901E00FF11F45915591659175915C
:1034CC00088119812A813B810AD12F9008831983A5
:1034DC002A833B834AE050E047FD5FEF022D10E06A
:1034EC0027FC1FEF0E949908082F202F30E007FDC2
:1034FC003FEF220F331F220F331F08E013E0F901B7
:10350C00E00FF11F459155916591759108811981D5
:10351C002A813B81E4D05BC00AE002150CF046C066
:10352C004AE02F9250E047FD5FEF022D10E027FCA0
:10353C001FEF0E949908062F2F9010E007FD1FEF38
:10354C00075F1F4F9801220F331F220F331F08E014
:10355C0013E0F901E00FF11F0591159125913591BB
:10356C00088319832A833B834AE050E047FD5FEFD1
:10357C00022D10E027FC1FEF0E949908082F202F26
:10358C0030E007FD3FEF220F331F220F331F08E0FF
:10359C0013E0F901E00FF11F45915591659175917B
:1035AC00088119812A813B819AD011C0222D30E0EB
:1035BC0027FC3FEF220F331F220F331F08E013E0CD
:1035CC00F901E00FF11F0591159125913591239685
:0A35DC00CDBFDEBFDF91CF9108954F
:10113200C801BA0197FB092E07260AD077FD04D011
:101142000CD006D000201AF4709561957F4F089557
:10115200F6F7909581959F4F0895AA1BBB1B51E10D
:1011620007C0AA1FBB1FA617B70710F0A61BB70B15
:10117200881F991F5A95A9F780959095BC01CD01BA
:04118200089508952F
:10291600CF93DF93CDB7DEB72497CDBFDEBF219629
:10292600BEE62B1608F45EC044E6022D0E94CA08D5
:1029360010E00E5E1F4F9801220F331F220F331F28
:102946000CE313E0F901E00FF11F059115912591B4
:1029560035912F9240E050E060E07FE3C3D62F90A0
:10296600088319832A833B8344E6022D0E94CA0802
:10297600092F4AE00E94CA0810E0075F1F4F98011E
:10298600220F331F220F331F0CE313E0F901E00F70
:10299600F11F4591559165917591088119812A819B
:1029A6003B812F929FD62F90088319832A833B83DE
:1029B6004AE0022D0E94CA08092F202F30E0220F7C
:1029C600331F220F331F0CE313E0F901E00FF11F51
:1029D6004591559165917591088119812A813B81AF
:1029E60081D651C00AE00215D0F54AE0022D0E94B8
:1029F600CA0810E0075F1F4F9801220F331F220FEE
:102A0600331F0CE313E0F901E00FF11F0591159157
:102A1600259135912F9240E050E060E07FE362D649
:102A26002F90088319832A833B834AE0022D0E9454
:102A3600CA08092F202F30E0220F331F220F331F21
:102A46000CE313E0F901E00FF11F459155916591F3
:102A56007591088119812A813B8144D614C0222DA3
:102A660030E0220F331F220F331F0CE313E0F9016E
:102A7600E00FF11F059115912591359140E050E049
:102A860060E07FE32FD62396CDBFDEBFDF91CF91E7
:022A96000895A1
:10119400992779E004C0991F941708F0941B001F45
:0811A4007A95C9F70095089542
:102AA8009801249F8001259F100D349F100D0895D3
:002AB8001E
:102A98000E94C3081CF40024039401C00024089574
:002AA8002E
:0E118600042E152E262E372E2DDE0023089562
:100DEA0071DC332332F0E0DD11F001E003C00027AB
:060DFA0001C00FEF089597
:0606CE0068946CDF089542
:1005AA00C1DF09F441C0E62ED52EC42EB32EA22EE9
:1005BA00912E802E002D112D222D332DB3DF09F41B
:1005CA003DC0842F952F8C199D09B9F072F490952E
:1005DA00809501964C2D5D2D883180F535952795AE
:1005EA00179507950197D1F708C08831E8F4B594B3
:1005FA00A794979487940197D1F766272EF0080D50
:10060A00191D2A1D3B1D09C0801A910AA20AB30AA4
:10061A00082D192D2A2D3B2D332312F410D260E810
:10062A00E0D101C090D116C0002D112D222D332DFD
:10063A00D6F7BAD1C1F340E83427F5CF082D192DE2
:10064A002A2D3B2D4C2D5D2D6E2D33235AF7F7D1D4
:06065A0060E8E8CF0895FE
:0E052E0049D221F0662309F088D298940895EE
:0E2150001AD819F00024039401C00024089549
:102EAC000E94C3081CF00024039401C00024089560
:002EBC0016
:102E9600042E152E262E372E0E946703002E112E85
:062EA600222E332E0895D8
:102EBC00042E152E262E372E0E94D608002E112EEB
:062ECC00222E332E0895B2
:0611AC00E894FDD908954E
:1064FC00CF93DF93CDB7DEB72197CDBFDEBF21960B
:10650C002F923F92B0E0B883B1E03B2EBFE12B2E2F
:10651C000E94ED1BB2E03B2EBFE12B2E0E94DA1C39
:10652C00B9E12B2E0E946E0A10E0101710F49EDABF
:10653C000883B1E03B2EBFE12B2E0E94DA1CB2E0A7
:10654C003B2EBFE12B2E0E94DA1C08813F902F902E
:0A655C00CDBFDEBFDF91CF9108959F
:105A7800CF93DF93CDB7DEB72D97CDBFDEBF21968D
:105A88002F923F924F925F926F927F928F92B0E0E7
:105A9800B887B0911921B160B0931921B09119213B
:105AA800BD7FB0931921B1E03B2EBFE12B2E0E94A0
:105AB800DA1CB2E03B2EBFE12B2E0E94DA1C30909C
:105AC80011204090122022240E94F71CB091440615
:105AD800BE7FB0934406BAE32B2EE0918121F0916A
:105AE800822109952224E0918121F0918221099552
:105AF800009311202224E0918121F09182210995BF
:105B0800009312202224E0918121F09182210995AD
:105B180000936F212224E0918121F091822109953F
:105B2800009370218E010A5F1F4F0B871C87222468
:105B3800E0918121F091822109951B852C85E12F27
:105B4800F22F00838E010A5F1F4F0F5F1F4F0B87D5
:105B58001C872224E0918121F091822109951B85DF
:105B68002C85E12FF22F0083B0914406B160B093E9
:105B7800440600916F211091702104501040009349
:105B88006F211093702120911120309112200DEA7D
:105B980019E102171307D8F00091112000FD17C072
:105BA8008E010A5F1F4FF8013196008107FD0FC073
:105BB80020916F21309170210EEE15E00217130726
:105BC80030F0FE013696008107FF01C002C001E0F7
:105BD800B0C18E010C5F1F4F0B871C8722240E94C7
:105BE8006E0A1B852C85E12FF22F00838E010C5F36
:105BF8001F4F0F5F1F4F0B871C87B1E02B2E0E9492
:105C08006E0A1B852C85E12FF22F00832C813D81A4
:105C180000916F2110917021020F131FB1E08B2E9C
:105C2800BFEA6B2EB9E17B2E28012C803D800E94B3
:105C380069178E010A5F1F4F0F5F1F4F0B871C8765
:105C4800BBEB2B2EB9E13B2E0E9417091B852C8537
:105C5800E12FF22F00838E010A5F1F4F0B871C87ED
:105C68000E94D0151B852C85E12FF22F00830E8111
:105C78001F81183009F4063089F4B7E06B2EB4E1BF
:105C88004B2EB0E25B2EBDEB2B2EB9E13B2E0E94D2
:105C98005C15003011F40E94EA1524C10E811F81A1
:105CA800183009F4003009F01BC1B4E06B2EBBE6D4
:105CB8004B2EB1E25B2EBDEC2B2EB9E13B2E0E94A0
:105CC8005C15002329F4B0911921B260B093192111
:105CD800B4E06B2EB0E04B2EB0E25B2EBDEC2B2E69
:105CE800B9E13B2E0E945C15002329F4B0911921DB
:105CF800B260B0931921B4E06B2EBDE74B2EB1E230
:105D08005B2EBDEC2B2EB9E13B2E0E945C150023C7
:105D180039F0B0911921B1FD03C0B2E0B887DFC0F6
:105D2800BDEB2B2EB9E13B2E0E941709007F0034F2
:105D380019F0B3E0B887D3C0BDEB2B2EB9E13B2EE9
:105D48000E9417090A83B0E0BB830A811B810F7088
:105D58001070000F111F000F111F0A831B83B3EC73
:105D68002B2EB9E13B2E0E9417090F7B003009F05A
:105D7800B6C0B4EC2B2EB9E13B2E0E9417090030B7
:105D880009F0ADC00A811B810354164E088319839C
:105D9800B6EC2B2EB9E13B2E0E941709102F0130CB
:105DA80009F071C0288039800E941709083009F06D
:105DB80069C0088119810F5F1F4F18010E941709D8
:105DC800003009F05FC04424288039800E943A09D5
:105DD8000E9412080E94D91655244424B7EC2B2E91
:105DE800B9E13B2E0E9404174A805B80BDEB2B2E45
:105DF800B9E13B2E0E941017B6E12B2E0E946E0AC5
:105E08000B87B7E12B2E0E946E0A1B85512E402E60
:105E1800B7EC2B2EB9E13B2E0E940417088119819B
:105E28000E5F1F4F5524442418010E9404170A804E
:105E38001B8000916F2110917021001911090E50DB
:105E480010402801288039800E941017B6E12B2EB7
:105E58000E946E0A0B87B7E12B2E0E946E0A1881EA
:105E68002981312F422F3E5F4F4F1B85512E402EE7
:105E7800232E342E0E94041720906F213090702119
:105E88000E94FD0B2CC0113141F4588069804A8072
:105E98002C803D800E94321822C0163001F50C81FA
:105EA8001D81005F1F4F18010E941709102F00273E
:105EB8000B871C870E94D0152B853C8510E0020FAC
:105EC800131F025F1F4F00936F211093702168808A
:105ED80079804A805B802C803D800E94AF1002C090
:105EE800B4E0B887B0E43B2EBEE12B2E0E94ED1B38
:105EF8002091112030911220215030400DEA19E1F3
:105F08000217130748F4BDEA3B2EB9E14B2EBCE05B
:105F18002B2E0E94F71C0CC000911120109112200A
:105F280001501040302E412EBCE02B2E0E94F71C51
:105F380008858F907F906F905F904F903F902F9043
:0C5F48002C96CDBFDEBFDF91CF910895F5
:102ED200CF93DF93CDB7DEB72597CDBFDEBF219667
:102EE200B0E0BC838201015010402801882069F0C3
:102EF2000DEA19E10415150540F40C810F5F0C83EE
:102F020082010D5A19410A831B830C81002321F08F
:102F12002DEA39E1890102C09201890120163106A8
:102F220009F58F927F926F925F924F923F922F920A
:102F32000E9417092F903F904F905F906F907F9063
:102F42007F926F925F924F923F922F92402E130187
:102F52000E943A092F903F904F905F906F907F9020
:102F62008F9060C08F927F926F925F924F923F924A
:102F72002F92432C322CB0E12B2E38D52F903F903C
:102F82004F905F906F907F908F900C81002329F07B
:102F9200BDEAB883B9E1B98302C0488259828F92EF
:102FA2007F926F925F924F923F922F923880498028
:102FB200B2E12B2E1BD52F903F904F905F906F90D8
:102FC2007F907F926F925F924F923F922F92362C18
:102FD200472CB4E12B2E0AD5B0E13B2EBFE12B2EBC
:102FE200E8D4B0E23B2EBFE12B2EF6D32F903F90D8
:102FF2004F905F906F907F908F908F927F926F92A1
:103002005F924F923F922F92BFE12B2E0E946E0A47
:103012002F903F904F905F906F907F908F9005FF21
:1030220001C0EBCF0C810023B1F082010219130918
:103032000A801B80001911090F5F1F4F060D171D13
:1030420038010A811B8101501040280122243324B7
:10305200B0E0BC835ACF2496CDBFDEBFDF91CF91C3
:023062000895CF
:101274002F923F924F92432C322CB2E02B2E0E949D
:10128400F71CB0914406BE7FB0934406BAE72B2EF8
:10129400E0918121F091822109954F90242CE091D5
:1012A4008121F09182210995B0914406B160B093F7
:0812B40044063F902F900895BD
:10122E002F923F924F92432C322C22240E94F71C75
:10123E00B0914406BE7FB0934406BAE32B2EE091E4
:10124E008121F091822109952224E0918121F09152
:10125E0082210995B0914406B160B09344064F9037
:06126E003F902F9008954F
:102BA0002F92B0914406BE7FB0934406BAE32B2E19
:102BB000E0918121F091822109952224E0918121E7
:102BC000F09182210995B0914406B160B09344061A
:042BD0002F900895A5
:102AB800CF93DF93CDB7DEB72497CDBFDEBF219686
:102AC8002F923F924F925F928E010A831B836F92DF
:102AD8005F924F923F922F9222240E946E0A1A818F
:102AE8002B81E12FF22F00838E010F5F1F4F0A8386
:102AF8001B83B1E02B2E0E946E0A2F903F901A8103
:102B08002B81E12FF22F0083432C322C22246BD708
:102B1800B0914406BE7FB0934406BAE32B2EE091F1
:102B28008121F091822109954F905F906F906620E6
:102B3800E9F06F925F924F923F922F922224E09198
:102B48008121F091822109952F903F904F905F90BD
:102B58006F90F2011081011709F008C082010F5F20
:102B68001F4F2801062D0150602EE1CFB091440679
:102B7800B160B09344066F9238804980222433D7DD
:102B88006F90062D5F904F903F902F902396CDBF6A
:082B9800DEBFDF91CF9108952B
:102BD400CF93DF93CDB7DEB72197CDBFDEBF21966C
:102BE4002F923F924F925F926F927F928F92B4ECAA
:102BF4002B2EB9E13B2E0E9417090883C5C0B4E00F
:102C04006B2EBDE74B2EB1E25B2EB5ED2B2EB9E159
:102C14003B2E50DF003009F048C0B2E04B2EB4EC3C
:102C24002B2EB9E13B2E0E943A090E9412088824F7
:102C3400B5ED6B2EB9E17B2EBFEC4B2EB9E15B2ECB
:102C4400BBEC2B2EB9E13B2E42D1B4E06B2EB0E0AD
:102C54007B2EBDE74B2EB1E25B2EBBEC2B2EB9E1F4
:102C64003B2E0E94B1068824BFEC6B2EB9E17B2E6B
:102C7400BBEC4B2EB9E15B2EB5EC2B2EB9E13B2E10
:102C840026D1B6E06B2EB0E07B2EBEE04B2EB1E237
:102C94005B2EB5EC2B2EB9E13B2E0E94B106BCE3B2
:102CA4002B2EB0E03B2E0E94FD0B75C0B6E06B2EC0
:102CB400BEE04B2EB1E25B2EBFEA2B2EB9E13B2ED8
:102CC400F9DE003009F05FC0B4E06B2E40900C21B7
:102CD40050900D21BBEC2B2EB9E13B2EEBDE0030E6
:102CE40009F051C00FE010E04091062050E0DADE18
:102CF4002AE131E2020F131F075F1F4FB6E06B2E6C
:102D0400B0E07B2EB5EC4B2EB9E15B2E18017AD9DD
:102D14000FE010E04091062050E0C4DE2AE131E2E9
:102D2400020F131F0B5F1F4FB4E06B2EB0E07B2E1E
:102D340040900C2150900D21180110D50FE010E0A7
:102D44004091062050E0AEDE2AE131E2F801E20FC4
:102D5400F31FB1E0B0830FE010E04091062050E093
:102D6400A1DE2AE131E2020F131FF801319600912E
:102D740008201091092020910A2030910B20019302
:102D840011932193319307C00881013009F437CF9F
:102D9400023009F48BCF8F907F906F905F904F90AB
:0E2DA4003F902F90CDBFDEBFDF91CF910895FD
:101024002F923F924F925F926F927F928F92882479
:10103400BFEA6B2EB9E17B2EBBEB4B2EB9E15B2EE5
:10104400B5EB2B2EB9E13B2E0E946917B6E06B2E4F
:10105400B0E07B2EBEE04B2EB1E25B2EB5EB2B2E27
:10106400B9E13B2E7CDE8F907F906F905F904F9024
:061074003F902F9008954B
:100D62002F923F927F926F925F924F92432C322C3E
:100D7200B2E02B2E0E94F71CB0914406BE7FB093C6
:100D82004406BAE72B2EE0918121F0918221099548
:100D92004F905F906F907F90B62DB729E9F0F201E6
:100DA20000817F926F925F924F923F922F92202EFC
:100DB200E0918121F091822109952F903F904F90EF
:100DC2005F906F907F9082010F5F1F4F2801830118
:100DD200015010403801E0CFB0914406B160B093A9
:080DE20044063F902F90089594
:1017FA00CF93DF93CDB7DEB72497CDBFDEBF219657
:10180A004F923F922F924424BEEA2B2EB9E13B2EEF
:10181A002CDD2F903F9081010255164E18013F9200
:10182A002F92302E412EB6E02B2E0E94F71CB0E8E4
:10183A003B2EBFE12B2E0E94ED1BB0E83B2EBFE1F1
:10184A002B2E0E94DA1C2F903F9000911821053010
:10185A0029F000911821073009F00AC03F922F920F
:10186A00BAE03B2EBCE12B2E0E94DA1C2F903F904F
:10187A003F922F92B8E03B2EBFE12B2E0E94ED1B28
:10188A002F903F9000911821053029F000911821DE
:10189A00073009F09DC0B0E0BA83BB833F922F9214
:1018AA00BCE12B2E16DE2F903F900A70002359F4CC
:1018BA000A811B810F5F1F4F0A831B83133009F4B0
:1018CA00083E08F4EBCF3F922F92BCE12B2E01DEAB
:1018DA002F903F9001FD07C00A811B81133009F444
:1018EA00083E08F474C03F922F92B8E03B2EBFE145
:1018FA002B2E0E94DA1C2F903F9081010C5F1F4F04
:10190A003F922F9218018EDC2F903F900983B0E00E
:10191A00B8830881003108F05AC03F922F92BCE187
:10192A002B2ED7DD2F903F9001FF4CC0B981B5FF18
:10193A0049C03F922F92B0E83B2EBFE12B2E0E9466
:10194A00ED1BB0E83B2EBFE12B2E0E94DA1CBAE059
:10195A003B2EBCE12B2E0E94DA1CB8E03B2EBFE1E5
:10196A002B2E0E94ED1B2F903F90B0E0BA83BB83D1
:10197A003F922F92BCE12B2EACDD2F903F900A7044
:10198A00002359F40A811B810F5F1F4F0A831B83AF
:10199A00133009F4083E08F4EBCF3F922F92B8E0D7
:1019AA003B2EBFE12B2E0E94DA1C2F903F90810123
:1019BA000C5F1F4F3F922F92180134DC2F903F90FB
:1019CA00098301C004C008810F5F0883A2CF0AC03F
:1019DA003F922F92BFE12B2E7CDD2F903F9003FF89
:1019EA0001C0F6CF3F922F92BDE12B2E72DD2F90D0
:1019FA003F900670002311F010E001C011E0012FA2
:0E1A0A004F902396CDBFDEBFDF91CF910895A0
:102008004F925F92BFEF5B1611F4BFEF4B1669F06A
:102018007F926F923F922F92342C452C22240E945B
:10202800F71C2F903F906F907F90B0914406BE7F31
:10203800B09344067F926F923F922F92BAE32B2E71
:10204800E0918121F091822109952F903F906F9026
:102058007F9093018301015010403801B22FB32BB8
:10206800C9F07F926F925F924F923F922F922224F3
:10207800E0918121F091822109952F903F904F9016
:102088005F906F907F90F101008381010F5F1F4F78
:102098001801DFCFB0914406B160B09344065F9059
:0420A8004F900895B8
:102DB2002F923F924F925F926F927F928F928824CE
:102DC200BDEC6B2EB9E17B2EBDEC4B2EB9E15B2E37
:102DD200B9EC2B2EB9E13B2E7BD0B4E06B2EB0E0E8
:102DE2007B2EBDE74B2EB1E25B2EB9EC2B2EB9E167
:102DF2003B2E0E94B1068F907F906F905F904F9014
:062E02003F902F9008959F
:102E08002F923F925F920E943A095F90252C0E9470
:082E1800A10B3F902F900895DB
:10174200B0914406BE7FB09344062F92BAE72B2E87
:10175200E0918121F091822109952F90E0918121E0
:10176200F09182210995B0914406B160B09344068C
:021772000895D8
:102E2000CF93DF93CDB7DEB72297CDBFDEBF21961C
:102E30002F923F924F925F928201020D131D01501B
:102E4000104008831983432C322CB0E12B2ECFD5B0
:102E500038804980B2E12B2ECAD5B0E33B2EBFE1CA
:102E60002B2EBBD45F924F923F922F92BFE12B2E1D
:102E70000E946E0A2F903F904F905F9005FF01C017
:102E8000F1CF5F904F903F902F902196CDBFDEBF46
:062E9000DF91CF910895CF
:10306400CF93DF93CDB7DEB76297CDBFDEBF219696
:103074002F923F924F925F926F927F928F929F9284
:103084008E01085F1F4F0F5F1F4F088B198B6F92C4
:103094005F924F923F922F92252C362C0E94170953
:1030A40018892989E12FF22F00838E01085F1F4FB1
:1030B400088B198B73DD18892989E12FF22F00837E
:1030C4008E010A5F1F4F0F5F1F4F088B198B66DD40
:1030D40018892989E12FF22F00838E010A5F1F4F7F
:1030E400088B198B5BDD2F903F904F905F906F9012
:1030F40018892989E12FF22F00830E811F81103056
:1031040009F4003009F49AC08E01065F1F4F0F5F67
:103114001F4F088B198B6F925F924F923F922F92A1
:103124003DDD18892989E12FF22F00838E01065F86
:103134001F4F088B198B32DD18892989E12FF22F53
:1031440000838E01045F1F4FB4E06B2EB0E07B2E32
:10315400B9EC4B2EB9E15B2E18010E9404102F909C
:103164003F904F905F906F90052D162D085F1F4F75
:103174004F923F922F92302E412EB2E02B2E35D417
:103184002F903F904F908101025F1F4F040DB0E0DC
:103194001B1F085F1F4F18010E94561008851985D0
:1031A400103009F4053319F40E947B0947C00E81DD
:1031B4001F81103009F4043419F40E94860A3EC0B9
:1031C4002A853B85285030408E01045F1F4F4901FA
:1031D4006E807F80488459841801B1E2BF93B9E1BD
:1031E400BF930E94950BADB7BEB71296ADBFBEBFDD
:1031F4000A871B87B02FB12B09F18E01B6E06B2E25
:10320400B0E07B2EB5EB4B2EB9E15B2E18010E948A
:1032140004109E01245F3F4F8E01888499846E8040
:103224007F80290118010A851B851F930F930E9433
:10323400A103ADB7BEB71296ADBFBEBF9F908F902E
:103244007F906F905F904F903F902F906196CDBF8D
:08325400DEBFDF91CF91089568
:1020AC002F923F924F920DEA19E10215130520F47D
:1020BC0081010E5A19411801432C322C22240E9402
:0A20CC00F71C4F903F902F900895ED
:1012F600CF93DF93CDB7DEB72C97CDBFDEBF219658
:101306000E94D0150E94D0158E010F5F1F4F0A87CD
:101316001B870E94D0151A852B85E12FF22F00839B
:101326008E010A871B870E94D0151A852B85E12F0F
:10133600F22F00838E010E5F1F4F0F5F1F4F0A872C
:101346001B870E94D0151A852B85E12FF22F00836B
:101356008E010E5F1F4F0A871B870E94D0151A85C4
:101366002B85E12FF22F00838E010C5F1F4F0F5F3D
:101376001F4F0A871B870E94D0151A852B85E12FE0
:10138600F22F00838E010C5F1F4F0A871B870E9476
:10139600D0151A852B85E12FF22F00830E94D015D8
:1013A6000E94D0150E94D0150E94D0152A813B813B
:1013B6000A811B81015010400A831B83B22FB32B75
:1013C60071F00E94D015002309F0FBCF0E94D015C2
:1013D6000E94D0150E94D0150E94D015E7CF2C810F
:1013E6003D810C811D81015010400C831D83B22F5D
:1013F600B32B09F46AC00E94D0150E94D0158E0145
:10140600085F1F4F0F5F1F4F0A871B870E94D0156B
:101416001A852B85E12FF22F00838E01085F1F4F5F
:101426000A871B870E94D0151A852B85E12FF22F7C
:1014360000830E94D0150E94D0150E94D0150E94EC
:10144600D0150E94D0150E94D0158E010A5F1F4F3D
:101456000F5F1F4F0A871B870E94D0151A852B85A1
:10146600E12FF22F00838E010A5F1F4F0A871B8729
:101476000E94D0151A852B85E12FF22F008308854F
:101486001985103009F4013089F40E94D0150093B3
:101496008C220E94D01500938D220E94D0150093B5
:1014A6008E220E94D01500938F220FC02E813F817D
:1014B6000E811F81015010400E831F83B22FB32B64
:1014C60019F00E94D015F2CF8ACF2B96CDBFDEBF82
:0614D600DF91CF910895A3
:10150C002F923F924F925F926F927F92DFC0B4E026
:10151C005B2EB0E06B2E4424BDE72B2EB1E23B2EAC
:10152C00FCD53324B1E02B2E65DC00910820109102
:10153C00092020910A2030910B2000934B2110930D
:10154C004C2120934D2130934E21B3E0B0930721D1
:10155C00D6C000914B2110914C2120914D213091FE
:10156C004E21A801B9014B5F5F4F6F4F7F4F009128
:10157C0008201091092020910A2030910B2040174F
:10158C0051076207730718F4B2E0B09307215FDAD2
:10159C00023021F4B4E0B093072101C0B0C0309008
:1015AC000720B3E02B2E26DC009108201091092097
:1015BC0020910A2030910B2000934B2110934C2149
:1015CC0020934D2130934E21B5E0B093072197C065
:1015DC003EDA102F063021F4B4E0B093072135C069
:1015EC00153099F5009108201091092020910A20BE
:1015FC0030910B2000934B2110934C2120934D21C3
:10160C0030934E21B6E0B0930721B4E06B2EB0E0DE
:10161C007B2EB7E44B2EB1E25B2EBDE72B2EB1E255
:10162C003B2E0E94B01BBFE46B2EB1E27B2EBBE5C0
:10163C004B2EB1E25B2EB7E52B2EB1E23B2E0E9476
:10164C001F30B0E0B09307205AC059C000914B2115
:10165C0010914C2120914D2130914E21A801B901BE
:10166C004F5F5F4F6F4F7F4F009108201091092003
:10167C0020910A2030910B200417150726073707F5
:10168C0020F100915321109154212091552130913A
:10169C0056210150104020403040009353211093AC
:1016AC0054212093552130935621009108201091FC
:1016BC00092020910A2030910B2000934B2110938C
:1016CC004C2120934D2130934E2119C000910721BC
:1016DC00023009F41CCF00910721033009F439CFF3
:1016EC0000910721043009F45ACF009107210530ED
:1016FC0009F46ECF00910721063009F4A7CF7F9033
:0C170C006F905F904F903F902F900895D9
:100E0000CF93DF93CDB7DEB72397CDBFDEBF21965B
:100E10004F925F926F927F928F929F92B9EFB983B8
:100E2000B0E0BA833F922F92B9ED3B2EB9E14B2E41
:100E3000B2E02B2E0E94F71CBCE04B2EB0E05B2EE4
:100E4000B3E02B2EB5E03B2E45DC2F903F90B3E076
:100E50002B1681F4332071F03F922F92B4E04B2E89
:100E6000B0E05B2EB7E42B2EB1E23B2EF9DB2F90E6
:100E70003F900FC0B0E0B8830881043050F43F9237
:100E80002F9222245ED42F903F9008810F5F088319
:100E9000F3CFB0E0B88308810C3050F43F922F922A
:100EA00022244FD42F903F9008810F5F0883F3CF07
:100EB0003F922F92B6E04B2EB0E05B2EBEE02B2E81
:100EC000B1E23B2ECDDB2F903F90B0E0B88308819C
:100ED0000A3C50F43F922F92222433D42F903F901B
:100EE00008810F5F0883F3CF3F922F92B6E04B2E1D
:100EF000B0E05B2EB2E22B2EB5E03B2EEBDB2F9069
:100F00002F921FD42F903F90B3E02B16D9F43320AB
:100F1000C9F43F922F92B6E32B2E13D4B4E02B2EBC
:100F200010D4B4E04B2EB0E05B2EB4E12B2EB1E236
:100F30003B2E96DB2F903F9009811A810A5F1F4F4D
:100F400009831A833F922F92B5E04B2EB0E05B2EBF
:100F5000B8E22B2EB5E03B2EBDDB2F903F90B3E0E7
:100F60002B1649F5332039F53F922F92B2E32B2E01
:100F7000E8D3B4E02B2EE5D32F903F90B0E0B883B8
:100F80000881043090F417E421E20881E02FF0E0BA
:100F9000E10FF21F00813F922F92202ED2D32F908B
:100FA0003F9008810F5F0883EBCF09811A810A5FA8
:100FB0001F4F09831A833F922F92BFEF2B2EC1D36D
:100FC000B3E48B2EB0E09B2EB4E46B2EB0E07B2E0E
:100FD000B0E04B2EB0E25B2EB0E02B2EB0E23B2E09
:100FE00009811A811F930F93ACDBADB7BEB7129680
:100FF000ADBFBEBF2F903F909F908F907F906F901E
:101000005F904F902296CDBFDEBFDF91CF910895C4
:00101000E0
:1006D400B0914406BE7FB09344065F924F923F921E
:1006E4002F92BAE72B2EE0918121F0918221099576
:1006F4002F903F904F905F909201820101501040E3
:100704002801B22FB32BA9F0F10104915F924F920B
:100714003F922F92202EE0918121F0918221099520
:100724002F903F904F905F9081010F5F1F4F1801F2
:0E073400E3CFB0914406B160B093440608953F
:10066000B0914406BE7FB09344065F924F923F9292
:100670002F92BAE72B2EE0918121F09182210995EA
:100680002F903F904F905F90920182010150104057
:100690002801B22FB32BA9F0F10100815F924F9294
:1006A0003F922F92202EE0918121F0918221099595
:1006B0002F903F904F905F9081010F5F1F4F180167
:0E06C000E3CFB0914406B160B09344060895B4
:10074200CF93DF93CDB7DEB72597CDBFDEBF21961E
:100752002F923F924F925F926F927F928F929F92CF
:100762000A851B850A871B879F928F927F926F92C1
:100772005F924F92B6E06B2EB0E07B2E2101BFEA72
:100782002B2EB9E13B2EECD2B6E04B2EB0E05B2E25
:10079200BEE02B2EB1E23B2E62DFB0E02B2EB8E0A2
:1007A2003B2ECBDE0A851B85045E1F4F09831A830D
:1007B200B0E02B2EB5E43B2EC0DE29803A80BDDEB0
:1007C2002090652130906621B8DE0091652110915C
:1007D20066210F5F1F4F009365211093662122242B
:1007E2003324ABDEB1E12B2EB0E83B2EA6DE222471
:1007F2003324A3DEB4E04B2EB0E05B2EBDE72B2EFC
:10080200B1E23B2E2CDF4F905F901201B4E04B2EF1
:10081200B0E05B2E24DF6F907F900A851B85085F16
:100822001F4F09831A83130188DE8F909F90140152
:1008320084DE29803A8081DE222433247EDEB4E104
:100842004B2EB0E05B2EBDEB2B2EB9E13B2E0E946E
:100852001017B6E12B2E41D60C83B7E12B2E3DD6D5
:100862001C81512E402EB7EC2B2EB9E13B2E0E945B
:1008720004170981017008830A851B850752164EE9
:1008820044241801F6D40A851B8598012752364E56
:10089200088110E0020F131F88243801B1ED4B2E9E
:1008A200B9E15B2EB9EC2B2EB9E13B2E0E94691700
:1008B2000A851B8598012752364E088110E0020FE7
:1008C200131F085F1F4FB1E15B2E442418010E94E1
:1008D20004178E010F5F1F4FF80131960081202E01
:1008E2002FD729802DD709811A819801245F3F4F84
:1008F200088110E0020F131F2801B1ED2B2EB9E180
:100902003B2E0E941017B6E12B2EE7D50C83B7E1E0
:100912002B2EE3D51C81512E402EB7ED2B2EB9E1A3
:100922003B2E0E9404170A851B85065D1F4F180186
:1009320063D79F908F907F906F905F904F903F9082
:0E0942002F902496CDBFDEBFDF91CF91089598
:10053C00CF93DF93CDB7DEB72297CDBFDEBF219629
:10054C002F923F9228823982B0914406BE7FB0939D
:10055C004406BAE72B2EE0918121F0918221099576
:10056C008E01F80131960081202EE0918121F091CD
:10057C0082210995FE010081202EE0918121F091CC
:10058C0082210995B0914406B160B09344063F9026
:0E059C002F902196CDBFDEBFDF91CF91089545
:100A5A00CF93DF93CDB7DEB72697CDBFDEBF219602
:100A6A002F923F924F925F926F927F92B0E0B8833B
:100A7A00BCE3B0935321B0E0B0935421B093552115
:100A8A00B09356210E94D015023009F031C120E0FE
:100A9A00122F1F3048F41F930E94D0151F91012F67
:100AAA000F5F202F122FF5CFB4E06B2EB0E07B2E14
:100ABA00BFEF4B2E5B2EB7E42B2EB1E23B2E0E94EA
:100ACA00041020E0122F183048F41F930E94D0150A
:100ADA001F91012F0F5F202F122FF5CF40E0342FE7
:100AEA00363098F43F930E94D0153F911EE021E2E0
:100AFA00E32FF0E0E10FF21F1081011709F01FC187
:100B0A00032F0F5F402F342FEBCF20E0122F1E3C14
:100B1A0048F41F930E94D0151F91012F0F5F202FB9
:100B2A00122FF5CFB0E0B9830E94D015C7C00E943A
:100B3A00D015013021F40E94D015088301C0FFC0EE
:100B4A00D3C00E94D015043071F4B4E06B2EB0E02B
:100B5A007B2EBFEF4B2E5B2EB7E52B2EB1E23B2E41
:100B6A000E94041001C0EBC0BFC00E94D015102F14
:100B7A00043080F01F93B4E06B2EB0E07B2EBFEF01
:100B8A004B2E5B2EBBE52B2EB1E23B2E0E940410AE
:100B9A001F9101C0D4C0012F0450202F122F022F01
:100BAA000150202F112329F02F930E94D0152F9145
:100BBA00F5CF9AC00E94D015102F043080F01F93F1
:100BCA00B4E06B2EB0E07B2EBFEF4B2E5B2EBFE462
:100BDA002B2EB1E23B2E0E9404101F9101C0AFC020
:100BEA00012F0450202F122F022F0150202F1123E2
:100BFA0029F02F930E94D0152F91F5CF75C00E942E
:100C0A00D015043071F48E010E5F1F4FB4E06B2EC5
:100C1A00B0E07B2EBFEF4B2E5B2E18010E94041012
:100C2A0001C08DC061C0B1E0B9835EC00E94D01519
:100C3A00043099F5B4E06B2EB0E07B2EBFEF4B2E5B
:100C4A005B2EB3E52B2EB1E23B2E0E94041040919D
:100C5A00532150915421609155217091562108E0F9
:100C6A0017E020E030E00417150726073707A0F43D
:100C7A0000915321109154212091552130915621F0
:100C8A0008501740204030400093532110935421BC
:100C9A00209355213093562101C051C025C00E948E
:100CAA00D015202F122F022F0150202F112329F0A7
:100CBA002F930E94D0152F91F5CF16C0053309F452
:100CCA0036CF013009F43DCF033009F44ECF063058
:100CDA0009F470CF063309F492CF0F3F09F4A3CF7A
:100CEA00033309F4A3CFDBCF0981002309F41CCF16
:100CFA000881023079F48E010E5F1F4FB4E06B2E2B
:100D0A00B0E07B2E2801B4E12B2EB1E23B2E0E94EB
:100D1A00B01B13C08E010E5F1F4FB4E06B2EB0E004
:100D2A007B2E2801B4E12B2EB1E23B2E16DE1030C9
:100D3A0009F4003011F0B0E0B883088101C000E086
:100D4A007F906F905F904F903F902F902596CDBFE8
:080D5A00DEBFDF91CF91089587
:1009640093018301015010403801303009F42030E4
:10097400D9F0F1011081F2010081101761F0F10149
:100984001081F2010081002EB0E01B2E012F10E037
:10099400001911090BC081010F5F1F4F180182015B
:0E09A4000F5F1F4F2801DCCF00E010E0089528
:10172A00CF93DF93CDB7DEB726960881198100E003
:08173A0010E0DF91CF9108954A
:10215E00CF93DF93CDB7DEB7A697CDBFDEBF219667
:10216E008F929F928E01075F1F4F0F5F1F4F0CA321
:10217E001DA37F926F925F924F923F922F92130107
:10218E004FD81CA12DA1E12FF22F00838E01075FE6
:10219E001F4F0CA31DA3FDD41CA12DA1E12FF22FC7
:1021AE0000838E01095F1F4F0F5F1F4F0CA31DA3EE
:1021BE00F0D41CA12DA1E12FF22F00838E01095F17
:1021CE001F4F0CA31DA3E5D42F903F904F905F900F
:1021DE006F907F901CA12DA1E12FF22F0083B0E014
:1021EE00BF87B0E0BC8BB1E0BD8BB0E0BA8BBB8BD0
:1021FE008301045F1F4F7F926F925F924F923F92C7
:10220E002F9218010DD80695069510E00C7F0D87BC
:10221E001E878E01025E1F4FB4E06B2EB0E07B2E48
:10222E00B9EC4B2EB9E15B2E1801E7DE2F903F90F3
:10223E004F905F906F907F908301035F1F4F7F924F
:10224E006F925F924F923F922F9218010E94170940
:10225E002F903F904F905F906F907F900F730B87F2
:10226E00B0E0BC8700916F21109170210E5010408C
:10227E00041915090D841E8400191109088B198B78
:10228E0083010E5F1F4F7F926F925F924F923F922C
:10229E002F9218010E9417092F903F904F905F9038
:1022AE006F907F907F926F925F924F923F922F929C
:1022BE00402E13010E943A092F903F904F905F904D
:1022CE006F907F9083010D5F1F4F7F926F925F9291
:1022DE004F923F922F9218010E941709202E2ADA50
:1022EE0029843A840E949E022F903F904F905F90D7
:1022FE006F907F9083010C5F1F4F7F926F925F9262
:10230E004F923F922F9218010E941709098F41D4C4
:10231E00088F3FD40F8B3DD40E8B3BD40D8F39D409
:10232E000C8F37D40B8F35D42F903F904F905F90FA
:10233E006F907F900A8F0B851C85103009F4023048
:10234E00C9F50E891F89288D398D0F5F1F4F2F4FAD
:10235E003F4F0A8F1B8F2C8F3D8FB2E1BB87B0E0B2
:10236E00BC877F926F925F924F923F922F92BCE00A
:10237E002B2EADD80E8BBDE02B2EA9D80F8B222481
:10238E00A6D8088FB1E02B2EA2D82F903F904F9059
:10239E005F906F907F90098F0F850F5F0F87B8E169
:1023AE00BD87B0E0BE87B0E0BA8BBB8BB0E0B09318
:1023BE0013206BC00B851C85103009F4083179F59C
:1023CE000E891F89288D398D088319832A833B83B3
:1023DE000A8D1B8D2C8D3D8D0E8B1F8B288F398F6B
:1023EE00488159816A817B810889198920E0322FC1
:1023FE00040F151F261F371F0A8F1B8F2C8F3D8F23
:10240E00B0E1BB87B0E0BC870F850F5F0F87B4E1EB
:10241E00BD87B0E0BE870C890F5F0C8B36C00B8575
:10242E001C85103009F4013181F54E895F89688D64
:10243E00798D0A8D1B8D2C8D3D8D0E8B1F8B288FCC
:10244E00398F8A019B010F5F1F4F2F4F3F4F0A8F0E
:10245E001B8F2C8F3D8FB0E1BB87B0E0BC870F8503
:10246E000F5F0F87B4E1BD87B0E0BE87B0E0BA8BD7
:10247E00BB8B00911C20002341F4009113200F5FB1
:10248E0000931320B0E0B0931C200F85002309F4B5
:10249E0033C283010C5F1F4F7F926F925F924F92F8
:1024AE003F922F92588C498C1801A7D42F8842D96D
:1024BE002E8840D92D8C3ED92C8C3CD92B8C3AD9D8
:1024CE002A8C38D92F903F904F905F906F907F90CD
:1024DE008301045F1F4F7F926F925F924F923F92E4
:1024EE002F9218010E9417092F903F904F905F90E6
:1024FE006F907F90102F1F700D85000F000F212FF2
:10250E00202B8301045F1F4F7F926F925F924F9239
:10251E003F922F92422E18010E943A092F903F901F
:10252E004F905F906F907F908301035F1F4F7F925C
:10253E006F925F924F923F922F9218010E9417094D
:10254E002F903F904F905F906F907F90102F107C48
:10255E000B85212F202B8301035F1F4F7F926F92DC
:10256E005F924F923F922F92422E18010E943A098B
:10257E002F903F904F905F906F907F900B851C85B2
:10258E00103009F4023181F58301025F1F4F7F92F3
:10259E006F925F924F923F922F92BEEE5B2EB5E0FE
:1025AE004B2E18012AD42F903F904F905F906F9032
:1025BE007F9083010C5E1F4F7F926F925F924F92BE
:1025CE003F922F92B4E05B2EB2E04B2E180115D441
:1025DE00B5E02B2EAFD8B8E72B2EACD82F903F906E
:1025EE004F905F906F907F900A891B899201200F08
:1025FE00311F0D851E85020F131F088B198B0D8938
:10260E00002379F07F926F925F924F923F922F92BA
:10261E000E941208C7D32F903F904F905F906F90FB
:10262E007F908E01005F1F4FF801319600817F92DF
:10263E006F925F924F923F922F925888402EBFEB2F
:10264E002B2EB9E13B2ED9D355244424B7EC2B2E97
:10265E00B9E13B2ED2D32F903F904F905F905F9277
:10266E004F923F922F92BDEB2B2EB9E13B2ED1D341
